{
  "contractName": "RootChain",
  "abi": [
    {
      "constant": true,
      "inputs": [],
      "name": "COST_URB_PREPARE",
      "outputs": [
        {
          "name": "",
          "type": "uint256"
        }
      ],
      "payable": false,
      "stateMutability": "view",
      "type": "function"
    },
    {
      "constant": true,
      "inputs": [],
      "name": "CP_COMPUTATION",
      "outputs": [
        {
          "name": "",
          "type": "uint256"
        }
      ],
      "payable": false,
      "stateMutability": "view",
      "type": "function"
    },
    {
      "constant": true,
      "inputs": [],
      "name": "lastAppliedForkNumber",
      "outputs": [
        {
          "name": "",
          "type": "uint256"
        }
      ],
      "payable": false,
      "stateMutability": "view",
      "type": "function"
    },
    {
      "constant": true,
      "inputs": [],
      "name": "currentFork",
      "outputs": [
        {
          "name": "",
          "type": "uint256"
        }
      ],
      "payable": false,
      "stateMutability": "view",
      "type": "function"
    },
    {
      "constant": true,
      "inputs": [],
      "name": "COST_URB",
      "outputs": [
        {
          "name": "",
          "type": "uint256"
        }
      ],
      "payable": false,
      "stateMutability": "view",
      "type": "function"
    },
    {
      "constant": true,
      "inputs": [],
      "name": "lastAppliedERU",
      "outputs": [
        {
          "name": "",
          "type": "uint256"
        }
      ],
      "payable": false,
      "stateMutability": "view",
      "type": "function"
    },
    {
      "constant": true,
      "inputs": [],
      "name": "numEnterForORB",
      "outputs": [
        {
          "name": "",
          "type": "uint256"
        }
      ],
      "payable": false,
      "stateMutability": "view",
      "type": "function"
    },
    {
      "constant": true,
      "inputs": [
        {
          "name": "",
          "type": "uint256"
        }
      ],
      "name": "forks",
      "outputs": [
        {
          "name": "forkedBlock",
          "type": "uint64"
        },
        {
          "name": "firstEpoch",
          "type": "uint64"
        },
        {
          "name": "lastEpoch",
          "type": "uint64"
        },
        {
          "name": "firstBlock",
          "type": "uint64"
        },
        {
          "name": "lastBlock",
          "type": "uint64"
        },
        {
          "name": "lastFinalizedBlock",
          "type": "uint64"
        },
        {
          "name": "timestamp",
          "type": "uint64"
        },
        {
          "name": "firstEnterEpoch",
          "type": "uint64"
        },
        {
          "name": "lastEnterEpoch",
          "type": "uint64"
        },
        {
          "name": "nextBlockToRebase",
          "type": "uint64"
        },
        {
          "name": "rebased",
          "type": "bool"
        }
      ],
      "payable": false,
      "stateMutability": "view",
      "type": "function"
    },
    {
      "constant": true,
      "inputs": [],
      "name": "operator",
      "outputs": [
        {
          "name": "",
          "type": "address"
        }
      ],
      "payable": false,
      "stateMutability": "view",
      "type": "function"
    },
    {
      "constant": true,
      "inputs": [],
      "name": "lastAppliedERO",
      "outputs": [
        {
          "name": "",
          "type": "uint256"
        }
      ],
      "payable": false,
      "stateMutability": "view",
      "type": "function"
    },
    {
      "constant": true,
      "inputs": [
        {
          "name": "",
          "type": "uint256"
        }
      ],
      "name": "firstFilledORENumber",
      "outputs": [
        {
          "name": "",
          "type": "uint256"
        }
      ],
      "payable": false,
      "stateMutability": "view",
      "type": "function"
    },
    {
      "constant": true,
      "inputs": [],
      "name": "development",
      "outputs": [
        {
          "name": "",
          "type": "bool"
        }
      ],
      "payable": false,
      "stateMutability": "view",
      "type": "function"
    },
    {
      "constant": true,
      "inputs": [],
      "name": "CP_EXIT",
      "outputs": [
        {
          "name": "",
          "type": "uint256"
        }
      ],
      "payable": false,
      "stateMutability": "view",
      "type": "function"
    },
    {
      "constant": true,
      "inputs": [],
      "name": "COST_ERU",
      "outputs": [
        {
          "name": "",
          "type": "uint256"
        }
      ],
      "payable": false,
      "stateMutability": "view",
      "type": "function"
    },
    {
      "constant": true,
      "inputs": [],
      "name": "REQUEST_GAS",
      "outputs": [
        {
          "name": "",
          "type": "uint256"
        }
      ],
      "payable": false,
      "stateMutability": "view",
      "type": "function"
    },
    {
      "constant": true,
      "inputs": [],
      "name": "COST_NRB",
      "outputs": [
        {
          "name": "",
          "type": "uint256"
        }
      ],
      "payable": false,
      "stateMutability": "view",
      "type": "function"
    },
    {
      "constant": true,
      "inputs": [],
      "name": "NRELength",
      "outputs": [
        {
          "name": "",
          "type": "uint256"
        }
      ],
      "payable": false,
      "stateMutability": "view",
      "type": "function"
    },
    {
      "constant": true,
      "inputs": [],
      "name": "CP_WITHHOLDING",
      "outputs": [
        {
          "name": "",
          "type": "uint256"
        }
      ],
      "payable": false,
      "stateMutability": "view",
      "type": "function"
    },
    {
      "constant": true,
      "inputs": [],
      "name": "COST_ORB",
      "outputs": [
        {
          "name": "",
          "type": "uint256"
        }
      ],
      "payable": false,
      "stateMutability": "view",
      "type": "function"
    },
    {
      "constant": true,
      "inputs": [
        {
          "name": "",
          "type": "uint256"
        }
      ],
      "name": "EROs",
      "outputs": [
        {
          "name": "timestamp",
          "type": "uint64"
        },
        {
          "name": "isExit",
          "type": "bool"
        },
        {
          "name": "isTransfer",
          "type": "bool"
        },
        {
          "name": "finalized",
          "type": "bool"
        },
        {
          "name": "challenged",
          "type": "bool"
        },
        {
          "name": "value",
          "type": "uint128"
        },
        {
          "name": "requestor",
          "type": "address"
        },
        {
          "name": "to",
          "type": "address"
        },
        {
          "name": "trieKey",
          "type": "bytes32"
        },
        {
          "name": "hash",
          "type": "bytes32"
        },
        {
          "name": "trieValue",
          "type": "bytes"
        }
      ],
      "payable": false,
      "stateMutability": "view",
      "type": "function"
    },
    {
      "constant": true,
      "inputs": [],
      "name": "etherToken",
      "outputs": [
        {
          "name": "",
          "type": "address"
        }
      ],
      "payable": false,
      "stateMutability": "view",
      "type": "function"
    },
    {
      "constant": true,
      "inputs": [
        {
          "name": "",
          "type": "uint256"
        }
      ],
      "name": "URBs",
      "outputs": [
        {
          "name": "submitted",
          "type": "bool"
        },
        {
          "name": "numEnter",
          "type": "uint64"
        },
        {
          "name": "epochNumber",
          "type": "uint64"
        },
        {
          "name": "requestStart",
          "type": "uint64"
        },
        {
          "name": "requestEnd",
          "type": "uint64"
        },
        {
          "name": "trie",
          "type": "address"
        }
      ],
      "payable": false,
      "stateMutability": "view",
      "type": "function"
    },
    {
      "constant": true,
      "inputs": [],
      "name": "PREPARE_TIMEOUT",
      "outputs": [
        {
          "name": "",
          "type": "uint256"
        }
      ],
      "payable": false,
      "stateMutability": "view",
      "type": "function"
    },
    {
      "constant": true,
      "inputs": [],
      "name": "COST_ERO",
      "outputs": [
        {
          "name": "",
          "type": "uint256"
        }
      ],
      "payable": false,
      "stateMutability": "view",
      "type": "function"
    },
    {
      "constant": true,
      "inputs": [
        {
          "name": "",
          "type": "address"
        }
      ],
      "name": "requestableContracts",
      "outputs": [
        {
          "name": "",
          "type": "address"
        }
      ],
      "payable": false,
      "stateMutability": "view",
      "type": "function"
    },
    {
      "constant": true,
      "inputs": [],
      "name": "NULL_ADDRESS",
      "outputs": [
        {
          "name": "",
          "type": "address"
        }
      ],
      "payable": false,
      "stateMutability": "view",
      "type": "function"
    },
    {
      "constant": true,
      "inputs": [],
      "name": "epochHandler",
      "outputs": [
        {
          "name": "",
          "type": "address"
        }
      ],
      "payable": false,
      "stateMutability": "view",
      "type": "function"
    },
    {
      "constant": true,
      "inputs": [
        {
          "name": "",
          "type": "uint256"
        }
      ],
      "name": "ORBs",
      "outputs": [
        {
          "name": "submitted",
          "type": "bool"
        },
        {
          "name": "numEnter",
          "type": "uint64"
        },
        {
          "name": "epochNumber",
          "type": "uint64"
        },
        {
          "name": "requestStart",
          "type": "uint64"
        },
        {
          "name": "requestEnd",
          "type": "uint64"
        },
        {
          "name": "trie",
          "type": "address"
        }
      ],
      "payable": false,
      "stateMutability": "view",
      "type": "function"
    },
    {
      "constant": true,
      "inputs": [
        {
          "name": "",
          "type": "uint256"
        }
      ],
      "name": "ERUs",
      "outputs": [
        {
          "name": "timestamp",
          "type": "uint64"
        },
        {
          "name": "isExit",
          "type": "bool"
        },
        {
          "name": "isTransfer",
          "type": "bool"
        },
        {
          "name": "finalized",
          "type": "bool"
        },
        {
          "name": "challenged",
          "type": "bool"
        },
        {
          "name": "value",
          "type": "uint128"
        },
        {
          "name": "requestor",
          "type": "address"
        },
        {
          "name": "to",
          "type": "address"
        },
        {
          "name": "trieKey",
          "type": "bytes32"
        },
        {
          "name": "hash",
          "type": "bytes32"
        },
        {
          "name": "trieValue",
          "type": "bytes"
        }
      ],
      "payable": false,
      "stateMutability": "view",
      "type": "function"
    },
    {
      "constant": true,
      "inputs": [],
      "name": "lastAppliedBlockNumber",
      "outputs": [
        {
          "name": "",
          "type": "uint256"
        }
      ],
      "payable": false,
      "stateMutability": "view",
      "type": "function"
    },
    {
      "inputs": [
        {
          "name": "_epochHandler",
          "type": "address"
        },
        {
          "name": "_etherToken",
          "type": "address"
        },
        {
          "name": "_development",
          "type": "bool"
        },
        {
          "name": "_NRELength",
          "type": "uint256"
        },
        {
          "name": "_statesRoot",
          "type": "bytes32"
        },
        {
          "name": "_transactionsRoot",
          "type": "bytes32"
        },
        {
          "name": "_receiptsRoot",
          "type": "bytes32"
        }
      ],
      "payable": false,
      "stateMutability": "nonpayable",
      "type": "constructor"
    },
    {
      "anonymous": false,
      "inputs": [
        {
          "indexed": false,
          "name": "userActivated",
          "type": "bool"
        }
      ],
      "name": "SessionTimeout",
      "type": "event"
    },
    {
      "anonymous": false,
      "inputs": [
        {
          "indexed": false,
          "name": "newFork",
          "type": "uint256"
        },
        {
          "indexed": false,
          "name": "epochNumber",
          "type": "uint256"
        },
        {
          "indexed": false,
          "name": "forkedBlockNumber",
          "type": "uint256"
        }
      ],
      "name": "Forked",
      "type": "event"
    },
    {
      "anonymous": false,
      "inputs": [
        {
          "indexed": false,
          "name": "forkNumber",
          "type": "uint256"
        },
        {
          "indexed": false,
          "name": "epochNumber",
          "type": "uint256"
        },
        {
          "indexed": false,
          "name": "startBlockNumber",
          "type": "uint256"
        },
        {
          "indexed": false,
          "name": "endBlockNumber",
          "type": "uint256"
        },
        {
          "indexed": false,
          "name": "requestStart",
          "type": "uint256"
        },
        {
          "indexed": false,
          "name": "requestEnd",
          "type": "uint256"
        },
        {
          "indexed": false,
          "name": "epochIsEmpty",
          "type": "bool"
        },
        {
          "indexed": false,
          "name": "isRequest",
          "type": "bool"
        },
        {
          "indexed": false,
          "name": "userActivated",
          "type": "bool"
        },
        {
          "indexed": false,
          "name": "rebase",
          "type": "bool"
        }
      ],
      "name": "EpochPrepared",
      "type": "event"
    },
    {
      "anonymous": false,
      "inputs": [
        {
          "indexed": false,
          "name": "forkNumber",
          "type": "uint256"
        },
        {
          "indexed": false,
          "name": "epochNumber",
          "type": "uint256"
        }
      ],
      "name": "EpochFilling",
      "type": "event"
    },
    {
      "anonymous": false,
      "inputs": [
        {
          "indexed": false,
          "name": "forkNumber",
          "type": "uint256"
        },
        {
          "indexed": false,
          "name": "epochNumber",
          "type": "uint256"
        }
      ],
      "name": "EpochFilled",
      "type": "event"
    },
    {
      "anonymous": false,
      "inputs": [
        {
          "indexed": false,
          "name": "forkNumber",
          "type": "uint256"
        },
        {
          "indexed": false,
          "name": "epochNumber",
          "type": "uint256"
        },
        {
          "indexed": false,
          "name": "startBlockNumber",
          "type": "uint256"
        },
        {
          "indexed": false,
          "name": "endBlockNumber",
          "type": "uint256"
        },
        {
          "indexed": false,
          "name": "requestStart",
          "type": "uint256"
        },
        {
          "indexed": false,
          "name": "requestEnd",
          "type": "uint256"
        },
        {
          "indexed": false,
          "name": "epochIsEmpty",
          "type": "bool"
        },
        {
          "indexed": false,
          "name": "isRequest",
          "type": "bool"
        },
        {
          "indexed": false,
          "name": "userActivated",
          "type": "bool"
        }
      ],
      "name": "EpochRebased",
      "type": "event"
    },
    {
      "anonymous": false,
      "inputs": [
        {
          "indexed": false,
          "name": "fork",
          "type": "uint256"
        },
        {
          "indexed": false,
          "name": "epochNumber",
          "type": "uint256"
        },
        {
          "indexed": false,
          "name": "blockNumber",
          "type": "uint256"
        },
        {
          "indexed": false,
          "name": "isRequest",
          "type": "bool"
        },
        {
          "indexed": false,
          "name": "userActivated",
          "type": "bool"
        }
      ],
      "name": "BlockSubmitted",
      "type": "event"
    },
    {
      "anonymous": false,
      "inputs": [
        {
          "indexed": false,
          "name": "requestId",
          "type": "uint256"
        },
        {
          "indexed": false,
          "name": "requestor",
          "type": "address"
        },
        {
          "indexed": false,
          "name": "to",
          "type": "address"
        },
        {
          "indexed": false,
          "name": "weiAmount",
          "type": "uint256"
        },
        {
          "indexed": false,
          "name": "trieKey",
          "type": "bytes32"
        },
        {
          "indexed": false,
          "name": "trieValue",
          "type": "bytes"
        },
        {
          "indexed": false,
          "name": "isExit",
          "type": "bool"
        },
        {
          "indexed": false,
          "name": "userActivated",
          "type": "bool"
        }
      ],
      "name": "RequestCreated",
      "type": "event"
    },
    {
      "anonymous": false,
      "inputs": [
        {
          "indexed": false,
          "name": "requestId",
          "type": "uint256"
        },
        {
          "indexed": false,
          "name": "requestor",
          "type": "address"
        },
        {
          "indexed": false,
          "name": "to",
          "type": "address"
        },
        {
          "indexed": false,
          "name": "trieKey",
          "type": "bytes"
        },
        {
          "indexed": false,
          "name": "trieValue",
          "type": "bytes32"
        }
      ],
      "name": "ERUCreated",
      "type": "event"
    },
    {
      "anonymous": false,
      "inputs": [
        {
          "indexed": false,
          "name": "forkNumber",
          "type": "uint256"
        },
        {
          "indexed": false,
          "name": "blockNumber",
          "type": "uint256"
        }
      ],
      "name": "BlockFinalized",
      "type": "event"
    },
    {
      "anonymous": false,
      "inputs": [
        {
          "indexed": false,
          "name": "forkNumber",
          "type": "uint256"
        },
        {
          "indexed": false,
          "name": "epochNumber",
          "type": "uint256"
        },
        {
          "indexed": false,
          "name": "startBlockNumber",
          "type": "uint256"
        },
        {
          "indexed": false,
          "name": "endBlockNumber",
          "type": "uint256"
        }
      ],
      "name": "EpochFinalized",
      "type": "event"
    },
    {
      "anonymous": false,
      "inputs": [
        {
          "indexed": false,
          "name": "requestId",
          "type": "uint256"
        },
        {
          "indexed": false,
          "name": "userActivated",
          "type": "bool"
        }
      ],
      "name": "RequestFinalized",
      "type": "event"
    },
    {
      "anonymous": false,
      "inputs": [
        {
          "indexed": false,
          "name": "requestId",
          "type": "uint256"
        },
        {
          "indexed": false,
          "name": "userActivated",
          "type": "bool"
        }
      ],
      "name": "RequestApplied",
      "type": "event"
    },
    {
      "anonymous": false,
      "inputs": [
        {
          "indexed": false,
          "name": "requestId",
          "type": "uint256"
        },
        {
          "indexed": false,
          "name": "userActivated",
          "type": "bool"
        }
      ],
      "name": "RequestChallenged",
      "type": "event"
    },
    {
      "anonymous": false,
      "inputs": [
        {
          "indexed": false,
          "name": "contractInRootchain",
          "type": "address"
        },
        {
          "indexed": false,
          "name": "contractInChildchain",
          "type": "address"
        }
      ],
      "name": "RequestableContractMapped",
      "type": "event"
    },
    {
      "constant": false,
      "inputs": [
        {
          "name": "_rootchain",
          "type": "address"
        },
        {
          "name": "_childchain",
          "type": "address"
        }
      ],
      "name": "mapRequestableContractByOperator",
      "outputs": [
        {
          "name": "success",
          "type": "bool"
        }
      ],
      "payable": false,
      "stateMutability": "nonpayable",
      "type": "function"
    },
    {
      "constant": true,
      "inputs": [],
      "name": "getNumEROs",
      "outputs": [
        {
          "name": "",
          "type": "uint256"
        }
      ],
      "payable": false,
      "stateMutability": "view",
      "type": "function"
    },
    {
      "constant": true,
      "inputs": [],
      "name": "getNumORBs",
      "outputs": [
        {
          "name": "",
          "type": "uint256"
        }
      ],
      "payable": false,
      "stateMutability": "view",
      "type": "function"
    },
    {
      "constant": true,
      "inputs": [
        {
          "name": "_requestId",
          "type": "uint256"
        }
      ],
      "name": "getEROBytes",
      "outputs": [
        {
          "name": "out",
          "type": "bytes"
        }
      ],
      "payable": false,
      "stateMutability": "view",
      "type": "function"
    },
    {
      "constant": false,
      "inputs": [],
      "name": "prepareToSubmitURB",
      "outputs": [],
      "payable": true,
      "stateMutability": "payable",
      "type": "function"
    },
    {
      "constant": false,
      "inputs": [
        {
          "name": "_pos",
          "type": "uint256"
        },
        {
          "name": "_statesRoot",
          "type": "bytes32"
        },
        {
          "name": "_transactionsRoot",
          "type": "bytes32"
        },
        {
          "name": "_receiptsRoot",
          "type": "bytes32"
        }
      ],
      "name": "submitNRB",
      "outputs": [
        {
          "name": "success",
          "type": "bool"
        }
      ],
      "payable": true,
      "stateMutability": "payable",
      "type": "function"
    },
    {
      "constant": false,
      "inputs": [
        {
          "name": "_pos",
          "type": "uint256"
        },
        {
          "name": "_statesRoot",
          "type": "bytes32"
        },
        {
          "name": "_transactionsRoot",
          "type": "bytes32"
        },
        {
          "name": "_receiptsRoot",
          "type": "bytes32"
        }
      ],
      "name": "submitORB",
      "outputs": [
        {
          "name": "success",
          "type": "bool"
        }
      ],
      "payable": true,
      "stateMutability": "payable",
      "type": "function"
    },
    {
      "constant": false,
      "inputs": [
        {
          "name": "_pos",
          "type": "uint256"
        },
        {
          "name": "_statesRoot",
          "type": "bytes32"
        },
        {
          "name": "_transactionsRoot",
          "type": "bytes32"
        },
        {
          "name": "_receiptsRoot",
          "type": "bytes32"
        }
      ],
      "name": "submitURB",
      "outputs": [
        {
          "name": "success",
          "type": "bool"
        }
      ],
      "payable": true,
      "stateMutability": "payable",
      "type": "function"
    },
    {
      "constant": false,
      "inputs": [],
      "name": "finalizeBlock",
      "outputs": [
        {
          "name": "success",
          "type": "bool"
        }
      ],
      "payable": false,
      "stateMutability": "nonpayable",
      "type": "function"
    },
    {
      "constant": false,
      "inputs": [
        {
          "name": "_forkNumber",
          "type": "uint256"
        },
        {
          "name": "_blockNumber",
          "type": "uint256"
        },
        {
          "name": "_index",
          "type": "uint256"
        },
        {
          "name": "_receiptData",
          "type": "bytes"
        },
        {
          "name": "_proof",
          "type": "bytes"
        }
      ],
      "name": "challengeExit",
      "outputs": [],
      "payable": false,
      "stateMutability": "nonpayable",
      "type": "function"
    },
    {
      "constant": false,
      "inputs": [
        {
          "name": "_blockNumber",
          "type": "uint256"
        },
        {
          "name": "_key",
          "type": "bytes"
        },
        {
          "name": "_txByte",
          "type": "bytes"
        },
        {
          "name": "_branchMask",
          "type": "uint256"
        },
        {
          "name": "_siblings",
          "type": "bytes32[]"
        }
      ],
      "name": "challengeNullAddress",
      "outputs": [],
      "payable": false,
      "stateMutability": "nonpayable",
      "type": "function"
    },
    {
      "constant": false,
      "inputs": [
        {
          "name": "_to",
          "type": "address"
        },
        {
          "name": "_trieKey",
          "type": "bytes32"
        },
        {
          "name": "_trieValue",
          "type": "bytes"
        }
      ],
      "name": "startExit",
      "outputs": [
        {
          "name": "success",
          "type": "bool"
        }
      ],
      "payable": true,
      "stateMutability": "payable",
      "type": "function"
    },
    {
      "constant": false,
      "inputs": [
        {
          "name": "_to",
          "type": "address"
        },
        {
          "name": "_trieKey",
          "type": "bytes32"
        },
        {
          "name": "_trieValue",
          "type": "bytes"
        }
      ],
      "name": "startEnter",
      "outputs": [
        {
          "name": "success",
          "type": "bool"
        }
      ],
      "payable": true,
      "stateMutability": "payable",
      "type": "function"
    },
    {
      "constant": false,
      "inputs": [
        {
          "name": "_to",
          "type": "address"
        },
        {
          "name": "_trieKey",
          "type": "bytes32"
        },
        {
          "name": "_trieValue",
          "type": "bytes"
        }
      ],
      "name": "makeERU",
      "outputs": [
        {
          "name": "success",
          "type": "bool"
        }
      ],
      "payable": true,
      "stateMutability": "payable",
      "type": "function"
    },
    {
      "constant": false,
      "inputs": [],
      "name": "finalizeRequest",
      "outputs": [
        {
          "name": "success",
          "type": "bool"
        }
      ],
      "payable": false,
      "stateMutability": "nonpayable",
      "type": "function"
    },
    {
      "constant": false,
      "inputs": [
        {
          "name": "n",
          "type": "uint256"
        }
      ],
      "name": "finalizeRequests",
      "outputs": [
        {
          "name": "success",
          "type": "bool"
        }
      ],
      "payable": false,
      "stateMutability": "nonpayable",
      "type": "function"
    },
    {
      "constant": true,
      "inputs": [],
      "name": "MAX_REQUESTS",
      "outputs": [
        {
          "name": "maxRequests",
          "type": "uint256"
        }
      ],
      "payable": false,
      "stateMutability": "pure",
      "type": "function"
    },
    {
      "constant": true,
      "inputs": [
        {
          "name": "forkNumber",
          "type": "uint256"
        }
      ],
      "name": "lastBlock",
      "outputs": [
        {
          "name": "lastBlock",
          "type": "uint256"
        }
      ],
      "payable": false,
      "stateMutability": "view",
      "type": "function"
    },
    {
      "constant": true,
      "inputs": [
        {
          "name": "forkNumber",
          "type": "uint256"
        }
      ],
      "name": "lastEpoch",
      "outputs": [
        {
          "name": "lastBlock",
          "type": "uint256"
        }
      ],
      "payable": false,
      "stateMutability": "view",
      "type": "function"
    },
    {
      "constant": true,
      "inputs": [
        {
          "name": "forkNumber",
          "type": "uint256"
        },
        {
          "name": "epochNumber",
          "type": "uint256"
        }
      ],
      "name": "getEpoch",
      "outputs": [
        {
          "name": "requestStart",
          "type": "uint64"
        },
        {
          "name": "requestEnd",
          "type": "uint64"
        },
        {
          "name": "startBlockNumber",
          "type": "uint64"
        },
        {
          "name": "endBlockNumber",
          "type": "uint64"
        },
        {
          "name": "firstRequestBlockId",
          "type": "uint64"
        },
        {
          "name": "numEnter",
          "type": "uint64"
        },
        {
          "name": "isEmpty",
          "type": "bool"
        },
        {
          "name": "initialized",
          "type": "bool"
        },
        {
          "name": "isRequest",
          "type": "bool"
        },
        {
          "name": "userActivated",
          "type": "bool"
        },
        {
          "name": "rebase",
          "type": "bool"
        }
      ],
      "payable": false,
      "stateMutability": "view",
      "type": "function"
    },
    {
      "constant": true,
      "inputs": [],
      "name": "getLastEpoch",
      "outputs": [
        {
          "name": "requestStart",
          "type": "uint64"
        },
        {
          "name": "requestEnd",
          "type": "uint64"
        },
        {
          "name": "startBlockNumber",
          "type": "uint64"
        },
        {
          "name": "endBlockNumber",
          "type": "uint64"
        },
        {
          "name": "firstRequestBlockId",
          "type": "uint64"
        },
        {
          "name": "numEnter",
          "type": "uint64"
        },
        {
          "name": "isEmpty",
          "type": "bool"
        },
        {
          "name": "initialized",
          "type": "bool"
        },
        {
          "name": "isRequest",
          "type": "bool"
        },
        {
          "name": "userActivated",
          "type": "bool"
        },
        {
          "name": "rebase",
          "type": "bool"
        }
      ],
      "payable": false,
      "stateMutability": "view",
      "type": "function"
    },
    {
      "constant": true,
      "inputs": [
        {
          "name": "forkNumber",
          "type": "uint256"
        },
        {
          "name": "blockNumber",
          "type": "uint256"
        }
      ],
      "name": "getBlock",
      "outputs": [
        {
          "name": "epochNumber",
          "type": "uint64"
        },
        {
          "name": "requestBlockId",
          "type": "uint64"
        },
        {
          "name": "referenceBlock",
          "type": "uint64"
        },
        {
          "name": "timestamp",
          "type": "uint64"
        },
        {
          "name": "statesRoot",
          "type": "bytes32"
        },
        {
          "name": "transactionsRoot",
          "type": "bytes32"
        },
        {
          "name": "receiptsRoot",
          "type": "bytes32"
        },
        {
          "name": "isRequest",
          "type": "bool"
        },
        {
          "name": "userActivated",
          "type": "bool"
        },
        {
          "name": "challenged",
          "type": "bool"
        },
        {
          "name": "challenging",
          "type": "bool"
        },
        {
          "name": "finalized",
          "type": "bool"
        }
      ],
      "payable": false,
      "stateMutability": "view",
      "type": "function"
    },
    {
      "constant": true,
      "inputs": [
        {
          "name": "forkNumber",
          "type": "uint256"
        },
        {
          "name": "blockNumber",
          "type": "uint256"
        }
      ],
      "name": "getBlockFinalizedAt",
      "outputs": [
        {
          "name": "",
          "type": "uint256"
        }
      ],
      "payable": false,
      "stateMutability": "view",
      "type": "function"
    },
    {
      "constant": true,
      "inputs": [
        {
          "name": "forkNumber",
          "type": "uint256"
        }
      ],
      "name": "getLastFinalizedBlock",
      "outputs": [
        {
          "name": "",
          "type": "uint256"
        }
      ],
      "payable": false,
      "stateMutability": "view",
      "type": "function"
    },
    {
      "constant": true,
      "inputs": [
        {
          "name": "_forkNumber",
          "type": "uint256"
        }
      ],
      "name": "forked",
      "outputs": [
        {
          "name": "result",
          "type": "bool"
        }
      ],
      "payable": false,
      "stateMutability": "view",
      "type": "function"
    },
    {
      "constant": true,
      "inputs": [
        {
          "name": "_requestId",
          "type": "uint256"
        },
        {
          "name": "_userActivated",
          "type": "bool"
        }
      ],
      "name": "getRequestFinalized",
      "outputs": [
        {
          "name": "finalized",
          "type": "bool"
        }
      ],
      "payable": false,
      "stateMutability": "view",
      "type": "function"
    }
  ],
  "bytecode": "0x60806040523480156200001157600080fd5b5060405160e08062005f0683398101604090815281516020830151918301516060840151608085015160a086015160c090960151939592939192909160008062000072600160a060020a038a1664010000000062004447620001df82021704565b15156200007e57600080fd5b620000a0600160a060020a03891664010000000062004447620001df82021704565b1515620000ac57600080fd5b505060018054600160a060020a03808a16600160a060020a031992831617835560028054918a1691909216178155600080543361010090810261010060a860020a03198b151560ff19948516171617835560038981556004805485526006602090815260408087208780528084018352818820808a018e90558086018d90559384018b905593840190915280862080890180546001604060020a034216780100000000000000000000000000000000000000000000000002600160c060020a039091161790558701805461ff001916909417909355858552918420909401805462ff0000199316909517919091166201000017909355909190620001bd9083908390640100000000620001e7810204565b620001d0640100000000620002a2810204565b50505050505050505062000363565b6000903b1190565b60058201805464ff00000000191664010000000017905581546001604060020a03428116780100000000000000000000000000000000000000000000000002600160c060020a039092169190911783556001840180549183166801000000000000000002604060020a608060020a0319909216919091179055600454604080519182526020820183905280517ffb96205e4b3633fd57aa805b26b51ecf528714a10241a4af015929dce86768d99281900390910190a1505050565b600160009054906101000a9004600160a060020a0316600160a060020a031660405180807f5f70726570617265546f5375626d69744e524228290000000000000000000000815250601501905060405180910390207c010000000000000000000000000000000000000000000000000000000090046040518163ffffffff167c0100000000000000000000000000000000000000000000000000000000028152600401600060405180830381865af49250505015156200036157600080fd5b565b615b9380620003736000396000f3006080604052600436106102845763ffffffff60e060020a600035041663033cfbed811461028957806308c4fff0146102b057806311e4c914146102c5578063164bc2ae146102dd578063183d2d1c146102f2578063192adc5b146103075780631ec2042b1461031c5780631f261d591461033457806323691566146103495780632aa196c81461035e5780632b25a38b146103ce578063398bac6314610459578063404f7d661461046e5780634a44bdb8146104a85780634ba3a1261461053a57806354768571146105c0578063570ca735146105d85780635b884682146106095780636299fb241461062457806365d724bc146106645780636b13ab6f146106795780636f3e4b901461068d57806372ecb9a8146106a157806375395a58146106b957806378fe705f146106ce5780637b929c271461072a5780638155717d1461073f5780638b5172d0146107545780638eb288ca14610769578063935212221461077e57806394be3aa51461028957806399bd360014610793578063a820c067146107a8578063ab96da2d146107bc578063b17fa6e9146107d1578063b2ae9ba814610289578063b443f3cc146107e6578063b540adba146108f0578063b8066bcb14610905578063c0e860641461091a578063c2bc88fa1461097d578063cb5d742f14610992578063ce8a2bc2146109b9578063d1723a96146109d1578063d636857e14610a5e578063d691acd814610289578063da0185f814610a76578063de0ce17d14610a97578063e6925d0814610aac578063e7b88b8014610ab4578063e7f9650514610ac9578063ea0c73f614610b25578063ea7f22a814610b3a578063f28a7afa14610b52578063f4f31de414610b6f578063fb788a2714610b87575b600080fd5b34801561029557600080fd5b5061029e610b9c565b60408051918252519081900360200190f35b3480156102bc57600080fd5b5061029e610ba6565b3480156102d157600080fd5b5061029e600435610bab565b3480156102e957600080fd5b5061029e610bd0565b3480156102fe57600080fd5b5061029e610bd6565b34801561031357600080fd5b5061029e610bdc565b34801561032857600080fd5b5061029e600435610be6565b34801561034057600080fd5b5061029e610c04565b34801561035557600080fd5b5061029e610c0a565b604080516020600460443581810135601f81018490048402850184019095528484526103ba948235600160a060020a0316946024803595369594606494920191908190840183828082843750949750610c109650505050505050565b604080519115158252519081900360200190f35b3480156103da57600080fd5b506103e9600435602435610d98565b604080516001604060020a039c8d1681529a8c1660208c0152988b168a8a0152968a1660608a015294891660808901529290971660a0870152151560c086015294151560e08501529315156101008401529215156101208301529115156101408201529051908190036101600190f35b34801561046557600080fd5b506103e9610e26565b34801561047a57600080fd5b506104a66004803590602480359160443591606435808201929081013591608435908101910135610ebf565b005b3480156104b457600080fd5b506104c3600435602435611119565b604080516001604060020a039d8e1681529b8d1660208d0152998c168b8b015297909a1660608a0152608089019590955260a088019390935260c0870191909152151560e0860152151561010085015215156101208401529215156101408301529115156101608201529051908190036101800190f35b34801561054657600080fd5b506105526004356111ab565b604080516001604060020a039c8d1681529a8c1660208c0152988b168a8a0152968a1660608a0152948916608089015292881660a088015290871660c0870152861660e086015285166101008501529093166101208301529115156101408201529051908190036101600190f35b3480156105cc57600080fd5b506103ba60043561121d565b3480156105e457600080fd5b506105ed61124f565b60408051600160a060020a039092168252519081900360200190f35b34801561061557600080fd5b5061029e600435602435611263565b34801561063057600080fd5b506104a660048035906024803580820192908101359160443580820192908101359160643591608435918201910135611294565b34801561067057600080fd5b5061029e6112f6565b6103ba6004356024356044356064356112fc565b6103ba600435602435604435606435611651565b3480156106ad57600080fd5b5061029e6004356119f6565b3480156106c557600080fd5b506103ba611a08565b604080516020600460443581810135601f81018490048402850184019095528484526103ba948235600160a060020a0316946024803595369594606494920191908190840183828082843750949750611a249650505050505050565b34801561073657600080fd5b506103ba611b64565b34801561074b57600080fd5b5061029e611b6d565b34801561076057600080fd5b5061029e611b72565b34801561077557600080fd5b5061029e611b7c565b34801561078a57600080fd5b5061029e611b83565b34801561079f57600080fd5b506103ba611b92565b6103ba60043560243560443560643561247b565b3480156107c857600080fd5b5061029e612937565b3480156107dd57600080fd5b5061029e61293d565b3480156107f257600080fd5b506107fe600435612942565b604080516001604060020a038d1681528b15156020808301919091528b151592820192909252891515606082015288151560808201526001608060020a03881660a0820152600160a060020a0380881660c0830152861660e082015261010081018590526101208101849052610160610140820181815284519183019190915283519192909161018084019185019080838360005b838110156108ab578181015183820152602001610893565b50505050905090810190601f1680156108d85780820380516001836020036101000a031916815260200191505b509c5050505050505050505050505060405180910390f35b3480156108fc57600080fd5b5061029e612a73565b34801561091157600080fd5b506105ed612a79565b34801561092657600080fd5b50610932600435612a88565b6040805196151587526001604060020a0395861660208801529385168685015291841660608601529092166080840152600160a060020a0390911660a0830152519081900360c00190f35b34801561098957600080fd5b5061029e612af6565b34801561099e57600080fd5b506103ba600160a060020a0360043581169060243516612afb565b3480156109c557600080fd5b506103ba600435612bd9565b3480156109dd57600080fd5b506109e9600435612be1565b6040805160208082528351818301528351919283929083019185019080838360005b83811015610a23578181015183820152602001610a0b565b50505050905090810190601f168015610a505780820380516001836020036101000a031916815260200191505b509250505060405180910390f35b348015610a6a57600080fd5b5061029e600435612d9e565b348015610a8257600080fd5b506105ed600160a060020a0360043516612dc3565b348015610aa357600080fd5b506105ed612dde565b6104a6612de3565b348015610ac057600080fd5b506105ed612e86565b604080516020600460443581810135601f81018490048402850184019095528484526103ba948235600160a060020a0316946024803595369594606494920191908190840183828082843750949750612e959650505050505050565b348015610b3157600080fd5b5061029e612f89565b348015610b4657600080fd5b50610932600435612f8f565b348015610b5e57600080fd5b506103ba6004356024351515612f9d565b348015610b7b57600080fd5b506107fe600435612fe8565b348015610b9357600080fd5b5061029e612ff6565b6509184e72a00081565b600f81565b600081815260066020526040902054608060020a90046001604060020a03165b919050565b600c5481565b60045481565b6551dac207a00081565b6000908152600660205260409020600101546001604060020a031690565b600f5481565b600b5481565b6000803481610c276007600989858a8a8780612ffc565b600b80546001019055600454600090815260066020908152604080832081518581529283019390935280519396509193507f6940a01870e576ceb735867e13863646d517ce10e66c0133186a4ebdfe9388c2929081900390910190a17f879922cf5fcada9ebaf8bd7424dc62877f4b220cae07fb6695cc1e8f94c52b4d833389858a8a6000806040518089815260200188600160a060020a0316600160a060020a0316815260200187600160a060020a0316600160a060020a031681526020018681526020018560001916600019168152602001806020018415151515815260200183151515158152602001828103825285818151815260200191508051906020019080838360005b83811015610d48578181015183820152602001610d30565b50505050905090810190601f168015610d755780820380516001836020036101000a031916815260200191505b50995050505050505050505060405180910390a1600193505b5050509392505050565b6000918252600660209081526040808420928452600390920190529020805460018201546002909201546001604060020a0380831694604060020a808504831695608060020a860484169560c060020a900484169484821694929091049091169160ff8083169261010081048216926201000082048316926301000000830481169264010000000090041690565b600454600090815260066020908152604080832080546001604060020a03608060020a9182900481168652600390920190935292208054600182015460029092015481851695604060020a80840487169695840486169560c060020a90940484169480851694919004169160ff808216926101008304821692620100008104831692630100000082048116926401000000009092041690565b6000878152600660209081526040808320898452600481019092528220600581015491929091819060ff161515610ef557600080fd5b6005830154640100000000900460ff161515610f1057600080fd5b506005820154610100900460ff168015610ffc578254600a8054610fc592869291604060020a9091046001604060020a0316908110610f4b57fe5b906000526020600020906002020160088c8c8c8080601f0160208091040260200160405190810160405280939291908181526020018383808284378201915050505050508b8b8080601f016020809104026020016040519081016040528093929190818152602001838380828437506136aa945050505050565b60405190925033906000906512309ce540009082818181858883f19350505050158015610ff6573d6000803e3d6000fd5b506110d0565b82546009805461109d92869291604060020a9091046001604060020a031690811061102357fe5b906000526020600020906002020160078c8c8c8080601f0160208091040260200160405190810160405280939291908181526020018383808284378201915050505050508b8b8080601f016020809104026020016040519081016040528093929190818152602001838380828437506136aa945050505050565b60405190925033906000906509184e72a0009082818181858883f193505050501580156110ce573d6000803e3d6000fd5b505b60408051838152821515602082015281517fc8135db115644ed4ae193313c4c801235ef740d2a57a8d5e6fe26ab66635698a929181900390910190a15050505050505050505050565b600091825260066020908152604080842092845260049283019091529091208054600182015460028301546003840154948401546005909401546001604060020a0380851697604060020a860482169794821696608060020a909604909116949293929160ff808216926101008304821692620100008104831692630100000082048116926401000000009092041690565b6006602052600090815260409020805460018201546002909201546001604060020a0380831693604060020a808504831694608060020a80820485169560c060020a9283900486169585811695858104821695848204831695909104821693838316939182049092169160ff9104168b565b6000805b8281101561124457611231611b92565b151561123c57600080fd5b600101611221565b600191505b50919050565b6000546101009004600160a060020a031681565b60009182526006602090815260408084209284526004909201905290205460c060020a90046001604060020a031690565b6004805460009081526006602090815260408083208c84529384019091529020600581015460ff16156112c657600080fd5b8054426001604060020a03608060020a90920491909116600f01116112ea57600080fd5b50505050505050505050565b600e5481565b60008054819081908190819081906101009004600160a060020a0316331461132357600080fd5b6509184e72a0003481111561133757600080fd5b60005460ff16151561134d5761134b613821565b505b6113568b6139aa565b6004549197509550861461136957600080fd5b60008681526006602052604090206001908101546001604060020a0390811690910116851461139757600080fd5b600086815260066020526040902093508515806113e5575060001986016000908152600660205260409020546001604060020a0316158015906113e557506002840154608060020a900460ff165b1561147757611400848b8b8b6000808063ffffffff6139c016565b604080518981526020810184905280820183905260006060820181905260808201529051919750919450600080516020615b488339815191529181900360a00190a1600083815260038501602052604090205460c060020a90046001604060020a031685141561147257611472613c00565b611643565b61148e848b8b8b600080600163ffffffff6139c016565b60028601805460008381526004808a0160209081526040808420600101805467ffffffffffffffff19166001604060020a03604060020a978890048116919091179091556000198f01855260068352818520965495909504909416835290840190522060030154919750919450909250891461150957600080fd5b604080518781526020810185905280820187905260006060820181905260808201529051600080516020615b488339815191529181900360a00190a1611555848363ffffffff613c8e16565b1561163e576000838152600385016020908152604080832080546001604060020a03808b1660c060020a0277ffffffffffffffffffffffffffffffffffffffffffffffff90921691909117825560028901805470ff000000000000000000000000000000001916608060020a908117909155915483518c8152948501899052919091041682820152606082018890526080820183905260a0820183905260c0820183905260e0820183905261010082019290925290517f030c1c69405c93021f28f57557240dee939a320b826a1fd0d39bf6e629ecab47918190036101200190a161163e613dd6565b600196505b505050505050949350505050565b60008080808080806551dac207a0003481111561166d57600080fd5b6116768c6139aa565b6004549198509650600101871494508480611692575086600454145b151561169d57600080fd5b60008781526006602052604090209350841561176c57600487905560008781526006602052604090209350426116d1613e62565b6001860154608060020a90046001604060020a031601116116f157600080fd5b835460c060020a90046001604060020a0316861461170e57600080fd5b8354604080518981526001604060020a03608060020a84048116602083015260c060020a90930490921682820152517f0647d42ab02f6e0ae76959757dcb6aa6feac1d4ba6f077f1223fb4b1b429f06c9181900360600190a16117a1565b60018481015461178d916001604060020a039091169063ffffffff613e6816565b6001604060020a031686146117a157600080fd5b8354608060020a90046001604060020a031660009081526003850160205260409020600281015490935062010000900460ff1615156117df57600080fd5b60028301546301000000900460ff1615156117f957600080fd5b83600401600087815260200190815260200160002091508360000160109054906101000a90046001604060020a03168260000160006101000a8154816001604060020a0302191690836001604060020a031602179055508a8260020181600019169055508982600301816000191690555088826004018160001916905550428260000160106101000a8154816001604060020a0302191690836001604060020a0316021790555060018260050160006101000a81548160ff02191690831515021790555060018260050160016101000a81548160ff021916908315150217905550858460010160006101000a8154816001604060020a0302191690836001604060020a031602179055506000809054906101000a900460ff1615156119765760018401546001604060020a039081166000908152600486016020526040902054600a8054611976939192604060020a900490911690811061195657fe5b6000918252602082208d926002909202019060089063ffffffff613e8616565b835460408051898152608060020a9092046001604060020a03166020830152818101889052600160608301819052608083015251600080516020615b488339815191529160a0908290030190a1825460c060020a90046001604060020a03168614156119e4576119e4613fa7565b5060019b9a5050505050505050505050565b60056020526000908152604090205481565b6000611a12613821565b1515611a1d57600080fd5b5060015b90565b6000806512309ce5400034811115611a3b57600080fd5b611a4f6008600a8860008989600180612ffc565b91507f879922cf5fcada9ebaf8bd7424dc62877f4b220cae07fb6695cc1e8f94c52b4d823388600089896001806040518089815260200188600160a060020a0316600160a060020a0316815260200187600160a060020a0316600160a060020a031681526020018681526020018560001916600019168152602001806020018415151515815260200183151515158152602001828103825285818151815260200191508051906020019080838360005b83811015611b17578181015183820152602001611aff565b50505050905090810190601f168015611b445780820380516001836020036101000a031916815260200191505b50995050505050505050505060405180910390a150600195945050505050565b60005460ff1681565b600a81565b6512309ce5400081565b620186a081565b6000611b8d614033565b905090565b600c5460009081526006602052604081206001810154600d548392839290918391829182918291829182916001604060020a039091161015611bd357600080fd5b600d546000908152600488016020908152604080832080546001604060020a0390811680865260038d01909452919093208a54929c509298509196501615801590611c2c57508654600d546001604060020a0390911611155b15611c9457600c805460010190819055600090815260066020908152604080832080546001604060020a03604060020a8204811680875260038401865284872060c060020a909304909116600d81905586526004830190945291909320919b50919850965094505b600586015460ff161515611d36575b600285015462010000900460ff161580611cc15750600285015460ff165b15611d0c576000898152600388016020526040902060020154610100900460ff161515611ced57600080fd5b6001909801600081815260038801602052604090209098909450611ca3565b8454608060020a90046001604060020a0316600d8190556000908152600488016020526040902095505b600285015460ff1615611d4857600080fd5b600285015462010000900460ff161515611d6157600080fd5b600586015460ff161515611d7457600080fd5b6005860154640100000000900460ff161515611d8f57600080fd5b8554426001604060020a0360c060020a90920491909116600a0110611db357600080fd5b6005860154610100900460ff161561213d57600f546008549098508810611dd957600080fd5b6008805489908110611de757fe5b90600052602060002090600602019350600a8660000160089054906101000a90046001604060020a03166001604060020a0316815481101515611e2657fe5b600091825260209091206002909102018054909350608860020a90046001604060020a03168810801590611e67575060018301546001604060020a03168811155b1515611e7257600080fd5b60018301546001604060020a0316881415611ed057865460006001604060020a03909116118015611eb757508654600d546000196001604060020a0392831601909116145b15611ec657600c805460010190555b600d805460010190555b60018801600f558354604060020a900460ff168015611ef857508354605860020a900460ff16155b156120e157604080516101608101825285546001604060020a038116825260ff604060020a820481161515602080850191909152690100000000000000000083048216151584860152605060020a8304821615156060850152605860020a8304909116151560808401526001608060020a036c010000000000000000000000009092049190911660a0830152600180880154600160a060020a0390811660c08501526002808a015490911660e085015260038901546101008086019190915260048a015461012086015260058a0180548751601f95821615909302600019011692909204928301849004840281018401909552818552612066948d94938a936101408601939183018282801561204f5780601f106120245761010080835404028352916020019161204f565b820191906000526020600020905b81548152906001019060200180831161203257829003601f168201915b50505050508152505061403890919063ffffffff16565b506001840154604051600160a060020a03909116906000906512309ce540009082818181858883f193505050501580156120a4573d6000803e3d6000fd5b50604080518981526001602082015281517f6940a01870e576ceb735867e13863646d517ce10e66c0133186a4ebdfe9388c2929181900390910190a15b83546aff000000000000000000001916605060020a178455604080518981526001602082015281517f134017cf3262b18f892ee95dde3b0aec9a80cc70a7c96f09c64bd237aceb0473929181900390910190a16001995061246f565b600e54600754909850881061215157600080fd5b600780548990811061215f57fe5b9060005260206000209060060201915060098660000160089054906101000a90046001604060020a03166001604060020a031681548110151561219e57fe5b600091825260209091206002909102018054909150608860020a90046001604060020a031688108015906121df575060018101546001604060020a03168811155b15156121ea57600080fd5b60018101546001604060020a031688141561224857865460006001604060020a0390911611801561222f57508654600d546000196001604060020a0392831601909116145b1561223e57600c805460010190555b600d805460010190555b60018801600e558154604060020a900460ff16801561227057508154605860020a900460ff16155b1561241757604080516101608101825283546001604060020a038116825260ff604060020a820481161515602080850191909152690100000000000000000083048216151584860152605060020a8304821615156060850152605860020a8304909116151560808401526001608060020a036c010000000000000000000000009092049190911660a0830152600180860154600160a060020a0390811660c085015260028088015490911660e085015260038701546101008086019190915260048801546101208601526005880180548751601f9582161590930260001901169290920492830184900484028101840190955281855261239c948d949388936101408601939183018282801561204f5780601f106120245761010080835404028352916020019161204f565b506001820154604051600160a060020a03909116906000906509184e72a0009082818181858883f193505050501580156123da573d6000803e3d6000fd5b50604080518981526000602082015281517f6940a01870e576ceb735867e13863646d517ce10e66c0133186a4ebdfe9388c2929181900390910190a15b81546aff000000000000000000001916605060020a178255604080518981526000602082015281517f134017cf3262b18f892ee95dde3b0aec9a80cc70a7c96f09c64bd237aceb0473929181900390910190a1600199505b50505050505050505090565b600080600080600080600080600060019054906101000a9004600160a060020a0316600160a060020a031633600160a060020a03161415156124bc57600080fd5b6509184e72a000348111156124d057600080fd5b60005460ff1615156124e6576124e4613821565b505b6124ef8d6139aa565b6004549199509750881461250257600080fd5b60008881526006602052604090206001908101546001604060020a0390811690910116871461253057600080fd5b6000888152600660205260409020955087158061257e575060001988016000908152600660205260409020546001604060020a03161580159061257e57506002860154608060020a900460ff165b156127115761259a868d8d8d600160008063ffffffff6139c016565b60005490985090955060ff16151561260a5760018601546001604060020a0390811660009081526004880160205260409020546009805461260a939192604060020a90049091169081106125ea57fe5b6000918252602082208e926002909202019060079063ffffffff613e8616565b600087815260048701602052604090205460098054604060020a9092046001604060020a03169550908590811061263d57fe5b60009182526020808320600292909202909101548783526003890182526040808420600190810180546fffffffffffffffff00000000000000001981166101009095046001604060020a03908116604060020a9283900482160116029390931790925580518c81529283018990528281018b9052606083019190915260808201929092529051600080516020615b488339815191529160a0908290030190a1600085815260038701602052604090205460c060020a90046001604060020a031687141561270c5761270c613dd6565b612927565b612728868d8d8d600160008163ffffffff6139c016565b6000198a0160009081526006602090815260408083208484526004808d01845282852060028e01805460018301805467ffffffffffffffff19166001604060020a03604060020a9384900481169190911790915591548190048216885292840190955292852054835490829004909416026fffffffffffffffff0000000000000000199093169290921781559154929a5092975091945090925060ff16151561280d5781546009805461280d92604060020a90046001604060020a03169081106127ee57fe5b600091825260209091208d91600202016007600163ffffffff613e8616565b604080518981526020810187905280820189905260016060820152600060808201529051600080516020615b488339815191529181900360a00190a161285b8684600963ffffffff61416c16565b15612922576000858152600387016020908152604080832080546001604060020a03808d1660c060020a0277ffffffffffffffffffffffffffffffffffffffffffffffff909216919091179182905582518d81529384018a9052608060020a8204811684840152606084018c905216608083015260a0820183905260c08201839052600160e083015261010082019290925290517f030c1c69405c93021f28f57557240dee939a320b826a1fd0d39bf6e629ecab47918190036101200190a16129226143bb565b600198505b5050505050505050949350505050565b60035481565b601481565b600780548290811061295057fe5b6000918252602091829020600691909102018054600180830154600280850154600386015460048701546005880180546040805161010099831615999099026000190190911695909504601f81018b90048b0288018b019095528487526001604060020a0388169a50604060020a880460ff9081169a69010000000000000000008a0482169a605060020a8b0483169a605860020a8104909316996c010000000000000000000000009093046001608060020a031698600160a060020a0390811698971696909391830182828015612a695780601f10612a3e57610100808354040283529160200191612a69565b820191906000526020600020905b815481529060010190602001808311612a4c57829003601f168201915b505050505090508b565b60075490565b600254600160a060020a031681565b600a805482908110612a9657fe5b60009182526020909120600290910201805460019091015460ff821692506001604060020a03610100830481169269010000000000000000008104821692608860020a909104821691811690600160a060020a03604060020a9091041686565b603c81565b600080546101009004600160a060020a03163314612b1857600080fd5b612b2a83600160a060020a0316614447565b1515612b3557600080fd5b600160a060020a038381166000908152601060205260409020541615612b5a57600080fd5b600160a060020a03838116600081815260106020908152604091829020805473ffffffffffffffffffffffffffffffffffffffff19169487169485179055815192835282019290925281517fc5ec2ed49686197edd2ed642c7e6096893cc81e6658cde2527030316037715d0929181900390910190a150600192915050565b600454141590565b60606000600783815481101515612bf457fe5b60009182526020808320600260069093020182810154600160a060020a039081168086526010845260408087205481516101608101835285546001604060020a038116825260ff604060020a820481161515838a0152690100000000000000000082048116151583860152605060020a8204811615156060840152605860020a820416151560808301526001608060020a036c010000000000000000000000009091041660a0820152600180870154861660c083015260e082019490945260038601546101008281019190915260048701546101208301526005870180548551601f97821615909302600019011699909904948501889004880281018801909352838352949850612d9797612d92978c979196612d8596939093169492938b93610140860193919291830182828015612d6e5780601f10612d4357610100808354040283529160200191612d6e565b820191906000526020600020905b815481529060010190602001808311612d5157829003601f168201915b50505050508152505061444f90919063ffffffff16565b919063ffffffff61452a16565b614582565b9392505050565b600090815260066020526040902060010154604060020a90046001604060020a031690565b601060205260009081526040902054600160a060020a031681565b600081565b6509184e72a00034811115612df757600080fd5b600160009054906101000a9004600160a060020a0316600160a060020a031660405180807f70726570617265546f5375626d697455524228290000000000000000000000008152506014019050604051809103902060e060020a90046040518163ffffffff1660e060020a028152600401600060405180830381865af4925050501515612e8357600080fd5b50565b600154600160a060020a031681565b6000806509184e72a00034811115612eac57600080fd5b612ec160076009886000898960016000612ffc565b91507f879922cf5fcada9ebaf8bd7424dc62877f4b220cae07fb6695cc1e8f94c52b4d82338860008989600160006040518089815260200188600160a060020a0316600160a060020a0316815260200187600160a060020a0316600160a060020a0316815260200186815260200185600019166000191681526020018060200184151515158152602001831515151581526020018281038252858181518152602001915080519060200190808383600083811015611b17578181015183820152602001611aff565b60095490565b6009805482908110612a9657fe5b60008115612fb8576008805484908110612fb357fe5b506000525b6007805484908110612fc657fe5b6000918252602090912060069091020154605060020a900460ff169392505050565b600880548290811061295057fe5b600d5481565b600080600080600061040088511115151561301657600080fd5b600254600160a060020a038c81169116149350838015613034575086155b806130585750600160a060020a038b81166000908152601060205260409020541615155b151561306357600080fd5b8c546130728e6001830161582f565b94508c8581548110151561308257fe5b90600052602060002090600602019250338360010160006101000a815481600160a060020a030219169083600160a060020a031602179055508a8360020160006101000a815481600160a060020a030219169083600160a060020a03160217905550428360000160006101000a8154816001604060020a0302191690836001604060020a03160217905550868360000160086101000a81548160ff021916908315150217905550838360000160096101000a81548160ff0219169083151502179055508983600001600c6101000a8154816001608060020a0302191690836001608060020a031602179055508883600301816000191690555087836005019080519060200190613193929190615860565b508615156132cd57604080516101608101825284546001604060020a038116825260ff604060020a820481161515602080850191909152690100000000000000000083048216151584860152605060020a8304821615156060850152605860020a8304909116151560808401526001608060020a036c010000000000000000000000009092049190911660a0830152600180870154600160a060020a0390811660c085015260028089015490911660e085015260038801546101008086019190915260048901546101208601526005890180548751601f958216159093026000190116929092049283018490048402810184019095528185526132c2948a949389936101408601939183018282801561204f5780601f106120245761010080835404028352916020019161204f565b15156132cd57600080fd5b8b54156132df578b54600019016132ee565b8b546132ee8d600183016158de565b91508b828154811015156132fe57fe5b60009182526020909120600290910201805490915060ff16806133465750613324611b83565b81546001808401546001604060020a03608860020a9093048316908316030116145b156133b757805460ff1916600190811782558c548d9161336990839083016158de565b8154811061337357fe5b60009182526020909120600290910201805478ffffffffffffffff00000000000000000000000000000000001916608860020a6001604060020a0388160217815590505b6133c081612e83565b60018101805467ffffffffffffffff19166001604060020a0387161790558615156134105780546001604060020a0361010080830482166001019091160268ffffffffffffffff00199091161781555b83801561341b575086155b1561356357604080516101608101825284546001604060020a038116825260ff604060020a820481161515602080850191909152690100000000000000000083048216151584860152605060020a8304821615156060850152605860020a8304909116151560808401526001608060020a036c010000000000000000000000009092049190911660a0830152600180870154600160a060020a0390811660c085015260028089015490911660e085015260038801546101008086019190915260048901546101208601526005890180548751601f9582161590930260001901169290920492830184900484028101840190955281855261355e94889461354f943394919387936101408601939092830182828015612d6e5780601f10612d4357610100808354040283529160200191612d6e565b8391908863ffffffff61473816565b61369a565b600160a060020a03808c166000908152601060209081526040918290205482516101608101845287546001604060020a038116825260ff604060020a82048116151583860152690100000000000000000082048116151583870152605060020a8204811615156060840152605860020a820416151560808301526001608060020a036c010000000000000000000000009091041660a0820152600180890154861660c08301526002808a0154871660e084015260038a01546101008481019190915260048b015461012085015260058b0180548851601f9582161590930260001901169290920492830186900486028101860190965281865261369a968a9661354f969590911694879361014086019391830182828015612d6e5780601f10612d4357610100808354040283529160200191612d6e565b5050505098975050505050505050565b845460018601546001604060020a03608860020a90920482168501916000918291168311156136d857600080fd5b86838154811015156136e657fe5b600091825260209091208a546006909202019250426001604060020a0360c060020a90920491909116600a011161371c57600080fd5b6005890154640100000000900460ff16151561373757600080fd5b8154605860020a900460ff161561374d57600080fd5b8154605060020a900460ff161561376357600080fd5b846040518082805190602001908083835b602083106137935780518252601f199092019160209182019101613774565b6001836020036101000a038019825116818451168082178552505050505050905001915050604051809103902090506137cb8561475a565b156137d557600080fd5b60005460ff1615156137fc576137f181878b600401548761479b565b15156137fc57600080fd5b81546bff00000000000000000000001916605860020a17825550509695505050505050565b60045460009081526006602052604081205481908190819081906001604060020a03161561385257600094506139a3565b60045460009081526006602052604090208054600180830154929650613898926001604060020a0360c060020a909304831692604060020a909104811690910116614914565b60018501549093506001604060020a03168311156138b957600094506139a3565b6000838152600485016020526040902060058101549092506301000000900460ff16156138e957600094506139a3565b600582015460ff1615613933578154426001604060020a03608060020a90920491909116600f01111561391f57600094506139a3565b61392a84838561492b565b600194506139a3565b5080546001604060020a039081166001011661394f84826149e3565b1561396a57815461392a9085906001604060020a0316614b1b565b8154426001604060020a03608060020a90920491909116601401111561399357600094506139a3565b61399e84838561492b565b600194505b5050505090565b608060020a8104916001608060020a0390911690565b86546001808901546001604060020a03608060020a909304831692600092839283926139f49291169063ffffffff614cb816565b600085815260038d01602052604090208054919450925060016001604060020a0360c060020a90920482160116831415613a74578a546001604060020a03600195909501948516608060020a0277ffffffffffffffff0000000000000000000000000000000019909116178b55600084815260038c016020526040902091505b8154608060020a90046001604060020a0316831015613a9257600080fd5b8480613aaf5750815460c060020a90046001604060020a03168311155b1515613aba57600080fd5b600282015460ff6201000090910416151587151514613ad857600080fd5b600282015460ff630100000090910416151586151514613af757600080fd5b50600082815260048b810160205260409091208054600282018c9055600382018b905591810189905567ffffffffffffffff199091166001604060020a038581169190911777ffffffffffffffff000000000000000000000000000000001916608060020a42929092169190910217815560058101805460ff1916881580159190911761ff0019166101008915150217909155613bd4578154600183015482546001604060020a03608060020a9093048316918316860191909103909116604060020a026fffffffffffffffff0000000000000000199091161781555b5050600198909801805467ffffffffffffffff19166001604060020a038a161790559795505050505050565b600160009054906101000a9004600160a060020a0316600160a060020a031660405180807f5f70726570617265546f5375626d69744f5242282900000000000000000000008152506015019050604051809103902060e060020a90046040518163ffffffff1660e060020a028152600401600060405180830381865af4925050501515613c8c57600080fd5b565b60028201546001604060020a03604060020a909104811660008181526004840160209081526040808320548516808452600387019092528220549193909160c060020a9004168210613d05576002016000818152600385016020526040902054608060020a90046001604060020a03169150613d0c565b6001820191505b6000818152600385016020526040902060020154610100900460ff161515613d52576002850180546fffffffffffffffff00000000000000001916905560019250613dce565b6000828152600485016020526040902054608060020a90046001604060020a03161515613d9d576002850180546fffffffffffffffff00000000000000001916905560019250613dce565b6002850180546fffffffffffffffff00000000000000001916604060020a6001604060020a03851602179055600092505b505092915050565b600160009054906101000a9004600160a060020a0316600160a060020a031660405180807f5f70726570617265546f5375626d69744e5242282900000000000000000000008152506015019050604051809103902060e060020a90046040518163ffffffff1660e060020a028152600401600060405180830381865af4925050501515613c8c57600080fd5b610e1090565b60008282016001604060020a038085169082161015612d9757600080fd5b825460018401546001604060020a03608860020a9092048216911660006060818086613eb757858503600101613ec8565b885461010090046001604060020a03165b935060008411613ed757600080fd5b83604051908082528060200260200182016040528015613f01578160200160208202803883390190505b5092508591508590505b848111613f9357861580613f4557508781815481101515613f2857fe5b6000918252602090912060069091020154604060020a900460ff16155b15613f8b578781815481101515613f5857fe5b90600052602060002090600602016004015483878403815181101515613f7a57fe5b602090810290910101526001909101905b600101613f0b565b89613f9d84614cca565b146112ea57600080fd5b600160009054906101000a9004600160a060020a0316600160a060020a031660405180807f707265706172654f5245416674657255524528290000000000000000000000008152506014019050604051809103902060e060020a90046040518163ffffffff1660e060020a028152600401600060405180830381865af4925050501515613c8c57600080fd5b601490565b60008260e00151600160a060020a031663a9f793088460200151848660c001518761010001518861014001516040518663ffffffff1660e060020a028152600401808615151515815260200185815260200184600160a060020a0316600160a060020a03168152602001836000191660001916815260200180602001828103825283818151815260200191508051906020019080838360005b838110156140e95781810151838201526020016140d1565b50505050905090810190601f1680156141165780820380516001836020036101000a031916815260200191505b509650505050505050602060405180830381600087803b15801561413957600080fd5b505af115801561414d573d6000803e3d6000fd5b505050506040513d602081101561416357600080fd5b50519392505050565b60028301546001604060020a03604060020a90910481166000818152600485016020526040812054909216825b6000828152600387016020526040902060020154610100900460ff16156143ae57600082815260038701602052604090205460c060020a90046001604060020a0316831061420c576002919091016000818152600387016020526040902054608060020a90046001604060020a03169250905b5b6000828152600387016020526040902060010154604060020a90046001604060020a031615801561425657506000828152600387016020526040902060020154610100900460ff165b1561428a576002919091016000818152600387016020526040902054608060020a90046001604060020a031692509061420d565b6000828152600387016020526040902060020154610100900460ff1615156142b55760019350610d8e565b50600081815260038601602052604090205460c060020a90046001604060020a03165b80831161434257600083815260048701602052604081205486548791604060020a90046001604060020a031690811061430d57fe5b600091825260209091206002909102015461010090046001604060020a0316111561433757614342565b6001830192506142d8565b80831115614379576002919091016000818152600387016020526040902054608060020a90046001604060020a0316925090614199565b6002870180546fffffffffffffffff00000000000000001916604060020a6001604060020a0386160217905560009350610d8e565b5060019695505050505050565b600160009054906101000a9004600160a060020a0316600160a060020a031660405180807f707265706172654e5245416674657255524528290000000000000000000000008152506014019050604051809103902060e060020a90046040518163ffffffff1660e060020a028152600401600060405180830381865af4925050501515613c8c57600080fd5b6000903b1190565b61445761590a565b6020808401805115159183019190915260408085015115159083015260c080850151600160a060020a0316908301525160609060009015801561449b575084604001515b156144ea57505060c0830151600160a060020a031660e0820152610140830151602081015160006001608060020a038216116144d657600080fd5b6001608060020a03811660a0840152613dce565b600160a060020a03841660e084015260a0808601516001608060020a03169084015261010080860151908401526101408086015190840152505092915050565b614532615968565b633b9aca006020820152620186a0604082015260e0840151600160a060020a0316606082015260a08401516001608060020a03166080820152614576848484614f17565b60a08201529392505050565b6040805160098082526101408201909252606091829190816020015b606081526020019060019003908161459e57505083519091506145c9906001604060020a031661511b565b8160008151811015156145d857fe5b906020019060200201819052506145f2836020015161511b565b81600181518110151561460157fe5b602090810290910101526040830151614622906001604060020a031661511b565b81600281518110151561463157fe5b60209081029091010152606083015161465290600160a060020a0316615134565b81600381518110151561466157fe5b6020908102909101015260808301516146799061511b565b81600481518110151561468857fe5b6020908102909101015260a08301516146a090615164565b8160058151811015156146af57fe5b6020908102909101015260c08301516146c79061511b565b8160068151811015156146d657fe5b6020908102909101015260e08301516146ee9061511b565b8160078151811015156146fd57fe5b602090810290910101526101008301516147169061511b565b81600881518110151561472557fe5b60209081029091010152612d97816151e7565b61474c6147478383600061452a565b615241565b600490930192909255505050565b60006060614778600461476c856152b3565b9063ffffffff6152d616565b9050612d9781600081518110151561478c57fe5b9060200190602002015161535c565b6000806000806000602086518115156147b057fe5b06156147bb57600080fd5b8551602090049350601084106147d057600080fd5b5087905060205b6020840281116149055785810151925060028806151561487657604080516020808201859052818301869052825180830384018152606090920192839052815191929182918401908083835b602083106148425780518252601f199092019160209182019101614823565b6001836020036101000a038019825116818451168082178552505050505050905001915050604051809103902091506148f7565b604080516020808201869052818301859052825180830384018152606090920192839052815191929182918401908083835b602083106148c75780518252601f1990920191602091820191016148a8565b6001836020036101000a038019825116818451168082178552505050505050905001915050604051809103902091505b6002880497506020016147d7565b50949094149695505050505050565b6000818310156149245781612d97565b5090919050565b60058201805464ff00000000191664010000000017905581546001604060020a0342811660c060020a0277ffffffffffffffffffffffffffffffffffffffffffffffff909216919091178355600184018054918316604060020a026fffffffffffffffff000000000000000019909216919091179055600454604080519182526020820183905280517ffb96205e4b3633fd57aa805b26b51ecf528714a10241a4af015929dce86768d99281900390910190a1505050565b815460009081908190608060020a90046001604060020a0316841115614a0c5760009250613dce565b60008481526003860160205260409020600281015490925062010000900460ff161515614a3c5760009250613dce565b600282015460ff1615614a6e576001820154426001604060020a0360c060020a90920491909116600f01119250613dce565b600185015482546001604060020a03918216608060020a9091049091161115614a9a5760009250613dce565b508054608060020a90046001604060020a0316600090815260048501602052604090206005810154640100000000900460ff1615614adb5760019250613dce565b60058101546301000000900460ff1615614af85760009250613dce565b5442600f608060020a9092046001604060020a0316919091011115949350505050565b600081815260038301602052604081206002810154909190819062010000900460ff1615614b4857600080fd5b8254608060020a90046001604060020a031691505b825460c060020a90046001604060020a03168211614c0857506000818152600485016020526040902060058101546301000000900460ff1680614baa5750600581015462010000900460ff165b15614bb457614c08565b60058101805464ff00000000191664010000000017905580546001604060020a03421660c060020a0277ffffffffffffffffffffffffffffffffffffffffffffffff90911617815560019190910190614b5d565b8254600019909201916001604060020a03608060020a909104168210614cb1576001850180546001604060020a03808516604060020a026fffffffffffffffff0000000000000000199092169190911790915560045484546040805192835260208301889052608060020a909104909216818301526060810184905290517f70801d4d63b3da6c19ba7349911f45bed5a99ccdfb51b8138c105872529bebd59181900360800190a15b5050505050565b600082820183811015612d9757600080fd5b600060606000835160011415614cfa57836000815181101515614ce957fe5b906020019060200201519250614f10565b835160029060010104604051908082528060200260200182016040528015614d2c578160200160208202803883390190505b5091505b8351816001011015614e1a578381815181101515614d4a57fe5b906020019060200201518482600101815181101515614d6557fe5b6020908102909101810151604080518084019490945283810191909152805180840382018152606090930190819052825190918291908401908083835b60208310614dc15780518252601f199092019160209182019101614da2565b6001836020036101000a038019825116818451168082178552505050505050905001915050604051809103902082600283811515614dfb57fe5b04815181101515614e0857fe5b60209081029091010152600201614d30565b83516002900660011415614f0457835184906000198101908110614e3a57fe5b90602001906020020151846001865103815181101515614e5657fe5b6020908102909101810151604080518084019490945283810191909152805180840382018152606090930190819052825190918291908401908083835b60208310614eb25780518252601f199092019160209182019101614e93565b6001836020036101000a038019825116818451168082178552505050505050905001915050604051809103902082600283811515614eec57fe5b04815181101515614ef957fe5b602090810290910101525b614f0d82614cca565b92505b5050919050565b6060600084604001518015614f2e57508460200151155b15614f3857615113565b82614f63577f141ecf4600000000000000000000000000000000000000000000000000000000614f85565b7fa9f79308000000000000000000000000000000000000000000000000000000005b9050808560200151614f98576000614f9b565b60015b60c0808801516101008901516101408a01516040805160ff9690961660208088018281529288018d9052600160a060020a03909516606088018190526080880185905260a0808901908152845197890197909752835191978d979196919260e09091019185019080838360005b83811015615020578181015183820152602001615008565b50505050905090810190601f16801561504d5780820380516001836020036101000a031916815260200191505b50965050505050505060405160208183030381529060405260405160200180837bffffffffffffffffffffffffffffffffffffffffffffffffffffffff19167bffffffffffffffffffffffffffffffffffffffffffffffffffffffff1916815260040182805190602001908083835b602083106150db5780518252601f1990920191602091820191016150bc565b6001836020036101000a0380198251168184511680821785525050505050509050019250505060405160208183030381529060405291505b509392505050565b606061512e61512983615380565b615164565b92915050565b60408051741400000000000000000000000000000000000000008318601482015260348101909152606090612d97815b6060815160011480156151c3575081517f7f0000000000000000000000000000000000000000000000000000000000000090839060009081106151a357fe5b90602001015160f860020a900460f860020a02600160f860020a03191611155b156151cf575080610bcb565b61512e6151e18351608060ff166154b1565b836155d9565b604080516000808252602082019092526060915b835181101561522f5761522582858381518110151561521657fe5b906020019060200201516155d9565b91506001016151fb565b614f0d6151e1835160c060ff166154b1565b6000606061524e83614582565b9050806040518082805190602001908083835b602083106152805780518252601f199092019160209182019101615261565b5181516020939093036101000a600019018019909116921691909117905260405192018290039091209695505050505050565b6152bb6159d0565b50805160408051808201909152602092830181529182015290565b60606152e06159e7565b60008360405190808252806020026020018201604052801561531c57816020015b6153096159d0565b8152602001906001900390816153015790505b509250615328856156e3565b91505b83811015613dce5761533c82615708565b838281518110151561534a57fe5b6020908102909101015260010161532b565b600080600061536a8461573a565b90516020919091036101000a9004949350505050565b60408051602080825281830190925260609160009183918291849180820161040080388339019050509250856020840152600093505b60208410156154145782848151811015156153cd57fe5b60209101015160f860020a90819004027fff00000000000000000000000000000000000000000000000000000000000000161561540957615414565b6001909301926153b6565b836020036040519080825280601f01601f191660200182016040528015615445578160200160208202803883390190505b509150600090505b81518110156154a857825160018501948491811061546757fe5b90602001015160f860020a900460f860020a02828281518110151561548857fe5b906020010190600160f860020a031916908160001a90535060010161544d565b50949350505050565b60608080604060020a851061552757604080517f08c379a000000000000000000000000000000000000000000000000000000000815260206004820152600e60248201527f696e70757420746f6f206c6f6e67000000000000000000000000000000000000604482015290519081900360640190fd5b6040805160018082528183019092529060208083019080388339019050509150603785116155875783850160f860020a0282600081518110151561556757fe5b906020010190600160f860020a031916908160001a905350819250613dce565b61559085615380565b90508381510160370160f860020a028260008151811015156155ae57fe5b906020010190600160f860020a031916908160001a9053506155d082826155d9565b95945050505050565b60608060008084518651016040519080825280601f01601f191660200182016040528015615611578160200160208202803883390190505b50925060009150600090505b855181101561567957858181518110151561563457fe5b90602001015160f860020a900460f860020a02838381518110151561565557fe5b906020010190600160f860020a031916908160001a9053506001918201910161561d565b5060005b84518110156156d957848181518110151561569457fe5b90602001015160f860020a900460f860020a0283838151811015156156b557fe5b906020010190600160f860020a031916908160001a9053506001918201910161567d565b5090949350505050565b6156eb6159e7565b60006156f68361579d565b83519383529092016020820152919050565b6157106159d0565b6020820151600061572082615803565b828452602080850182905292019390910192909252919050565b805180516000918291821a9082608083101561575c5781945060019350615795565b60b883101561577a5760018660200151039350816001019450615795565b60b78303905080600187602001510303935080820160010194505b505050915091565b8051805160009190821a9060808210156157ba5760009250614f10565b60b88210806157d5575060c082101580156157d5575060f882105b156157e35760019250614f10565b60c08210156157f85760b51982019250614f10565b5060f5190192915050565b8051600090811a608081101561581c5760019150611249565b60b881101561124957607e190192915050565b81548183558181111561585b5760060281600602836000526020600020918201910161585b9190615a08565b505050565b828054600181600116156101000203166002900490600052602060002090601f016020900481019282601f106158a157805160ff19168380011785556158ce565b828001600101855582156158ce579182015b828111156158ce5782518255916020019190600101906158b3565b506158da929150615a8c565b5090565b81548183558181111561585b5760020281600202836000526020600020918201910161585b9190615aa6565b604080516101608101825260008082526020820181905291810182905260608082018390526080820183905260a0820183905260c0820183905260e08201839052610100820183905261012082019290925261014081019190915290565b6101206040519081016040528060006001604060020a031681526020016000815260200160006001604060020a031681526020016000600160a060020a0316815260200160008152602001606081526020016000815260200160008152602001600081525090565b604080518082019091526000808252602082015290565b6060604051908101604052806159fb6159d0565b8152602001600081525090565b611a2191905b808211156158da5780547bffffffffffffffffffffffffffffffffffffffffffffffffffffffff1916815560018101805473ffffffffffffffffffffffffffffffffffffffff19908116909155600282018054909116905560006003820181905560048201819055615a836005830182615b03565b50600601615a0e565b611a2191905b808211156158da5760008155600101615a92565b611a2191905b808211156158da57805478ffffffffffffffffffffffffffffffffffffffffffffffffff191681556001810180547bffffffffffffffffffffffffffffffffffffffffffffffffffffffff19169055600201615aac565b50805460018160011615610100020316600290046000825580601f10615b295750612e83565b601f016020900490600052602060002090810190612e839190615a8c56003d4a04291c66b06f39a4ecb817875b12b5485a05ec563133a56a905305c48e55a165627a7a723058207e630ffaa6d4a7ca8e761202c02f1fdee7e9875f6a51943f151d5ed8cf1f60fc0029",
  "source": "pragma solidity ^0.4.24;\n\nimport \"./lib/SafeMath.sol\";\nimport \"./lib/Math.sol\";\nimport \"./lib/Data.sol\";\nimport \"./lib/Address.sol\";\nimport \"./lib/BMT.sol\";\n// import \"./patricia_tree/PatriciaTreeFace.sol\";\n\nimport \"./RootChainStorage.sol\";\nimport \"./RootChainEvent.sol\";\n\n// TODO: use SafeMath\n// TODO: remove state. use epoch.isRequest and epoch.userActivated\ncontract RootChain is RootChainStorage, RootChainEvent {\n  using SafeMath for uint;\n  using SafeMath for uint64;\n  using Math for *;\n  using Data for *;\n  using Address for address;\n  using BMT for *;\n\n  /*\n   * Modifier\n   */\n  modifier onlyOperator() {\n    require(msg.sender == operator);\n    _;\n  }\n\n  modifier onlyValidCost(uint _expected) {\n    require(msg.value >= _expected);\n    _;\n  }\n\n  modifier finalizeBlocks() {\n    if (!development) {\n      _finalizeBlock();\n    }\n    _;\n  }\n\n  modifier checkURBSubmission () {\n    Data.Fork storage fork = forks[currentFork];\n    if (fork.timestamp + Data.URE_TIMEOUT() < block.timestamp) {\n      // TODO: reset fork\n      fork.forkedBlock = 0;\n    }\n    _;\n  }\n\n  /*\n   * Constructor\n   */\n  constructor(\n    address _epochHandler,\n    address _etherToken,\n    bool _development,\n    uint _NRELength,\n\n    // genesis block state\n    bytes32 _statesRoot,\n    bytes32 _transactionsRoot,\n    bytes32 _receiptsRoot\n  )\n    public\n  {\n    require(_epochHandler.isContract());\n    require(_etherToken.isContract());\n\n    epochHandler = _epochHandler;\n    etherToken = _etherToken;\n    development = _development;\n    operator = msg.sender;\n    NRELength = _NRELength;\n\n    Data.Fork storage fork = forks[currentFork];\n    Data.PlasmaBlock storage genesis = fork.blocks[0];\n    genesis.statesRoot = _statesRoot;\n    genesis.transactionsRoot = _transactionsRoot;\n    genesis.receiptsRoot = _receiptsRoot;\n\n    // set up the genesis epoch\n    fork.epochs[0].timestamp = uint64(block.timestamp);\n    fork.epochs[0].initialized = true;\n\n    // prepare ORE#2\n    fork.epochs[2].isEmpty = true;\n    fork.epochs[2].isRequest = true;\n\n    _doFinalize(fork, genesis, 0);\n    _prepareToSubmitNRB();\n  }\n\n  /*\n   * External Functions\n   */\n\n  /**\n   * @notice map requestable contract in child chain\n   * NOTE: only operator?\n   */\n  function mapRequestableContractByOperator(address _rootchain, address _childchain)\n    external\n    onlyOperator\n    returns (bool success)\n  {\n    require(_rootchain.isContract());\n    require(requestableContracts[_rootchain] == address(0));\n\n    requestableContracts[_rootchain] = _childchain;\n\n    emit RequestableContractMapped(_rootchain, _childchain);\n    return true;\n  }\n\n  function getNumEROs() external view returns (uint) {\n    return EROs.length;\n  }\n\n  function getNumORBs() external view returns (uint) {\n    return ORBs.length;\n  }\n\n  function getEROBytes(uint _requestId) public view returns (bytes memory out) {\n    Data.Request storage ERO = EROs[_requestId];\n\n    return ERO.toChildChainRequest(requestableContracts[ERO.to])\n      .toTX(_requestId, false)\n      .toBytes();\n  }\n\n  /**\n   * @notice Declare to submit URB.\n   */\n  function prepareToSubmitURB()\n    external\n    payable\n    onlyValidCost(COST_URB_PREPARE)\n    // finalizeBlocks\n  {\n    // delegate to epoch handler\n    require(epochHandler.delegatecall(bytes4(keccak256(\"prepareToSubmitURB()\"))));\n  }\n\n  // TODO: Delegate the validity check to TrueBit Verification Game contracts\n  function submitNRB(\n    uint _pos,\n    bytes32 _statesRoot,\n    bytes32 _transactionsRoot,\n    bytes32 _receiptsRoot\n  )\n    external\n    payable\n    onlyOperator\n    onlyValidCost(COST_NRB)\n    finalizeBlocks\n    returns (bool success)\n  {\n    uint forkNumber;\n    uint blockNumber;\n\n    (forkNumber, blockNumber) = _pos.decodePos();\n\n    require(currentFork == forkNumber);\n    require(forks[forkNumber].lastBlock + 1 == blockNumber);\n\n    Data.Fork storage curFork = forks[forkNumber];\n\n    uint epochNumber;\n\n    // If not forked or already rebased\n    if (forkNumber == 0 || forks[forkNumber - 1].forkedBlock != 0 && curFork.rebased) {\n      (epochNumber, blockNumber) = curFork.insertBlock(\n        _statesRoot,\n        _transactionsRoot,\n        _receiptsRoot,\n        false,\n        false,\n        false\n      );\n\n      emit BlockSubmitted(\n        forkNumber,\n        epochNumber,\n        blockNumber,\n        false,\n        false\n      );\n\n      if (blockNumber == curFork.epochs[epochNumber].endBlockNumber) {\n        _prepareToSubmitORB();\n      }\n\n      return;\n    }\n\n    // Otherwise, compare to block in previous fork\n    (epochNumber, blockNumber) = curFork.insertBlock(\n      _statesRoot,\n      _transactionsRoot,\n      _receiptsRoot,\n      false,\n      false,\n      true\n    );\n\n    curFork.blocks[blockNumber].referenceBlock = curFork.nextBlockToRebase;\n\n    Data.Fork storage preFork = forks[forkNumber - 1];\n\n    require(_transactionsRoot == preFork.blocks[curFork.nextBlockToRebase].transactionsRoot);\n\n    emit BlockSubmitted(\n      forkNumber,\n      epochNumber,\n      blockNumber,\n      false,\n      false\n    );\n\n    // if NRB' is filled.\n    if (curFork.checkNextNRBToRebase(preFork)) {\n      curFork.epochs[epochNumber].endBlockNumber = uint64(blockNumber);\n      curFork.rebased = true;\n\n      emit EpochRebased(\n        forkNumber,\n        epochNumber,\n        curFork.epochs[epochNumber].startBlockNumber,\n        blockNumber,\n        0,\n        0,\n        false,\n        false,\n        false\n      );\n\n      _prepareToSubmitNRB();\n    }\n\n    // set next block to rebase iterating epochs\n    return true;\n  }\n\n  function submitORB(\n    uint _pos,\n    bytes32 _statesRoot,\n    bytes32 _transactionsRoot,\n    bytes32 _receiptsRoot\n  )\n    external\n    payable\n    onlyOperator\n    onlyValidCost(COST_ORB)\n    finalizeBlocks\n    returns (bool success)\n  {\n    uint forkNumber;\n    uint blockNumber;\n\n    (forkNumber, blockNumber) = _pos.decodePos();\n\n    require(currentFork == forkNumber);\n    require(forks[forkNumber].lastBlock + 1 == blockNumber);\n\n    Data.Fork storage curFork = forks[forkNumber];\n\n    uint epochNumber;\n    uint requestBlockId;\n\n    // If not forked or already rebased\n    if (forkNumber == 0 || forks[forkNumber - 1].forkedBlock != 0 && curFork.rebased) {\n      (epochNumber, blockNumber) = curFork.insertBlock(\n        _statesRoot,\n        _transactionsRoot,\n        _receiptsRoot,\n        true,\n        false,\n        false\n      );\n\n      if (!development) {\n        _transactionsRoot._checkTxRoot(\n          ORBs[curFork.blocks[curFork.lastBlock].requestBlockId],\n          EROs,\n          false\n        );\n      }\n\n      requestBlockId = curFork.blocks[blockNumber].requestBlockId;\n\n      // accunulate # of enters into epoch\n      curFork.epochs[epochNumber].numEnter += ORBs[requestBlockId].numEnter;\n\n      emit BlockSubmitted(\n        forkNumber,\n        epochNumber,\n        blockNumber,\n        true,\n        false\n      );\n\n      if (blockNumber == curFork.epochs[epochNumber].endBlockNumber) {\n        _prepareToSubmitNRB();\n      }\n\n      return;\n    }\n\n    // Otherwise, compare to block in previous fork\n    (epochNumber, blockNumber) = curFork.insertBlock(\n      _statesRoot,\n      _transactionsRoot,\n      _receiptsRoot,\n      true,\n      false,\n      true\n    );\n\n    Data.Fork storage preFork = forks[forkNumber - 1];\n    Data.PlasmaBlock storage curBlock = curFork.blocks[blockNumber];\n\n    curBlock.referenceBlock = curFork.nextBlockToRebase;\n    curBlock.requestBlockId = preFork.blocks[curFork.nextBlockToRebase].requestBlockId;\n\n    if (!development) {\n      _transactionsRoot._checkTxRoot(\n        ORBs[curBlock.requestBlockId],\n        EROs,\n        true\n      );\n    }\n\n    emit BlockSubmitted(\n      forkNumber,\n      epochNumber,\n      blockNumber,\n      true,\n      false\n    );\n\n    // if ORB' is filled.\n    if (curFork.checkNextORBToRebase(preFork, ORBs)) {\n      curFork.epochs[epochNumber].endBlockNumber = uint64(blockNumber);\n\n      emit EpochRebased(\n        forkNumber,\n        epochNumber,\n        curFork.epochs[epochNumber].startBlockNumber,\n        blockNumber,\n        curFork.epochs[epochNumber].requestStart,\n        0,\n        false,\n        true,\n        false\n      );\n\n      prepareNREAfterURE();\n    }\n\n    // set next block to rebase iterating epochs\n    return true;\n  }\n\n  function submitURB(\n    uint _pos,\n    bytes32 _statesRoot,\n    bytes32 _transactionsRoot,\n    bytes32 _receiptsRoot\n  )\n    external\n    payable\n    onlyValidCost(COST_URB)\n    returns (bool success)\n  {\n    uint forkNumber;\n    uint blockNumber;\n\n    (forkNumber, blockNumber) = _pos.decodePos();\n\n\n    bool firstURB = currentFork + 1 == forkNumber;\n    require(firstURB || currentFork == forkNumber);\n\n    Data.Fork storage fork = forks[forkNumber];\n\n    if (firstURB) {\n      currentFork = forkNumber;\n      fork = forks[forkNumber];\n\n      require(fork.timestamp + Data.URE_TIMEOUT() > block.timestamp);\n\n      // check block number\n      require(blockNumber == fork.firstBlock);\n\n      emit Forked(forkNumber, fork.lastEpoch, fork.firstBlock);\n    } else {\n      // check block number\n      require(blockNumber == fork.lastBlock.add64(1));\n    }\n\n    Data.Epoch storage epoch = fork.epochs[fork.lastEpoch];\n\n    require(epoch.isRequest);\n    require(epoch.userActivated);\n\n    Data.PlasmaBlock storage b = fork.blocks[blockNumber];\n\n    b.epochNumber = fork.lastEpoch;\n    b.statesRoot = _statesRoot;\n    b.transactionsRoot = _transactionsRoot;\n    b.receiptsRoot = _receiptsRoot;\n    b.timestamp = uint64(block.timestamp);\n    b.isRequest = true;\n    b.userActivated = true;\n\n    fork.lastBlock = uint64(blockNumber);\n\n    if (!development) {\n      _transactionsRoot._checkTxRoot(\n        URBs[fork.blocks[fork.lastBlock].requestBlockId],\n        ERUs,\n        false\n      );\n    }\n\n    emit BlockSubmitted(\n      forkNumber,\n      fork.lastEpoch,\n      blockNumber,\n      true,\n      true\n    );\n\n    // TODO: use internal function to avoide stack too deep error\n    if (blockNumber == epoch.endBlockNumber) {\n      prepareOREAfterURE();\n    }\n\n    return true;\n  }\n\n  function finalizeBlock() external returns (bool success) {\n    require(_finalizeBlock());\n    return true;\n  }\n\n  /**\n   * @notice Computation verifier contract reverts the block in case of wrong\n   *         computation.\n   */\n  /* function revertBlock(uint _forkNumber, uint _blockNumber) external {\n    // TODO: make a new fork?\n  } */\n\n  function challengeExit(\n    uint _forkNumber,\n    uint _blockNumber,\n    uint _index,\n    bytes _receiptData,\n    bytes _proof\n  ) external {\n    Data.Fork storage fork = forks[_forkNumber];\n    Data.PlasmaBlock storage pb = fork.blocks[_blockNumber];\n\n    require(pb.isRequest);\n    require(pb.finalized);\n\n    uint requestId;\n    bool userActivated = pb.userActivated;\n\n    if (userActivated) {\n      requestId = _doChallengeExit(pb, URBs[pb.requestBlockId], ERUs, _index, _receiptData, _proof);\n      // TODO: dynamic cost for ERU\n      msg.sender.transfer(COST_ERU);\n    } else {\n      requestId = _doChallengeExit(pb, ORBs[pb.requestBlockId], EROs,_index, _receiptData, _proof);\n      msg.sender.transfer(COST_ERO);\n    }\n\n    emit RequestChallenged(requestId, userActivated);\n  }\n\n  function _doChallengeExit(\n    Data.PlasmaBlock storage _pb,\n    Data.RequestBlock storage _rb,\n    Data.Request[] storage _rs,\n    uint _index,\n    bytes _receiptData,\n    bytes _proof\n  )\n    internal\n    returns (uint requestId)\n  {\n    requestId = _rb.requestStart + _index;\n    require(requestId <= _rb.requestEnd);\n\n    Data.Request storage r = _rs[requestId];\n\n    require(_pb.finalizedAt + CP_EXIT > block.timestamp);\n    require(_pb.finalized);\n    require(!r.challenged);\n    require(!r.finalized);\n\n    bytes32 leaf = keccak256(_receiptData);\n\n    require(_receiptData.toReceiptStatus() == 0);\n    if (!development) {\n      require(BMT.checkMembership(leaf, _index, _pb.receiptsRoot, _proof));\n    }\n\n    r.challenged = true;\n\n    return;\n  }\n\n  /**\n   * @notice It challenges on NRBs containing null address transaction.\n   */\n  function challengeNullAddress(\n    uint _blockNumber,\n    bytes _key,\n    bytes _txByte, // RLP encoded transaction\n    uint _branchMask,\n    bytes32[] _siblings\n  ) external {\n    Data.Fork storage fork = forks[currentFork];\n    Data.PlasmaBlock storage pb = fork.blocks[_blockNumber];\n\n    // check if the plasma block is NRB\n    require(!pb.isRequest);\n\n    // check if challenge period does not end yet\n    require(pb.timestamp + CP_COMPUTATION > block.timestamp);\n\n    // PatriciaTreeFace trie;\n    // if (pb.userActivated) {\n    //   trie = PatriciaTreeFace(URBs[pb.requestBlockId].trie);\n    // } else {\n    //   trie = PatriciaTreeFace(ORBs[pb.requestBlockId].trie);\n    // }\n\n    // Data.TX memory txData = Data.toTX(_txByte);\n    // require(txData.isNATX());\n\n    // TODO: use patricia verify library\n    // require(trie.verifyProof(pb.transactionsRoot, _key, _txByte, _branchMask, _siblings));\n\n    // TODO: fork? penalize?\n  }\n\n  /*\n   * Public Functions\n   */\n  function startExit(\n    address _to,\n    bytes32 _trieKey,\n    bytes _trieValue\n  )\n    public\n    payable\n    onlyValidCost(COST_ERO)\n    returns (bool success)\n  {\n    uint requestId;\n    requestId = _storeRequest(EROs, ORBs, _to, 0, _trieKey, _trieValue, true, false);\n\n    emit RequestCreated(requestId, msg.sender, _to, 0, _trieKey, _trieValue, true, false);\n    return true;\n  }\n\n  function startEnter(\n    address _to,\n    bytes32 _trieKey,\n    bytes _trieValue\n  )\n    public\n    payable\n    returns (bool success)\n  {\n    uint requestId;\n    uint weiAmount = msg.value;\n    requestId = _storeRequest(EROs, ORBs, _to, weiAmount, _trieKey, _trieValue, false, false);\n    numEnterForORB += 1;\n\n    Data.Fork storage fork = forks[currentFork];\n\n    emit RequestApplied(requestId, false);\n    emit RequestCreated(requestId, msg.sender, _to, weiAmount, _trieKey, _trieValue, false, false);\n    return true;\n  }\n\n  function makeERU(\n    address _to,\n    bytes32 _trieKey,\n    bytes _trieValue\n  )\n    public\n    payable\n    onlyValidCost(COST_ERU)\n    returns (bool success)\n  {\n    uint requestId;\n    requestId = _storeRequest(ERUs, URBs, _to, 0, _trieKey, _trieValue, true, true);\n\n    emit RequestCreated(requestId, msg.sender, _to, 0, _trieKey, _trieValue, true, true);\n    return true;\n  }\n\n  /**\n   * @notice Finalize a request if request block including it\n   *         is finalized.\n   * TODO: refactor implementation\n   */\n  function finalizeRequest() public returns (bool success) {\n    uint epochNumber;\n    uint requestId;\n    Data.Fork storage fork = forks[lastAppliedForkNumber];\n\n    require(lastAppliedBlockNumber <= fork.lastBlock);\n\n    Data.PlasmaBlock storage pb = fork.blocks[lastAppliedBlockNumber];\n    epochNumber = pb.epochNumber;\n\n    Data.Epoch storage epoch = fork.epochs[epochNumber];\n\n    // find next fork\n    if (fork.forkedBlock != 0 && lastAppliedBlockNumber >= fork.forkedBlock) {\n      lastAppliedForkNumber += 1;\n      fork = forks[lastAppliedForkNumber];\n\n      epochNumber = fork.firstEpoch;\n      epoch = fork.epochs[epochNumber];\n\n      lastAppliedBlockNumber = fork.firstBlock;\n      pb = fork.blocks[lastAppliedBlockNumber];\n    }\n\n    // find next request block\n    if (!pb.isRequest) {\n      while (!epoch.isRequest || epoch.isEmpty) {\n        require(fork.epochs[epochNumber].initialized);\n        epochNumber = epochNumber + 1;\n        epoch = fork.epochs[epochNumber];\n      }\n\n      lastAppliedBlockNumber = epoch.startBlockNumber;\n      pb = fork.blocks[lastAppliedBlockNumber];\n    }\n\n    require(!epoch.isEmpty);\n    require(epoch.isRequest);\n    require(pb.isRequest);\n    require(pb.finalized);\n    require(pb.finalizedAt + CP_EXIT < block.timestamp);\n\n    // apply ERU\n    if (pb.userActivated) {\n      requestId = lastAppliedERU;\n\n      require(ERUs.length > requestId);\n\n      Data.Request storage ERU = ERUs[requestId];\n      Data.RequestBlock storage URB = URBs[pb.requestBlockId];\n\n      require(URB.requestStart <= requestId && requestId <= URB.requestEnd);\n\n      // check next block\n      if (requestId == URB.requestEnd) {\n        if (fork.forkedBlock > 0 && lastAppliedBlockNumber == fork.forkedBlock - 1) {\n          lastAppliedForkNumber += 1;\n        }\n\n        lastAppliedBlockNumber += 1;\n      }\n\n      lastAppliedERU = requestId + 1;\n\n      if (ERU.isExit && !ERU.challenged) {\n        // NOTE: do not check it reverted or not?\n        ERU.applyRequestInRootChain(requestId);\n        // TODO: dynamic cost and bond release period\n        ERU.requestor.transfer(COST_ERU);\n        emit RequestApplied(requestId, true);\n      }\n      ERU.finalized = true;\n\n      emit RequestFinalized(requestId, true);\n      return true;\n    }\n\n    // apply ERO\n    requestId = lastAppliedERO;\n\n    require(EROs.length > requestId);\n\n    Data.Request storage ERO = EROs[requestId];\n    Data.RequestBlock storage ORB = ORBs[pb.requestBlockId];\n\n    require(ORB.requestStart <= requestId && requestId <= ORB.requestEnd);\n\n    // check next block\n    if (requestId == ORB.requestEnd) {\n      if (fork.forkedBlock > 0 && lastAppliedBlockNumber == fork.forkedBlock - 1) {\n        lastAppliedForkNumber += 1;\n      }\n\n      lastAppliedBlockNumber += 1;\n    }\n\n    lastAppliedERO = requestId + 1;\n\n    if (ERO.isExit && !ERO.challenged) {\n      // NOTE: do not check it reverted or not?\n      ERO.applyRequestInRootChain(requestId);\n      ERO.requestor.transfer(COST_ERO);\n      emit RequestApplied(requestId, false);\n    }\n    ERO.finalized = true;\n\n    emit RequestFinalized(requestId, false);\n    return true;\n  }\n\n  function finalizeRequests(uint n) external returns (bool success) {\n    for (uint i = 0; i < n; i++) {\n      require(finalizeRequest());\n    }\n\n    return true;\n  }\n\n  /**\n   * @notice return the max number of request\n   */\n  function MAX_REQUESTS() public pure returns (uint maxRequests) {\n    return Data.MAX_REQUESTS();\n  }\n\n  function lastBlock(uint forkNumber) public view returns (uint lastBlock) {\n    return forks[forkNumber].lastBlock;\n  }\n\n  function lastEpoch(uint forkNumber) public view returns (uint lastBlock) {\n    return forks[forkNumber].lastEpoch;\n  }\n\n  function getEpoch(\n    uint forkNumber,\n    uint epochNumber\n  ) public view returns (\n    uint64 requestStart,\n    uint64 requestEnd,\n    uint64 startBlockNumber,\n    uint64 endBlockNumber,\n    uint64 firstRequestBlockId,\n    uint64 numEnter,\n    bool isEmpty,\n    bool initialized,\n    bool isRequest,\n    bool userActivated,\n    bool rebase\n  ) {\n    Data.Epoch storage epoch = forks[forkNumber].epochs[epochNumber];\n\n    return\n    (\n      epoch.requestStart,\n      epoch.requestEnd,\n      epoch.startBlockNumber,\n      epoch.endBlockNumber,\n      epoch.firstRequestBlockId,\n      epoch.numEnter,\n      epoch.isEmpty,\n      epoch.initialized,\n      epoch.isRequest,\n      epoch.userActivated,\n      epoch.rebase\n    );\n  }\n\n  function getLastEpoch() public view returns (\n    uint64 requestStart,\n    uint64 requestEnd,\n    uint64 startBlockNumber,\n    uint64 endBlockNumber,\n    uint64 firstRequestBlockId,\n    uint64 numEnter,\n    bool isEmpty,\n    bool initialized,\n    bool isRequest,\n    bool userActivated,\n    bool rebase\n  ) {\n    Data.Epoch storage epoch = forks[currentFork].epochs[forks[currentFork].lastEpoch];\n\n    return\n    (\n      epoch.requestStart,\n      epoch.requestEnd,\n      epoch.startBlockNumber,\n      epoch.endBlockNumber,\n      epoch.firstRequestBlockId,\n      epoch.numEnter,\n      epoch.isEmpty,\n      epoch.initialized,\n      epoch.isRequest,\n      epoch.userActivated,\n      epoch.rebase\n    );\n  }\n\n  function getBlock(\n    uint forkNumber,\n    uint blockNumber\n  ) public view returns (\n    uint64 epochNumber,\n    uint64 requestBlockId,\n    uint64 referenceBlock,\n    uint64 timestamp,\n    bytes32 statesRoot,\n    bytes32 transactionsRoot,\n    bytes32 receiptsRoot,\n    bool isRequest,\n    bool userActivated,\n    bool challenged,\n    bool challenging,\n    bool finalized\n  ) {\n    epochNumber = forks[forkNumber].blocks[blockNumber].epochNumber;\n    requestBlockId = forks[forkNumber].blocks[blockNumber].requestBlockId;\n    referenceBlock = forks[forkNumber].blocks[blockNumber].referenceBlock;\n    timestamp = forks[forkNumber].blocks[blockNumber].timestamp;\n    statesRoot = forks[forkNumber].blocks[blockNumber].statesRoot;\n    transactionsRoot = forks[forkNumber].blocks[blockNumber].transactionsRoot;\n    receiptsRoot = forks[forkNumber].blocks[blockNumber].receiptsRoot;\n    isRequest = forks[forkNumber].blocks[blockNumber].isRequest;\n    userActivated = forks[forkNumber].blocks[blockNumber].userActivated;\n    challenged = forks[forkNumber].blocks[blockNumber].challenged;\n    challenging = forks[forkNumber].blocks[blockNumber].challenging;\n    finalized = forks[forkNumber].blocks[blockNumber].finalized;\n\n    return;\n  }\n\n  function getBlockFinalizedAt(\n    uint forkNumber,\n    uint blockNumber\n  ) public view returns (uint) {\n    return forks[forkNumber].blocks[blockNumber].finalizedAt;\n  }\n\n  function getLastFinalizedBlock(uint forkNumber) public view returns (uint) {\n    return forks[forkNumber].lastFinalizedBlock;\n  }\n\n  /**\n   * @notice return true if the chain is forked by URB\n   */\n  function forked(uint _forkNumber) public view returns (bool result) {\n    return _forkNumber != currentFork;\n  }\n\n  /**\n   * @notice return true if the request is finalized\n   */\n  function getRequestFinalized(uint _requestId, bool _userActivated) public view returns (bool finalized) {\n    if (_userActivated) {\n      ERUs[_requestId].finalized;\n    }\n\n    return EROs[_requestId].finalized;\n  }\n\n  /*\n   * Internal Functions\n   */\n  function _storeRequest(\n    Data.Request[] storage _requests,\n    Data.RequestBlock[] storage _rbs,\n    address _to,\n    uint _weiAmount,\n    bytes32 _trieKey,\n    bytes _trieValue,\n    bool _isExit,\n    bool _userActivated\n  )\n    internal\n    returns (uint requestId)\n  {\n    // trieValue cannot be longer than 1KB.\n    require(_trieValue.length <= 1024);\n\n    bool isTransfer = _to == etherToken;\n\n    // check parameters for simple ether transfer and message-call\n    require(isTransfer && !_isExit || (requestableContracts[_to] != address(0)));\n\n    requestId = _requests.length++;\n    Data.Request storage r = _requests[requestId];\n\n    r.requestor = msg.sender;\n    r.to = _to;\n    r.timestamp = uint64(block.timestamp);\n    r.isExit = _isExit;\n    r.isTransfer = isTransfer;\n    r.value = uint128(_weiAmount);\n    r.trieKey = _trieKey;\n    r.trieValue = _trieValue;\n\n    // apply message-call in case of enter request.\n    if (!_isExit) {\n      require(r.applyRequestInRootChain(requestId));\n    }\n\n    uint requestBlockId = _rbs.length == 0 ? _rbs.length++ : _rbs.length - 1;\n\n    Data.RequestBlock storage rb = _rbs[requestBlockId];\n\n    // make a new RequestBlock.\n    if (rb.submitted || rb.requestEnd - rb.requestStart + 1 == MAX_REQUESTS()) {\n      rb.submitted = true;\n      rb = _rbs[_rbs.length++];\n      rb.requestStart = uint64(requestId);\n    }\n\n    rb.init();\n\n    rb.requestEnd = uint64(requestId);\n    if (!_isExit) {\n      rb.numEnter += 1;\n    }\n\n    if (isTransfer && !_isExit) {\n      rb.addRequest(r, r.toChildChainRequest(msg.sender), requestId);\n    } else {\n      rb.addRequest(r, r.toChildChainRequest(requestableContracts[_to]), requestId);\n    }\n  }\n\n  /**\n   * @notice prepare to submit ORB. It prevents further new requests from\n   * being included in the request blocks in the just next ORB epoch.\n   */\n  function _prepareToSubmitORB() internal {\n    // delegate to epoch handler\n    require(epochHandler.delegatecall(bytes4(keccak256(\"_prepareToSubmitORB()\"))));\n  }\n\n  function _prepareToSubmitNRB() internal {\n    // delegate to epoch handler\n    require(epochHandler.delegatecall(bytes4(keccak256(\"_prepareToSubmitNRB()\"))));\n  }\n\n  function prepareOREAfterURE() internal {\n    // delegate to epoch handler\n    require(epochHandler.delegatecall(bytes4(keccak256(\"prepareOREAfterURE()\"))));\n  }\n\n  function prepareNREAfterURE() internal {\n    // delegate to epoch handler\n    require(epochHandler.delegatecall(bytes4(keccak256(\"prepareNREAfterURE()\"))));\n  }\n\n  /**\n   * @notice finalize a block if possible.\n   */\n  function _finalizeBlock() internal returns (bool) {\n    // short circuit if waiting URBs\n    if (forks[currentFork].forkedBlock != 0) {\n      return false;\n    }\n\n    Data.Fork storage fork = forks[currentFork];\n    uint blockNumber = Math.max(fork.firstBlock, fork.lastFinalizedBlock + 1);\n\n    // short circuit if all blocks are submitted yet\n    if (blockNumber > fork.lastBlock) {\n      return false;\n    }\n\n    Data.PlasmaBlock storage pb = fork.blocks[blockNumber];\n\n    // short circuit if the block is under challenge\n    if (pb.challenging) {\n      return false;\n    }\n\n    // 1. finalize request block\n    if (pb.isRequest) {\n      // short circuit if challenge period doesn't end\n      if (pb.timestamp + CP_COMPUTATION > block.timestamp) {\n        return false;\n      }\n\n      // finalize block\n      _doFinalize(fork, pb, blockNumber);\n      return true;\n    }\n\n    // 2. finalize non request block\n\n    uint nextEpochNumber = pb.epochNumber + 1;\n\n    // if the first block of the next request epoch is finalized, finalize all\n    // blocks of the current non request epoch.\n    if (_checkFinalizable(fork, nextEpochNumber)) {\n      _doFinalizeEpoch(fork, pb.epochNumber);\n      return true;\n    }\n\n    // short circuit if challenge period doesn't end\n    if (pb.timestamp + CP_WITHHOLDING > block.timestamp) {\n      return false;\n    }\n\n    // finalize block\n    _doFinalize(fork, pb, blockNumber);\n    return true;\n  }\n\n  /**\n   * @notice return true if the first block of a request epoch (ORB epoch / URB epoch)\n   *         can be finalized.\n   */\n  function _checkFinalizable(Data.Fork storage fork, uint _epochNumber) internal view returns (bool) {\n    // cannot finalize future epoch\n    if (_epochNumber > fork.lastEpoch) {\n      return false;\n    }\n\n    Data.Epoch storage epoch = fork.epochs[_epochNumber];\n\n    // cannot finalize if it is not request epoch\n    if (!epoch.isRequest) {\n      return false;\n    }\n\n    if (epoch.isEmpty) {\n      // return if the epoch has ends challenge period\n      return epoch.timestamp + CP_COMPUTATION > block.timestamp;\n    }\n\n    // cannot finalize if the first block was not submitted\n    if (epoch.startBlockNumber > fork.lastBlock) {\n      return false;\n    }\n\n    Data.PlasmaBlock storage pb = fork.blocks[epoch.startBlockNumber];\n\n    // the block was already finalized\n    if (pb.finalized) {\n      return true;\n    }\n\n    // short circuit if the request block is under challenge\n    if (pb.challenging) {\n      return false;\n    }\n\n    // return if challenge period end\n    return pb.timestamp + CP_COMPUTATION <= block.timestamp;\n  }\n\n  /**\n   * @notice finalize a block\n   */\n  function _doFinalize(\n    Data.Fork storage _f,\n    Data.PlasmaBlock storage _pb,\n    uint _blockNumber\n  ) internal {\n    _pb.finalized = true;\n    _pb.finalizedAt = uint64(block.timestamp);\n    _f.lastFinalizedBlock = uint64(_blockNumber);\n\n    emit BlockFinalized(currentFork, _blockNumber);\n  }\n\n  /**\n   * @notice finalize all blocks in the non request epoch\n   */\n  function _doFinalizeEpoch(\n    Data.Fork storage _f,\n    uint _epochNumber\n  ) internal {\n    Data.Epoch storage epoch = _f.epochs[_epochNumber];\n\n    require(!epoch.isRequest);\n\n    uint lastBlockNumber = epoch.startBlockNumber;\n    for (; lastBlockNumber <= epoch.endBlockNumber; lastBlockNumber++) {\n      Data.PlasmaBlock storage pb = _f.blocks[lastBlockNumber];\n\n      // shrot circuit if block is under challenge or challenged\n      if (pb.challenging || pb.challenged) {\n        break;\n      }\n\n      pb.finalized = true;\n      pb.finalizedAt = uint64(block.timestamp);\n      // BlockFinalized event is not fired to reduce the gas cost.\n    }\n\n    lastBlockNumber = lastBlockNumber - 1;\n\n    if (lastBlockNumber >= epoch.startBlockNumber) {\n      _f.lastFinalizedBlock = uint64(lastBlockNumber);\n\n      // a single EpochFinalized event replaces lots of BlockFinalized events.\n      emit EpochFinalized(currentFork, _epochNumber, epoch.startBlockNumber, lastBlockNumber);\n    }\n\n    return;\n  }\n\n}\n",
  "sourcePath": "/Users/songjake/workspace/plasma-evm-contracts/contracts/RootChain.sol",
  "compiler": {
    "name": "solc",
    "version": "0.4.24+commit.e67f0147.Emscripten.clang"
  },
  "schemaVersion": "2.0.1",
  "updatedAt": "2019-04-02T12:37:15.242Z"
}