{
  "contractName": "AutoRefactorCoinage",
  "abi": [
    {
      "inputs": [
        {
          "internalType": "string",
          "name": "name",
          "type": "string"
        },
        {
          "internalType": "string",
          "name": "symbol",
          "type": "string"
        },
        {
          "internalType": "uint256",
          "name": "factor",
          "type": "uint256"
        }
      ],
      "payable": false,
      "stateMutability": "nonpayable",
      "type": "constructor"
    },
    {
      "anonymous": false,
      "inputs": [
        {
          "indexed": true,
          "internalType": "address",
          "name": "owner",
          "type": "address"
        },
        {
          "indexed": true,
          "internalType": "address",
          "name": "spender",
          "type": "address"
        },
        {
          "indexed": false,
          "internalType": "uint256",
          "name": "value",
          "type": "uint256"
        }
      ],
      "name": "Approval",
      "type": "event"
    },
    {
      "anonymous": false,
      "inputs": [
        {
          "indexed": false,
          "internalType": "uint256",
          "name": "previous",
          "type": "uint256"
        },
        {
          "indexed": false,
          "internalType": "uint256",
          "name": "current",
          "type": "uint256"
        },
        {
          "indexed": false,
          "internalType": "uint256",
          "name": "shiftCount",
          "type": "uint256"
        }
      ],
      "name": "FactorSet",
      "type": "event"
    },
    {
      "anonymous": false,
      "inputs": [
        {
          "indexed": true,
          "internalType": "address",
          "name": "account",
          "type": "address"
        }
      ],
      "name": "MinterAdded",
      "type": "event"
    },
    {
      "anonymous": false,
      "inputs": [
        {
          "indexed": true,
          "internalType": "address",
          "name": "account",
          "type": "address"
        }
      ],
      "name": "MinterRemoved",
      "type": "event"
    },
    {
      "anonymous": false,
      "inputs": [
        {
          "indexed": true,
          "internalType": "address",
          "name": "previousOwner",
          "type": "address"
        },
        {
          "indexed": true,
          "internalType": "address",
          "name": "newOwner",
          "type": "address"
        }
      ],
      "name": "OwnershipTransferred",
      "type": "event"
    },
    {
      "anonymous": false,
      "inputs": [
        {
          "indexed": true,
          "internalType": "address",
          "name": "from",
          "type": "address"
        },
        {
          "indexed": true,
          "internalType": "address",
          "name": "to",
          "type": "address"
        },
        {
          "indexed": false,
          "internalType": "uint256",
          "name": "value",
          "type": "uint256"
        }
      ],
      "name": "Transfer",
      "type": "event"
    },
    {
      "constant": true,
      "inputs": [],
      "name": "REFACTOR_BOUNDARY",
      "outputs": [
        {
          "internalType": "uint256",
          "name": "",
          "type": "uint256"
        }
      ],
      "payable": false,
      "stateMutability": "view",
      "type": "function"
    },
    {
      "constant": true,
      "inputs": [],
      "name": "REFACTOR_DIVIDER",
      "outputs": [
        {
          "internalType": "uint256",
          "name": "",
          "type": "uint256"
        }
      ],
      "payable": false,
      "stateMutability": "view",
      "type": "function"
    },
    {
      "constant": true,
      "inputs": [],
      "name": "_factor",
      "outputs": [
        {
          "internalType": "uint256",
          "name": "",
          "type": "uint256"
        }
      ],
      "payable": false,
      "stateMutability": "view",
      "type": "function"
    },
    {
      "constant": true,
      "inputs": [],
      "name": "_totalSupply",
      "outputs": [
        {
          "internalType": "uint256",
          "name": "balance",
          "type": "uint256"
        },
        {
          "internalType": "uint256",
          "name": "refactoredCount",
          "type": "uint256"
        },
        {
          "internalType": "uint256",
          "name": "remain",
          "type": "uint256"
        }
      ],
      "payable": false,
      "stateMutability": "view",
      "type": "function"
    },
    {
      "constant": false,
      "inputs": [
        {
          "internalType": "address",
          "name": "account",
          "type": "address"
        }
      ],
      "name": "addMinter",
      "outputs": [],
      "payable": false,
      "stateMutability": "nonpayable",
      "type": "function"
    },
    {
      "constant": true,
      "inputs": [
        {
          "internalType": "address",
          "name": "",
          "type": "address"
        }
      ],
      "name": "balances",
      "outputs": [
        {
          "internalType": "uint256",
          "name": "balance",
          "type": "uint256"
        },
        {
          "internalType": "uint256",
          "name": "refactoredCount",
          "type": "uint256"
        },
        {
          "internalType": "uint256",
          "name": "remain",
          "type": "uint256"
        }
      ],
      "payable": false,
      "stateMutability": "view",
      "type": "function"
    },
    {
      "constant": false,
      "inputs": [
        {
          "internalType": "uint256",
          "name": "amount",
          "type": "uint256"
        }
      ],
      "name": "burn",
      "outputs": [],
      "payable": false,
      "stateMutability": "nonpayable",
      "type": "function"
    },
    {
      "constant": false,
      "inputs": [
        {
          "internalType": "address",
          "name": "account",
          "type": "address"
        },
        {
          "internalType": "uint256",
          "name": "amount",
          "type": "uint256"
        }
      ],
      "name": "burnFrom",
      "outputs": [],
      "payable": false,
      "stateMutability": "nonpayable",
      "type": "function"
    },
    {
      "constant": true,
      "inputs": [],
      "name": "decimals",
      "outputs": [
        {
          "internalType": "uint8",
          "name": "",
          "type": "uint8"
        }
      ],
      "payable": false,
      "stateMutability": "view",
      "type": "function"
    },
    {
      "constant": false,
      "inputs": [
        {
          "internalType": "address",
          "name": "spender",
          "type": "address"
        },
        {
          "internalType": "uint256",
          "name": "subtractedValue",
          "type": "uint256"
        }
      ],
      "name": "decreaseAllowance",
      "outputs": [
        {
          "internalType": "bool",
          "name": "",
          "type": "bool"
        }
      ],
      "payable": false,
      "stateMutability": "nonpayable",
      "type": "function"
    },
    {
      "constant": false,
      "inputs": [
        {
          "internalType": "address",
          "name": "spender",
          "type": "address"
        },
        {
          "internalType": "uint256",
          "name": "addedValue",
          "type": "uint256"
        }
      ],
      "name": "increaseAllowance",
      "outputs": [
        {
          "internalType": "bool",
          "name": "",
          "type": "bool"
        }
      ],
      "payable": false,
      "stateMutability": "nonpayable",
      "type": "function"
    },
    {
      "constant": true,
      "inputs": [
        {
          "internalType": "address",
          "name": "account",
          "type": "address"
        }
      ],
      "name": "isMinter",
      "outputs": [
        {
          "internalType": "bool",
          "name": "",
          "type": "bool"
        }
      ],
      "payable": false,
      "stateMutability": "view",
      "type": "function"
    },
    {
      "constant": true,
      "inputs": [],
      "name": "isOwner",
      "outputs": [
        {
          "internalType": "bool",
          "name": "",
          "type": "bool"
        }
      ],
      "payable": false,
      "stateMutability": "view",
      "type": "function"
    },
    {
      "constant": false,
      "inputs": [
        {
          "internalType": "address",
          "name": "account",
          "type": "address"
        },
        {
          "internalType": "uint256",
          "name": "amount",
          "type": "uint256"
        }
      ],
      "name": "mint",
      "outputs": [
        {
          "internalType": "bool",
          "name": "",
          "type": "bool"
        }
      ],
      "payable": false,
      "stateMutability": "nonpayable",
      "type": "function"
    },
    {
      "constant": true,
      "inputs": [],
      "name": "name",
      "outputs": [
        {
          "internalType": "string",
          "name": "",
          "type": "string"
        }
      ],
      "payable": false,
      "stateMutability": "view",
      "type": "function"
    },
    {
      "constant": true,
      "inputs": [],
      "name": "owner",
      "outputs": [
        {
          "internalType": "address",
          "name": "",
          "type": "address"
        }
      ],
      "payable": false,
      "stateMutability": "view",
      "type": "function"
    },
    {
      "constant": true,
      "inputs": [],
      "name": "refactorCount",
      "outputs": [
        {
          "internalType": "uint256",
          "name": "",
          "type": "uint256"
        }
      ],
      "payable": false,
      "stateMutability": "view",
      "type": "function"
    },
    {
      "constant": false,
      "inputs": [],
      "name": "renounceMinter",
      "outputs": [],
      "payable": false,
      "stateMutability": "nonpayable",
      "type": "function"
    },
    {
      "constant": false,
      "inputs": [],
      "name": "renounceOwnership",
      "outputs": [],
      "payable": false,
      "stateMutability": "nonpayable",
      "type": "function"
    },
    {
      "constant": true,
      "inputs": [],
      "name": "symbol",
      "outputs": [
        {
          "internalType": "string",
          "name": "",
          "type": "string"
        }
      ],
      "payable": false,
      "stateMutability": "view",
      "type": "function"
    },
    {
      "constant": false,
      "inputs": [
        {
          "internalType": "address",
          "name": "newOwner",
          "type": "address"
        }
      ],
      "name": "transferOwnership",
      "outputs": [],
      "payable": false,
      "stateMutability": "nonpayable",
      "type": "function"
    },
    {
      "constant": true,
      "inputs": [],
      "name": "factor",
      "outputs": [
        {
          "internalType": "uint256",
          "name": "",
          "type": "uint256"
        }
      ],
      "payable": false,
      "stateMutability": "view",
      "type": "function"
    },
    {
      "constant": true,
      "inputs": [],
      "name": "totalSupply",
      "outputs": [
        {
          "internalType": "uint256",
          "name": "",
          "type": "uint256"
        }
      ],
      "payable": false,
      "stateMutability": "view",
      "type": "function"
    },
    {
      "constant": true,
      "inputs": [
        {
          "internalType": "address",
          "name": "account",
          "type": "address"
        }
      ],
      "name": "balanceOf",
      "outputs": [
        {
          "internalType": "uint256",
          "name": "",
          "type": "uint256"
        }
      ],
      "payable": false,
      "stateMutability": "view",
      "type": "function"
    },
    {
      "constant": false,
      "inputs": [
        {
          "internalType": "uint256",
          "name": "factor",
          "type": "uint256"
        }
      ],
      "name": "setFactor",
      "outputs": [
        {
          "internalType": "bool",
          "name": "",
          "type": "bool"
        }
      ],
      "payable": false,
      "stateMutability": "nonpayable",
      "type": "function"
    },
    {
      "constant": false,
      "inputs": [
        {
          "internalType": "address",
          "name": "recipient",
          "type": "address"
        },
        {
          "internalType": "uint256",
          "name": "amount",
          "type": "uint256"
        }
      ],
      "name": "transfer",
      "outputs": [
        {
          "internalType": "bool",
          "name": "",
          "type": "bool"
        }
      ],
      "payable": false,
      "stateMutability": "nonpayable",
      "type": "function"
    },
    {
      "constant": true,
      "inputs": [
        {
          "internalType": "address",
          "name": "owner",
          "type": "address"
        },
        {
          "internalType": "address",
          "name": "spender",
          "type": "address"
        }
      ],
      "name": "allowance",
      "outputs": [
        {
          "internalType": "uint256",
          "name": "",
          "type": "uint256"
        }
      ],
      "payable": false,
      "stateMutability": "view",
      "type": "function"
    },
    {
      "constant": false,
      "inputs": [
        {
          "internalType": "address",
          "name": "spender",
          "type": "address"
        },
        {
          "internalType": "uint256",
          "name": "amount",
          "type": "uint256"
        }
      ],
      "name": "approve",
      "outputs": [
        {
          "internalType": "bool",
          "name": "",
          "type": "bool"
        }
      ],
      "payable": false,
      "stateMutability": "nonpayable",
      "type": "function"
    },
    {
      "constant": false,
      "inputs": [
        {
          "internalType": "address",
          "name": "sender",
          "type": "address"
        },
        {
          "internalType": "address",
          "name": "recipient",
          "type": "address"
        },
        {
          "internalType": "uint256",
          "name": "amount",
          "type": "uint256"
        }
      ],
      "name": "transferFrom",
      "outputs": [
        {
          "internalType": "bool",
          "name": "",
          "type": "bool"
        }
      ],
      "payable": false,
      "stateMutability": "nonpayable",
      "type": "function"
    }
  ],
  "bytecode": "0x60806040526b204fce5e3e2502611000000060085560026009553480156200002657600080fd5b5060405162001ab038038062001ab0833981810160405260608110156200004c57600080fd5b81019080805160405193929190846401000000008211156200006d57600080fd5b9083019060208201858111156200008357600080fd5b82516401000000008111828201881017156200009e57600080fd5b82525081516020918201929091019080838360005b83811015620000cd578181015183820152602001620000b3565b50505050905090810190601f168015620000fb5780820380516001836020036101000a031916815260200191505b50604052602001805160405193929190846401000000008211156200011f57600080fd5b9083019060208201858111156200013557600080fd5b82516401000000008111828201881017156200015057600080fd5b82525081516020918201929091019080838360005b838110156200017f57818101518382015260200162000165565b50505050905090810190601f168015620001ad5780820380516001836020036101000a031916815260200191505b5060405260200151915083905082601b6000620001d26001600160e01b036200028816565b600080546001600160a01b0319166001600160a01b0383169081178255604051929350917f8be0079c531659141344cd1fd0a4f28419497f9722a3daafe3b4186f6b6457e0908290a35082516200023190600190602086019062000409565b5081516200024790600290602085019062000409565b506003805460ff191660ff92909216919091179055506200027c90506200026d62000288565b6001600160e01b036200028d16565b600f5550620004ab9050565b335b90565b620002a8816007620002df60201b620012b91790919060201c565b6040516001600160a01b038216907f6ae172837ea30b801fbfcdd4108aa1d5bf8ff775444fd70256b44e6bf3dfc3f690600090a250565b620002f482826001600160e01b036200038616565b156200036157604080517f08c379a000000000000000000000000000000000000000000000000000000000815260206004820152601f60248201527f526f6c65733a206163636f756e7420616c72656164792068617320726f6c6500604482015290519081900360640190fd5b6001600160a01b0316600090815260209190915260409020805460ff19166001179055565b60006001600160a01b038216620003e9576040517f08c379a000000000000000000000000000000000000000000000000000000000815260040180806020018281038252602281526020018062001a8e6022913960400191505060405180910390fd5b506001600160a01b03166000908152602091909152604090205460ff1690565b828054600181600116156101000203166002900490600052602060002090601f016020900481019282601f106200044c57805160ff19168380011785556200047c565b828001600101855582156200047c579182015b828111156200047c5782518255916020019190600101906200045f565b506200048a9291506200048e565b5090565b6200028a91905b808211156200048a576000815560010162000495565b6115d380620004bb6000396000f3fe608060405234801561001057600080fd5b50600436106101ce5760003560e01c8063715018a61161010457806398650275116100a2578063aa271e1a11610071578063aa271e1a146104e6578063b7c246d71461050c578063dd62ed3e14610514578063f2fde38b14610542576101ce565b806398650275146104aa578063a457c2d7146104b2578063a7ac30b0146104de578063a9059cbb1461026a576101ce565b80638da5cb5b116100de5780638da5cb5b146104505780638f32d59b1461047457806395d89b411461047c578063983b2d5614610484576101ce565b8063715018a6146103ff57806379cc679014610407578063817e9d3114610433576101ce565b8063395093511161017157806342966c681161014b57806342966c68146103aa57806354f703f8146103c95780636d150611146103d157806370a08231146103d9576101ce565b8063395093511461034a5780633eaaf86b1461037657806340c10f191461037e576101ce565b806318160ddd116101ad57806318160ddd146102aa57806323b872dd146102b257806327e235e3146102e8578063313ce5671461032c576101ce565b8062d87a9c146101d357806306fdde03146101ed578063095ea7b31461026a575b600080fd5b6101db610568565b60408051918252519081900360200190f35b6101f561056e565b6040805160208082528351818301528351919283929083019185019080838360005b8381101561022f578181015183820152602001610217565b50505050905090810190601f16801561025c5780820380516001836020036101000a031916815260200191505b509250505060405180910390f35b6102966004803603604081101561028057600080fd5b506001600160a01b038135169060200135610603565b604080519115158252519081900360200190f35b6101db61060a565b610296600480360360608110156102c857600080fd5b506001600160a01b03813581169160208101359091169060400135610603565b61030e600480360360208110156102fe57600080fd5b50356001600160a01b031661063a565b60408051938452602084019290925282820152519081900360600190f35b61033461065b565b6040805160ff9092168252519081900360200190f35b6102966004803603604081101561036057600080fd5b506001600160a01b038135169060200135610664565b61030e6106c7565b6102966004803603604081101561039457600080fd5b506001600160a01b0381351690602001356106d3565b6103c7600480360360208110156103c057600080fd5b503561072a565b005b6101db61073e565b6101db610774565b6101db600480360360208110156103ef57600080fd5b50356001600160a01b031661077a565b6103c76107b3565b6103c76004803603604081101561041d57600080fd5b506001600160a01b038135169060200135610856565b6102966004803603602081101561044957600080fd5b5035610864565b610458610950565b604080516001600160a01b039092168252519081900360200190f35b61029661095f565b6101f5610983565b6103c76004803603602081101561049a57600080fd5b50356001600160a01b03166109e1565b6103c7610a30565b610296600480360360408110156104c857600080fd5b506001600160a01b038135169060200135610a42565b6101db610ab0565b610296600480360360208110156104fc57600080fd5b50356001600160a01b0316610ab6565b6101db610ac9565b6101db6004803603604081101561052a57600080fd5b506001600160a01b0381358116916020013516610acf565b6103c76004803603602081101561055857600080fd5b50356001600160a01b0316610ad7565b60095481565b60018054604080516020601f600260001961010087891615020190951694909404938401819004810282018101909252828152606093909290918301828280156105f95780601f106105ce576101008083540402835291602001916105f9565b820191906000526020600020905b8154815290600101906020018083116105dc57829003601f168201915b5050505050905090565b6000806000fd5b6000610635600c60020154610629600c60000154600c60010154610b39565b9063ffffffff610b8816565b905090565b600b6020526000908152604090208054600182015460029092015490919083565b60035460ff1690565b60006106bd610671610be2565b846106b88560056000610682610be2565b6001600160a01b03908116825260208083019390935260409182016000908120918c16815292529020549063ffffffff610b8816565b610be6565b5060015b92915050565b600c54600d54600e5483565b60006106e56106e0610be2565b610ab6565b6107205760405162461bcd60e51b81526004018080602001828103825260308152602001806114956030913960400191505060405180910390fd5b6106bd8383610cd2565b61073b610735610be2565b82610dbf565b50565b600f54600090815b600a5481101561076e5760095461076490839063ffffffff610e9316565b9150600101610746565b50905090565b600f5481565b6001600160a01b0381166000908152600b602052604081206002810154815460018301546107ac929161062991610b39565b9392505050565b6107bb61095f565b61080c576040805162461bcd60e51b815260206004820181905260248201527f4f776e61626c653a2063616c6c6572206973206e6f7420746865206f776e6572604482015290519081900360640190fd5b600080546040516001600160a01b03909116907f8be0079c531659141344cd1fd0a4f28419497f9722a3daafe3b4186f6b6457e0908390a3600080546001600160a01b0319169055565b6108608282610eec565b5050565b600061086e61095f565b6108bf576040805162461bcd60e51b815260206004820181905260248201527f4f776e61626c653a2063616c6c6572206973206e6f7420746865206f776e6572604482015290519081900360640190fd5b600f546000835b60085481106108fe576108e082600163ffffffff610b8816565b91506108f760095482610ef690919063ffffffff16565b90506108c6565b600a829055600f819055604080518481526020810183905280820184905290517f47eb304b27f9efb047a046029f8a279a7cc8fccc6786f1e2f65939639584fbdc9181900360600190a1505050919050565b6000546001600160a01b031690565b600080546001600160a01b0316610974610be2565b6001600160a01b031614905090565b60028054604080516020601f60001961010060018716150201909416859004938401819004810282018101909252828152606093909290918301828280156105f95780601f106105ce576101008083540402835291602001916105f9565b6109ec6106e0610be2565b610a275760405162461bcd60e51b81526004018080602001828103825260308152602001806114956030913960400191505060405180910390fd5b61073b81610f38565b610a40610a3b610be2565b610f80565b565b60006106bd610a4f610be2565b846106b88560405180606001604052806025815260200161157a6025913960056000610a79610be2565b6001600160a01b03908116825260208083019390935260409182016000908120918d1681529252902054919063ffffffff610fc816565b600a5481565b60006106c160078363ffffffff61105f16565b60085481565b600092915050565b610adf61095f565b610b30576040805162461bcd60e51b815260206004820181905260248201527f4f776e61626c653a2063616c6c6572206973206e6f7420746865206f776e6572604482015290519081900360640190fd5b61073b816110c6565b600082610b48575060006106c1565b610b5483600f54611166565b9250815b600a54811015610b8057600954610b7690859063ffffffff610e9316565b9350600101610b58565b509192915050565b6000828201838110156107ac576040805162461bcd60e51b815260206004820152601b60248201527f536166654d6174683a206164646974696f6e206f766572666c6f770000000000604482015290519081900360640190fd5b3390565b6001600160a01b038316610c2b5760405162461bcd60e51b81526004018080602001828103825260248152602001806115296024913960400191505060405180910390fd5b6001600160a01b038216610c705760405162461bcd60e51b81526004018080602001828103825260228152602001806114736022913960400191505060405180910390fd5b6001600160a01b03808416600081815260056020908152604080832094871680845294825291829020859055815185815291517f8c5be1e5ebec7d5bd14f71427d1e84f3dd0314c0f7b2291e5b200ac8c7c3b9259281900390910190a3505050565b6001600160a01b038216610d175760405162461bcd60e51b815260040180806020018281038252602d81526020018061154d602d913960400191505060405180910390fd5b6001600160a01b0382166000908152600b6020526040812090610d398461077a565b90506000610d4d828563ffffffff610b8816565b90506000610d5a8261118e565b808555600a5460018601559050610d708561119c565b6001600160a01b03861660007fddf252ad1be2c89b69c2b068fc378daa952ba7f163c4a11628f55a4df523b3ef610da6846111de565b60408051918252519081900360200190a3505050505050565b6001600160a01b038216610e045760405162461bcd60e51b815260040180806020018281038252602f81526020018061141e602f913960400191505060405180910390fd5b6001600160a01b0382166000908152600b6020526040812090610e268461077a565b90506000610e3a828563ffffffff6111ec16565b90506000610e478261118e565b808555600a5460018601559050610e5d8561122e565b60006001600160a01b0387167fddf252ad1be2c89b69c2b068fc378daa952ba7f163c4a11628f55a4df523b3ef610da6846111de565b600082610ea2575060006106c1565b82820282848281610eaf57fe5b04146107ac5760405162461bcd60e51b81526004018080602001828103825260218152602001806114e66021913960400191505060405180910390fd5b6108608282610dbf565b60006107ac83836040518060400160405280601a81526020017f536166654d6174683a206469766973696f6e206279207a65726f000000000000815250611254565b610f4960078263ffffffff6112b916565b6040516001600160a01b038216907f6ae172837ea30b801fbfcdd4108aa1d5bf8ff775444fd70256b44e6bf3dfc3f690600090a250565b610f9160078263ffffffff61133a16565b6040516001600160a01b038216907fe94479a9f7e1952cc78f2d6baab678adc1b772d936c6583def489e524cb6669290600090a250565b600081848411156110575760405162461bcd60e51b81526004018080602001828103825283818151815260200191508051906020019080838360005b8381101561101c578181015183820152602001611004565b50505050905090810190601f1680156110495780820380516001836020036101000a031916815260200191505b509250505060405180910390fd5b505050900390565b60006001600160a01b0382166110a65760405162461bcd60e51b81526004018080602001828103825260228152602001806115076022913960400191505060405180910390fd5b506001600160a01b03166000908152602091909152604090205460ff1690565b6001600160a01b03811661110b5760405162461bcd60e51b815260040180806020018281038252602681526020018061144d6026913960400191505060405180910390fd5b600080546040516001600160a01b03808516939216917f8be0079c531659141344cd1fd0a4f28419497f9722a3daafe3b4186f6b6457e091a3600080546001600160a01b0319166001600160a01b0392909216919091179055565b60006b033b2e3c9fd0803ce800000061117f84846113a1565b8161118657fe5b049392505050565b60006106c182600f54611404565b600c54600d546000916111ae91610b39565b905060006111c2828463ffffffff610b8816565b905060006111cf8261118e565b600c555050600a54600d555050565b60006106c182600f54611166565b60006107ac83836040518060400160405280601e81526020017f536166654d6174683a207375627472616374696f6e206f766572666c6f770000815250610fc8565b600c54600d5460009161124091610b39565b905060006111c2828463ffffffff6111ec16565b600081836112a35760405162461bcd60e51b815260206004820181815283516024840152835190928392604490910191908501908083836000831561101c578181015183820152602001611004565b5060008385816112af57fe5b0495945050505050565b6112c3828261105f565b15611315576040805162461bcd60e51b815260206004820152601f60248201527f526f6c65733a206163636f756e7420616c72656164792068617320726f6c6500604482015290519081900360640190fd5b6001600160a01b0316600090815260209190915260409020805460ff19166001179055565b611344828261105f565b61137f5760405162461bcd60e51b81526004018080602001828103825260218152602001806114c56021913960400191505060405180910390fd5b6001600160a01b0316600090815260209190915260409020805460ff19169055565b60008115806113bc575050808202828282816113b957fe5b04145b6106c1576040805162461bcd60e51b815260206004820152601460248201527364732d6d6174682d6d756c2d6f766572666c6f7760601b604482015290519081900360640190fd5b60008161117f846b033b2e3c9fd0803ce80000006113a156fe4175746f5265666163746f72436f696e6167653a206275726e2066726f6d20746865207a65726f20616464726573734f776e61626c653a206e6577206f776e657220697320746865207a65726f206164647265737345524332303a20617070726f766520746f20746865207a65726f20616464726573734d696e746572526f6c653a2063616c6c657220646f6573206e6f74206861766520746865204d696e74657220726f6c65526f6c65733a206163636f756e7420646f6573206e6f74206861766520726f6c65536166654d6174683a206d756c7469706c69636174696f6e206f766572666c6f77526f6c65733a206163636f756e7420697320746865207a65726f206164647265737345524332303a20617070726f76652066726f6d20746865207a65726f20616464726573734175746f5265666163746f72436f696e6167653a206d696e7420746f20746865207a65726f206164647265737345524332303a2064656372656173656420616c6c6f77616e63652062656c6f77207a65726fa265627a7a7231582061886825ac82130a0cb406ad4da4365f94f5fc9e16ddbd354035bd8868c8c67764736f6c634300050c0032526f6c65733a206163636f756e7420697320746865207a65726f2061646472657373",
  "source": "// based on ERC20 implementation of openzeppelin-solidity: https://github.com/OpenZeppelin/openzeppelin-contracts/blob/7552af95e4ec6fccd64a95b206f59a1b4ff91517/contracts/token/ERC20/ERC20.sol\npragma solidity ^0.5.12;\n\nimport { AutoRefactorCoinageI } from \"../interfaces/AutoRefactorCoinageI.sol\";\nimport { SafeMath } from \"../../../node_modules/openzeppelin-solidity/contracts/math/SafeMath.sol\";\nimport { Context } from \"../../../node_modules/openzeppelin-solidity/contracts/GSN/Context.sol\";\nimport { Ownable } from \"../../../node_modules/openzeppelin-solidity/contracts/ownership/Ownable.sol\";\nimport { IERC20 } from \"../../../node_modules/openzeppelin-solidity/contracts/token/ERC20/IERC20.sol\";\nimport { ERC20Detailed } from \"../../../node_modules/openzeppelin-solidity/contracts/token/ERC20/ERC20Detailed.sol\";\nimport { ERC20Mintable } from \"../../../node_modules/openzeppelin-solidity/contracts/token/ERC20/ERC20Mintable.sol\";\nimport { ERC20Burnable } from \"../../../node_modules/openzeppelin-solidity/contracts/token/ERC20/ERC20Burnable.sol\";\n\nimport { DSMath } from \"../../lib/DSMath.sol\";\n\n\n/**\n * @dev Implementation of coin age token based on ERC20 of openzeppelin-solidity\n *\n * AutoRefactorCoinage stores `_totalSupply` and `_balances` as RAY BASED value,\n * `_allowances` as RAY FACTORED value.\n *\n * This takes public function (including _approve) parameters as RAY FACTORED value\n * and internal function (including approve) parameters as RAY BASED value, and emits event in RAY FACTORED value.\n *\n * `RAY BASED` = `RAY FACTORED`  / factor\n *\n *  factor increases exponentially for each block mined.\n */\ncontract AutoRefactorCoinage is Context, IERC20, DSMath, Ownable, ERC20Detailed, ERC20Mintable, ERC20Burnable {\n  using SafeMath for uint256;\n\n  struct Balance {\n    uint256 balance;\n    uint256 refactoredCount;\n    uint256 remain;\n  }\n\n  uint256 public REFACTOR_BOUNDARY = 10 ** 28;\n  uint256 public REFACTOR_DIVIDER = 2;\n\n  uint256 public refactorCount;\n\n  mapping (address => Balance) public balances;\n\n  Balance public _totalSupply;\n\n  uint256 public _factor;\n\n  bool internal _transfersEnabled;\n\n  event FactorSet(uint256 previous, uint256 current, uint256 shiftCount);\n\n  constructor (\n    string memory name,\n    string memory symbol,\n    uint256 factor\n  )\n    public\n    ERC20Detailed(name, symbol, 27)\n  {\n    _factor = factor;\n    //_factorIncrement = factorIncrement;\n    //_lastBlock = block.number;\n    //_transfersEnabled = transfersEnabled;\n  }\n\n  function factor() public view returns (uint256) {\n    uint256 result = _factor;\n    for (uint256 i = 0; i < refactorCount; i++) {\n      result = result.mul(REFACTOR_DIVIDER);\n    }\n    return result;\n  }\n\n  /**\n    * @dev See {IERC20-totalSupply}.\n    */\n  function totalSupply() public view returns (uint256) {\n    return _applyFactor(_totalSupply.balance, _totalSupply.refactoredCount).add(_totalSupply.remain);\n  }\n\n\n  /**\n    * @dev See {IERC20-balanceOf}.\n    */\n  function balanceOf(address account) public view returns (uint256) {\n    Balance storage b = balances[account];\n\n    return _applyFactor(b.balance, b.refactoredCount).add(b.remain);\n  }\n\n  /** @dev Creates `amount` tokens and assigns them to `account`, increasing\n    * the total supply.\n    *\n    * Emits a {Transfer} event with `from` set to the zero address.\n    *\n    * Requirements\n    *\n    * - `to` cannot be the zero address.\n    */\n  function _mint(address account, uint256 amount) internal {\n    require(account != address(0), \"AutoRefactorCoinage: mint to the zero address\");\n    Balance storage b = balances[account];\n\n    uint256 currentBalance = balanceOf(account);\n    uint256 newBalance = currentBalance.add(amount);\n\n    uint256 rbAmount = _toRAYBased(newBalance);\n    b.balance = rbAmount;\n    b.refactoredCount = refactorCount;\n\n    addTotalSupply(amount);\n    emit Transfer(address(0), account, _toRAYFactored(rbAmount));\n  }\n\n    /**\n    * @dev Destroys `amount` tokens from `account`, reducing the\n    * total supply.\n    *\n    * Emits a {Transfer} event with `to` set to the zero address.\n    *\n    * Requirements\n    *\n    * - `account` cannot be the zero address.\n    * - `account` must have at least `amount` tokens.\n    */\n  function _burn(address account, uint256 amount) internal {\n    require(account != address(0), \"AutoRefactorCoinage: burn from the zero address\");\n    Balance storage b = balances[account];\n\n    uint256 currentBalance = balanceOf(account);\n    uint256 newBalance = currentBalance.sub(amount);\n\n    uint256 rbAmount = _toRAYBased(newBalance);\n    b.balance = rbAmount;\n    b.refactoredCount = refactorCount;\n\n    subTotalSupply(amount);\n    emit Transfer(account, address(0), _toRAYFactored(rbAmount));\n  }\n\n  function _burnFrom(address account, uint256 amount) internal {\n    _burn(account, amount);\n  }\n\n  // helpers\n\n  /**\n   * @param v the value to be factored\n   */\n  function _applyFactor(uint256 v, uint256 refactoredCount) internal view returns (uint256) {\n    if (v == 0) {\n      return 0;\n    }\n\n    v = rmul2(v, _factor);\n\n    for (uint256 i = refactoredCount; i < refactorCount; i++) {\n      v = v.mul(REFACTOR_DIVIDER);\n    }\n\n    return v;\n  }\n\n  /**\n   * @dev Calculate RAY BASED from RAY FACTORED\n   */\n  function _toRAYBased(uint256 rf) internal view returns (uint256 rb) {\n    return rdiv2(rf, _factor);\n  }\n\n  /**\n   * @dev Calculate RAY FACTORED from RAY BASED\n   */\n  function _toRAYFactored(uint256 rb) internal view returns (uint256 rf) {\n    return rmul2(rb, _factor);\n  }\n\n\n  // new\n\n  function setFactor(uint256 factor) external onlyOwner returns (bool) {\n    uint256 previous = _factor;\n\n    uint256 count = 0;\n    uint256 f = factor;\n    for (; f >= REFACTOR_BOUNDARY; f = f.div(REFACTOR_DIVIDER)) {\n      count = count.add(1);\n    }\n\n    refactorCount = count;\n    _factor = f;\n    emit FactorSet(previous, f, count);\n  }\n\n  function addTotalSupply(uint256 amount) internal {\n    uint256 currentSupply = _applyFactor(_totalSupply.balance, _totalSupply.refactoredCount);\n    uint256 newSupply = currentSupply.add(amount);\n\n    uint256 rbAmount = _toRAYBased(newSupply);\n    _totalSupply.balance = rbAmount;\n    _totalSupply.refactoredCount = refactorCount;\n  }\n\n  function subTotalSupply(uint256 amount) internal {\n    uint256 currentSupply = _applyFactor(_totalSupply.balance, _totalSupply.refactoredCount);\n    uint256 newSupply = currentSupply.sub(amount);\n\n    uint256 rbAmount = _toRAYBased(newSupply);\n    _totalSupply.balance = rbAmount;\n    _totalSupply.refactoredCount = refactorCount;\n  }\n\n  // unsupported functions\n\n  function transfer(address recipient, uint256 amount) public returns (bool) {\n    revert();\n  }\n\n  function allowance(address owner, address spender) public view returns (uint256) {\n    return 0;\n  }\n\n  function approve(address spender, uint256 amount) public returns (bool) {\n    revert();\n  }\n\n  function transferFrom(address sender, address recipient, uint256 amount) public returns (bool) {\n    revert();\n  }\n}\n",
  "sourcePath": "/home/modagi/github/onther/plasma-evm-contracts2/contracts/stake/tokens/AutoRefactorCoinage.sol",
  "compiler": {
    "name": "solc",
    "version": "0.5.12+commit.7709ece9.Emscripten.clang"
  },
  "schemaVersion": "3.2.1",
  "updatedAt": "2020-09-10T07:22:17.626Z",
  "devdoc": {
    "details": "Implementation of coin age token based on ERC20 of openzeppelin-solidity * AutoRefactorCoinage stores `_totalSupply` and `_balances` as RAY BASED value, `_allowances` as RAY FACTORED value. * This takes public function (including _approve) parameters as RAY FACTORED value and internal function (including approve) parameters as RAY BASED value, and emits event in RAY FACTORED value. * `RAY BASED` = `RAY FACTORED`  / factor *  factor increases exponentially for each block mined.",
    "methods": {
      "balanceOf(address)": {
        "details": "See {IERC20-balanceOf}."
      },
      "burn(uint256)": {
        "details": "Destroys `amount` tokens from the caller.     * See {ERC20-_burn}."
      },
      "burnFrom(address,uint256)": {
        "details": "See {ERC20-_burnFrom}."
      },
      "decimals()": {
        "details": "Returns the number of decimals used to get its user representation. For example, if `decimals` equals `2`, a balance of `505` tokens should be displayed to a user as `5,05` (`505 / 10 ** 2`).     * Tokens usually opt for a value of 18, imitating the relationship between Ether and Wei.     * NOTE: This information is only used for _display_ purposes: it in no way affects any of the arithmetic of the contract, including {IERC20-balanceOf} and {IERC20-transfer}."
      },
      "decreaseAllowance(address,uint256)": {
        "details": "Atomically decreases the allowance granted to `spender` by the caller.     * This is an alternative to {approve} that can be used as a mitigation for problems described in {IERC20-approve}.     * Emits an {Approval} event indicating the updated allowance.     * Requirements:     * - `spender` cannot be the zero address. - `spender` must have allowance for the caller of at least `subtractedValue`."
      },
      "increaseAllowance(address,uint256)": {
        "details": "Atomically increases the allowance granted to `spender` by the caller.     * This is an alternative to {approve} that can be used as a mitigation for problems described in {IERC20-approve}.     * Emits an {Approval} event indicating the updated allowance.     * Requirements:     * - `spender` cannot be the zero address."
      },
      "isOwner()": {
        "details": "Returns true if the caller is the current owner."
      },
      "mint(address,uint256)": {
        "details": "See {ERC20-_mint}.     * Requirements:     * - the caller must have the {MinterRole}."
      },
      "name()": {
        "details": "Returns the name of the token."
      },
      "owner()": {
        "details": "Returns the address of the current owner."
      },
      "renounceOwnership()": {
        "details": "Leaves the contract without owner. It will not be possible to call `onlyOwner` functions anymore. Can only be called by the current owner.     * NOTE: Renouncing ownership will leave the contract without an owner, thereby removing any functionality that is only available to the owner."
      },
      "symbol()": {
        "details": "Returns the symbol of the token, usually a shorter version of the name."
      },
      "totalSupply()": {
        "details": "See {IERC20-totalSupply}."
      },
      "transferOwnership(address)": {
        "details": "Transfers ownership of the contract to a new account (`newOwner`). Can only be called by the current owner."
      }
    }
  },
  "userdoc": {
    "methods": {}
  }
}