{
  "contractName": "CoinageFactory",
  "abi": [
    {
      "constant": true,
      "inputs": [],
      "name": "RAY",
      "outputs": [
        {
          "internalType": "uint256",
          "name": "",
          "type": "uint256"
        }
      ],
      "payable": false,
      "stateMutability": "view",
      "type": "function"
    },
    {
      "constant": true,
      "inputs": [],
      "name": "seigManager",
      "outputs": [
        {
          "internalType": "address",
          "name": "",
          "type": "address"
        }
      ],
      "payable": false,
      "stateMutability": "view",
      "type": "function"
    },
    {
      "constant": false,
      "inputs": [],
      "name": "deploy",
      "outputs": [
        {
          "internalType": "address",
          "name": "",
          "type": "address"
        }
      ],
      "payable": false,
      "stateMutability": "nonpayable",
      "type": "function"
    },
    {
      "constant": false,
      "inputs": [
        {
          "internalType": "address",
          "name": "seigManager_",
          "type": "address"
        }
      ],
      "name": "setSeigManager",
      "outputs": [],
      "payable": false,
      "stateMutability": "nonpayable",
      "type": "function"
    }
  ],
  "bytecode": "0x608060405234801561001057600080fd5b506121ba806100206000396000f3fe608060405234801561001057600080fd5b506004361061004c5760003560e01c8063552033c4146100515780636fb7f5581461006b5780637657f20a1461008f578063775c300c146100b7575b600080fd5b6100596100bf565b60408051918252519081900360200190f35b6100736100cf565b604080516001600160a01b039092168252519081900360200190f35b6100b5600480360360208110156100a557600080fd5b50356001600160a01b03166100de565b005b610073610100565b6b033b2e3c9fd0803ce800000081565b6000546001600160a01b031681565b600080546001600160a01b0319166001600160a01b0392909216919091179055565b600080546001600160a01b031661015e576040805162461bcd60e51b815260206004820152601b60248201527f536569674d616e616765722061646472657373206973207a65726f0000000000604482015290519081900360640190fd5b60006b033b2e3c9fd0803ce8000000600060405161017b906102e9565b60408082019390935290151560608201526080808252600090820181905260c06020830181905282018190529151908190036101000191f0801580156101c5573d6000803e3d6000fd5b506000805460408051634c1d96ab60e11b81526001600160a01b03928316600482015290519394509084169263983b2d569260248084019391929182900301818387803b15801561021557600080fd5b505af1158015610229573d6000803e3d6000fd5b50505050806001600160a01b031663986502756040518163ffffffff1660e01b8152600401600060405180830381600087803b15801561026857600080fd5b505af115801561027c573d6000803e3d6000fd5b5050600080546040805163f2fde38b60e01b81526001600160a01b0392831660048201529051918616945063f2fde38b9350602480820193929182900301818387803b1580156102cb57600080fd5b505af11580156102df573d6000803e3d6000fd5b5092935050505090565b611e8f806102f78339019056fe60806040523480156200001157600080fd5b5060405162001e8f38038062001e8f833981810160405260808110156200003757600080fd5b81019080805160405193929190846401000000008211156200005857600080fd5b9083019060208201858111156200006e57600080fd5b82516401000000008111828201881017156200008957600080fd5b82525081516020918201929091019080838360005b83811015620000b85781810151838201526020016200009e565b50505050905090810190601f168015620000e65780820380516001836020036101000a031916815260200191505b50604052602001805160405193929190846401000000008211156200010a57600080fd5b9083019060208201858111156200012057600080fd5b82516401000000008111828201881017156200013b57600080fd5b82525081516020918201929091019080838360005b838110156200016a57818101518382015260200162000150565b50505050905090810190601f168015620001985780820380516001836020036101000a031916815260200191505b50604090815260208201519101519092509050838383838383836000848484601b620001df620001d06001600160e01b03620002ad16565b6001600160e01b03620002b216565b620001f26001600160e01b03620002ad16565b600480546001600160a01b0319166001600160a01b0392831617908190556040519116906000907f8be0079c531659141344cd1fd0a4f28419497f9722a3daafe3b4186f6b6457e0908290a38251620002539060059060208601906200042e565b508151620002699060069060208501906200042e565b506007805460ff90921660ff19928316179055600b959095555050600c9190915543600d55600e80549115159190921617905550620004d098505050505050505050565b335b90565b620002cd8160036200030460201b6200148b1790919060201c565b6040516001600160a01b038216907f6ae172837ea30b801fbfcdd4108aa1d5bf8ff775444fd70256b44e6bf3dfc3f690600090a250565b6200031982826001600160e01b03620003ab16565b156200038657604080517f08c379a000000000000000000000000000000000000000000000000000000000815260206004820152601f60248201527f526f6c65733a206163636f756e7420616c72656164792068617320726f6c6500604482015290519081900360640190fd5b6001600160a01b0316600090815260209190915260409020805460ff19166001179055565b60006001600160a01b0382166200040e576040517f08c379a000000000000000000000000000000000000000000000000000000000815260040180806020018281038252602281526020018062001e6d6022913960400191505060405180910390fd5b506001600160a01b03166000908152602091909152604090205460ff1690565b828054600181600116156101000203166002900490600052602060002090601f016020900481019282601f106200047157805160ff1916838001178555620004a1565b82800160010185558215620004a1579182015b82811115620004a157825182559160200191906001019062000484565b50620004af929150620004b3565b5090565b620002af91905b80821115620004af5760008155600101620004ba565b61198d80620004e06000396000f3fe608060405234801561001057600080fd5b50600436106101a95760003560e01c8063817e9d31116100f9578063a9059cbb11610097578063d4132ee211610071578063d4132ee2146104bf578063dd62ed3e146104c7578063f2fde38b146104f5578063f41e60c51461051b576101a9565b8063a9059cbb14610465578063aa271e1a14610491578063bef97c87146104b7576101a9565b806395d89b41116100d357806395d89b4114610403578063983b2d561461040b5780639865027514610431578063a457c2d714610439576101a9565b8063817e9d31146103ba5780638da5cb5b146103d75780638f32d59b146103fb576101a9565b806340c10f191161016657806370a082311161014057806370a0823114610358578063715018a61461037e57806379cc679014610386578063806b984f146103b2576101a9565b806340c10f191461030557806342966c681461033157806354f703f814610350576101a9565b806306fdde03146101ae578063095ea7b31461022b57806318160ddd1461026b57806323b872dd14610285578063313ce567146102bb57806339509351146102d9575b600080fd5b6101b661053a565b6040805160208082528351818301528351919283929083019185019080838360005b838110156101f05781810151838201526020016101d8565b50505050905090810190601f16801561021d5780820380516001836020036101000a031916815260200191505b509250505060405180910390f35b6102576004803603604081101561024157600080fd5b506001600160a01b0381351690602001356105d0565b604080519115158252519081900360200190f35b6102736105ee565b60408051918252519081900360200190f35b6102576004803603606081101561029b57600080fd5b506001600160a01b03813581169160208101359091169060400135610600565b6102c36106f1565b6040805160ff9092168252519081900360200190f35b610257600480360360408110156102ef57600080fd5b506001600160a01b0381351690602001356106fa565b6102576004803603604081101561031b57600080fd5b506001600160a01b03813516906020013561074e565b61034e6004803603602081101561034757600080fd5b50356107a5565b005b6102736107b9565b6102736004803603602081101561036e57600080fd5b50356001600160a01b03166107bf565b61034e6107e9565b61034e6004803603604081101561039c57600080fd5b506001600160a01b03813516906020013561087a565b610273610888565b610257600480360360208110156103d057600080fd5b503561088e565b6103df610920565b604080516001600160a01b039092168252519081900360200190f35b61025761092f565b6101b6610955565b61034e6004803603602081101561042157600080fd5b50356001600160a01b03166109b6565b61034e610a05565b6102576004803603604081101561044f57600080fd5b506001600160a01b038135169060200135610a17565b6102576004803603604081101561047b57600080fd5b506001600160a01b038135169060200135610a85565b610257600480360360208110156104a757600080fd5b50356001600160a01b0316610afd565b610257610b10565b610273610b19565b610273600480360360408110156104dd57600080fd5b506001600160a01b0381358116916020013516610b1f565b61034e6004803603602081101561050b57600080fd5b50356001600160a01b0316610b4a565b61034e6004803603602081101561053157600080fd5b50351515610b9a565b60058054604080516020601f60026000196101006001881615020190951694909404938401819004810282018101909252828152606093909290918301828280156105c65780601f1061059b576101008083540402835291602001916105c6565b820191906000526020600020905b8154815290600101906020018083116105a957829003601f168201915b5050505050905090565b60006105e46105dd610bf4565b8484610bf8565b5060015b92915050565b60006105fb600a54610cec565b905090565b600061060a610920565b6001600160a01b0316336001600160a01b0316148061062b5750600e5460ff165b6106665760405162461bcd60e51b815260040180806020018281038252602a815260200180611864602a913960400191505060405180910390fd5b610671848484610d32565b6106e78461067d610bf4565b6106e2856040518060600160405280603781526020016118be603791396001600160a01b038a166000908152600960205260408120906106bb610bf4565b6001600160a01b03168152602081019190915260400160002054919063ffffffff610ea916565b610bf8565b5060019392505050565b60075460ff1690565b60006105e4610707610bf4565b846106e28560096000610718610bf4565b6001600160a01b03908116825260208083019390935260409182016000908120918c16815292529020549063ffffffff610f4016565b600061076061075b610bf4565b610afd565b61079b5760405162461bcd60e51b815260040180806020018281038252603081526020018061173c6030913960400191505060405180910390fd5b6105e48383610f9a565b6107b66107b0610bf4565b82611091565b50565b600b5490565b6001600160a01b0381166000908152600860205260408120546107e190610cec565b90505b919050565b6107f161092f565b610830576040805162461bcd60e51b815260206004820181905260248201526000805160206117bb833981519152604482015290519081900360640190fd5b6004546040516000916001600160a01b0316907f8be0079c531659141344cd1fd0a4f28419497f9722a3daafe3b4186f6b6457e0908390a3600480546001600160a01b0319169055565b6108848282611193565b5050565b600d5490565b600061089861092f565b6108d7576040805162461bcd60e51b815260206004820181905260248201526000805160206117bb833981519152604482015290519081900360640190fd5b600b805490839055604080518281526020810185905281517fafc9085bb15d79bc1e9d87807e2fc5f4c2b631088cb3e38c86cb627c12a0e430929181900390910190a150919050565b6004546001600160a01b031690565b6004546000906001600160a01b0316610946610bf4565b6001600160a01b031614905090565b60068054604080516020601f60026000196101006001881615020190951694909404938401819004810282018101909252828152606093909290918301828280156105c65780601f1061059b576101008083540402835291602001916105c6565b6109c161075b610bf4565b6109fc5760405162461bcd60e51b815260040180806020018281038252603081526020018061173c6030913960400191505060405180910390fd5b6107b6816111fb565b610a15610a10610bf4565b611243565b565b60006105e4610a24610bf4565b846106e2856040518060600160405280603481526020016116706034913960096000610a4e610bf4565b6001600160a01b03908116825260208083019390935260409182016000908120918d1681529252902054919063ffffffff610ea916565b6000610a8f610920565b6001600160a01b0316336001600160a01b03161480610ab05750600e5460ff165b610aeb5760405162461bcd60e51b815260040180806020018281038252602a815260200180611864602a913960400191505060405180910390fd5b6105e4610af6610bf4565b8484610d32565b60006107e160038363ffffffff61128b16565b600e5460ff1690565b600c5490565b6001600160a01b03918216600090815260096020908152604080832093909416825291909152205490565b610b5261092f565b610b91576040805162461bcd60e51b815260206004820181905260248201526000805160206117bb833981519152604482015290519081900360640190fd5b6107b6816112f2565b610ba261092f565b610be1576040805162461bcd60e51b815260206004820181905260248201526000805160206117bb833981519152604482015290519081900360640190fd5b600e805460ff1916911515919091179055565b3390565b610c00611393565b6001600160a01b038316610c455760405162461bcd60e51b81526004018080602001828103825260338152602001806116d86033913960400191505060405180910390fd5b6001600160a01b038216610c8a5760405162461bcd60e51b815260040180806020018281038252603181526020018061170b6031913960400191505060405180910390fd5b6001600160a01b03808416600081815260096020908152604080832094871680845294825291829020859055815185815291517f8c5be1e5ebec7d5bd14f71427d1e84f3dd0314c0f7b2291e5b200ac8c7c3b9259281900390910190a3505050565b600081610cfb575060006107e4565b600d54430380610d1957610d1183600b546113e5565b9150506107e4565b610d2b83610d2683611426565b6113e5565b9392505050565b610d3a611393565b6001600160a01b038316610d7f5760405162461bcd60e51b81526004018080602001828103825260348152602001806116a46034913960400191505060405180910390fd5b6001600160a01b038216610dc45760405162461bcd60e51b81526004018080602001828103825260328152602001806117fd6032913960400191505060405180910390fd5b6000610dcf8261142d565b9050610e148160405180606001604052806035815260200161182f603591396001600160a01b038716600090815260086020526040902054919063ffffffff610ea916565b6001600160a01b038086166000908152600860205260408082209390935590851681522054610e49908263ffffffff610f4016565b6001600160a01b0380851660008181526008602052604090209290925585167fddf252ad1be2c89b69c2b068fc378daa952ba7f163c4a11628f55a4df523b3ef610e928461143b565b60408051918252519081900360200190a350505050565b60008184841115610f385760405162461bcd60e51b81526004018080602001828103825283818151815260200191508051906020019080838360005b83811015610efd578181015183820152602001610ee5565b50505050905090810190601f168015610f2a5780820380516001836020036101000a031916815260200191505b509250505060405180910390fd5b505050900390565b600082820183811015610d2b576040805162461bcd60e51b815260206004820152601b60248201527f536166654d6174683a206164646974696f6e206f766572666c6f770000000000604482015290519081900360640190fd5b610fa2611393565b6001600160a01b038216610fe75760405162461bcd60e51b815260040180806020018281038252602e81526020018061178d602e913960400191505060405180910390fd5b6000610ff28261142d565b600a54909150611008908263ffffffff610f4016565b600a556001600160a01b038316600090815260086020526040902054611034908263ffffffff610f4016565b6001600160a01b038416600081815260086020526040812092909255907fddf252ad1be2c89b69c2b068fc378daa952ba7f163c4a11628f55a4df523b3ef61107b8461143b565b60408051918252519081900360200190a3505050565b611099611393565b6001600160a01b0382166110de5760405162461bcd60e51b815260040180806020018281038252603081526020018061188e6030913960400191505060405180910390fd5b60006110e98261142d565b905061112e816040518060600160405280603181526020016118f5603191396001600160a01b038616600090815260086020526040902054919063ffffffff610ea916565b6001600160a01b038416600090815260086020526040902055600a5461115a908263ffffffff61144916565b600a5560006001600160a01b0384167fddf252ad1be2c89b69c2b068fc378daa952ba7f163c4a11628f55a4df523b3ef61107b8461143b565b61119b611393565b6111a58282611091565b6111ad61092f565b61088457610884826111bd610bf4565b6106e284604051806060016040528060338152602001611926603391396001600160a01b0388166000908152600960205260408120906106bb610bf4565b61120c60038263ffffffff61148b16565b6040516001600160a01b038216907f6ae172837ea30b801fbfcdd4108aa1d5bf8ff775444fd70256b44e6bf3dfc3f690600090a250565b61125460038263ffffffff61150c16565b6040516001600160a01b038216907fe94479a9f7e1952cc78f2d6baab678adc1b772d936c6583def489e524cb6669290600090a250565b60006001600160a01b0382166112d25760405162461bcd60e51b81526004018080602001828103825260228152602001806117db6022913960400191505060405180910390fd5b506001600160a01b03166000908152602091909152604090205460ff1690565b6001600160a01b0381166113375760405162461bcd60e51b815260040180806020018281038252602681526020018061164a6026913960400191505060405180910390fd5b6004546040516001600160a01b038084169216907f8be0079c531659141344cd1fd0a4f28419497f9722a3daafe3b4186f6b6457e090600090a3600480546001600160a01b0319166001600160a01b0392909216919091179055565b600d54430380156107b6576113a781611426565b600b81905543600d5560408051918252517fe26ee4870433319e6f01f123f37f6f6823ff4084f5651912025d24930b01bcb69181900360200190a150565b60006b033b2e3c9fd0803ce80000006114176114018585611573565b60026b033b2e3c9fd0803ce80000005b046115d6565b8161141e57fe5b049392505050565b50600b5490565b60006107e182600b54611625565b60006107e182600b546113e5565b6000610d2b83836040518060400160405280601e81526020017f536166654d6174683a207375627472616374696f6e206f766572666c6f770000815250610ea9565b611495828261128b565b156114e7576040805162461bcd60e51b815260206004820152601f60248201527f526f6c65733a206163636f756e7420616c72656164792068617320726f6c6500604482015290519081900360640190fd5b6001600160a01b0316600090815260209190915260409020805460ff19166001179055565b611516828261128b565b6115515760405162461bcd60e51b815260040180806020018281038252602181526020018061176c6021913960400191505060405180910390fd5b6001600160a01b0316600090815260209190915260409020805460ff19169055565b600081158061158e5750508082028282828161158b57fe5b04145b6105e8576040805162461bcd60e51b815260206004820152601460248201527364732d6d6174682d6d756c2d6f766572666c6f7760601b604482015290519081900360640190fd5b808201828110156105e8576040805162461bcd60e51b815260206004820152601460248201527364732d6d6174682d6164642d6f766572666c6f7760601b604482015290519081900360640190fd5b600081611417611641856b033b2e3c9fd0803ce8000000611573565b60028561141156fe4f776e61626c653a206e6577206f776e657220697320746865207a65726f20616464726573734175746f496e6372656d656e74436f696e6167653a2064656372656173656420616c6c6f77616e63652062656c6f77207a65726f4175746f496e6372656d656e74436f696e6167653a207472616e736665722066726f6d20746865207a65726f20616464726573734175746f496e6372656d656e74436f696e6167653a20617070726f76652066726f6d20746865207a65726f20616464726573734175746f496e6372656d656e74436f696e6167653a20617070726f766520746f20746865207a65726f20616464726573734d696e746572526f6c653a2063616c6c657220646f6573206e6f74206861766520746865204d696e74657220726f6c65526f6c65733a206163636f756e7420646f6573206e6f74206861766520726f6c654175746f496e6372656d656e74436f696e6167653a206d696e7420746f20746865207a65726f20616464726573734f776e61626c653a2063616c6c6572206973206e6f7420746865206f776e6572526f6c65733a206163636f756e7420697320746865207a65726f20616464726573734175746f496e6372656d656e74436f696e6167653a207472616e7366657220746f20746865207a65726f20616464726573734175746f496e6372656d656e74436f696e6167653a207472616e7366657220616d6f756e7420657863656564732062616c616e63654175746f496e6372656d656e74436f696e6167653a207472616e73666572206e6f7420616c6c6f7765644175746f496e6372656d656e74436f696e6167653a206275726e2066726f6d20746865207a65726f20616464726573734175746f496e6372656d656e74436f696e6167653a207472616e7366657220616d6f756e74206578636565647320616c6c6f77616e63654175746f496e6372656d656e74436f696e6167653a206275726e20616d6f756e7420657863656564732062616c616e63654175746f496e6372656d656e74436f696e6167653a206275726e20616d6f756e74206578636565647320616c6c6f77616e6365a265627a7a72315820dc01600300609de32aeb9ec53d522a0a03f3e0e4a68d0ed49e5bd528ee2af87c64736f6c634300050c0032526f6c65733a206163636f756e7420697320746865207a65726f2061646472657373a265627a7a72315820c82c65a57670e7096c1f2e7fe070f79e4ea29cb050e40f2658778bcc130f592264736f6c634300050c0032",
  "source": "pragma solidity ^0.5.12;\n\nimport { CustomIncrementCoinageMock } from \"../../../node_modules/coinage-token/flatten.sol\";\nimport { CoinageFactoryI } from \"../interfaces/CoinageFactoryI.sol\";\n\ncontract CoinageFactory is CoinageFactoryI {\n  uint256 constant public RAY = 10 ** 27; // 1 RAY\n  uint256 constant internal _DEFAULT_FACTOR = RAY;\n\n  address public seigManager;\n\n  function deploy() external returns (address) {\n    require(seigManager != address(0), \"SeigManager address is zero\");\n    CustomIncrementCoinageMock c = new CustomIncrementCoinageMock(\n      \"\",\n      \"\",\n      _DEFAULT_FACTOR,\n      false\n    );\n\n    c.addMinter(seigManager);\n    c.renounceMinter();\n    c.transferOwnership(seigManager);\n\n    return address(c);\n  }\n\n  function setSeigManager(address seigManager_) external {\n    seigManager = seigManager_;\n  }\n}\n",
  "sourcePath": "/home/modagi/github/onther/plasma-evm-contracts/contracts/stake/factory/CoinageFactory.sol",
  "compiler": {
    "name": "solc",
    "version": "0.5.12+commit.7709ece9.Emscripten.clang"
  },
  "schemaVersion": "3.2.0",
  "updatedAt": "2020-09-06T06:15:16.876Z",
  "networkType": "ethereum",
  "devdoc": {
    "methods": {}
  },
  "userdoc": {
    "methods": {}
  }
}