{
  "contractName": "DepositManager",
  "abi": [
    {
      "inputs": [
        {
          "internalType": "contract WTON",
          "name": "wton",
          "type": "address"
        },
        {
          "internalType": "contract RootChainRegistryI",
          "name": "registry",
          "type": "address"
        },
        {
          "internalType": "uint256",
          "name": "globalWithdrawalDelay_",
          "type": "uint256"
        }
      ],
      "payable": false,
      "stateMutability": "nonpayable",
      "type": "constructor"
    },
    {
      "anonymous": false,
      "inputs": [
        {
          "indexed": true,
          "internalType": "address",
          "name": "rootchain",
          "type": "address"
        },
        {
          "indexed": false,
          "internalType": "address",
          "name": "depositor",
          "type": "address"
        },
        {
          "indexed": false,
          "internalType": "uint256",
          "name": "amount",
          "type": "uint256"
        }
      ],
      "name": "Deposited",
      "type": "event"
    },
    {
      "anonymous": false,
      "inputs": [
        {
          "indexed": true,
          "internalType": "address",
          "name": "previousOwner",
          "type": "address"
        },
        {
          "indexed": true,
          "internalType": "address",
          "name": "newOwner",
          "type": "address"
        }
      ],
      "name": "OwnershipTransferred",
      "type": "event"
    },
    {
      "anonymous": false,
      "inputs": [
        {
          "indexed": true,
          "internalType": "address",
          "name": "rootchain",
          "type": "address"
        },
        {
          "indexed": false,
          "internalType": "address",
          "name": "depositor",
          "type": "address"
        },
        {
          "indexed": false,
          "internalType": "uint256",
          "name": "amount",
          "type": "uint256"
        }
      ],
      "name": "WithdrawalProcessed",
      "type": "event"
    },
    {
      "anonymous": false,
      "inputs": [
        {
          "indexed": true,
          "internalType": "address",
          "name": "rootchain",
          "type": "address"
        },
        {
          "indexed": false,
          "internalType": "address",
          "name": "depositor",
          "type": "address"
        },
        {
          "indexed": false,
          "internalType": "uint256",
          "name": "amount",
          "type": "uint256"
        }
      ],
      "name": "WithdrawalRequested",
      "type": "event"
    },
    {
      "constant": true,
      "inputs": [],
      "name": "globalWithdrawalDelay",
      "outputs": [
        {
          "internalType": "uint256",
          "name": "",
          "type": "uint256"
        }
      ],
      "payable": false,
      "stateMutability": "view",
      "type": "function"
    },
    {
      "constant": true,
      "inputs": [],
      "name": "isOwner",
      "outputs": [
        {
          "internalType": "bool",
          "name": "",
          "type": "bool"
        }
      ],
      "payable": false,
      "stateMutability": "view",
      "type": "function"
    },
    {
      "constant": true,
      "inputs": [],
      "name": "owner",
      "outputs": [
        {
          "internalType": "address",
          "name": "",
          "type": "address"
        }
      ],
      "payable": false,
      "stateMutability": "view",
      "type": "function"
    },
    {
      "constant": false,
      "inputs": [],
      "name": "renounceOwnership",
      "outputs": [],
      "payable": false,
      "stateMutability": "nonpayable",
      "type": "function"
    },
    {
      "constant": true,
      "inputs": [
        {
          "internalType": "bytes4",
          "name": "interfaceId",
          "type": "bytes4"
        }
      ],
      "name": "supportsInterface",
      "outputs": [
        {
          "internalType": "bool",
          "name": "",
          "type": "bool"
        }
      ],
      "payable": false,
      "stateMutability": "view",
      "type": "function"
    },
    {
      "constant": false,
      "inputs": [
        {
          "internalType": "address",
          "name": "newOwner",
          "type": "address"
        }
      ],
      "name": "transferOwnership",
      "outputs": [],
      "payable": false,
      "stateMutability": "nonpayable",
      "type": "function"
    },
    {
      "constant": true,
      "inputs": [
        {
          "internalType": "address",
          "name": "",
          "type": "address"
        }
      ],
      "name": "withdrawalDelay",
      "outputs": [
        {
          "internalType": "uint256",
          "name": "",
          "type": "uint256"
        }
      ],
      "payable": false,
      "stateMutability": "view",
      "type": "function"
    },
    {
      "constant": false,
      "inputs": [
        {
          "internalType": "contract SeigManagerI",
          "name": "seigManager",
          "type": "address"
        }
      ],
      "name": "setSeigManager",
      "outputs": [],
      "payable": false,
      "stateMutability": "nonpayable",
      "type": "function"
    },
    {
      "constant": false,
      "inputs": [
        {
          "internalType": "address",
          "name": "owner",
          "type": "address"
        },
        {
          "internalType": "address",
          "name": "spender",
          "type": "address"
        },
        {
          "internalType": "uint256",
          "name": "amount",
          "type": "uint256"
        },
        {
          "internalType": "bytes",
          "name": "data",
          "type": "bytes"
        }
      ],
      "name": "onApprove",
      "outputs": [
        {
          "internalType": "bool",
          "name": "",
          "type": "bool"
        }
      ],
      "payable": false,
      "stateMutability": "nonpayable",
      "type": "function"
    },
    {
      "constant": false,
      "inputs": [
        {
          "internalType": "address",
          "name": "rootchain",
          "type": "address"
        },
        {
          "internalType": "uint256",
          "name": "amount",
          "type": "uint256"
        }
      ],
      "name": "deposit",
      "outputs": [
        {
          "internalType": "bool",
          "name": "",
          "type": "bool"
        }
      ],
      "payable": false,
      "stateMutability": "nonpayable",
      "type": "function"
    },
    {
      "constant": false,
      "inputs": [
        {
          "internalType": "address",
          "name": "rootchain",
          "type": "address"
        }
      ],
      "name": "redeposit",
      "outputs": [
        {
          "internalType": "bool",
          "name": "",
          "type": "bool"
        }
      ],
      "payable": false,
      "stateMutability": "nonpayable",
      "type": "function"
    },
    {
      "constant": false,
      "inputs": [
        {
          "internalType": "address",
          "name": "rootchain",
          "type": "address"
        },
        {
          "internalType": "uint256",
          "name": "n",
          "type": "uint256"
        }
      ],
      "name": "redepositMulti",
      "outputs": [
        {
          "internalType": "bool",
          "name": "",
          "type": "bool"
        }
      ],
      "payable": false,
      "stateMutability": "nonpayable",
      "type": "function"
    },
    {
      "constant": false,
      "inputs": [
        {
          "internalType": "address",
          "name": "rootchain",
          "type": "address"
        },
        {
          "internalType": "address",
          "name": "recipient",
          "type": "address"
        },
        {
          "internalType": "uint256",
          "name": "amount",
          "type": "uint256"
        }
      ],
      "name": "slash",
      "outputs": [
        {
          "internalType": "bool",
          "name": "",
          "type": "bool"
        }
      ],
      "payable": false,
      "stateMutability": "nonpayable",
      "type": "function"
    },
    {
      "constant": false,
      "inputs": [
        {
          "internalType": "uint256",
          "name": "globalWithdrawalDelay_",
          "type": "uint256"
        }
      ],
      "name": "setGlobalWithdrawalDelay",
      "outputs": [],
      "payable": false,
      "stateMutability": "nonpayable",
      "type": "function"
    },
    {
      "constant": false,
      "inputs": [
        {
          "internalType": "address",
          "name": "l2chain",
          "type": "address"
        },
        {
          "internalType": "uint256",
          "name": "withdrawalDelay_",
          "type": "uint256"
        }
      ],
      "name": "setWithdrawalDelay",
      "outputs": [],
      "payable": false,
      "stateMutability": "nonpayable",
      "type": "function"
    },
    {
      "constant": false,
      "inputs": [
        {
          "internalType": "address",
          "name": "rootchain",
          "type": "address"
        },
        {
          "internalType": "uint256",
          "name": "amount",
          "type": "uint256"
        }
      ],
      "name": "requestWithdrawal",
      "outputs": [
        {
          "internalType": "bool",
          "name": "",
          "type": "bool"
        }
      ],
      "payable": false,
      "stateMutability": "nonpayable",
      "type": "function"
    },
    {
      "constant": false,
      "inputs": [
        {
          "internalType": "address",
          "name": "rootchain",
          "type": "address"
        },
        {
          "internalType": "bool",
          "name": "receiveTON",
          "type": "bool"
        }
      ],
      "name": "processRequest",
      "outputs": [
        {
          "internalType": "bool",
          "name": "",
          "type": "bool"
        }
      ],
      "payable": false,
      "stateMutability": "nonpayable",
      "type": "function"
    },
    {
      "constant": false,
      "inputs": [
        {
          "internalType": "address",
          "name": "rootchain",
          "type": "address"
        }
      ],
      "name": "requestWithdrawalAll",
      "outputs": [
        {
          "internalType": "bool",
          "name": "",
          "type": "bool"
        }
      ],
      "payable": false,
      "stateMutability": "nonpayable",
      "type": "function"
    },
    {
      "constant": false,
      "inputs": [
        {
          "internalType": "address",
          "name": "rootchain",
          "type": "address"
        },
        {
          "internalType": "uint256",
          "name": "n",
          "type": "uint256"
        },
        {
          "internalType": "bool",
          "name": "receiveTON",
          "type": "bool"
        }
      ],
      "name": "processRequests",
      "outputs": [
        {
          "internalType": "bool",
          "name": "",
          "type": "bool"
        }
      ],
      "payable": false,
      "stateMutability": "nonpayable",
      "type": "function"
    },
    {
      "constant": true,
      "inputs": [
        {
          "internalType": "address",
          "name": "rootchain",
          "type": "address"
        },
        {
          "internalType": "address",
          "name": "account",
          "type": "address"
        }
      ],
      "name": "numRequests",
      "outputs": [
        {
          "internalType": "uint256",
          "name": "",
          "type": "uint256"
        }
      ],
      "payable": false,
      "stateMutability": "view",
      "type": "function"
    },
    {
      "constant": true,
      "inputs": [
        {
          "internalType": "address",
          "name": "rootchain",
          "type": "address"
        },
        {
          "internalType": "address",
          "name": "account",
          "type": "address"
        }
      ],
      "name": "numPendingRequests",
      "outputs": [
        {
          "internalType": "uint256",
          "name": "",
          "type": "uint256"
        }
      ],
      "payable": false,
      "stateMutability": "view",
      "type": "function"
    },
    {
      "constant": true,
      "inputs": [],
      "name": "wton",
      "outputs": [
        {
          "internalType": "address",
          "name": "",
          "type": "address"
        }
      ],
      "payable": false,
      "stateMutability": "view",
      "type": "function"
    },
    {
      "constant": true,
      "inputs": [],
      "name": "registry",
      "outputs": [
        {
          "internalType": "address",
          "name": "",
          "type": "address"
        }
      ],
      "payable": false,
      "stateMutability": "view",
      "type": "function"
    },
    {
      "constant": true,
      "inputs": [],
      "name": "seigManager",
      "outputs": [
        {
          "internalType": "address",
          "name": "",
          "type": "address"
        }
      ],
      "payable": false,
      "stateMutability": "view",
      "type": "function"
    },
    {
      "constant": true,
      "inputs": [
        {
          "internalType": "address",
          "name": "rootchain",
          "type": "address"
        },
        {
          "internalType": "address",
          "name": "account",
          "type": "address"
        }
      ],
      "name": "accStaked",
      "outputs": [
        {
          "internalType": "uint256",
          "name": "wtonAmount",
          "type": "uint256"
        }
      ],
      "payable": false,
      "stateMutability": "view",
      "type": "function"
    },
    {
      "constant": true,
      "inputs": [
        {
          "internalType": "address",
          "name": "rootchain",
          "type": "address"
        }
      ],
      "name": "accStakedRootChain",
      "outputs": [
        {
          "internalType": "uint256",
          "name": "wtonAmount",
          "type": "uint256"
        }
      ],
      "payable": false,
      "stateMutability": "view",
      "type": "function"
    },
    {
      "constant": true,
      "inputs": [
        {
          "internalType": "address",
          "name": "account",
          "type": "address"
        }
      ],
      "name": "accStakedAccount",
      "outputs": [
        {
          "internalType": "uint256",
          "name": "wtonAmount",
          "type": "uint256"
        }
      ],
      "payable": false,
      "stateMutability": "view",
      "type": "function"
    },
    {
      "constant": true,
      "inputs": [
        {
          "internalType": "address",
          "name": "rootchain",
          "type": "address"
        },
        {
          "internalType": "address",
          "name": "account",
          "type": "address"
        }
      ],
      "name": "pendingUnstaked",
      "outputs": [
        {
          "internalType": "uint256",
          "name": "wtonAmount",
          "type": "uint256"
        }
      ],
      "payable": false,
      "stateMutability": "view",
      "type": "function"
    },
    {
      "constant": true,
      "inputs": [
        {
          "internalType": "address",
          "name": "rootchain",
          "type": "address"
        }
      ],
      "name": "pendingUnstakedRootChain",
      "outputs": [
        {
          "internalType": "uint256",
          "name": "wtonAmount",
          "type": "uint256"
        }
      ],
      "payable": false,
      "stateMutability": "view",
      "type": "function"
    },
    {
      "constant": true,
      "inputs": [
        {
          "internalType": "address",
          "name": "account",
          "type": "address"
        }
      ],
      "name": "pendingUnstakedAccount",
      "outputs": [
        {
          "internalType": "uint256",
          "name": "wtonAmount",
          "type": "uint256"
        }
      ],
      "payable": false,
      "stateMutability": "view",
      "type": "function"
    },
    {
      "constant": true,
      "inputs": [
        {
          "internalType": "address",
          "name": "rootchain",
          "type": "address"
        },
        {
          "internalType": "address",
          "name": "account",
          "type": "address"
        }
      ],
      "name": "accUnstaked",
      "outputs": [
        {
          "internalType": "uint256",
          "name": "wtonAmount",
          "type": "uint256"
        }
      ],
      "payable": false,
      "stateMutability": "view",
      "type": "function"
    },
    {
      "constant": true,
      "inputs": [
        {
          "internalType": "address",
          "name": "rootchain",
          "type": "address"
        }
      ],
      "name": "accUnstakedRootChain",
      "outputs": [
        {
          "internalType": "uint256",
          "name": "wtonAmount",
          "type": "uint256"
        }
      ],
      "payable": false,
      "stateMutability": "view",
      "type": "function"
    },
    {
      "constant": true,
      "inputs": [
        {
          "internalType": "address",
          "name": "account",
          "type": "address"
        }
      ],
      "name": "accUnstakedAccount",
      "outputs": [
        {
          "internalType": "uint256",
          "name": "wtonAmount",
          "type": "uint256"
        }
      ],
      "payable": false,
      "stateMutability": "view",
      "type": "function"
    },
    {
      "constant": true,
      "inputs": [
        {
          "internalType": "address",
          "name": "rootchain",
          "type": "address"
        },
        {
          "internalType": "address",
          "name": "account",
          "type": "address"
        }
      ],
      "name": "withdrawalRequestIndex",
      "outputs": [
        {
          "internalType": "uint256",
          "name": "index",
          "type": "uint256"
        }
      ],
      "payable": false,
      "stateMutability": "view",
      "type": "function"
    },
    {
      "constant": true,
      "inputs": [
        {
          "internalType": "address",
          "name": "rootchain",
          "type": "address"
        },
        {
          "internalType": "address",
          "name": "account",
          "type": "address"
        },
        {
          "internalType": "uint256",
          "name": "index",
          "type": "uint256"
        }
      ],
      "name": "withdrawalRequest",
      "outputs": [
        {
          "internalType": "uint128",
          "name": "withdrawableBlockNumber",
          "type": "uint128"
        },
        {
          "internalType": "uint128",
          "name": "amount",
          "type": "uint128"
        },
        {
          "internalType": "bool",
          "name": "processed",
          "type": "bool"
        }
      ],
      "payable": false,
      "stateMutability": "view",
      "type": "function"
    }
  ],
  "bytecode": "0x60806040523480156200001157600080fd5b506040516200272538038062002725833981810160405260608110156200003757600080fd5b508051602082015160409092015190919060006200005d6001600160e01b036200014816565b600080546001600160a01b0319166001600160a01b0383169081178255604051929350917f8be0079c531659141344cd1fd0a4f28419497f9722a3daafe3b4186f6b6457e0908290a350620000db7f01ffc9a7000000000000000000000000000000000000000000000000000000006001600160e01b036200014c16565b6200010f7f4273ca16000000000000000000000000000000000000000000000000000000006001600160e01b036200014c16565b600280546001600160a01b039485166001600160a01b03199182161790915560038054939094169216919091179091556010556200021e565b3390565b7fffffffff000000000000000000000000000000000000000000000000000000008082161415620001de57604080517f08c379a000000000000000000000000000000000000000000000000000000000815260206004820152601c60248201527f4552433136353a20696e76616c696420696e7465726661636520696400000000604482015290519081900360640190fd5b7fffffffff00000000000000000000000000000000000000000000000000000000166000908152600160208190526040909120805460ff19169091179055565b6124f7806200022e6000396000f3fe608060405234801561001057600080fd5b50600436106102105760003560e01c80638da5cb5b11610125578063c20a44c6116100ad578063e74f82391161007c578063e74f8239146106e1578063e8035ec914610717578063f2fde38b1461073d578063f762eb5714610763578063fb0713b11461079157610210565b8063c20a44c61461062d578063c647f26e1461065b578063da95ebf714610689578063dc5a709f146106b557610210565b8063a0b2a913116100f4578063a0b2a91314610578578063a35439891461059e578063a79da341146105c4578063a8f3fb98146105e1578063b8bee6281461060757610210565b80638da5cb5b146104d85780638f32d59b146104e05780638fbef2d0146104e85780639d91b87b1461054a57610210565b80634ce97036116101a85780636fb7f558116101775780636fb7f55814610474578063715018a6146104985780637657f20a146104a25780637b103999146104c85780638d62d949146104d057610210565b80634ce97036146103f25780635c0df46b146104185780636b2160b7146104465780636ec3d5ae1461046c57610210565b80632d2fab94116101e45780632d2fab94146102dc5780634273ca161461030a578063445e83b91461039a57806347e7ef24146103c657610210565b806255f5c11461021557806301ffc9a71461024d57806303dc6510146102885780632638fdf5146102ae575b600080fd5b61023b6004803603602081101561022b57600080fd5b50356001600160a01b03166107c5565b60408051918252519081900360200190f35b6102746004803603602081101561026357600080fd5b50356001600160e01b0319166107e0565b604080519115158252519081900360200190f35b61023b6004803603602081101561029e57600080fd5b50356001600160a01b03166107ff565b61023b600480360360408110156102c457600080fd5b506001600160a01b038135811691602001351661081a565b61023b600480360360408110156102f257600080fd5b506001600160a01b0381358116916020013516610847565b6102746004803603608081101561032057600080fd5b6001600160a01b0382358116926020810135909116916040820135919081019060808101606082013564010000000081111561035b57600080fd5b82018360208201111561036d57600080fd5b8035906020019184600183028401116401000000008311171561038f57600080fd5b509092509050610872565b610274600480360360408110156103b057600080fd5b506001600160a01b038135169060200135610922565b610274600480360360408110156103dc57600080fd5b506001600160a01b038135169060200135610961565b61023b6004803603602081101561040857600080fd5b50356001600160a01b0316610977565b61023b6004803603604081101561042e57600080fd5b506001600160a01b0381358116916020013516610989565b6102746004803603602081101561045c57600080fd5b50356001600160a01b03166109df565b61023b610afe565b61047c610b04565b604080516001600160a01b039092168252519081900360200190f35b6104a0610b13565b005b6104a0600480360360208110156104b857600080fd5b50356001600160a01b0316610ba4565b61047c610c55565b61047c610c64565b61047c610c73565b610274610c82565b61051e600480360360608110156104fe57600080fd5b506001600160a01b03813581169160208101359091169060400135610ca6565b604080516001600160801b03948516815292909316602083015215158183015290519081900360600190f35b61023b6004803603604081101561056057600080fd5b506001600160a01b0381358116916020013516610da1565b61023b6004803603602081101561058e57600080fd5b50356001600160a01b0316610dcc565b61023b600480360360208110156105b457600080fd5b50356001600160a01b0316610de7565b6104a0600480360360208110156105da57600080fd5b5035610e02565b61023b600480360360208110156105f757600080fd5b50356001600160a01b0316610e4e565b6102746004803603602081101561061d57600080fd5b50356001600160a01b0316610e69565b6102746004803603604081101561064357600080fd5b506001600160a01b0381351690602001351515610ea2565b61023b6004803603604081101561067157600080fd5b506001600160a01b0381358116916020013516610eb5565b6102746004803603604081101561069f57600080fd5b506001600160a01b038135169060200135610ee0565b6104a0600480360360408110156106cb57600080fd5b506001600160a01b038135169060200135610eec565b610274600480360360608110156106f757600080fd5b506001600160a01b03813581169160208101359091169060400135610f1b565b61023b6004803603602081101561072d57600080fd5b50356001600160a01b0316610f35565b6104a06004803603602081101561075357600080fd5b50356001600160a01b0316610f50565b61023b6004803603604081101561077957600080fd5b506001600160a01b0381358116916020013516610fa3565b610274600480360360608110156107a757600080fd5b506001600160a01b0381351690602081013590604001351515610fce565b6001600160a01b031660009081526007602052604090205490565b6001600160e01b03191660009081526001602052604090205460ff1690565b6001600160a01b03166000908152600c602052604090205490565b6001600160a01b038083166000908152600860209081526040808320938516835292905220545b92915050565b6001600160a01b03918216600090815260056020908152604080832093909416825291909152205490565b6002546000906001600160a01b031633146108be5760405162461bcd60e51b81526004018080602001828103825260318152602001806124206031913960400191505060405180910390fd5b60006108ff84848080601f01602080910402602001604051908101604052809392919081815260200183838082843760009201919091525061100092505050565b905061090c818887611018565b61091557600080fd5b5060019695505050505050565b6001600160a01b0382166000908152600f60209081526040808320338452909152812054610951848285611264565b61095a57600080fd5b5092915050565b600061096e833384611018565b61084157600080fd5b60116020526000908152604090205481565b6001600160a01b038083166000818152600e6020908152604080832094861680845294825280832054938352600f825280832094835293905291822054816109d657600092505050610841565b90039392505050565b600354604080516302a1529960e01b81526001600160a01b0380851660048301529151600093859316916302a15299916024808301926020929190829003018186803b158015610a2e57600080fd5b505afa158015610a42573d6000803e3d6000fd5b505050506040513d6020811015610a5857600080fd5b5051610a6357600080fd5b60048054604080516367265c3b60e11b81526001600160a01b038781169482019490945233602482015290516000939092169163ce4cb87691604480820192602092909190829003018186803b158015610abc57600080fd5b505afa158015610ad0573d6000803e3d6000fd5b505050506040513d6020811015610ae657600080fd5b50519050610af4848261173f565b9250505b50919050565b60105481565b6004546001600160a01b031690565b610b1b610c82565b610b5a576040805162461bcd60e51b81526020600482018190526024820152600080516020612451833981519152604482015290519081900360640190fd5b600080546040516001600160a01b03909116907f8be0079c531659141344cd1fd0a4f28419497f9722a3daafe3b4186f6b6457e0908390a3600080546001600160a01b0319169055565b610bac610c82565b610beb576040805162461bcd60e51b81526020600482018190526024820152600080516020612451833981519152604482015290519081900360640190fd5b6004546001600160a01b031615610c335760405162461bcd60e51b815260040180806020018281038252602a815260200180612350602a913960400191505060405180910390fd5b600480546001600160a01b0319166001600160a01b0392909216919091179055565b6003546001600160a01b031690565b6002546001600160a01b031690565b6000546001600160a01b031690565b600080546001600160a01b0316610c97611a43565b6001600160a01b031614905090565b6001600160a01b038084166000908152600e60209081526040808320938616835292905290812080548291829185908110610cdd57fe5b600091825260208083206002909202909101546001600160a01b03808a168452600e83526040808520918a1685529252912080546001600160801b0390921694509085908110610d2957fe5b60009182526020808320600292909202909101546001600160a01b038981168452600e83526040808520918a168552925291208054600160801b9092046001600160801b031693509085908110610d7c57fe5b600091825260209091206001600290920201015492969195505060ff90911692509050565b6001600160a01b039182166000908152600b6020908152604080832093909416825291909152205490565b6001600160a01b03166000908152600a602052604090205490565b6001600160a01b03166000908152600d602052604090205490565b610e0a610c82565b610e49576040805162461bcd60e51b81526020600482018190526024820152600080516020612451833981519152604482015290519081900360640190fd5b601055565b6001600160a01b031660009081526009602052604090205490565b6001600160a01b0381166000908152600f60209081526040808320338452909152812054610e9983826001611264565b610af857600080fd5b6000610eae8383611a47565b9392505050565b6001600160a01b039182166000908152600f6020908152604080832093909416825291909152205490565b6000610eae838361173f565b610ef68233611e00565b610eff57600080fd5b6001600160a01b03909116600090815260116020526040902055565b6004546000906001600160a01b03163314610eae57600080fd5b6001600160a01b031660009081526006602052604090205490565b610f58610c82565b610f97576040805162461bcd60e51b81526020600482018190526024820152600080516020612451833981519152604482015290519081900360640190fd5b610fa081611e7d565b50565b6001600160a01b039182166000908152600e6020908152604080832093909416825291909152205490565b6000805b83811015610ff557610fe48584611a47565b610fed57600080fd5b600101610fd2565b506001949350505050565b6000815160201461101057600080fd5b506020015190565b600354604080516302a1529960e01b81526001600160a01b0380871660048301529151600093879316916302a15299916024808301926020929190829003018186803b15801561106757600080fd5b505afa15801561107b573d6000803e3d6000fd5b505050506040513d602081101561109157600080fd5b505161109c57600080fd5b6001600160a01b038086166000908152600560209081526040808320938816835292905220546110d2908463ffffffff611f1d16565b6001600160a01b038087166000818152600560209081526040808320948a168352938152838220949094559081526006909252902054611118908463ffffffff611f1d16565b6001600160a01b03808716600090815260066020908152604080832094909455918716815260079091522054611154908463ffffffff611f1d16565b6001600160a01b03808616600090815260076020526040902091909155600254611187911685308663ffffffff611f7716565b604080516001600160a01b038681168252602082018690528251908816927f8752a472e571a816aea92eec8dae9baf628e840f4929fbcc2d155e6233ff68a7928290030190a26004805460408051630412c6d560e41b81526001600160a01b03898116948201949094528784166024820152604481018790529051929091169163412c6d50916064808201926020929091908290030181600087803b15801561122f57600080fd5b505af1158015611243573d6000803e3d6000fd5b505050506040513d602081101561125957600080fd5b5051610ff557600080fd5b600354604080516302a1529960e01b81526001600160a01b0380871660048301529151600093879316916302a15299916024808301926020929190829003018186803b1580156112b357600080fd5b505afa1580156112c7573d6000803e3d6000fd5b505050506040513d60208110156112dd57600080fd5b50516112e857600080fd5b6001600160a01b0385166000908152600e6020908152604080832033845290915281205461135d576040805162461bcd60e51b815260206004820152601a60248201527f4465706f7369744d616e616765723a206e6f2072657175657374000000000000604482015290519081900360640190fd5b6001600160a01b0386166000908152600e602090815260408083203384529091529020548590038411156113c25760405162461bcd60e51b815260040180806020018281038252603181526020018061237a6031913960400191505060405180910390fd5b8484015b808610156114d3576001600160a01b0387166000908152600e6020908152604080832033845290915281208054889081106113fd57fe5b6000918252602090912060029091020180546001820154919250600160801b90046001600160801b03169060ff16156114675760405162461bcd60e51b81526004018080602001828103825260318152602001806122f96031913960400191505060405180910390fd5b600081116114a65760405162461bcd60e51b815260040180806020018281038252602881526020018061249b6028913960400191505060405180910390fd5b6114b6848263ffffffff611f1d16565b6001928301805460ff191684179055979091019692506113c69050565b6001600160a01b0387166000908152600560209081526040808320338452909152902054611507908363ffffffff611f1d16565b6001600160a01b038816600081815260056020908152604080832033845282528083209490945591815260069091522054611548908363ffffffff611f1d16565b6001600160a01b038816600090815260066020908152604080832093909355338252600790522054611580908363ffffffff611f1d16565b336000818152600760209081526040808320949094556001600160a01b038b168252600881528382209282529190915220546115c2908363ffffffff611fd716565b6001600160a01b038816600081815260086020908152604080832033845282528083209490945591815260099091522054611603908363ffffffff611fd716565b6001600160a01b038816600090815260096020908152604080832093909355338252600a9052205461163b908363ffffffff611fd716565b336000818152600a60209081526040808320949094556001600160a01b038b16808352600f825284832084845282529184902080548a01905583519283528201859052825190927f8752a472e571a816aea92eec8dae9baf628e840f4929fbcc2d155e6233ff68a7928290030190a26004805460408051630412c6d560e41b81526001600160a01b038b811694820194909452336024820152604481018690529051929091169163412c6d50916064808201926020929091908290030181600087803b15801561170a57600080fd5b505af115801561171e573d6000803e3d6000fd5b505050506040513d602081101561173457600080fd5b505161091557600080fd5b600354604080516302a1529960e01b81526001600160a01b0380861660048301529151600093869316916302a15299916024808301926020929190829003018186803b15801561178e57600080fd5b505afa1580156117a2573d6000803e3d6000fd5b505050506040513d60208110156117b857600080fd5b50516117c357600080fd5b600083116118025760405162461bcd60e51b81526004018080602001828103825260278152602001806123d06027913960400191505060405180910390fd5b6001600160a01b03841660009081526011602052604081205460105411611841576001600160a01b038516600090815260116020526040902054611845565b6010545b6001600160a01b0386166000818152600e602090815260408083203380855290835281842082516060810184526001600160801b03438901811682528c8116828701908152828601888152845460018181018755958a52888a2094516002909102909401805492518416600160801b029484166fffffffffffffffffffffffffffffffff1990931692909217909216929092178255519101805491151560ff19909216919091179055938352600882528083209383529290522054909150611913908563ffffffff611f1d16565b6001600160a01b038616600081815260086020908152604080832033845282528083209490945591815260099091522054611954908563ffffffff611f1d16565b6001600160a01b038616600090815260096020908152604080832093909355338252600a9052205461198c908563ffffffff611f1d16565b336000818152600a602090815260409182902093909355805191825291810186905281516001600160a01b038816927f04c56a409d50971e45c5a2d96e5d557d2b0f1d66d40f14b141e4c958b0f39b32928290030190a26004805460408051637c287fd560e11b81526001600160a01b0389811694820194909452336024820152604481018890529051929091169163f850ffaa916064808201926020929091908290030181600087803b15801561122f57600080fd5b3390565b6001600160a01b0382166000818152600f602090815260408083203380855290835281842054948452600e83528184209084529091528120549091908110611ac05760405162461bcd60e51b81526004018080602001828103825260258152602001806123ab6025913960400191505060405180910390fd5b6001600160a01b0384166000908152600e602090815260408083203384529091528120805483908110611aef57fe5b600091825260209091206002909102018054909150436001600160801b039091161115611b4d5760405162461bcd60e51b81526004018080602001828103825260298152602001806123f76029913960400191505060405180910390fd5b6001818101805460ff1916821790556001600160a01b0386166000818152600f602090815260408083203380855290835281842080549096019095558554938352600882528083209483529390529190912054600160801b9091046001600160801b031690611bbc9082611fd7565b6001600160a01b038716600081815260086020908152604080832033845282528083209490945591815260099091522054611bfd908263ffffffff611fd716565b6001600160a01b038716600090815260096020908152604080832093909355338252600a90522054611c35908263ffffffff611fd716565b336000818152600a60209081526040808320949094556001600160a01b038a168252600b8152838220928252919091522054611c77908263ffffffff611f1d16565b6001600160a01b0387166000818152600b60209081526040808320338452825280832094909455918152600c9091522054611cb8908263ffffffff611f1d16565b6001600160a01b0387166000908152600c6020908152604080832093909355338252600d90522054611cf0908263ffffffff611f1d16565b336000908152600d60205260409020558415611d94576002546040805163e3b99e8560e01b81523360048201526024810184905290516001600160a01b039092169163e3b99e85916044808201926020929091908290030181600087803b158015611d5a57600080fd5b505af1158015611d6e573d6000803e3d6000fd5b505050506040513d6020811015611d8457600080fd5b5051611d8f57600080fd5b611db1565b600254611db1906001600160a01b0316338363ffffffff61201916565b604080513381526020810183905281516001600160a01b038916927fcd1fce47d5ad89dd70b04c75bd6bdb8114d4d4ff7b4393f9fb5937e733ba9582928290030190a250600195945050505050565b6000826001600160a01b031663570ca7356040518163ffffffff1660e01b815260040160206040518083038186803b158015611e3b57600080fd5b505afa158015611e4f573d6000803e3d6000fd5b505050506040513d6020811015611e6557600080fd5b50516001600160a01b03838116911614905092915050565b6001600160a01b038116611ec25760405162461bcd60e51b815260040180806020018281038252602681526020018061232a6026913960400191505060405180910390fd5b600080546040516001600160a01b03808516939216917f8be0079c531659141344cd1fd0a4f28419497f9722a3daafe3b4186f6b6457e091a3600080546001600160a01b0319166001600160a01b0392909216919091179055565b600082820183811015610eae576040805162461bcd60e51b815260206004820152601b60248201527f536166654d6174683a206164646974696f6e206f766572666c6f770000000000604482015290519081900360640190fd5b604080516001600160a01b0385811660248301528416604482015260648082018490528251808303909101815260849091019091526020810180516001600160e01b03166323b872dd60e01b179052611fd1908590612070565b50505050565b6000610eae83836040518060400160405280601e81526020017f536166654d6174683a207375627472616374696f6e206f766572666c6f770000815250612228565b604080516001600160a01b038416602482015260448082018490528251808303909101815260649091019091526020810180516001600160e01b031663a9059cbb60e01b17905261206b908490612070565b505050565b612082826001600160a01b03166122bf565b6120d3576040805162461bcd60e51b815260206004820152601f60248201527f5361666545524332303a2063616c6c20746f206e6f6e2d636f6e747261637400604482015290519081900360640190fd5b60006060836001600160a01b0316836040518082805190602001908083835b602083106121115780518252601f1990920191602091820191016120f2565b6001836020036101000a0380198251168184511680821785525050505050509050019150506000604051808303816000865af19150503d8060008114612173576040519150601f19603f3d011682016040523d82523d6000602084013e612178565b606091505b5091509150816121cf576040805162461bcd60e51b815260206004820181905260248201527f5361666545524332303a206c6f772d6c6576656c2063616c6c206661696c6564604482015290519081900360640190fd5b805115611fd1578080602001905160208110156121eb57600080fd5b5051611fd15760405162461bcd60e51b815260040180806020018281038252602a815260200180612471602a913960400191505060405180910390fd5b600081848411156122b75760405162461bcd60e51b81526004018080602001828103825283818151815260200191508051906020019080838360005b8381101561227c578181015183820152602001612264565b50505050905090810190601f1680156122a95780820380516001836020036101000a031916815260200191505b509250505060405180910390fd5b505050900390565b6000813f7fc5d2460186f7233c927e7db2dcc703c0e500b653ca82273b7bfad8045d85a470818114801590610af457505015159291505056fe4465706f7369744d616e616765723a2070656e64696e67207265717565737420616c72656164792070726f6365737365644f776e61626c653a206e6577206f776e657220697320746865207a65726f20616464726573734465706f7369744d616e616765723a20536569674d616e6167657220697320616c7265616479207365744465706f7369744d616e616765723a206e2065786365656473206e756d206f662070656e64696e672072657175657374734465706f7369744d616e616765723a206e6f207265717565737420746f2070726f636573734465706f7369744d616e616765723a20616d6f756e74206d757374206e6f74206265207a65726f4465706f7369744d616e616765723a207761697420666f72207769746864726177616c2064656c61794465706f7369744d616e616765723a206f6e6c79206163636570742057544f4e20617070726f76652063616c6c6261636b4f776e61626c653a2063616c6c6572206973206e6f7420746865206f776e65725361666545524332303a204552433230206f7065726174696f6e20646964206e6f7420737563636565644465706f7369744d616e616765723a206e6f2076616c69642070656e64696e672072657175657374a265627a7a72315820916b68f880773c2540065d2cc2ee2772576514a91ab45d6f8ef18fa65d19fb9a64736f6c634300050c0032",
  "source": "pragma solidity ^0.5.12;\n\nimport { Ownable } from \"../../../node_modules/openzeppelin-solidity/contracts/ownership/Ownable.sol\";\nimport { SafeMath } from \"../../../node_modules/openzeppelin-solidity/contracts/math/SafeMath.sol\";\nimport { IERC20 } from \"../../../node_modules/openzeppelin-solidity/contracts/token/ERC20/IERC20.sol\";\nimport { SafeERC20 } from \"../../../node_modules/openzeppelin-solidity/contracts/token/ERC20/SafeERC20.sol\";\nimport { ERC165 } from \"../../../node_modules/openzeppelin-solidity/contracts/introspection/ERC165.sol\";\n\nimport { RootChainI } from \"../../RootChainI.sol\";\n\nimport { DepositManagerI } from \"../interfaces/DepositManagerI.sol\";\nimport { RootChainRegistryI } from \"../interfaces/RootChainRegistryI.sol\";\nimport { SeigManagerI } from \"../interfaces/SeigManagerI.sol\";\nimport { WTON } from \"../tokens/WTON.sol\";\nimport { OnApprove } from \"../tokens/OnApprove.sol\";\n\n// TODO: add events\n// TODO: check deposit/withdraw WTON amount (1e27)\n\n/**\n * @dev DepositManager manages WTON deposit and withdrawal from operator and WTON holders.\n */\ncontract DepositManager is Ownable, ERC165, OnApprove {\n  using SafeMath for uint256;\n  using SafeERC20 for WTON;\n\n  ////////////////////\n  // Storage - contracts\n  ////////////////////\n\n  WTON internal _wton;\n  RootChainRegistryI internal _registry;\n  SeigManagerI internal _seigManager;\n\n  ////////////////////\n  // Storage - token amount\n  ////////////////////\n\n  // accumulated staked amount\n  // rootchian => msg.sender => wton amount\n  mapping (address => mapping (address => uint256)) internal _accStaked;\n  // rootchian => wton amount\n  mapping (address => uint256) internal _accStakedRootChain;\n  // msg.sender => wton amount\n  mapping (address => uint256) internal _accStakedAccount;\n\n  // pending unstaked amount\n  // rootchian => msg.sender => wton amount\n  mapping (address => mapping (address => uint256)) internal _pendingUnstaked;\n  // rootchian => wton amount\n  mapping (address => uint256) internal _pendingUnstakedRootChain;\n  // msg.sender => wton amount\n  mapping (address => uint256) internal _pendingUnstakedAccount;\n\n  // accumulated unstaked amount\n  // rootchian => msg.sender => wton amount\n  mapping (address => mapping (address => uint256)) internal _accUnstaked;\n  // rootchian => wton amount\n  mapping (address => uint256) internal _accUnstakedRootChain;\n  // msg.sender => wton amount\n  mapping (address => uint256) internal _accUnstakedAccount;\n\n  // rootchain => msg.sender => withdrawal requests\n  mapping (address => mapping (address => WithdrawalReqeust[])) internal _withdrawalRequests;\n\n  // rootchain => msg.sender => index\n  mapping (address => mapping (address => uint256)) internal _withdrawalRequestIndex;\n\n  ////////////////////\n  // Storage - configuration / ERC165 interfaces\n  ////////////////////\n\n  // withdrawal delay in block number\n  // @TODO: change delay unit to CYCLE?\n  //uint256 internal _WITHDRAWAL_DELAY;\n  uint256 public globalWithdrawalDelay;\n  mapping (address => uint256) public withdrawalDelay;\n\n  struct WithdrawalReqeust {\n    uint128 withdrawableBlockNumber;\n    uint128 amount;\n    bool processed;\n  }\n\n  ////////////////////\n  // Modifiers\n  ////////////////////\n\n  modifier onlyRootChain(address rootchain) {\n    require(_registry.rootchains(rootchain));\n    _;\n  }\n\n  modifier onlySeigManager() {\n    require(msg.sender == address(_seigManager));\n    _;\n  }\n\n  ////////////////////\n  // Events\n  ////////////////////\n\n  event Deposited(address indexed rootchain, address depositor, uint256 amount);\n  event WithdrawalRequested(address indexed rootchain, address depositor, uint256 amount);\n  event WithdrawalProcessed(address indexed rootchain, address depositor, uint256 amount);\n\n  ////////////////////\n  // Constructor\n  ////////////////////\n\n  constructor (\n    WTON wton,\n    RootChainRegistryI registry,\n    uint256 globalWithdrawalDelay_\n  ) public {\n    _wton = wton;\n    _registry = registry;\n    globalWithdrawalDelay = globalWithdrawalDelay_;\n  }\n\n  ////////////////////\n  // SeiManager function\n  ////////////////////\n\n  function setSeigManager(SeigManagerI seigManager) external onlyOwner {\n    require(address(_seigManager) == address(0), \"DepositManager: SeigManager is already set\");\n    _seigManager = seigManager;\n  }\n\n  ////////////////////\n  // ERC20 Approve callback\n  ////////////////////\n\n  function onApprove(\n    address owner,\n    address spender,\n    uint256 amount,\n    bytes calldata data\n  ) external returns (bool) {\n    require(msg.sender == address(_wton), \"DepositManager: only accept WTON approve callback\");\n\n    address rootchain = _decodeDepositManagerOnApproveData(data);\n    require(_deposit(rootchain, owner, amount));\n\n    return true;\n  }\n\n  function _decodeDepositManagerOnApproveData(\n    bytes memory data\n  ) internal pure returns (address rootchain) {\n    require(data.length == 0x20);\n\n    assembly {\n      rootchain := mload(add(data, 0x20))\n    }\n  }\n\n  ////////////////////\n  // Deposit function\n  ////////////////////\n\n  /**\n   * @dev deposit `amount` WTON in RAY\n   */\n\n  function deposit(address rootchain, uint256 amount) external returns (bool) {\n    require(_deposit(rootchain, msg.sender, amount));\n  }\n\n  function _deposit(address rootchain, address account, uint256 amount) internal onlyRootChain(rootchain) returns (bool) {\n    _accStaked[rootchain][account] = _accStaked[rootchain][account].add(amount);\n    _accStakedRootChain[rootchain] = _accStakedRootChain[rootchain].add(amount);\n    _accStakedAccount[account] = _accStakedAccount[account].add(amount);\n\n    _wton.safeTransferFrom(account, address(this), amount);\n\n    emit Deposited(rootchain, account, amount);\n\n    require(_seigManager.onDeposit(rootchain, account, amount));\n\n    return true;\n  }\n\n  ////////////////////\n  // Re-deposit function\n  ////////////////////\n\n  /**\n   * @dev re-deposit pending requests in the pending queue\n   */\n\n  function redeposit(address rootchain) external returns (bool) {\n    uint256 i = _withdrawalRequestIndex[rootchain][msg.sender];\n    require(_redeposit(rootchain, i, 1));\n  }\n\n  function redepositMulti(address rootchain, uint256 n) external returns (bool) {\n    uint256 i = _withdrawalRequestIndex[rootchain][msg.sender];\n    require(_redeposit(rootchain, i, n));\n  }\n\n  function _redeposit(address rootchain, uint256 i, uint256 n) internal onlyRootChain(rootchain) returns (bool) {\n    uint256 accAmount;\n\n    require(_withdrawalRequests[rootchain][msg.sender].length > 0, \"DepositManager: no request\");\n    require(_withdrawalRequests[rootchain][msg.sender].length - i >= n, \"DepositManager: n exceeds num of pending requests\");\n\n    uint256 e = i + n;\n    for (; i < e; i++) {\n      WithdrawalReqeust storage r = _withdrawalRequests[rootchain][msg.sender][i];\n      uint256 amount = r.amount;\n\n      require(!r.processed, \"DepositManager: pending request already processed\");\n      require(amount > 0, \"DepositManager: no valid pending request\");\n\n      accAmount = accAmount.add(amount);\n      r.processed = true;\n    }\n\n\n    // deposit-related storages\n    _accStaked[rootchain][msg.sender] = _accStaked[rootchain][msg.sender].add(accAmount);\n    _accStakedRootChain[rootchain] = _accStakedRootChain[rootchain].add(accAmount);\n    _accStakedAccount[msg.sender] = _accStakedAccount[msg.sender].add(accAmount);\n\n    // withdrawal-related storages\n    _pendingUnstaked[rootchain][msg.sender] = _pendingUnstaked[rootchain][msg.sender].sub(accAmount);\n    _pendingUnstakedRootChain[rootchain] = _pendingUnstakedRootChain[rootchain].sub(accAmount);\n    _pendingUnstakedAccount[msg.sender] = _pendingUnstakedAccount[msg.sender].sub(accAmount);\n\n    _withdrawalRequestIndex[rootchain][msg.sender] += n;\n\n    emit Deposited(rootchain, msg.sender, accAmount);\n\n    require(_seigManager.onDeposit(rootchain, msg.sender, accAmount));\n\n    return true;\n  }\n\n  ////////////////////\n  // Slash functions\n  ////////////////////\n\n  function slash(address rootchain, address recipient, uint256 amount) external onlySeigManager returns (bool) {\n    //return _wton.transferFrom(owner, recipient, amount);\n  }\n\n  ////////////////////\n  // Setter\n  ////////////////////\n\n  function setGlobalWithdrawalDelay(uint256 globalWithdrawalDelay_) external onlyOwner {\n    globalWithdrawalDelay = globalWithdrawalDelay_;\n  }\n\n  function setWithdrawalDelay(address l2chain, uint256 withdrawalDelay_) external {\n    require(_isOperator(l2chain, msg.sender));\n    withdrawalDelay[l2chain] = withdrawalDelay_;\n  }\n\n  ////////////////////\n  // Withdrawal functions\n  ////////////////////\n\n  function requestWithdrawal(address rootchain, uint256 amount) external returns (bool) {\n    return _requestWithdrawal(rootchain, amount);\n  }\n\n  function _requestWithdrawal(address rootchain, uint256 amount) internal onlyRootChain(rootchain) returns (bool) {\n    require(amount > 0, \"DepositManager: amount must not be zero\");\n\n    uint256 delay = globalWithdrawalDelay > withdrawalDelay[rootchain] ? globalWithdrawalDelay : withdrawalDelay[rootchain];\n    _withdrawalRequests[rootchain][msg.sender].push(WithdrawalReqeust({\n      withdrawableBlockNumber: uint128(block.number + delay),\n      amount: uint128(amount),\n      processed: false\n    }));\n\n    _pendingUnstaked[rootchain][msg.sender] = _pendingUnstaked[rootchain][msg.sender].add(amount);\n    _pendingUnstakedRootChain[rootchain] = _pendingUnstakedRootChain[rootchain].add(amount);\n    _pendingUnstakedAccount[msg.sender] = _pendingUnstakedAccount[msg.sender].add(amount);\n\n    emit WithdrawalRequested(rootchain, msg.sender, amount);\n\n    require(_seigManager.onWithdraw(rootchain, msg.sender, amount));\n\n    return true;\n  }\n\n  function processRequest(address rootchain, bool receiveTON) external returns (bool) {\n    return _processRequest(rootchain, receiveTON);\n  }\n\n  function _processRequest(address rootchain, bool receiveTON) internal returns (bool) {\n    uint256 index = _withdrawalRequestIndex[rootchain][msg.sender];\n    require(_withdrawalRequests[rootchain][msg.sender].length > index, \"DepositManager: no request to process\");\n\n    WithdrawalReqeust storage r = _withdrawalRequests[rootchain][msg.sender][index];\n\n    require(r.withdrawableBlockNumber <= block.number, \"DepositManager: wait for withdrawal delay\");\n    r.processed = true;\n\n    _withdrawalRequestIndex[rootchain][msg.sender] += 1;\n\n    uint256 amount = r.amount;\n\n    _pendingUnstaked[rootchain][msg.sender] = _pendingUnstaked[rootchain][msg.sender].sub(amount);\n    _pendingUnstakedRootChain[rootchain] = _pendingUnstakedRootChain[rootchain].sub(amount);\n    _pendingUnstakedAccount[msg.sender] = _pendingUnstakedAccount[msg.sender].sub(amount);\n\n    _accUnstaked[rootchain][msg.sender] = _accUnstaked[rootchain][msg.sender].add(amount);\n    _accUnstakedRootChain[rootchain] = _accUnstakedRootChain[rootchain].add(amount);\n    _accUnstakedAccount[msg.sender] = _accUnstakedAccount[msg.sender].add(amount);\n\n    if (receiveTON) {\n      require(_wton.swapToTONAndTransfer(msg.sender, amount));\n    } else {\n      _wton.safeTransfer(msg.sender, amount);\n    }\n\n    emit WithdrawalProcessed(rootchain, msg.sender, amount);\n    return true;\n  }\n\n  function requestWithdrawalAll(address rootchain) external onlyRootChain(rootchain) returns (bool) {\n    uint256 amount = _seigManager.stakeOf(rootchain, msg.sender);\n\n    return _requestWithdrawal(rootchain, amount);\n  }\n\n  function processRequests(address rootchain, uint256 n, bool receiveTON) external returns (bool) {\n    for (uint256 i = 0; i < n; i++) {\n      require(_processRequest(rootchain, receiveTON));\n    }\n    return true;\n  }\n\n  function numRequests(address rootchain, address account) external view returns (uint256) {\n    return _withdrawalRequests[rootchain][account].length;\n  }\n\n  function numPendingRequests(address rootchain, address account) external view returns (uint256) {\n    uint256 numRequests = _withdrawalRequests[rootchain][account].length;\n    uint256 index = _withdrawalRequestIndex[rootchain][account];\n\n    if (numRequests == 0) return 0;\n\n    return numRequests - index;\n  }\n\n  function _isOperator(address rootchain, address operator) internal view returns (bool) {\n    return operator == RootChainI(rootchain).operator();\n  }\n\n\n  ////////////////////\n  // Storage getters\n  ////////////////////\n\n  // solium-disable\n  function wton() external view returns (address) { return address(_wton); }\n  function registry() external view returns (address) { return address(_registry); }\n  function seigManager() external view returns (address) { return address(_seigManager); }\n\n  function accStaked(address rootchain, address account) external view returns (uint256 wtonAmount) { return _accStaked[rootchain][account]; }\n  function accStakedRootChain(address rootchain) external view returns (uint256 wtonAmount) { return _accStakedRootChain[rootchain]; }\n  function accStakedAccount(address account) external view returns (uint256 wtonAmount) { return _accStakedAccount[account]; }\n\n  function pendingUnstaked(address rootchain, address account) external view returns (uint256 wtonAmount) { return _pendingUnstaked[rootchain][account]; }\n  function pendingUnstakedRootChain(address rootchain) external view returns (uint256 wtonAmount) { return _pendingUnstakedRootChain[rootchain]; }\n  function pendingUnstakedAccount(address account) external view returns (uint256 wtonAmount) { return _pendingUnstakedAccount[account]; }\n\n  function accUnstaked(address rootchain, address account) external view returns (uint256 wtonAmount) { return _accUnstaked[rootchain][account]; }\n  function accUnstakedRootChain(address rootchain) external view returns (uint256 wtonAmount) { return _accUnstakedRootChain[rootchain]; }\n  function accUnstakedAccount(address account) external view returns (uint256 wtonAmount) { return _accUnstakedAccount[account]; }\n\n  function withdrawalRequestIndex(address rootchain, address account) external view returns (uint256 index) { return _withdrawalRequestIndex[rootchain][account]; }\n  function withdrawalRequest(address rootchain, address account, uint256 index) external view returns (uint128 withdrawableBlockNumber, uint128 amount, bool processed ) {\n    withdrawableBlockNumber = _withdrawalRequests[rootchain][account][index].withdrawableBlockNumber;\n    amount = _withdrawalRequests[rootchain][account][index].amount;\n    processed = _withdrawalRequests[rootchain][account][index].processed;\n  }\n\n  // solium-enable\n}\n",
  "sourcePath": "/home/modagi/github/onther/plasma-evm-contracts/contracts/stake/managers/DepositManager.sol",
  "compiler": {
    "name": "solc",
    "version": "0.5.12+commit.7709ece9.Emscripten.clang"
  },
  "schemaVersion": "3.2.0",
  "updatedAt": "2020-09-06T16:26:47.162Z",
  "devdoc": {
    "details": "DepositManager manages WTON deposit and withdrawal from operator and WTON holders.",
    "methods": {
      "deposit(address,uint256)": {
        "details": "deposit `amount` WTON in RAY"
      },
      "isOwner()": {
        "details": "Returns true if the caller is the current owner."
      },
      "owner()": {
        "details": "Returns the address of the current owner."
      },
      "redeposit(address)": {
        "details": "re-deposit pending requests in the pending queue"
      },
      "renounceOwnership()": {
        "details": "Leaves the contract without owner. It will not be possible to call `onlyOwner` functions anymore. Can only be called by the current owner.     * NOTE: Renouncing ownership will leave the contract without an owner, thereby removing any functionality that is only available to the owner."
      },
      "supportsInterface(bytes4)": {
        "details": "See {IERC165-supportsInterface}.     * Time complexity O(1), guaranteed to always use less than 30 000 gas."
      },
      "transferOwnership(address)": {
        "details": "Transfers ownership of the contract to a new account (`newOwner`). Can only be called by the current owner."
      }
    }
  },
  "userdoc": {
    "methods": {
      "constructor": "/////////////////",
      "onApprove(address,address,uint256,bytes)": {
        "notice": "/////////////////"
      },
      "requestWithdrawal(address,uint256)": {
        "notice": "/////////////////"
      },
      "setGlobalWithdrawalDelay(uint256)": {
        "notice": "/////////////////"
      },
      "setSeigManager(address)": {
        "notice": "/////////////////"
      },
      "slash(address,address,uint256)": {
        "notice": "/////////////////"
      },
      "wton()": {
        "notice": "/////////////////"
      }
    }
  }
}