{
  "contractName": "Layer2Registry",
  "abi": [
    {
      "anonymous": false,
      "inputs": [
        {
          "indexed": true,
          "internalType": "address",
          "name": "previousOwner",
          "type": "address"
        },
        {
          "indexed": true,
          "internalType": "address",
          "name": "newOwner",
          "type": "address"
        }
      ],
      "name": "OwnershipTransferred",
      "type": "event"
    },
    {
      "constant": true,
      "inputs": [],
      "name": "isOwner",
      "outputs": [
        {
          "internalType": "bool",
          "name": "",
          "type": "bool"
        }
      ],
      "payable": false,
      "stateMutability": "view",
      "type": "function"
    },
    {
      "constant": true,
      "inputs": [],
      "name": "owner",
      "outputs": [
        {
          "internalType": "address",
          "name": "",
          "type": "address"
        }
      ],
      "payable": false,
      "stateMutability": "view",
      "type": "function"
    },
    {
      "constant": false,
      "inputs": [],
      "name": "renounceOwnership",
      "outputs": [],
      "payable": false,
      "stateMutability": "nonpayable",
      "type": "function"
    },
    {
      "constant": false,
      "inputs": [
        {
          "internalType": "address",
          "name": "newOwner",
          "type": "address"
        }
      ],
      "name": "transferOwnership",
      "outputs": [],
      "payable": false,
      "stateMutability": "nonpayable",
      "type": "function"
    },
    {
      "constant": true,
      "inputs": [
        {
          "internalType": "address",
          "name": "layer2",
          "type": "address"
        }
      ],
      "name": "layer2s",
      "outputs": [
        {
          "internalType": "bool",
          "name": "",
          "type": "bool"
        }
      ],
      "payable": false,
      "stateMutability": "view",
      "type": "function"
    },
    {
      "constant": true,
      "inputs": [],
      "name": "numLayer2s",
      "outputs": [
        {
          "internalType": "uint256",
          "name": "",
          "type": "uint256"
        }
      ],
      "payable": false,
      "stateMutability": "view",
      "type": "function"
    },
    {
      "constant": true,
      "inputs": [
        {
          "internalType": "uint256",
          "name": "index",
          "type": "uint256"
        }
      ],
      "name": "layer2ByIndex",
      "outputs": [
        {
          "internalType": "address",
          "name": "",
          "type": "address"
        }
      ],
      "payable": false,
      "stateMutability": "view",
      "type": "function"
    },
    {
      "constant": false,
      "inputs": [
        {
          "internalType": "address",
          "name": "layer2",
          "type": "address"
        }
      ],
      "name": "register",
      "outputs": [
        {
          "internalType": "bool",
          "name": "",
          "type": "bool"
        }
      ],
      "payable": false,
      "stateMutability": "nonpayable",
      "type": "function"
    },
    {
      "constant": false,
      "inputs": [
        {
          "internalType": "address",
          "name": "layer2",
          "type": "address"
        },
        {
          "internalType": "address",
          "name": "seigManager",
          "type": "address"
        }
      ],
      "name": "deployCoinage",
      "outputs": [
        {
          "internalType": "bool",
          "name": "",
          "type": "bool"
        }
      ],
      "payable": false,
      "stateMutability": "nonpayable",
      "type": "function"
    },
    {
      "constant": false,
      "inputs": [
        {
          "internalType": "address",
          "name": "layer2",
          "type": "address"
        },
        {
          "internalType": "address",
          "name": "seigManager",
          "type": "address"
        }
      ],
      "name": "registerAndDeployCoinage",
      "outputs": [
        {
          "internalType": "bool",
          "name": "",
          "type": "bool"
        }
      ],
      "payable": false,
      "stateMutability": "nonpayable",
      "type": "function"
    },
    {
      "constant": false,
      "inputs": [
        {
          "internalType": "address",
          "name": "layer2",
          "type": "address"
        },
        {
          "internalType": "address",
          "name": "seigManager",
          "type": "address"
        },
        {
          "internalType": "uint256",
          "name": "commissionRate",
          "type": "uint256"
        },
        {
          "internalType": "bool",
          "name": "isCommissionRateNegative",
          "type": "bool"
        }
      ],
      "name": "registerAndDeployCoinageAndSetCommissionRate",
      "outputs": [
        {
          "internalType": "bool",
          "name": "",
          "type": "bool"
        }
      ],
      "payable": false,
      "stateMutability": "nonpayable",
      "type": "function"
    },
    {
      "constant": false,
      "inputs": [
        {
          "internalType": "address",
          "name": "layer2",
          "type": "address"
        }
      ],
      "name": "unregister",
      "outputs": [
        {
          "internalType": "bool",
          "name": "",
          "type": "bool"
        }
      ],
      "payable": false,
      "stateMutability": "nonpayable",
      "type": "function"
    }
  ],
  "bytecode": "0x608060405260006100176001600160e01b0361006616565b600080546001600160a01b0319166001600160a01b0383169081178255604051929350917f8be0079c531659141344cd1fd0a4f28419497f9722a3daafe3b4186f6b6457e0908290a35061006a565b3390565b610b5e806100796000396000f3fe608060405234801561001057600080fd5b50600436106100b45760003560e01c8063851086041161007157806385108604146101a15780638da5cb5b146101cf5780638f32d59b146101f3578063b7ffb179146101fb578063bcb1a71e14610218578063f2fde38b14610246576100b4565b80630d42d497146100b95780632ec2c246146100d35780633eb2a66c1461010d5780634420e4861461014b57806361cdc5b814610171578063715018a614610197575b600080fd5b6100c161026c565b60408051918252519081900360200190f35b6100f9600480360360208110156100e957600080fd5b50356001600160a01b0316610272565b604080519115158252519081900360200190f35b6100f96004803603608081101561012357600080fd5b506001600160a01b038135811691602081013590911690604081013590606001351515610316565b6100f96004803603602081101561016157600080fd5b50356001600160a01b0316610422565b6100f96004803603602081101561018757600080fd5b50356001600160a01b03166104f8565b61019f610516565b005b6100f9600480360360408110156101b757600080fd5b506001600160a01b03813581169160200135166105b9565b6101d7610691565b604080516001600160a01b039092168252519081900360200190f35b6100f96106a0565b6101d76004803603602081101561021157600080fd5b50356106c4565b6100f96004803603604081101561022e57600080fd5b506001600160a01b03813581169160200135166106df565b61019f6004803603602081101561025c57600080fd5b50356001600160a01b03166107d4565b60025490565b600061027c6106a0565b6102cd576040805162461bcd60e51b815260206004820181905260248201527f4f776e61626c653a2063616c6c6572206973206e6f7420746865206f776e6572604482015290519081900360640190fd5b6001600160a01b03821660009081526001602052604090205460ff166102f257600080fd5b6001600160a01b039091166000908152600160205260409020805460ff1916905590565b6000846103216106a0565b806103a15750336001600160a01b0316816001600160a01b031663570ca7356040518163ffffffff1660e01b815260040160206040518083038186803b15801561036a57600080fd5b505afa15801561037e573d6000803e3d6000fd5b505050506040513d602081101561039457600080fd5b50516001600160a01b0316145b6103dc5760405162461bcd60e51b8152600401808060200182810382526027815260200180610b036027913960400191505060405180910390fd5b6103e586610839565b6103ee57600080fd5b6103f8868661091b565b61040157600080fd5b61040d868686866109a8565b61041657600080fd5b50600195945050505050565b60008161042d6106a0565b806104ad5750336001600160a01b0316816001600160a01b031663570ca7356040518163ffffffff1660e01b815260040160206040518083038186803b15801561047657600080fd5b505afa15801561048a573d6000803e3d6000fd5b505050506040513d60208110156104a057600080fd5b50516001600160a01b0316145b6104e85760405162461bcd60e51b8152600401808060200182810382526027815260200180610b036027913960400191505060405180910390fd5b6104f183610839565b9392505050565b6001600160a01b031660009081526001602052604090205460ff1690565b61051e6106a0565b61056f576040805162461bcd60e51b815260206004820181905260248201527f4f776e61626c653a2063616c6c6572206973206e6f7420746865206f776e6572604482015290519081900360640190fd5b600080546040516001600160a01b03909116907f8be0079c531659141344cd1fd0a4f28419497f9722a3daafe3b4186f6b6457e0908390a3600080546001600160a01b0319169055565b6000826105c46106a0565b806106445750336001600160a01b0316816001600160a01b031663570ca7356040518163ffffffff1660e01b815260040160206040518083038186803b15801561060d57600080fd5b505afa158015610621573d6000803e3d6000fd5b505050506040513d602081101561063757600080fd5b50516001600160a01b0316145b61067f5760405162461bcd60e51b8152600401808060200182810382526027815260200180610b036027913960400191505060405180910390fd5b610689848461091b565b949350505050565b6000546001600160a01b031690565b600080546001600160a01b03166106b5610a38565b6001600160a01b031614905090565b6000908152600360205260409020546001600160a01b031690565b6000826106ea6106a0565b8061076a5750336001600160a01b0316816001600160a01b031663570ca7356040518163ffffffff1660e01b815260040160206040518083038186803b15801561073357600080fd5b505afa158015610747573d6000803e3d6000fd5b505050506040513d602081101561075d57600080fd5b50516001600160a01b0316145b6107a55760405162461bcd60e51b8152600401808060200182810382526027815260200180610b036027913960400191505060405180910390fd5b6107ae84610839565b6107b757600080fd5b6107c1848461091b565b6107ca57600080fd5b5060019392505050565b6107dc6106a0565b61082d576040805162461bcd60e51b815260206004820181905260248201527f4f776e61626c653a2063616c6c6572206973206e6f7420746865206f776e6572604482015290519081900360640190fd5b61083681610a3c565b50565b6001600160a01b03811660009081526001602052604081205460ff161561085f57600080fd5b816001600160a01b031663882eed2c6040518163ffffffff1660e01b815260040160206040518083038186803b15801561089857600080fd5b505afa1580156108ac573d6000803e3d6000fd5b505050506040513d60208110156108c257600080fd5b50516108cd57600080fd5b506001600160a01b03166000818152600160208181526040808420805460ff191684179055600280548552600390925290922080546001600160a01b03191690931790925580548201905590565b6000816001600160a01b031663833a774f846040518263ffffffff1660e01b815260040180826001600160a01b03166001600160a01b03168152602001915050602060405180830381600087803b15801561097557600080fd5b505af1158015610989573d6000803e3d6000fd5b505050506040513d602081101561099f57600080fd5b50519392505050565b6040805163211276b360e11b81526001600160a01b0386811660048301526024820185905283151560448301529151600092861691634224ed6691606480830192602092919082900301818787803b158015610a0357600080fd5b505af1158015610a17573d6000803e3d6000fd5b505050506040513d6020811015610a2d57600080fd5b505195945050505050565b3390565b6001600160a01b038116610a815760405162461bcd60e51b8152600401808060200182810382526026815260200180610add6026913960400191505060405180910390fd5b600080546040516001600160a01b03808516939216917f8be0079c531659141344cd1fd0a4f28419497f9722a3daafe3b4186f6b6457e091a3600080546001600160a01b0319166001600160a01b039290921691909117905556fe4f776e61626c653a206e6577206f776e657220697320746865207a65726f206164647265737373656e646572206973206e656974686572206f70657261746f72206e6f72206f70657261746f72a265627a7a723158203d73f62674f5b245e31a1f57d456ceefa97c0739fc6cb88461748e2260f81fb864736f6c634300050c0032",
  "source": "pragma solidity ^0.5.12;\n\nimport { Ownable } from \"../../node_modules/openzeppelin-solidity/contracts/ownership/Ownable.sol\";\n\nimport { Layer2I } from \"../Layer2I.sol\";\n\nimport { SeigManagerI } from \"./interfaces/SeigManagerI.sol\";\nimport { Layer2RegistryI } from \"./interfaces/Layer2RegistryI.sol\";\n\n\n// TODO: transfer coinages ownership to seig manager\ncontract Layer2Registry is Layer2RegistryI, Ownable {\n  // check whether the address is layer2 contract or not\n  mapping (address => bool) internal _layer2s;\n\n  // array-like storages\n  // NOTE: unregistered layer2s could exists in that array. so, should check by layer2s(address)\n  uint256 internal _numLayer2s;\n  mapping (uint256 => address) internal _layer2ByIndex;\n\n  modifier onlyOwnerOrOperator(address layer2) {\n    require(isOwner() || Layer2I(layer2).operator() == msg.sender, \"sender is neither operator nor operator\");\n    _;\n  }\n\n  function layer2s(address layer2) external view returns (bool) {\n    return _layer2s[layer2];\n  }\n\n  function numLayer2s() external view returns (uint256) {\n    return _numLayer2s;\n  }\n\n  function layer2ByIndex(uint256 index) external view returns (address) {\n    return _layer2ByIndex[index];\n  }\n\n  function register(address layer2)\n    external\n    onlyOwnerOrOperator(layer2)\n    returns (bool)\n  {\n    return _register(layer2);\n  }\n\n  function _register(address layer2) internal returns (bool) {\n    require(!_layer2s[layer2]);\n    require(Layer2I(layer2).isLayer2());\n\n    _layer2s[layer2] = true;\n    _layer2ByIndex[_numLayer2s] = layer2;\n    _numLayer2s += 1;\n\n    return true;\n  }\n\n  function deployCoinage(\n    address layer2,\n    address seigManager\n  )\n    external\n    onlyOwnerOrOperator(layer2)\n    returns (bool)\n  {\n    return _deployCoinage(layer2, seigManager);\n  }\n\n  function _deployCoinage(\n    address layer2,\n    address seigManager\n  )\n   internal\n   returns (bool)\n  {\n    return SeigManagerI(seigManager).deployCoinage(layer2);\n  }\n\n  function registerAndDeployCoinage(\n    address layer2,\n    address seigManager\n  )\n    external\n    onlyOwnerOrOperator(layer2)\n    returns (bool)\n  {\n    require(_register(layer2));\n    require(_deployCoinage(layer2, seigManager));\n    return true;\n  }\n\n  function registerAndDeployCoinageAndSetCommissionRate(\n    address layer2,\n    address seigManager,\n    uint256 commissionRate,\n    bool isCommissionRateNegative\n  )\n    external\n    onlyOwnerOrOperator(layer2)\n    returns (bool)\n  {\n    require(_register(layer2));\n    require(_deployCoinage(layer2, seigManager));\n    require(_setCommissionRate(layer2, seigManager, commissionRate, isCommissionRateNegative));\n    return true;\n  }\n\n  function _setCommissionRate(\n    address layer2,\n    address seigManager,\n    uint256 commissionRate,\n    bool isCommissionRateNegative\n  )\n    internal\n    returns (bool)\n  {\n    return SeigManagerI(seigManager).setCommissionRate(layer2, commissionRate, isCommissionRateNegative);\n  }\n\n  function unregister(address layer2) external onlyOwner returns (bool) {\n    require(_layer2s[layer2]);\n\n    _layer2s[layer2] = false;\n  }\n}\n",
  "sourcePath": "/home/modagi/github/onther/plasma-evm-contracts2/contracts/stake/Layer2Registry.sol",
  "compiler": {
    "name": "solc",
    "version": "0.5.12+commit.7709ece9.Emscripten.clang"
  },
  "schemaVersion": "3.2.1",
  "updatedAt": "2020-09-10T05:29:25.955Z",
  "devdoc": {
    "methods": {
      "isOwner()": {
        "details": "Returns true if the caller is the current owner."
      },
      "owner()": {
        "details": "Returns the address of the current owner."
      },
      "renounceOwnership()": {
        "details": "Leaves the contract without owner. It will not be possible to call `onlyOwner` functions anymore. Can only be called by the current owner.     * NOTE: Renouncing ownership will leave the contract without an owner, thereby removing any functionality that is only available to the owner."
      },
      "transferOwnership(address)": {
        "details": "Transfers ownership of the contract to a new account (`newOwner`). Can only be called by the current owner."
      }
    }
  },
  "userdoc": {
    "methods": {}
  }
}