{
  "contractName": "PowerTON",
  "abi": [
    {
      "inputs": [
        {
          "internalType": "address",
          "name": "seigManager",
          "type": "address"
        },
        {
          "internalType": "address",
          "name": "wton",
          "type": "address"
        },
        {
          "internalType": "uint256",
          "name": "roundDuration",
          "type": "uint256"
        }
      ],
      "payable": false,
      "stateMutability": "nonpayable",
      "type": "constructor"
    },
    {
      "anonymous": false,
      "inputs": [
        {
          "indexed": true,
          "internalType": "address",
          "name": "previousOwner",
          "type": "address"
        },
        {
          "indexed": true,
          "internalType": "address",
          "name": "newOwner",
          "type": "address"
        }
      ],
      "name": "OwnershipTransferred",
      "type": "event"
    },
    {
      "anonymous": false,
      "inputs": [
        {
          "indexed": false,
          "internalType": "address",
          "name": "account",
          "type": "address"
        }
      ],
      "name": "Paused",
      "type": "event"
    },
    {
      "anonymous": false,
      "inputs": [
        {
          "indexed": true,
          "internalType": "address",
          "name": "account",
          "type": "address"
        }
      ],
      "name": "PauserAdded",
      "type": "event"
    },
    {
      "anonymous": false,
      "inputs": [
        {
          "indexed": true,
          "internalType": "address",
          "name": "account",
          "type": "address"
        }
      ],
      "name": "PauserRemoved",
      "type": "event"
    },
    {
      "anonymous": false,
      "inputs": [
        {
          "indexed": true,
          "internalType": "address",
          "name": "account",
          "type": "address"
        },
        {
          "indexed": false,
          "internalType": "uint256",
          "name": "amount",
          "type": "uint256"
        }
      ],
      "name": "PowerDecreased",
      "type": "event"
    },
    {
      "anonymous": false,
      "inputs": [
        {
          "indexed": true,
          "internalType": "address",
          "name": "account",
          "type": "address"
        },
        {
          "indexed": false,
          "internalType": "uint256",
          "name": "amount",
          "type": "uint256"
        }
      ],
      "name": "PowerIncreased",
      "type": "event"
    },
    {
      "anonymous": false,
      "inputs": [
        {
          "indexed": false,
          "internalType": "uint256",
          "name": "round",
          "type": "uint256"
        },
        {
          "indexed": false,
          "internalType": "address",
          "name": "winner",
          "type": "address"
        },
        {
          "indexed": false,
          "internalType": "uint256",
          "name": "reward",
          "type": "uint256"
        }
      ],
      "name": "RoundEnd",
      "type": "event"
    },
    {
      "anonymous": false,
      "inputs": [
        {
          "indexed": false,
          "internalType": "uint256",
          "name": "round",
          "type": "uint256"
        },
        {
          "indexed": false,
          "internalType": "uint256",
          "name": "startTime",
          "type": "uint256"
        },
        {
          "indexed": false,
          "internalType": "uint256",
          "name": "endTime",
          "type": "uint256"
        }
      ],
      "name": "RoundStart",
      "type": "event"
    },
    {
      "anonymous": false,
      "inputs": [
        {
          "indexed": false,
          "internalType": "address",
          "name": "account",
          "type": "address"
        }
      ],
      "name": "Unpaused",
      "type": "event"
    },
    {
      "constant": false,
      "inputs": [
        {
          "internalType": "address",
          "name": "account",
          "type": "address"
        }
      ],
      "name": "addPauser",
      "outputs": [],
      "payable": false,
      "stateMutability": "nonpayable",
      "type": "function"
    },
    {
      "constant": true,
      "inputs": [],
      "name": "initialized",
      "outputs": [
        {
          "internalType": "bool",
          "name": "",
          "type": "bool"
        }
      ],
      "payable": false,
      "stateMutability": "view",
      "type": "function"
    },
    {
      "constant": true,
      "inputs": [],
      "name": "isOwner",
      "outputs": [
        {
          "internalType": "bool",
          "name": "",
          "type": "bool"
        }
      ],
      "payable": false,
      "stateMutability": "view",
      "type": "function"
    },
    {
      "constant": true,
      "inputs": [
        {
          "internalType": "address",
          "name": "account",
          "type": "address"
        }
      ],
      "name": "isPauser",
      "outputs": [
        {
          "internalType": "bool",
          "name": "",
          "type": "bool"
        }
      ],
      "payable": false,
      "stateMutability": "view",
      "type": "function"
    },
    {
      "constant": true,
      "inputs": [],
      "name": "owner",
      "outputs": [
        {
          "internalType": "address",
          "name": "",
          "type": "address"
        }
      ],
      "payable": false,
      "stateMutability": "view",
      "type": "function"
    },
    {
      "constant": false,
      "inputs": [],
      "name": "pause",
      "outputs": [],
      "payable": false,
      "stateMutability": "nonpayable",
      "type": "function"
    },
    {
      "constant": true,
      "inputs": [],
      "name": "paused",
      "outputs": [
        {
          "internalType": "bool",
          "name": "",
          "type": "bool"
        }
      ],
      "payable": false,
      "stateMutability": "view",
      "type": "function"
    },
    {
      "constant": false,
      "inputs": [
        {
          "internalType": "address",
          "name": "target",
          "type": "address"
        }
      ],
      "name": "renounceMinter",
      "outputs": [],
      "payable": false,
      "stateMutability": "nonpayable",
      "type": "function"
    },
    {
      "constant": false,
      "inputs": [
        {
          "internalType": "address",
          "name": "target",
          "type": "address"
        }
      ],
      "name": "renounceOwnership",
      "outputs": [],
      "payable": false,
      "stateMutability": "nonpayable",
      "type": "function"
    },
    {
      "constant": false,
      "inputs": [],
      "name": "renounceOwnership",
      "outputs": [],
      "payable": false,
      "stateMutability": "nonpayable",
      "type": "function"
    },
    {
      "constant": false,
      "inputs": [
        {
          "internalType": "address",
          "name": "target",
          "type": "address"
        }
      ],
      "name": "renouncePauser",
      "outputs": [],
      "payable": false,
      "stateMutability": "nonpayable",
      "type": "function"
    },
    {
      "constant": false,
      "inputs": [],
      "name": "renouncePauser",
      "outputs": [],
      "payable": false,
      "stateMutability": "nonpayable",
      "type": "function"
    },
    {
      "constant": true,
      "inputs": [
        {
          "internalType": "uint256",
          "name": "",
          "type": "uint256"
        }
      ],
      "name": "rounds",
      "outputs": [
        {
          "internalType": "uint64",
          "name": "startTime",
          "type": "uint64"
        },
        {
          "internalType": "uint64",
          "name": "endTime",
          "type": "uint64"
        },
        {
          "internalType": "uint256",
          "name": "reward",
          "type": "uint256"
        },
        {
          "internalType": "address",
          "name": "winner",
          "type": "address"
        }
      ],
      "payable": false,
      "stateMutability": "view",
      "type": "function"
    },
    {
      "constant": false,
      "inputs": [
        {
          "internalType": "address",
          "name": "target",
          "type": "address"
        },
        {
          "internalType": "address",
          "name": "newOwner",
          "type": "address"
        }
      ],
      "name": "transferOwnership",
      "outputs": [],
      "payable": false,
      "stateMutability": "nonpayable",
      "type": "function"
    },
    {
      "constant": false,
      "inputs": [
        {
          "internalType": "address",
          "name": "newOwner",
          "type": "address"
        }
      ],
      "name": "transferOwnership",
      "outputs": [],
      "payable": false,
      "stateMutability": "nonpayable",
      "type": "function"
    },
    {
      "constant": false,
      "inputs": [],
      "name": "unpause",
      "outputs": [],
      "payable": false,
      "stateMutability": "nonpayable",
      "type": "function"
    },
    {
      "constant": false,
      "inputs": [
        {
          "internalType": "address",
          "name": "seigManager",
          "type": "address"
        }
      ],
      "name": "setSeigManager",
      "outputs": [],
      "payable": false,
      "stateMutability": "nonpayable",
      "type": "function"
    },
    {
      "constant": false,
      "inputs": [],
      "name": "init",
      "outputs": [],
      "payable": false,
      "stateMutability": "nonpayable",
      "type": "function"
    },
    {
      "constant": false,
      "inputs": [],
      "name": "start",
      "outputs": [],
      "payable": false,
      "stateMutability": "nonpayable",
      "type": "function"
    },
    {
      "constant": true,
      "inputs": [
        {
          "internalType": "address",
          "name": "account",
          "type": "address"
        }
      ],
      "name": "powerOf",
      "outputs": [
        {
          "internalType": "uint256",
          "name": "",
          "type": "uint256"
        }
      ],
      "payable": false,
      "stateMutability": "view",
      "type": "function"
    },
    {
      "constant": false,
      "inputs": [],
      "name": "endRound",
      "outputs": [],
      "payable": false,
      "stateMutability": "nonpayable",
      "type": "function"
    },
    {
      "constant": true,
      "inputs": [
        {
          "internalType": "uint256",
          "name": "round",
          "type": "uint256"
        }
      ],
      "name": "roundStarted",
      "outputs": [
        {
          "internalType": "bool",
          "name": "",
          "type": "bool"
        }
      ],
      "payable": false,
      "stateMutability": "view",
      "type": "function"
    },
    {
      "constant": true,
      "inputs": [
        {
          "internalType": "uint256",
          "name": "round",
          "type": "uint256"
        }
      ],
      "name": "roundFinished",
      "outputs": [
        {
          "internalType": "bool",
          "name": "",
          "type": "bool"
        }
      ],
      "payable": false,
      "stateMutability": "view",
      "type": "function"
    },
    {
      "constant": true,
      "inputs": [],
      "name": "currentRoundFinished",
      "outputs": [
        {
          "internalType": "bool",
          "name": "",
          "type": "bool"
        }
      ],
      "payable": false,
      "stateMutability": "view",
      "type": "function"
    },
    {
      "constant": false,
      "inputs": [
        {
          "internalType": "address",
          "name": "layer2",
          "type": "address"
        },
        {
          "internalType": "address",
          "name": "account",
          "type": "address"
        },
        {
          "internalType": "uint256",
          "name": "amount",
          "type": "uint256"
        }
      ],
      "name": "onDeposit",
      "outputs": [],
      "payable": false,
      "stateMutability": "nonpayable",
      "type": "function"
    },
    {
      "constant": false,
      "inputs": [
        {
          "internalType": "address",
          "name": "layer2",
          "type": "address"
        },
        {
          "internalType": "address",
          "name": "account",
          "type": "address"
        },
        {
          "internalType": "uint256",
          "name": "amount",
          "type": "uint256"
        }
      ],
      "name": "onWithdraw",
      "outputs": [],
      "payable": false,
      "stateMutability": "nonpayable",
      "type": "function"
    },
    {
      "constant": true,
      "inputs": [],
      "name": "seigManager",
      "outputs": [
        {
          "internalType": "address",
          "name": "",
          "type": "address"
        }
      ],
      "payable": false,
      "stateMutability": "view",
      "type": "function"
    },
    {
      "constant": true,
      "inputs": [],
      "name": "wton",
      "outputs": [
        {
          "internalType": "address",
          "name": "",
          "type": "address"
        }
      ],
      "payable": false,
      "stateMutability": "view",
      "type": "function"
    },
    {
      "constant": true,
      "inputs": [],
      "name": "currentRound",
      "outputs": [
        {
          "internalType": "uint256",
          "name": "",
          "type": "uint256"
        }
      ],
      "payable": false,
      "stateMutability": "view",
      "type": "function"
    },
    {
      "constant": true,
      "inputs": [],
      "name": "roundDuration",
      "outputs": [
        {
          "internalType": "uint256",
          "name": "",
          "type": "uint256"
        }
      ],
      "payable": false,
      "stateMutability": "view",
      "type": "function"
    },
    {
      "constant": true,
      "inputs": [],
      "name": "totalDeposits",
      "outputs": [
        {
          "internalType": "uint256",
          "name": "",
          "type": "uint256"
        }
      ],
      "payable": false,
      "stateMutability": "view",
      "type": "function"
    },
    {
      "constant": true,
      "inputs": [
        {
          "internalType": "uint256",
          "name": "round",
          "type": "uint256"
        }
      ],
      "name": "winnerOf",
      "outputs": [
        {
          "internalType": "address",
          "name": "",
          "type": "address"
        }
      ],
      "payable": false,
      "stateMutability": "view",
      "type": "function"
    }
  ],
  "bytecode": "0x60806040523480156200001157600080fd5b50604051620024b9380380620024b9833981016040819052620000349162000264565b6200005a6200004b6001600160e01b036200010e16565b6001600160e01b036200011216565b60006200006f6001600160e01b036200010e16565b600180546001600160a01b0319166001600160a01b038316908117909155604051919250906000907f8be0079c531659141344cd1fd0a4f28419497f9722a3daafe3b4186f6b6457e0908290a3506001805460ff60a01b1916905580620000d557600080fd5b600280546001600160a01b039485166001600160a01b0319918216179091556003805493909416921691909117909155600555620003bb565b3390565b6200012d8160006200016460201b620017611790919060201c565b6040516001600160a01b038216907f6719d08c1888103bea251a4ed56406bd0c3e69723c8a1686e017e7bbe159b6f890600090a250565b6200017982826001600160e01b03620001e116565b15620001bc576040517f08c379a0000000000000000000000000000000000000000000000000000000008152600401620001b39062000354565b60405180910390fd5b6001600160a01b0316600090815260209190915260409020805460ff19166001179055565b60006001600160a01b03821662000226576040517f08c379a0000000000000000000000000000000000000000000000000000000008152600401620001b39062000366565b506001600160a01b03811660009081526020839052604090205460ff165b92915050565b8051620002448162000396565b80516200024481620003b0565b6000806000606084860312156200027a57600080fd5b60006200028886866200024a565b93505060206200029b868287016200024a565b9250506040620002ae8682870162000257565b9150509250925092565b6000620002c7601f8362000378565b7f526f6c65733a206163636f756e7420616c72656164792068617320726f6c6500815260200192915050565b60006200030260228362000378565b7f526f6c65733a206163636f756e7420697320746865207a65726f20616464726581527f7373000000000000000000000000000000000000000000000000000000000000602082015260400192915050565b602080825281016200024481620002b8565b602080825281016200024481620002f3565b90815260200190565b60006001600160a01b03821662000244565b90565b620003a18162000381565b8114620003ad57600080fd5b50565b620003a18162000393565b6120ee80620003cb6000396000f3fe608060405234801561001057600080fd5b50600436106101f05760003560e01c80637657f20a1161010f5780638da5cb5b116100a2578063e1c7392a11610071578063e1c7392a146103a6578063f2fde38b146103ae578063f7cb789a146103c1578063f850ffaa146103c9576101f0565b80638da5cb5b146103865780638f32d59b1461038e578063be9a655514610396578063c2dba50e1461039e576101f0565b80638a19c8bc116100de5780638a19c8bc146103405780638c65c81f146103485780638cb5d7001461036b5780638d62d9491461037e576101f0565b80637657f20a1461030a5780637d8820971461031d57806382dc1ec4146103255780638456cb5914610338576101f0565b80635c975abb116101875780636ef8d66d116101565780636ef8d66d146102dd5780636fb7f558146102e5578063715018a6146102fa578063749aa2d914610302576101f0565b80635c975abb1461029c5780635f112c68146102a457806364402c07146102b75780636d435421146102ca576101f0565b80633f4ba83a116101c35780633f4ba83a1461025b578063412c6d501461026357806341eb24bb1461027657806346fbf68e14610289576101f0565b8063158ef93e146101f55780631ac84690146102135780631c602a631461023357806338bf3cfa14610246575b600080fd5b6101fd6103dc565b60405161020a9190611e59565b60405180910390f35b6102266102213660046118fb565b6103e5565b60405161020a9190611f68565b6101fd6102413660046119c6565b61041c565b6102596102543660046118fb565b610479565b005b6102596104fc565b61025961027136600461195b565b610599565b6102596102843660046118fb565b61062d565b6101fd6102973660046118fb565b61068c565b6101fd61069e565b6102596102b23660046118fb565b6106af565b6101fd6102c53660046119c6565b61070e565b6102596102d8366004611921565b610756565b6102596107dc565b6102ed6107ee565b60405161020a9190611e22565b6102596107fd565b61025961086b565b6102596103183660046118fb565b610897565b6102266108dd565b6102596103333660046118fb565b6108e3565b610259610916565b6102266109a3565b61035b6103563660046119c6565b6109a9565b60405161020a9493929190611fc6565b6102ed6103793660046119c6565b6109e8565b6102ed610a06565b6102ed610a15565b6101fd610a24565b610259610a4a565b6101fd610afd565b610259610b0f565b6102596103bc3660046118fb565b610b7a565b610226610ba7565b6102596103d736600461195b565b610bad565b60085460ff1681565b60006104166040516103f690611e17565b604051809103902061040784610c47565b6007919063ffffffff610c5316565b92915050565b60006104278261070e565b8015610452575060008281526006602052604090205442600160401b90910467ffffffffffffffff16105b80156104165750506000908152600660205260409020600201546001600160a01b03161590565b610481610a24565b6104a65760405162461bcd60e51b815260040161049d90611f28565b60405180910390fd5b806001600160a01b031663715018a66040518163ffffffff1660e01b8152600401600060405180830381600087803b1580156104e157600080fd5b505af11580156104f5573d6000803e3d6000fd5b5050505050565b610507610297610ca3565b6105235760405162461bcd60e51b815260040161049d90611ea8565b600154600160a01b900460ff1661054c5760405162461bcd60e51b815260040161049d90611e88565b6001805460ff60a01b191690557f5db9ee0a495bf2e6ff9c91a7834c1ba4fdd244a5e8aa4e537bd38aeae4b073aa610582610ca3565b60405161058f9190611e30565b60405180910390a1565b6105a1610afd565b156105ae576105ae610ca7565b6002546001600160a01b031633146105c557600080fd5b6105cf8282610eb6565b6009546105e2908263ffffffff610f2c16565b6009556040516001600160a01b038316907f7cb6ed9ab3c494e5dae6f6a137de115769e08b31ce667494edd37f75c84a101690610620908490611f68565b60405180910390a2505050565b610635610a24565b6106515760405162461bcd60e51b815260040161049d90611f28565b806001600160a01b0316636ef8d66d6040518163ffffffff1660e01b8152600401600060405180830381600087803b1580156104e157600080fd5b6000610416818363ffffffff610f5816565b600154600160a01b900460ff165b90565b6106b7610a24565b6106d35760405162461bcd60e51b815260040161049d90611f28565b806001600160a01b031663986502756040518163ffffffff1660e01b8152600401600060405180830381600087803b1580156104e157600080fd5b60008181526006602052604081205467ffffffffffffffff1615801590610416575050600090815260066020526040902054600160401b900467ffffffffffffffff16151590565b61075e610a24565b61077a5760405162461bcd60e51b815260040161049d90611f28565b60405163f2fde38b60e01b81526001600160a01b0383169063f2fde38b906107a6908490600401611e22565b600060405180830381600087803b1580156107c057600080fd5b505af11580156107d4573d6000803e3d6000fd5b505050505050565b6107ec6107e7610ca3565b610fa0565b565b6002546001600160a01b031690565b610805610a24565b6108215760405162461bcd60e51b815260040161049d90611f28565b6001546040516000916001600160a01b0316907f8be0079c531659141344cd1fd0a4f28419497f9722a3daafe3b4186f6b6457e0908390a3600180546001600160a01b0319169055565b610873610afd565b61088f5760405162461bcd60e51b815260040161049d90611ee8565b6107ec610ca7565b61089f610a24565b6108bb5760405162461bcd60e51b815260040161049d90611f28565b600280546001600160a01b0319166001600160a01b0392909216919091179055565b60095490565b6108ee610297610ca3565b61090a5760405162461bcd60e51b815260040161049d90611ea8565b61091381610fe8565b50565b610921610297610ca3565b61093d5760405162461bcd60e51b815260040161049d90611ea8565b600154600160a01b900460ff16156109675760405162461bcd60e51b815260040161049d90611ef8565b6001805460ff60a01b1916600160a01b1790557f62e78cea01bee320cd4e420270b5ea74000d11b0c9f74754ebdbfc544b05a258610582610ca3565b60045490565b60066020526000908152604090208054600182015460029092015467ffffffffffffffff80831693600160401b9093041691906001600160a01b031684565b6000908152600660205260409020600201546001600160a01b031690565b6003546001600160a01b031690565b6001546001600160a01b031690565b6001546000906001600160a01b0316610a3b610ca3565b6001600160a01b031614905090565b610a52610a24565b610a6e5760405162461bcd60e51b815260040161049d90611f28565b60045415610a8e5760405162461bcd60e51b815260040161049d90611f58565b60045460009081526006602052604090205467ffffffffffffffff16158015610ad75750600454600090815260066020526040902054600160401b900467ffffffffffffffff16155b610af35760405162461bcd60e51b815260040161049d90611f08565b6107ec6000611030565b6000610b0a60045461041c565b905090565b610b17610a24565b610b335760405162461bcd60e51b815260040161049d90611f28565b60085460ff1615610b4357600080fd5b610b6b604051610b5290611e17565b604051908190039020600790601063ffffffff61117416565b6008805460ff19166001179055565b610b82610a24565b610b9e5760405162461bcd60e51b815260040161049d90611f28565b610913816111ff565b60055490565b610bb5610afd565b15610bc257610bc2610ca7565b6002546001600160a01b03163314610bd957600080fd5b6000610be58383611281565b600954909150610bfb908263ffffffff6112fa16565b6009556040516001600160a01b038416907f2799180fb0f59973ce8643f2079ddedfb4c9c9c60cdd7d02c1c7798a379671d290610c39908490611f68565b60405180910390a250505050565b6001600160a01b031690565b6000828152602084815260408083208484526003810190925282205480610c7d5760009250610c9a565b816002018181548110610c8c57fe5b906000526020600020015492505b50509392505050565b3390565b600954610cb3576107ec565b6004546000818152600660205260408120600954909190610cd7600019430161133c565b81610cde57fe5b0690506000610d12610d0d604051610cf590611e17565b6040519081900390206007908563ffffffff61137f16565b6106ac565b90506001600160a01b038116610d3a5760405162461bcd60e51b815260040161049d90611eb8565b6002830180546001600160a01b0319166001600160a01b03838116919091179091556003546040516370a0823160e01b815260009291909116906370a0823190610d88903090600401611e22565b60206040518083038186803b158015610da057600080fd5b505afa158015610db4573d6000803e3d6000fd5b505050506040513d601f19601f82011682018060405250610dd891908101906119e4565b90508084600101819055507fa49385eb61e4f439063d5c00de2ab7a1fff06ca35f6f06fb634d21a2e8ad3279858383604051610e1693929190611f76565b60405180910390a16004805460010190819055610e3290611030565b60035460405163e3b99e8560e01b81526001600160a01b039091169063e3b99e8590610e649085908590600401611e3e565b602060405180830381600087803b158015610e7e57600080fd5b505af1158015610e92573d6000803e3d6000fd5b505050506040513d601f19601f820116820180604052506107d491908101906119a8565b6000610ec183610c47565b90506000610efc83610ef0604051610ed890611e17565b6040519081900390206007908663ffffffff610c5316565b9063ffffffff610f2c16565b9050610f26604051610f0d90611e17565b604051908190039020600790838563ffffffff61144216565b50505050565b600082820183811015610f515760405162461bcd60e51b815260040161049d90611ed8565b9392505050565b60006001600160a01b038216610f805760405162461bcd60e51b815260040161049d90611f38565b506001600160a01b03166000908152602091909152604090205460ff1690565b610fb160008263ffffffff61171916565b6040516001600160a01b038216907fcd265ebaf09df2871cc7bd4133404a235ba12eff2041bb89d9c714a2621c7c7e90600090a250565b610ff960008263ffffffff61176116565b6040516001600160a01b038216907f6719d08c1888103bea251a4ed56406bd0c3e69723c8a1686e017e7bbe159b6f890600090a250565b80158061108a5750600019810160009081526006602052604090205442600160401b90910467ffffffffffffffff1610801561108a575060001981016000908152600660205260409020600201546001600160a01b031615155b61109357600080fd5b6000818152600660205260409020805467ffffffffffffffff161580156110ca57508054600160401b900467ffffffffffffffff16155b80156110e1575060028101546001600160a01b0316155b6110ea57600080fd5b60055481544291820167ffffffffffffffff818116600160401b026fffffffffffffffff00000000000000001991851667ffffffffffffffff1990941693909317169190911783556040517fe51113a62fc9e06008ca1c963fa05a240e64d51af7fdb2178c2a302cfcc5052f9061116690869085908590611f9e565b60405180910390a150505050565b60008281526020849052604090208054156111a15760405162461bcd60e51b815260040161049d90611f48565b600182116111c15760405162461bcd60e51b815260040161049d90611e78565b81815560006111d36001830182611888565b5060006111e36002830182611888565b5060020180546001810182556000918252602082200155505050565b6001600160a01b0381166112255760405162461bcd60e51b815260040161049d90611ec8565b6001546040516001600160a01b038084169216907f8be0079c531659141344cd1fd0a4f28419497f9722a3daafe3b4186f6b6457e090600090a3600180546001600160a01b0319166001600160a01b0392909216919091179055565b60008061128d84610c47565b905060006112b86040516112a090611e17565b6040519081900390206007908463ffffffff610c5316565b905060006112c682866117ad565b90506112f06040516112d790611e17565b604051908190039020600790838663ffffffff61144216565b9003949350505050565b6000610f5183836040518060400160405280601e81526020017f536166654d6174683a207375627472616374696f6e206f766572666c6f7700008152506117c9565b60008140806113645760ff831660ff19431601925043831061136057610100830392505b5081405b60095443808301600019909101400182029091020292915050565b600082815260208490526040812060028101805483918291829061139f57fe5b906000526020600020015485816113b257fe5b0690505b60028301548354830260010110156114275760015b83548111611421576000818486600001540201905060008560020182815481106113f157fe5b9060005260206000200154905080841061140f578084039350611417565b509250611421565b50506001016113cb565b506113b6565b50600090815260049091016020526040902054949350505050565b6000838152602085815260408083208484526003810190925290912054806115cd5783156115c85760018201546115405750600281018054600180820183556000928352602090922081018590559081148015906114ac575081546000198201816114a957fe5b06155b1561153b57815460009082816114be57fe5b04600081815260048501602052604090205460028501805492935090916001850191908190859081106114ed57fe5b60009182526020808320909101548354600181018555938352818320909301929092559384526004860180825260408086208690558486526003880183528086208490559285529052909120555b611595565b600182018054600019810190811061155457fe5b600091825260209091200154600183018054919250611577906000198301611888565b508382600201828154811061158857fe5b6000918252602090912001555b600083815260038301602090815260408083208490558383526004850190915290208390556115c88686836001886117f5565b6107d4565b8361165e5760008260020182815481106115e357fe5b90600052602060002001549050600083600201838154811061160157fe5b600091825260208083209091019290925560018086018054918201815582528282200184905585815260038501825260408082208290558482526004860190925290812081905561165890889088908590856117f5565b506107d4565b81600201818154811061166d57fe5b906000526020600020015484146107d45760008483600201838154811061169057fe5b9060005260206000200154111590506000816116c757858460020184815481106116b657fe5b9060005260206000200154036116e4565b8360020183815481106116d657fe5b906000526020600020015486035b9050858460020184815481106116f657fe5b60009182526020909120015561170f88888585856117f5565b5050505050505050565b6117238282610f58565b61173f5760405162461bcd60e51b815260040161049d90611f18565b6001600160a01b0316600090815260209190915260409020805460ff19169055565b61176b8282610f58565b156117885760405162461bcd60e51b815260040161049d90611e98565b6001600160a01b0316600090815260209190915260409020805460ff19166001179055565b6000818311156117c05750808203610416565b50600092915050565b600081848411156117ed5760405162461bcd60e51b815260040161049d9190611e67565b505050900390565b6000848152602086905260409020835b801561187f57815460001982018161181957fe5b04905083611842578282600201828154811061183157fe5b90600052602060002001540361185f565b8282600201828154811061185257fe5b9060005260206000200154015b82600201828154811061186e57fe5b600091825260209091200155611805565b50505050505050565b8154818355818111156118ac576000838152602090206118ac9181019083016118b1565b505050565b6106ac91905b808211156118cb57600081556001016118b7565b5090565b803561041681612085565b805161041681612099565b8035610416816120a2565b8051610416816120a2565b60006020828403121561190d57600080fd5b600061191984846118cf565b949350505050565b6000806040838503121561193457600080fd5b600061194085856118cf565b9250506020611951858286016118cf565b9150509250929050565b60008060006060848603121561197057600080fd5b600061197c86866118cf565b935050602061198d868287016118cf565b925050604061199e868287016118e5565b9150509250925092565b6000602082840312156119ba57600080fd5b600061191984846118da565b6000602082840312156119d857600080fd5b600061191984846118e5565b6000602082840312156119f657600080fd5b600061191984846118f0565b611a0b81612033565b82525050565b611a0b81612016565b611a0b81612021565b6000611a2e82612004565b611a388185612008565b9350611a4881856020860161204f565b611a518161207b565b9093019392505050565b6000611a68601b83612008565b7f4b206d7573742062652067726561746572207468616e206f6e652e0000000000815260200192915050565b6000611aa1601483612008565b7314185d5cd8589b194e881b9bdd081c185d5cd95960621b815260200192915050565b6000611ad1601f83612008565b7f526f6c65733a206163636f756e7420616c72656164792068617320726f6c6500815260200192915050565b6000611b0a603083612008565b7f506175736572526f6c653a2063616c6c657220646f6573206e6f74206861766581526f207468652050617573657220726f6c6560801b602082015260400192915050565b6000611b5c601383612008565b722837bbb2b92a27a71d103737903bb4b73732b960691b815260200192915050565b6000611b8b602683612008565b7f4f776e61626c653a206e6577206f776e657220697320746865207a65726f206181526564647265737360d01b602082015260400192915050565b6000611bd3601b83612008565b7f536166654d6174683a206164646974696f6e206f766572666c6f770000000000815260200192915050565b6000611c0c600e83612011565b6d706f7765722d62616c616e63657360901b8152600e0192915050565b6000611c36601c83612008565b7f506f776572544f4e3a20726f756e64206e6f742066696e697368656400000000815260200192915050565b6000611c6f601083612008565b6f14185d5cd8589b194e881c185d5cd95960821b815260200192915050565b6000611c9b601f83612008565b7f506f776572544f4e3a20726f756e6420616c7265616479207374617274656400815260200192915050565b6000611cd4602183612008565b7f526f6c65733a206163636f756e7420646f6573206e6f74206861766520726f6c8152606560f81b602082015260400192915050565b6000611d17602083612008565b7f4f776e61626c653a2063616c6c6572206973206e6f7420746865206f776e6572815260200192915050565b6000611d50602283612008565b7f526f6c65733a206163636f756e7420697320746865207a65726f206164647265815261737360f01b602082015260400192915050565b6000611d94601483612008565b732a3932b29030b63932b0b23c9032bc34b9ba399760611b815260200192915050565b6000611dc4602383612008565b7f506f776572544f4e3a2063757272656e7420726f756e64206973206e6f74207a81526265726f60e81b602082015260400192915050565b611a0b816106ac565b611a0b81612044565b611a0b81612026565b600061041682611bff565b602081016104168284611a11565b602081016104168284611a02565b60408101611e4c8285611a11565b610f516020830184611dfc565b602081016104168284611a1a565b60208082528101610f518184611a23565b6020808252810161041681611a5b565b6020808252810161041681611a94565b6020808252810161041681611ac4565b6020808252810161041681611afd565b6020808252810161041681611b4f565b6020808252810161041681611b7e565b6020808252810161041681611bc6565b6020808252810161041681611c29565b6020808252810161041681611c62565b6020808252810161041681611c8e565b6020808252810161041681611cc7565b6020808252810161041681611d0a565b6020808252810161041681611d43565b6020808252810161041681611d87565b6020808252810161041681611db7565b602081016104168284611dfc565b60608101611f848286611dfc565b611f916020830185611a11565b6119196040830184611dfc565b60608101611fac8286611dfc565b611fb96020830185611e05565b6119196040830184611e05565b60808101611fd48287611e0e565b611fe16020830186611e0e565b611fee6040830185611dfc565b611ffb6060830184611a11565b95945050505050565b5190565b90815260200190565b919050565b600061041682610c47565b151590565b67ffffffffffffffff1690565b600061041682600061041682612016565b600061041682612026565b60005b8381101561206a578181015183820152602001612052565b83811115610f265750506000910152565b601f01601f191690565b61208e81612016565b811461091357600080fd5b61208e81612021565b61208e816106ac56fea365627a7a723158209cecc35081e194b04efff3c566c430d5f2926b392145cd0dbcb3948b74a988a06c6578706572696d656e74616cf564736f6c634300050c0040",
  "source": "pragma solidity ^0.5.12;\npragma experimental ABIEncoderV2;\n\n\nimport { Ownable } from \"../../../node_modules/openzeppelin-solidity/contracts/ownership/Ownable.sol\";\nimport { Pausable } from \"../../../node_modules/openzeppelin-solidity/contracts/lifecycle/Pausable.sol\";\nimport { SafeMath } from \"../../../node_modules/openzeppelin-solidity/contracts/math/SafeMath.sol\";\nimport { IERC20 } from \"../../../node_modules/openzeppelin-solidity/contracts/token/ERC20/IERC20.sol\";\nimport { SafeERC20 } from \"../../../node_modules/openzeppelin-solidity/contracts/token/ERC20/SafeERC20.sol\";\n\nimport { WTON } from \"../tokens/WTON.sol\";\nimport { AuthController } from \"../tokens/AuthController.sol\";\n\nimport { SortitionSumTreeFactory } from \"../../lib/SortitionSumTreeFactory.sol\";\n\nimport { DepositManagerI } from \"../interfaces/DepositManagerI.sol\";\nimport { PowerTONI } from \"../interfaces/PowerTONI.sol\";\n\ncontract PowerTON is Ownable, Pausable, AuthController, PowerTONI {\n  using SafeMath for *;\n  using SafeERC20 for IERC20;\n  using SortitionSumTreeFactory for SortitionSumTreeFactory.SortitionSumTrees;\n\n  struct Round {\n    uint64  startTime;\n    uint64  endTime;\n    uint256 reward;\n    address winner;\n  }\n\n  // contracts\n  address internal _seigManager;\n  address internal _wton;\n\n  // rounds\n  uint256 internal _currentRound;\n  // TODO: consider block nubmer\n  uint256 internal _roundDuration; // unix timestamp\n  mapping(uint256 => Round) public rounds;\n\n  // sortition\n  SortitionSumTreeFactory.SortitionSumTrees internal sortitionSumTrees;\n  bool public initialized;\n\n  bytes32 constant internal TREE_KEY = keccak256(\"power-balances\");\n  bytes32 constant internal TREE_KEY_PREFIX = keccak256(\"power-balances\");\n  uint256 constant internal TREE_NUM_CHILDREN = 16;\n\n  // balances\n  uint256 internal _totalDeposits;\n\n  // randomness\n  uint256 internal constant maskLast8Bits = uint256(0xff);\n  uint256 internal constant maskFirst248Bits = uint256(~0xff);\n\n\n  //////////////////////////////\n  // Modifiers\n  //////////////////////////////\n\n  modifier checkRound() {\n    if (currentRoundFinished()) {\n      _endRound();\n    }\n    _;\n  }\n\n  //////////////////////////////\n  // Events\n  //////////////////////////////\n\n  event RoundStart(uint256 round, uint256 startTime, uint256 endTime);\n  event RoundEnd(uint256 round, address winner, uint256 reward);\n  event PowerIncreased(address indexed account, uint256 amount);\n  event PowerDecreased(address indexed account, uint256 amount);\n\n  //////////////////////////////\n  // Constructor\n  //////////////////////////////\n\n  constructor (\n    address seigManager,\n    address wton,\n    uint256 roundDuration\n  ) public {\n    require(roundDuration > 0);\n\n    _seigManager = seigManager;\n    _wton = wton;\n    _roundDuration = roundDuration;\n  }\n\n  /**\n   * @dev set SeigManager contract, only by owner.\n   */\n  function setSeigManager(address seigManager) external onlyOwner {\n    _seigManager = seigManager;\n  }\n\n  function init() external onlyOwner {\n    require(!initialized);\n    sortitionSumTrees.createTree(TREE_KEY, TREE_NUM_CHILDREN);\n    initialized = true;\n  }\n\n  function start() external onlyOwner {\n    require(_currentRound == 0, \"PowerTON: current round is not zero\");\n    require(rounds[_currentRound].startTime == 0 && rounds[_currentRound].endTime == 0, \"PowerTON: round already started\");\n    _startRound(0);\n  }\n\n  function powerOf(address account) external view returns (uint256) {\n    return sortitionSumTrees.stakeOf(TREE_KEY, _getID(account));\n  }\n\n  /**\n   * @dev end current round\n   */\n  function endRound() external {\n    require(currentRoundFinished(), \"PowerTON: round not finished\");\n    _endRound();\n  }\n\n  function roundStarted(uint256 round) public view returns (bool) {\n    return rounds[round].startTime != 0 && rounds[round].endTime != 0;\n  }\n\n  function roundFinished(uint256 round) public view returns (bool) {\n    return roundStarted(round) &&\n      rounds[round].endTime < block.timestamp &&\n      rounds[round].winner == address(0);\n  }\n\n  function currentRoundFinished() public view returns (bool) {\n    return roundFinished(_currentRound);\n  }\n\n  function _endRound() internal {\n    // short circuit in case of no deposit\n    if (_totalDeposits == 0) {\n      return;\n    }\n\n    uint256 round = _currentRound;\n    Round storage r = rounds[round];\n\n    uint256 n = _seed(block.number - 1) % _totalDeposits;\n    address winner = _recoverID(sortitionSumTrees.draw(TREE_KEY, n));\n    require(winner != address(0), \"PowerTON: no winner\");\n    r.winner = winner;\n\n\n    uint256 reward = IERC20(_wton).balanceOf(address(this));\n\n    r.reward = reward;\n\n    emit RoundEnd(round, winner, reward);\n\n    _currentRound += 1;\n    _startRound(_currentRound);\n\n    WTON(_wton).swapToTONAndTransfer(winner, reward);\n  }\n\n  //////////////////////////////\n  // SeigManager\n  //////////////////////////////\n\n  function onDeposit(\n    address layer2,\n    address account,\n    uint256 amount\n  ) external checkRound {\n    require(msg.sender == _seigManager);\n    _increaseEffectiveBalance(account, amount);\n    _totalDeposits = _totalDeposits.add(amount);\n\n    emit PowerIncreased(account, amount);\n  }\n\n  function onWithdraw(\n    address layer2,\n    address account,\n    uint256 amount\n  ) external checkRound {\n    require(msg.sender == _seigManager);\n    uint256 v = _decreaseEffectiveBalance(account, amount);\n    _totalDeposits = _totalDeposits.sub(v);\n    emit PowerDecreased(account, v);\n  }\n\n  //////////////////////////////\n  // External storage getters\n  //////////////////////////////\n\n  function seigManager() external view returns (address) { return _seigManager; }\n  function wton() external view returns (address) { return _wton; }\n  function currentRound() external view returns (uint256) { return _currentRound; }\n  function roundDuration() external view returns (uint256) { return _roundDuration; }\n  function totalDeposits() external view returns (uint256) { return _totalDeposits; }\n  function winnerOf(uint256 round) external view returns (address) {\n    return rounds[round].winner;\n  }\n\n  //////////////////////////////\n  // Internal functions\n  //////////////////////////////\n\n  // TODO: enable upgradability\n  // TODO: use other entrophy source\n  // https://github.com/cryptocopycats/awesome-cryptokitties/blob/master/contracts/GeneScience.sol#L111-L133\n  function _seed(uint256 _targetBlock) internal view returns (uint256 randomN) {\n    uint256 h = uint256(blockhash(_targetBlock));\n\n    if (h == 0) {\n      _targetBlock = (block.number & maskFirst248Bits) + (_targetBlock & maskLast8Bits);\n      if (_targetBlock >= block.number) _targetBlock -= 256;\n\n      h = uint256(blockhash(_targetBlock));\n    }\n\n    randomN = (h + block.number + uint256(blockhash(block.number - 1))) * h * h * _totalDeposits;\n  }\n\n  function _startRound(uint256 round) internal {\n    require(\n      round == 0 ||\n      (rounds[round - 1].endTime < block.timestamp\n        && rounds[round - 1].winner != address(0))\n    );\n\n    Round storage r = rounds[round];\n    require(r.startTime == 0 && r.endTime == 0 && r.winner == address(0));\n\n    uint64 startTime = uint64(block.timestamp);\n    uint64 endTime = uint64(block.timestamp + _roundDuration);\n    r.startTime = startTime;\n    r.endTime = endTime;\n\n    emit RoundStart(round, startTime, endTime);\n  }\n\n  function _increaseEffectiveBalance(address account, uint256 amount) internal {\n    bytes32 id = _getID(account);\n    uint256 value = sortitionSumTrees.stakeOf(TREE_KEY, id).add(amount);\n\n    sortitionSumTrees.set(TREE_KEY, value, id);\n  }\n\n  function _decreaseEffectiveBalance(address account, uint256 amount) internal returns (uint256) {\n    bytes32 id = _getID(account);\n\n    uint256 stake = sortitionSumTrees.stakeOf(TREE_KEY, id);\n    uint256 value = _sub0(stake, amount);\n\n    sortitionSumTrees.set(TREE_KEY, value, id);\n    return stake - value;\n  }\n\n  /**\n   * @dev return a - b if a > b, otherwise 0\n   */\n  function _sub0(uint256 a, uint256 b) internal pure returns (uint256) {\n    if (a > b) return a - b;\n    return 0;\n  }\n\n  function _getID(address account) internal pure returns (bytes32) {\n    return bytes32(uint256(account));\n  }\n\n  function _recoverID(bytes32 id) internal pure returns (address) {\n    return address(uint160(uint256(id)));\n  }\n\n  function _getTreeKey(uint256 round) internal pure returns (bytes32 k) {\n    require(round < 2 ** 224);\n\n    k = bytes32(TREE_KEY_PREFIX);\n    assembly {\n      k := add(k, round)\n    }\n  }\n}\n",
  "sourcePath": "/home/modagi/github/onther/plasma-evm-contracts2/contracts/stake/powerton/PowerTON.sol",
  "compiler": {
    "name": "solc",
    "version": "0.5.12+commit.7709ece9.Emscripten.clang"
  },
  "schemaVersion": "3.2.1",
  "updatedAt": "2020-09-10T05:29:26.019Z",
  "devdoc": {
    "methods": {
      "endRound()": {
        "details": "end current round"
      },
      "isOwner()": {
        "details": "Returns true if the caller is the current owner."
      },
      "owner()": {
        "details": "Returns the address of the current owner."
      },
      "pause()": {
        "details": "Called by a pauser to pause, triggers stopped state."
      },
      "paused()": {
        "details": "Returns true if the contract is paused, and false otherwise."
      },
      "renounceOwnership()": {
        "details": "Leaves the contract without owner. It will not be possible to call `onlyOwner` functions anymore. Can only be called by the current owner.     * NOTE: Renouncing ownership will leave the contract without an owner, thereby removing any functionality that is only available to the owner."
      },
      "setSeigManager(address)": {
        "details": "set SeigManager contract, only by owner."
      },
      "transferOwnership(address)": {
        "details": "Transfers ownership of the contract to a new account (`newOwner`). Can only be called by the current owner."
      },
      "unpause()": {
        "details": "Called by a pauser to unpause, returns to normal state."
      }
    }
  },
  "userdoc": {
    "methods": {
      "constructor": "///////////////////////////",
      "onDeposit(address,address,uint256)": {
        "notice": "///////////////////////////"
      },
      "seigManager()": {
        "notice": "///////////////////////////"
      }
    }
  }
}