{
  "contractName": "SeigManager",
  "abi": [
    {
      "inputs": [
        {
          "internalType": "contract ERC20Mintable",
          "name": "ton",
          "type": "address"
        },
        {
          "internalType": "contract ERC20Mintable",
          "name": "wton",
          "type": "address"
        },
        {
          "internalType": "contract RootChainRegistryI",
          "name": "registry",
          "type": "address"
        },
        {
          "internalType": "contract DepositManagerI",
          "name": "depositManager",
          "type": "address"
        },
        {
          "internalType": "uint256",
          "name": "seigPerBlock",
          "type": "uint256"
        }
      ],
      "payable": false,
      "stateMutability": "nonpayable",
      "type": "constructor"
    },
    {
      "anonymous": false,
      "inputs": [
        {
          "indexed": true,
          "internalType": "address",
          "name": "account",
          "type": "address"
        }
      ],
      "name": "ChallengerAdded",
      "type": "event"
    },
    {
      "anonymous": false,
      "inputs": [
        {
          "indexed": true,
          "internalType": "address",
          "name": "account",
          "type": "address"
        }
      ],
      "name": "ChallengerRemoved",
      "type": "event"
    },
    {
      "anonymous": false,
      "inputs": [
        {
          "indexed": true,
          "internalType": "address",
          "name": "rootchain",
          "type": "address"
        },
        {
          "indexed": false,
          "internalType": "address",
          "name": "coinage",
          "type": "address"
        }
      ],
      "name": "CoinageCreated",
      "type": "event"
    },
    {
      "anonymous": false,
      "inputs": [
        {
          "indexed": true,
          "internalType": "address",
          "name": "rootchain",
          "type": "address"
        }
      ],
      "name": "Comitted",
      "type": "event"
    },
    {
      "anonymous": false,
      "inputs": [
        {
          "indexed": true,
          "internalType": "address",
          "name": "rootchain",
          "type": "address"
        },
        {
          "indexed": false,
          "internalType": "uint256",
          "name": "previousRate",
          "type": "uint256"
        },
        {
          "indexed": false,
          "internalType": "uint256",
          "name": "newRate",
          "type": "uint256"
        }
      ],
      "name": "CommissionRateSet",
      "type": "event"
    },
    {
      "anonymous": false,
      "inputs": [
        {
          "indexed": false,
          "internalType": "uint256",
          "name": "totalStakedAmount",
          "type": "uint256"
        },
        {
          "indexed": false,
          "internalType": "uint256",
          "name": "totalSupplyOfWTON",
          "type": "uint256"
        },
        {
          "indexed": false,
          "internalType": "uint256",
          "name": "prevTotalSupply",
          "type": "uint256"
        },
        {
          "indexed": false,
          "internalType": "uint256",
          "name": "nextTotalSupply",
          "type": "uint256"
        }
      ],
      "name": "CommitLog1",
      "type": "event"
    },
    {
      "anonymous": false,
      "inputs": [
        {
          "indexed": true,
          "internalType": "address",
          "name": "previousOwner",
          "type": "address"
        },
        {
          "indexed": true,
          "internalType": "address",
          "name": "newOwner",
          "type": "address"
        }
      ],
      "name": "OwnershipTransferred",
      "type": "event"
    },
    {
      "anonymous": false,
      "inputs": [
        {
          "indexed": false,
          "internalType": "address",
          "name": "account",
          "type": "address"
        }
      ],
      "name": "Paused",
      "type": "event"
    },
    {
      "anonymous": false,
      "inputs": [
        {
          "indexed": true,
          "internalType": "address",
          "name": "account",
          "type": "address"
        }
      ],
      "name": "PauserAdded",
      "type": "event"
    },
    {
      "anonymous": false,
      "inputs": [
        {
          "indexed": true,
          "internalType": "address",
          "name": "account",
          "type": "address"
        }
      ],
      "name": "PauserRemoved",
      "type": "event"
    },
    {
      "anonymous": false,
      "inputs": [
        {
          "indexed": true,
          "internalType": "address",
          "name": "rootchain",
          "type": "address"
        },
        {
          "indexed": false,
          "internalType": "uint256",
          "name": "totalSeig",
          "type": "uint256"
        },
        {
          "indexed": false,
          "internalType": "uint256",
          "name": "stakedSeig",
          "type": "uint256"
        },
        {
          "indexed": false,
          "internalType": "uint256",
          "name": "unstakedSeig",
          "type": "uint256"
        },
        {
          "indexed": false,
          "internalType": "uint256",
          "name": "powertonSeig",
          "type": "uint256"
        }
      ],
      "name": "SeigGiven",
      "type": "event"
    },
    {
      "anonymous": false,
      "inputs": [
        {
          "indexed": false,
          "internalType": "address",
          "name": "account",
          "type": "address"
        }
      ],
      "name": "Unpaused",
      "type": "event"
    },
    {
      "anonymous": false,
      "inputs": [
        {
          "indexed": false,
          "internalType": "uint256",
          "name": "coinageBurnAmount",
          "type": "uint256"
        },
        {
          "indexed": false,
          "internalType": "uint256",
          "name": "totBurnAmount",
          "type": "uint256"
        }
      ],
      "name": "UnstakeLog",
      "type": "event"
    },
    {
      "constant": true,
      "inputs": [],
      "name": "MAX_VALID_COMMISSION",
      "outputs": [
        {
          "internalType": "uint256",
          "name": "",
          "type": "uint256"
        }
      ],
      "payable": false,
      "stateMutability": "view",
      "type": "function"
    },
    {
      "constant": true,
      "inputs": [],
      "name": "MIN_VALID_COMMISSION",
      "outputs": [
        {
          "internalType": "uint256",
          "name": "",
          "type": "uint256"
        }
      ],
      "payable": false,
      "stateMutability": "view",
      "type": "function"
    },
    {
      "constant": true,
      "inputs": [],
      "name": "RAY",
      "outputs": [
        {
          "internalType": "uint256",
          "name": "",
          "type": "uint256"
        }
      ],
      "payable": false,
      "stateMutability": "view",
      "type": "function"
    },
    {
      "constant": true,
      "inputs": [],
      "name": "_dao",
      "outputs": [
        {
          "internalType": "address",
          "name": "",
          "type": "address"
        }
      ],
      "payable": false,
      "stateMutability": "view",
      "type": "function"
    },
    {
      "constant": true,
      "inputs": [],
      "name": "accRelativeSeig",
      "outputs": [
        {
          "internalType": "uint256",
          "name": "",
          "type": "uint256"
        }
      ],
      "payable": false,
      "stateMutability": "view",
      "type": "function"
    },
    {
      "constant": false,
      "inputs": [
        {
          "internalType": "address",
          "name": "account",
          "type": "address"
        }
      ],
      "name": "addPauser",
      "outputs": [],
      "payable": false,
      "stateMutability": "nonpayable",
      "type": "function"
    },
    {
      "constant": true,
      "inputs": [],
      "name": "adjustCommissionDelay",
      "outputs": [
        {
          "internalType": "uint256",
          "name": "",
          "type": "uint256"
        }
      ],
      "payable": false,
      "stateMutability": "view",
      "type": "function"
    },
    {
      "constant": true,
      "inputs": [],
      "name": "daoSeigRate",
      "outputs": [
        {
          "internalType": "uint256",
          "name": "",
          "type": "uint256"
        }
      ],
      "payable": false,
      "stateMutability": "view",
      "type": "function"
    },
    {
      "constant": true,
      "inputs": [],
      "name": "factory",
      "outputs": [
        {
          "internalType": "contract CoinageFactoryI",
          "name": "",
          "type": "address"
        }
      ],
      "payable": false,
      "stateMutability": "view",
      "type": "function"
    },
    {
      "constant": true,
      "inputs": [
        {
          "internalType": "address",
          "name": "account",
          "type": "address"
        }
      ],
      "name": "isChallenger",
      "outputs": [
        {
          "internalType": "bool",
          "name": "",
          "type": "bool"
        }
      ],
      "payable": false,
      "stateMutability": "view",
      "type": "function"
    },
    {
      "constant": true,
      "inputs": [],
      "name": "isOwner",
      "outputs": [
        {
          "internalType": "bool",
          "name": "",
          "type": "bool"
        }
      ],
      "payable": false,
      "stateMutability": "view",
      "type": "function"
    },
    {
      "constant": true,
      "inputs": [
        {
          "internalType": "address",
          "name": "account",
          "type": "address"
        }
      ],
      "name": "isPauser",
      "outputs": [
        {
          "internalType": "bool",
          "name": "",
          "type": "bool"
        }
      ],
      "payable": false,
      "stateMutability": "view",
      "type": "function"
    },
    {
      "constant": true,
      "inputs": [],
      "name": "minimumAmount",
      "outputs": [
        {
          "internalType": "uint256",
          "name": "",
          "type": "uint256"
        }
      ],
      "payable": false,
      "stateMutability": "view",
      "type": "function"
    },
    {
      "constant": true,
      "inputs": [],
      "name": "owner",
      "outputs": [
        {
          "internalType": "address",
          "name": "",
          "type": "address"
        }
      ],
      "payable": false,
      "stateMutability": "view",
      "type": "function"
    },
    {
      "constant": true,
      "inputs": [],
      "name": "paused",
      "outputs": [
        {
          "internalType": "bool",
          "name": "",
          "type": "bool"
        }
      ],
      "payable": false,
      "stateMutability": "view",
      "type": "function"
    },
    {
      "constant": true,
      "inputs": [],
      "name": "powerTONSeigRate",
      "outputs": [
        {
          "internalType": "uint256",
          "name": "",
          "type": "uint256"
        }
      ],
      "payable": false,
      "stateMutability": "view",
      "type": "function"
    },
    {
      "constant": true,
      "inputs": [],
      "name": "relativeSeigRate",
      "outputs": [
        {
          "internalType": "uint256",
          "name": "",
          "type": "uint256"
        }
      ],
      "payable": false,
      "stateMutability": "view",
      "type": "function"
    },
    {
      "constant": false,
      "inputs": [],
      "name": "renounceChallenger",
      "outputs": [],
      "payable": false,
      "stateMutability": "nonpayable",
      "type": "function"
    },
    {
      "constant": false,
      "inputs": [
        {
          "internalType": "address",
          "name": "target",
          "type": "address"
        }
      ],
      "name": "renounceMinter",
      "outputs": [],
      "payable": false,
      "stateMutability": "nonpayable",
      "type": "function"
    },
    {
      "constant": false,
      "inputs": [
        {
          "internalType": "address",
          "name": "target",
          "type": "address"
        }
      ],
      "name": "renounceOwnership",
      "outputs": [],
      "payable": false,
      "stateMutability": "nonpayable",
      "type": "function"
    },
    {
      "constant": false,
      "inputs": [],
      "name": "renounceOwnership",
      "outputs": [],
      "payable": false,
      "stateMutability": "nonpayable",
      "type": "function"
    },
    {
      "constant": false,
      "inputs": [
        {
          "internalType": "address",
          "name": "target",
          "type": "address"
        }
      ],
      "name": "renouncePauser",
      "outputs": [],
      "payable": false,
      "stateMutability": "nonpayable",
      "type": "function"
    },
    {
      "constant": false,
      "inputs": [],
      "name": "renouncePauser",
      "outputs": [],
      "payable": false,
      "stateMutability": "nonpayable",
      "type": "function"
    },
    {
      "constant": false,
      "inputs": [
        {
          "internalType": "address",
          "name": "target",
          "type": "address"
        },
        {
          "internalType": "address",
          "name": "newOwner",
          "type": "address"
        }
      ],
      "name": "transferOwnership",
      "outputs": [],
      "payable": false,
      "stateMutability": "nonpayable",
      "type": "function"
    },
    {
      "constant": false,
      "inputs": [
        {
          "internalType": "address",
          "name": "newOwner",
          "type": "address"
        }
      ],
      "name": "transferOwnership",
      "outputs": [],
      "payable": false,
      "stateMutability": "nonpayable",
      "type": "function"
    },
    {
      "constant": false,
      "inputs": [],
      "name": "pause",
      "outputs": [],
      "payable": false,
      "stateMutability": "nonpayable",
      "type": "function"
    },
    {
      "constant": false,
      "inputs": [],
      "name": "unpause",
      "outputs": [],
      "payable": false,
      "stateMutability": "nonpayable",
      "type": "function"
    },
    {
      "constant": false,
      "inputs": [
        {
          "internalType": "contract PowerTONI",
          "name": "powerton",
          "type": "address"
        }
      ],
      "name": "setPowerTON",
      "outputs": [],
      "payable": false,
      "stateMutability": "nonpayable",
      "type": "function"
    },
    {
      "constant": false,
      "inputs": [
        {
          "internalType": "address",
          "name": "daoAddress",
          "type": "address"
        }
      ],
      "name": "setDao",
      "outputs": [],
      "payable": false,
      "stateMutability": "nonpayable",
      "type": "function"
    },
    {
      "constant": false,
      "inputs": [
        {
          "internalType": "address",
          "name": "rootchain",
          "type": "address"
        }
      ],
      "name": "deployCoinage",
      "outputs": [
        {
          "internalType": "bool",
          "name": "",
          "type": "bool"
        }
      ],
      "payable": false,
      "stateMutability": "nonpayable",
      "type": "function"
    },
    {
      "constant": false,
      "inputs": [
        {
          "internalType": "address",
          "name": "rootchain",
          "type": "address"
        },
        {
          "internalType": "uint256",
          "name": "commissionRate",
          "type": "uint256"
        },
        {
          "internalType": "bool",
          "name": "isCommissionRateNegative",
          "type": "bool"
        }
      ],
      "name": "setCommissionRate",
      "outputs": [
        {
          "internalType": "bool",
          "name": "",
          "type": "bool"
        }
      ],
      "payable": false,
      "stateMutability": "nonpayable",
      "type": "function"
    },
    {
      "constant": false,
      "inputs": [],
      "name": "updateSeigniorage",
      "outputs": [
        {
          "internalType": "bool",
          "name": "",
          "type": "bool"
        }
      ],
      "payable": false,
      "stateMutability": "nonpayable",
      "type": "function"
    },
    {
      "constant": false,
      "inputs": [
        {
          "internalType": "address",
          "name": "sender",
          "type": "address"
        },
        {
          "internalType": "address",
          "name": "recipient",
          "type": "address"
        },
        {
          "internalType": "uint256",
          "name": "amount",
          "type": "uint256"
        }
      ],
      "name": "onTransfer",
      "outputs": [
        {
          "internalType": "bool",
          "name": "",
          "type": "bool"
        }
      ],
      "payable": false,
      "stateMutability": "nonpayable",
      "type": "function"
    },
    {
      "constant": false,
      "inputs": [
        {
          "internalType": "address",
          "name": "rootchain",
          "type": "address"
        },
        {
          "internalType": "address",
          "name": "account",
          "type": "address"
        },
        {
          "internalType": "uint256",
          "name": "amount",
          "type": "uint256"
        }
      ],
      "name": "onDeposit",
      "outputs": [
        {
          "internalType": "bool",
          "name": "",
          "type": "bool"
        }
      ],
      "payable": false,
      "stateMutability": "nonpayable",
      "type": "function"
    },
    {
      "constant": false,
      "inputs": [
        {
          "internalType": "address",
          "name": "rootchain",
          "type": "address"
        },
        {
          "internalType": "address",
          "name": "account",
          "type": "address"
        },
        {
          "internalType": "uint256",
          "name": "amount",
          "type": "uint256"
        }
      ],
      "name": "onWithdraw",
      "outputs": [
        {
          "internalType": "bool",
          "name": "",
          "type": "bool"
        }
      ],
      "payable": false,
      "stateMutability": "nonpayable",
      "type": "function"
    },
    {
      "constant": false,
      "inputs": [
        {
          "internalType": "uint256",
          "name": "powerTONSeigRate_",
          "type": "uint256"
        }
      ],
      "name": "setPowerTONSeigRate",
      "outputs": [],
      "payable": false,
      "stateMutability": "nonpayable",
      "type": "function"
    },
    {
      "constant": false,
      "inputs": [
        {
          "internalType": "uint256",
          "name": "daoSeigRate_",
          "type": "uint256"
        }
      ],
      "name": "setDaoSeigRate",
      "outputs": [],
      "payable": false,
      "stateMutability": "nonpayable",
      "type": "function"
    },
    {
      "constant": false,
      "inputs": [
        {
          "internalType": "uint256",
          "name": "PseigRate_",
          "type": "uint256"
        }
      ],
      "name": "setPseigRate",
      "outputs": [],
      "payable": false,
      "stateMutability": "nonpayable",
      "type": "function"
    },
    {
      "constant": false,
      "inputs": [
        {
          "internalType": "address",
          "name": "factory_",
          "type": "address"
        }
      ],
      "name": "setCoinageFactory",
      "outputs": [],
      "payable": false,
      "stateMutability": "nonpayable",
      "type": "function"
    },
    {
      "constant": false,
      "inputs": [
        {
          "internalType": "address",
          "name": "account",
          "type": "address"
        }
      ],
      "name": "addChallenger",
      "outputs": [],
      "payable": false,
      "stateMutability": "nonpayable",
      "type": "function"
    },
    {
      "constant": false,
      "inputs": [
        {
          "internalType": "address",
          "name": "rootchain",
          "type": "address"
        },
        {
          "internalType": "address",
          "name": "challenger",
          "type": "address"
        }
      ],
      "name": "slash",
      "outputs": [
        {
          "internalType": "bool",
          "name": "",
          "type": "bool"
        }
      ],
      "payable": false,
      "stateMutability": "nonpayable",
      "type": "function"
    },
    {
      "constant": true,
      "inputs": [
        {
          "internalType": "address",
          "name": "rootchain",
          "type": "address"
        },
        {
          "internalType": "address",
          "name": "account",
          "type": "address"
        },
        {
          "internalType": "uint256",
          "name": "amount",
          "type": "uint256"
        }
      ],
      "name": "additionalTotBurnAmount",
      "outputs": [
        {
          "internalType": "uint256",
          "name": "totAmount",
          "type": "uint256"
        }
      ],
      "payable": false,
      "stateMutability": "view",
      "type": "function"
    },
    {
      "constant": false,
      "inputs": [
        {
          "internalType": "uint256",
          "name": "adjustDelay_",
          "type": "uint256"
        }
      ],
      "name": "setAdjustDelay",
      "outputs": [],
      "payable": false,
      "stateMutability": "nonpayable",
      "type": "function"
    },
    {
      "constant": false,
      "inputs": [
        {
          "internalType": "uint256",
          "name": "minimumAmount_",
          "type": "uint256"
        }
      ],
      "name": "setMinimumAmount",
      "outputs": [],
      "payable": false,
      "stateMutability": "nonpayable",
      "type": "function"
    },
    {
      "constant": true,
      "inputs": [
        {
          "internalType": "address",
          "name": "rootchain",
          "type": "address"
        },
        {
          "internalType": "address",
          "name": "account",
          "type": "address"
        }
      ],
      "name": "uncomittedStakeOf",
      "outputs": [
        {
          "internalType": "uint256",
          "name": "",
          "type": "uint256"
        }
      ],
      "payable": false,
      "stateMutability": "view",
      "type": "function"
    },
    {
      "constant": true,
      "inputs": [
        {
          "internalType": "address",
          "name": "rootchain",
          "type": "address"
        },
        {
          "internalType": "address",
          "name": "account",
          "type": "address"
        }
      ],
      "name": "stakeOf",
      "outputs": [
        {
          "internalType": "uint256",
          "name": "",
          "type": "uint256"
        }
      ],
      "payable": false,
      "stateMutability": "view",
      "type": "function"
    },
    {
      "constant": true,
      "inputs": [],
      "name": "registry",
      "outputs": [
        {
          "internalType": "address",
          "name": "",
          "type": "address"
        }
      ],
      "payable": false,
      "stateMutability": "view",
      "type": "function"
    },
    {
      "constant": true,
      "inputs": [],
      "name": "depositManager",
      "outputs": [
        {
          "internalType": "address",
          "name": "",
          "type": "address"
        }
      ],
      "payable": false,
      "stateMutability": "view",
      "type": "function"
    },
    {
      "constant": true,
      "inputs": [],
      "name": "ton",
      "outputs": [
        {
          "internalType": "address",
          "name": "",
          "type": "address"
        }
      ],
      "payable": false,
      "stateMutability": "view",
      "type": "function"
    },
    {
      "constant": true,
      "inputs": [],
      "name": "wton",
      "outputs": [
        {
          "internalType": "address",
          "name": "",
          "type": "address"
        }
      ],
      "payable": false,
      "stateMutability": "view",
      "type": "function"
    },
    {
      "constant": true,
      "inputs": [],
      "name": "powerton",
      "outputs": [
        {
          "internalType": "address",
          "name": "",
          "type": "address"
        }
      ],
      "payable": false,
      "stateMutability": "view",
      "type": "function"
    },
    {
      "constant": true,
      "inputs": [],
      "name": "tot",
      "outputs": [
        {
          "internalType": "address",
          "name": "",
          "type": "address"
        }
      ],
      "payable": false,
      "stateMutability": "view",
      "type": "function"
    },
    {
      "constant": true,
      "inputs": [
        {
          "internalType": "address",
          "name": "rootchain",
          "type": "address"
        }
      ],
      "name": "coinages",
      "outputs": [
        {
          "internalType": "address",
          "name": "",
          "type": "address"
        }
      ],
      "payable": false,
      "stateMutability": "view",
      "type": "function"
    },
    {
      "constant": true,
      "inputs": [
        {
          "internalType": "address",
          "name": "rootchain",
          "type": "address"
        }
      ],
      "name": "commissionRates",
      "outputs": [
        {
          "internalType": "uint256",
          "name": "",
          "type": "uint256"
        }
      ],
      "payable": false,
      "stateMutability": "view",
      "type": "function"
    },
    {
      "constant": true,
      "inputs": [
        {
          "internalType": "address",
          "name": "rootchain",
          "type": "address"
        }
      ],
      "name": "isCommissionRateNegative",
      "outputs": [
        {
          "internalType": "bool",
          "name": "",
          "type": "bool"
        }
      ],
      "payable": false,
      "stateMutability": "view",
      "type": "function"
    },
    {
      "constant": true,
      "inputs": [
        {
          "internalType": "address",
          "name": "rootchain",
          "type": "address"
        }
      ],
      "name": "lastCommitBlock",
      "outputs": [
        {
          "internalType": "uint256",
          "name": "",
          "type": "uint256"
        }
      ],
      "payable": false,
      "stateMutability": "view",
      "type": "function"
    },
    {
      "constant": true,
      "inputs": [],
      "name": "seigPerBlock",
      "outputs": [
        {
          "internalType": "uint256",
          "name": "",
          "type": "uint256"
        }
      ],
      "payable": false,
      "stateMutability": "view",
      "type": "function"
    },
    {
      "constant": true,
      "inputs": [],
      "name": "lastSeigBlock",
      "outputs": [
        {
          "internalType": "uint256",
          "name": "",
          "type": "uint256"
        }
      ],
      "payable": false,
      "stateMutability": "view",
      "type": "function"
    },
    {
      "constant": true,
      "inputs": [],
      "name": "pausedBlock",
      "outputs": [
        {
          "internalType": "uint256",
          "name": "",
          "type": "uint256"
        }
      ],
      "payable": false,
      "stateMutability": "view",
      "type": "function"
    },
    {
      "constant": true,
      "inputs": [],
      "name": "unpausedBlock",
      "outputs": [
        {
          "internalType": "uint256",
          "name": "",
          "type": "uint256"
        }
      ],
      "payable": false,
      "stateMutability": "view",
      "type": "function"
    },
    {
      "constant": true,
      "inputs": [],
      "name": "DEFAULT_FACTOR",
      "outputs": [
        {
          "internalType": "uint256",
          "name": "",
          "type": "uint256"
        }
      ],
      "payable": false,
      "stateMutability": "view",
      "type": "function"
    }
  ],
  "bytecode": "0x60806040523480156200001157600080fd5b50604051620061e9380380620061e9833981810160405260a08110156200003757600080fd5b508051602082015160408301516060840151608090940151929391929091906200007c6200006d6001600160e01b03620001ea16565b6001600160e01b03620001ee16565b6000620000916001600160e01b03620001ea16565b600180546001600160a01b0319166001600160a01b038316908117909155604051919250906000907f8be0079c531659141344cd1fd0a4f28419497f9722a3daafe3b4186f6b6457e0908290a3506001805460ff60a01b1916905562000100336001600160e01b036200024016565b600780546001600160a01b038088166001600160a01b03199283161790925560088054878416908316179055600380548684169083161790556004805492851692909116919091179055600d8190556040516b033b2e3c9fd0803ce8000000906000906200016e90620003f2565b60408082019390935290151560608201526080808252600090820181905260c06020830181905282018190529151908190036101000191f080158015620001b9573d6000803e3d6000fd5b50600a80546001600160a01b0319166001600160a01b0392909216919091179055505043600e555062000400915050565b3390565b620002098160006200029260201b62003b0f1790919060201c565b6040516001600160a01b038216907f6719d08c1888103bea251a4ed56406bd0c3e69723c8a1686e017e7bbe159b6f890600090a250565b6200025b8160026200033960201b620039871790919060201c565b6040516001600160a01b038216907f2cd0e2692d0fffcabc09a1bbb85ce5406e4beb793c3e8aa022cf08bddbd797f790600090a250565b620002a782826001600160e01b036200035916565b156200031457604080517f08c379a000000000000000000000000000000000000000000000000000000000815260206004820152601f60248201527f526f6c65733a206163636f756e7420616c72656164792068617320726f6c6500604482015290519081900360640190fd5b6001600160a01b0316600090815260209190915260409020805460ff19166001179055565b6200034e82826001600160e01b03620003dc16565b156200031457600080fd5b60006001600160a01b038216620003bc576040517f08c379a0000000000000000000000000000000000000000000000000000000008152600401808060200182810382526022815260200180620061c76022913960400191505060405180910390fd5b506001600160a01b03166000908152602091909152604090205460ff1690565b60006001600160a01b038216620003bc57600080fd5b611e8f806200433883390190565b613f2880620004106000396000f3fe608060405234801561001057600080fd5b50600436106103af5760003560e01c8063715018a6116101f4578063a7dcc8501161011a578063e0683726116100ad578063f35c89e81161007c578063f35c89e814610929578063f822934814610931578063f850ffaa14610939578063fa9789c81461096f576103af565b8063e0683726146108c1578063e4034832146108c9578063eeb4a9c8146108e6578063f2fde38b14610903576103af565b8063c59f1046116100e9578063c59f10461461085d578063cc48b94714610883578063ce4cb8761461088b578063df7fbef0146108b9576103af565b8063a7dcc8501461081f578063ac89321914610827578063bb0c82981461084d578063c45a015514610855576103af565b80638456cb59116101925780638f32d59b116101615780638f32d59b146107cc5780639c877e47146107d4578063a16d6aa7146107f1578063a415d8dc146107f9576103af565b80638456cb59146107ac5780638bf91dc4146107b45780638d62d949146107bc5780638da5cb5b146107c4576103af565b80637b056c1b116101ce5780637b056c1b146107325780637b1039991461075857806382dc1ec414610760578063833a774f14610786576103af565b8063715018a6146106f4578063764a7856146106fc5780637aeccce914610704576103af565b806346fbf68e116102d95780635c975abb116102775780636637b882116102465780636637b882146106905780636c7ac9d8146106b65780636d435421146106be5780636ef8d66d146106ec576103af565b80635c975abb146106525780635f112c681461065a5780635f40a349146106805780636304a62414610688576103af565b80634c063c19116102b35780634c063c19146105fe578063552033c41461049a5780635998a8d7146106245780635a16a4161461062c576103af565b806346fbf68e1461056c57806348c8577e146105925780634a393149146105c8576103af565b806338bf3cfa11610351578063412c6d5011610320578063412c6d50146104a257806341813020146104ec57806341eb24bb146105125780634224ed6614610538576103af565b806338bf3cfa146104485780633e832e1d1461046e5780633f4ba83a146104925780634123196f1461049a576103af565b806325374a9a1161038d57806325374a9a1461041357806325e90db41461041b5780632d1bdec81461042357806332053c9914610440576103af565b806303e1cc27146103b45780630ceb6780146103d35780631cc47890146103f9575b600080fd5b6103d1600480360360208110156103ca57600080fd5b503561099d565b005b6103d1600480360360208110156103e957600080fd5b50356001600160a01b0316610a50565b610401610a73565b60408051918252519081900360200190f35b610401610a7a565b6103d1610a80565b6103d16004803603602081101561043957600080fd5b5035610a8b565b610401610ad7565b6103d16004803603602081101561045e57600080fd5b50356001600160a01b0316610add565b610476610b7a565b604080516001600160a01b039092168252519081900360200190f35b6103d1610b89565b610401610c35565b6104d8600480360360608110156104b857600080fd5b506001600160a01b03813581169160208101359091169060400135610c44565b604080519115158252519081900360200190f35b6103d16004803603602081101561050257600080fd5b50356001600160a01b0316610f5a565b6103d16004803603602081101561052857600080fd5b50356001600160a01b0316610fc3565b6104d86004803603606081101561054e57600080fd5b506001600160a01b0381351690602081013590604001351515611045565b6104d86004803603602081101561058257600080fd5b50356001600160a01b0316611227565b610401600480360360608110156105a857600080fd5b506001600160a01b0381358116916020810135909116906040013561123f565b6104d8600480360360608110156105de57600080fd5b506001600160a01b03813581169160208101359091169060400135611256565b6104766004803603602081101561061457600080fd5b50356001600160a01b03166112d7565b6104016112f5565b6104d86004803603602081101561064257600080fd5b50356001600160a01b03166112fb565b6104d8611319565b6103d16004803603602081101561067057600080fd5b50356001600160a01b0316611329565b6104016113ab565b6104016113b1565b6103d1600480360360208110156106a657600080fd5b50356001600160a01b03166113b7565b610476611420565b6103d1600480360360408110156106d457600080fd5b506001600160a01b038135811691602001351661142f565b6103d16114ea565b6103d16114fa565b6104d861158b565b6104d86004803603604081101561071a57600080fd5b506001600160a01b0381358116916020013516611a98565b6104016004803603602081101561074857600080fd5b50356001600160a01b0316611b25565b610476611b40565b6103d16004803603602081101561077657600080fd5b50356001600160a01b0316611b4f565b6104d86004803603602081101561079c57600080fd5b50356001600160a01b0316611b9e565b6103d1611cde565b610401611d82565b610476611d91565b610476611da0565b6104d8611daf565b6103d1600480360360208110156107ea57600080fd5b5035611dd5565b610476611e88565b6104d86004803603602081101561080f57600080fd5b50356001600160a01b0316611e97565b610401611eaa565b6103d16004803603602081101561083d57600080fd5b50356001600160a01b0316611eb9565b610401611f22565b610476611f28565b6104016004803603602081101561087357600080fd5b50356001600160a01b0316611f37565b610476611f52565b610401600480360360408110156108a157600080fd5b506001600160a01b0381358116916020013516611f61565b610401611fee565b610476611ff4565b6103d1600480360360208110156108df57600080fd5b5035612003565b6103d1600480360360208110156108fc57600080fd5b50356120b6565b6103d16004803603602081101561091957600080fd5b50356001600160a01b0316612102565b610401612152565b610401612158565b6104d86004803603606081101561094f57600080fd5b506001600160a01b0381358116916020810135909116906040013561215e565b6104016004803603604081101561098557600080fd5b506001600160a01b0381358116916020013516612578565b6109a5611daf565b6109e4576040805162461bcd60e51b81526020600482018190526024820152600080516020613e11833981519152604482015290519081900360640190fd5b6000811180156109fe5750676765c793fa10079d601b1b81105b610a4b576040805162461bcd60e51b8152602060048201526019602482015278657863656564656420736569676e696f72616765207261746560381b604482015290519081900360640190fd5b601955565b6003546001600160a01b03163314610a6757600080fd5b610a7081612836565b50565b6010545b90565b601a5481565b610a893361287e565b565b610a93611daf565b610ad2576040805162461bcd60e51b81526020600482018190526024820152600080516020613e11833981519152604482015290519081900360640190fd5b601355565b600f5490565b610ae5611daf565b610b24576040805162461bcd60e51b81526020600482018190526024820152600080516020613e11833981519152604482015290519081900360640190fd5b806001600160a01b031663715018a66040518163ffffffff1660e01b8152600401600060405180830381600087803b158015610b5f57600080fd5b505af1158015610b73573d6000803e3d6000fd5b5050505050565b6005546001600160a01b031690565b610b99610b946128c6565b611227565b610bd45760405162461bcd60e51b8152600401808060200182810382526030815260200180613d1a6030913960400191505060405180910390fd5b600154600160a01b900460ff16610c29576040805162461bcd60e51b815260206004820152601460248201527314185d5cd8589b194e881b9bdd081c185d5cd95960621b604482015290519081900360640190fd5b43601055610a896128ca565b676765c793fa10079d601b1b81565b6004546000906001600160a01b03163314610c5e57600080fd5b6001600160a01b038085166000908152600b6020526040902054859116610cb65760405162461bcd60e51b815260040180806020018281038252602e815260200180613d70602e913960400191505060405180910390fd5b610cc085856129b8565b15610dba576001600160a01b038086166000908152600b602090815260408083205481516370a0823160e01b8152898616600482015291519394610d5f94899492909116926370a08231926024808301939192829003018186803b158015610d2757600080fd5b505afa158015610d3b573d6000803e3d6000fd5b505050506040513d6020811015610d5157600080fd5b50519063ffffffff612a3516565b9050601754811015610db8576040805162461bcd60e51b815260206004820152601a60248201527f6d696e696d756d20616d6f756e74206973207265717569726564000000000000604482015290519081900360640190fd5b505b600a54604080516340c10f1960e01b81526001600160a01b03888116600483015260248201879052915191909216916340c10f199160448083019260209291908290030181600087803b158015610e1057600080fd5b505af1158015610e24573d6000803e3d6000fd5b505050506040513d6020811015610e3a57600080fd5b50506001600160a01b038086166000908152600b602090815260408083205481516340c10f1960e01b815289861660048201526024810189905291519416936340c10f1993604480840194938390030190829087803b158015610e9c57600080fd5b505af1158015610eb0573d6000803e3d6000fd5b505050506040513d6020811015610ec657600080fd5b50506005546001600160a01b031615610f4f5760055460408051630412c6d560e41b81526001600160a01b0388811660048301528781166024830152604482018790529151919092169163412c6d5091606480830192600092919082900301818387803b158015610f3657600080fd5b505af1158015610f4a573d6000803e3d6000fd5b505050505b506001949350505050565b610f62611daf565b610fa1576040805162461bcd60e51b81526020600482018190526024820152600080516020613e11833981519152604482015290519081900360640190fd5b600580546001600160a01b0319166001600160a01b0392909216919091179055565b610fcb611daf565b61100a576040805162461bcd60e51b81526020600482018190526024820152600080516020613e11833981519152604482015290519081900360640190fd5b806001600160a01b0316636ef8d66d6040518163ffffffff1660e01b8152600401600060405180830381600087803b158015610b5f57600080fd5b60035460009084906001600160a01b03163314806110cf5750806001600160a01b031663570ca7356040518163ffffffff1660e01b815260040160206040518083038186803b15801561109757600080fd5b505afa1580156110ab573d6000803e3d6000fd5b505050506040513d60208110156110c157600080fd5b50516001600160a01b031633145b6110d857600080fd5b8315806111065750836a084595161401484a000000111580156111065750676765c793fa10079d601b1b8411155b6111415760405162461bcd60e51b8152600401808060200182810382526044815260200180613e536044913960600191505060405180910390fd5b6001600160a01b038516600090815260116020526040902054601354611197576001600160a01b038616600090815260116020908152604080832088905560129091529020805460ff19168515151790556111d8565b6013546001600160a01b038716600090815260146020908152604080832043909401909355601581528282208890556016905220805460ff19168515151790555b604080518281526020810187905281516001600160a01b038916927f11841078e38c91feada06e1f8ded3697ab2dadc2583c52b14109b82ccd4f77d7928290030190a250600195945050505050565b6000611239818363ffffffff612a8f16565b92915050565b600061124c848484612af6565b90505b9392505050565b6007546000906001600160a01b031633148061127c57506008546001600160a01b031633145b6112b75760405162461bcd60e51b8152600401808060200182810382526031815260200180613e976031913960400191505060405180910390fd5b6112bf611319565b6112cd576112cb612c4a565b505b5060019392505050565b6001600160a01b039081166000908152600b60205260409020541690565b60195481565b6001600160a01b031660009081526012602052604090205460ff1690565b600154600160a01b900460ff1690565b611331611daf565b611370576040805162461bcd60e51b81526020600482018190526024820152600080516020613e11833981519152604482015290519081900360640190fd5b806001600160a01b031663986502756040518163ffffffff1660e01b8152600401600060405180830381600087803b158015610b5f57600080fd5b600d5490565b60185481565b6113bf611daf565b6113fe576040805162461bcd60e51b81526020600482018190526024820152600080516020613e11833981519152604482015290519081900360640190fd5b600680546001600160a01b0319166001600160a01b0392909216919091179055565b6004546001600160a01b031690565b611437611daf565b611476576040805162461bcd60e51b81526020600482018190526024820152600080516020613e11833981519152604482015290519081900360640190fd5b816001600160a01b031663f2fde38b826040518263ffffffff1660e01b815260040180826001600160a01b03166001600160a01b03168152602001915050600060405180830381600087803b1580156114ce57600080fd5b505af11580156114e2573d6000803e3d6000fd5b505050505050565b610a896114f56128c6565b613497565b611502611daf565b611541576040805162461bcd60e51b81526020600482018190526024820152600080516020613e11833981519152604482015290519081900360640190fd5b6001546040516000916001600160a01b0316907f8be0079c531659141344cd1fd0a4f28419497f9722a3daafe3b4186f6b6457e0908390a3600180546001600160a01b0319169055565b336000818152600b60205260408120549091906001600160a01b03166115e25760405162461bcd60e51b815260040180806020018281038252602e815260200180613d70602e913960400191505060405180910390fd5b6115ea611319565b156115f85760019150611a94565b611600612c4a565b50336000908152600c60209081526040808320439055600b82528083205481516318160ddd60e01b815291516001600160a01b03909116939284926318160ddd9260048083019392829003018186803b15801561165c57600080fd5b505afa158015611670573d6000803e3d6000fd5b505050506040513d602081101561168657600080fd5b5051600a54604080516370a0823160e01b815233600482015290519293506000926001600160a01b03909216916370a0823191602480820192602092909190829003018186803b1580156116d957600080fd5b505afa1580156116ed573d6000803e3d6000fd5b505050506040513d602081101561170357600080fd5b505190508082106117455760405133907f521cc65179761533a7c8d7a973291dd7baebb99a67edf5ef78e9c2b61a533d9590600090a260019450505050611a94565b600082820390506000336001600160a01b031663570ca7356040518163ffffffff1660e01b815260040160206040518083038186803b15801561178757600080fd5b505afa15801561179b573d6000803e3d6000fd5b505050506040513d60208110156117b157600080fd5b5051336000818152601260205260408120549293509160ff16906117d99088888785886134df565b8093508196505050866001600160a01b031663817e9d3161185f88888b6001600160a01b03166354f703f86040518163ffffffff1660e01b815260040160206040518083038186803b15801561182e57600080fd5b505afa158015611842573d6000803e3d6000fd5b505050506040513d602081101561185857600080fd5b50516136fc565b6040518263ffffffff1660e01b815260040180828152602001915050602060405180830381600087803b15801561189557600080fd5b505af11580156118a9573d6000803e3d6000fd5b505050506040513d60208110156118bf57600080fd5b505081156119d757801561194a57866001600160a01b03166379cc679084846040518363ffffffff1660e01b815260040180836001600160a01b03166001600160a01b0316815260200182815260200192505050600060405180830381600087803b15801561192d57600080fd5b505af1158015611941573d6000803e3d6000fd5b505050506119d7565b866001600160a01b03166340c10f1984846040518363ffffffff1660e01b815260040180836001600160a01b03166001600160a01b0316815260200182815260200192505050602060405180830381600087803b1580156119aa57600080fd5b505af11580156119be573d6000803e3d6000fd5b505050506040513d60208110156119d457600080fd5b50505b60085460048054604080516340c10f1960e01b81526001600160a01b039283169381019390935260248301889052519216916340c10f19916044808201926020929091908290030181600087803b158015611a3157600080fd5b505af1158015611a45573d6000803e3d6000fd5b505050506040513d6020811015611a5b57600080fd5b505060405133907f521cc65179761533a7c8d7a973291dd7baebb99a67edf5ef78e9c2b61a533d9590600090a260019850505050505050505b5090565b6000611aa333611e97565b611aac57600080fd5b826001600160a01b03166306394c9b836040518263ffffffff1660e01b815260040180826001600160a01b03166001600160a01b03168152602001915050600060405180830381600087803b158015611b0457600080fd5b505af1158015611b18573d6000803e3d6000fd5b5060019695505050505050565b6001600160a01b031660009081526011602052604090205490565b6003546001600160a01b031690565b611b5a610b946128c6565b611b955760405162461bcd60e51b8152600401808060200182810382526030815260200180613d1a6030913960400191505060405180910390fd5b610a7081613711565b6003546000906001600160a01b03163314611bb857600080fd5b6001600160a01b038281166000908152600b602052604090205416611cd65760095460408051631dd70c0360e21b815290516000926001600160a01b03169163775c300c91600480830192602092919082900301818787803b158015611c1d57600080fd5b505af1158015611c31573d6000803e3d6000fd5b505050506040513d6020811015611c4757600080fd5b50516001600160a01b0384166000908152600c602052604090204390559050611c6f81610a50565b6001600160a01b038381166000818152600b602090815260409182902080546001600160a01b03191694861694851790558151938452905191927f124cac1e701d08d642237ad795ddd275670e12f2cd956a26709721c68084c2b2929081900390910190a2505b506001919050565b611ce9610b946128c6565b611d245760405162461bcd60e51b8152600401808060200182810382526030815260200180613d1a6030913960400191505060405180910390fd5b600154600160a01b900460ff1615611d76576040805162461bcd60e51b815260206004820152601060248201526f14185d5cd8589b194e881c185d5cd95960821b604482015290519081900360640190fd5b43600f55610a89613759565b676765c793fa10079d601b1b90565b6008546001600160a01b031690565b6001546001600160a01b031690565b6001546000906001600160a01b0316611dc66128c6565b6001600160a01b031614905090565b611ddd611daf565b611e1c576040805162461bcd60e51b81526020600482018190526024820152600080516020613e11833981519152604482015290519081900360640190fd5b600081118015611e365750676765c793fa10079d601b1b81105b611e83576040805162461bcd60e51b8152602060048201526019602482015278657863656564656420736569676e696f72616765207261746560381b604482015290519081900360640190fd5b601855565b600a546001600160a01b031690565b600061123960028363ffffffff61382d16565b6a084595161401484a00000081565b611ec1611daf565b611f00576040805162461bcd60e51b81526020600482018190526024820152600080516020613e11833981519152604482015290519081900360640190fd5b600980546001600160a01b0319166001600160a01b0392909216919091179055565b60175481565b6009546001600160a01b031681565b6001600160a01b03166000908152600c602052604090205490565b6007546001600160a01b031690565b6001600160a01b038083166000908152600b602090815260408083205481516370a0823160e01b815286861660048201529151939416926370a0823192602480840193919291829003018186803b158015611fbb57600080fd5b505afa158015611fcf573d6000803e3d6000fd5b505050506040513d6020811015611fe557600080fd5b50519392505050565b60135481565b6006546001600160a01b031681565b61200b611daf565b61204a576040805162461bcd60e51b81526020600482018190526024820152600080516020613e11833981519152604482015290519081900360640190fd5b6000811180156120645750676765c793fa10079d601b1b81105b6120b1576040805162461bcd60e51b8152602060048201526019602482015278657863656564656420736569676e696f72616765207261746560381b604482015290519081900360640190fd5b601a55565b6120be611daf565b6120fd576040805162461bcd60e51b81526020600482018190526024820152600080516020613e11833981519152604482015290519081900360640190fd5b601755565b61210a611daf565b612149576040805162461bcd60e51b81526020600482018190526024820152600080516020613e11833981519152604482015290519081900360640190fd5b610a7081613842565b600e5490565b601b5481565b6004546000906001600160a01b0316331461217857600080fd5b6001600160a01b038085166000908152600b60205260409020548591166121d05760405162461bcd60e51b815260040180806020018281038252602e815260200180613d70602e913960400191505060405180910390fd5b6001600160a01b038086166000908152600b60209081526040918290205482516370a0823160e01b815288851660048201529251879491909116926370a08231926024808301939192829003018186803b15801561222d57600080fd5b505afa158015612241573d6000803e3d6000fd5b505050506040513d602081101561225757600080fd5b505110156122965760405162461bcd60e51b815260040180806020018281038252602c815260200180613ec8602c913960400191505060405180910390fd5b6122a085856129b8565b1561239a576001600160a01b038086166000908152600b602090815260408083205481516370a0823160e01b815289861660048201529151939461233f94899492909116926370a08231926024808301939192829003018186803b15801561230757600080fd5b505afa15801561231b573d6000803e3d6000fd5b505050506040513d602081101561233157600080fd5b50519063ffffffff6138e316565b9050601754811015612398576040805162461bcd60e51b815260206004820152601a60248201527f6d696e696d756d20616d6f756e74206973207265717569726564000000000000604482015290519081900360640190fd5b505b60006123a7868686612af6565b600a549091506001600160a01b03166379cc6790876123cc878563ffffffff612a3516565b6040518363ffffffff1660e01b815260040180836001600160a01b03166001600160a01b0316815260200182815260200192505050600060405180830381600087803b15801561241b57600080fd5b505af115801561242f573d6000803e3d6000fd5b5050506001600160a01b038088166000908152600b602052604080822054815163079cc67960e41b81528a85166004820152602481018a90529151931693506379cc6790926044808301939282900301818387803b15801561249057600080fd5b505af11580156124a4573d6000803e3d6000fd5b50506005546001600160a01b031615915061253190505760055460408051637c287fd560e11b81526001600160a01b0389811660048301528881166024830152604482018890529151919092169163f850ffaa91606480830192600092919082900301818387803b15801561251857600080fd5b505af115801561252c573d6000803e3d6000fd5b505050505b604080518581526020810183905281517f650f673bb96a43afff4620ecc3f3e38e0cbfddebde9894e951ba2ceff7472f60929181900390910190a150600195945050505050565b6001600160a01b038083166000908152600b60209081526040808320548151630a9ee07f60e31b8152915193941692849284926354f703f89260048083019392829003018186803b1580156125cc57600080fd5b505afa1580156125e0573d6000803e3d6000fd5b505050506040513d60208110156125f657600080fd5b5051604080516318160ddd60e01b815290519192506000916001600160a01b038516916318160ddd916004808301926020929190829003018186803b15801561263e57600080fd5b505afa158015612652573d6000803e3d6000fd5b505050506040513d602081101561266857600080fd5b5051600a54604080516370a0823160e01b81526001600160a01b038a81166004830152915193945060009391909216916370a08231916024808301926020929190829003018186803b1580156126bd57600080fd5b505afa1580156126d1573d6000803e3d6000fd5b505050506040513d60208110156126e757600080fd5b5051905060006126f88383866136fc565b9050600061279061278a876001600160a01b03166370a082318b6040518263ffffffff1660e01b815260040180826001600160a01b03166001600160a01b0316815260200191505060206040518083038186803b15801561275857600080fd5b505afa15801561276c573d6000803e3d6000fd5b505050506040513d602081101561278257600080fd5b505187613925565b83613959565b6001600160a01b03808b166000908152600b60209081526040918290205482516370a0823160e01b81528d851660048201529251949550612829949316926370a08231926024808201939291829003018186803b1580156127f057600080fd5b505afa158015612804573d6000803e3d6000fd5b505050506040513d602081101561281a57600080fd5b5051829063ffffffff6138e316565b9998505050505050505050565b61284760028263ffffffff61398716565b6040516001600160a01b038216907f2cd0e2692d0fffcabc09a1bbb85ce5406e4beb793c3e8aa022cf08bddbd797f790600090a250565b61288f60028263ffffffff6139c016565b6040516001600160a01b038216907f5cd2c63f2658de84952baf6a0e914d0997bbacc2d17fd2b6d928dcf951e697c790600090a250565b3390565b6128d5610b946128c6565b6129105760405162461bcd60e51b8152600401808060200182810382526030815260200180613d1a6030913960400191505060405180910390fd5b600154600160a01b900460ff16612965576040805162461bcd60e51b815260206004820152601460248201527314185d5cd8589b194e881b9bdd081c185d5cd95960621b604482015290519081900360640190fd5b6001805460ff60a01b191690557f5db9ee0a495bf2e6ff9c91a7834c1ba4fdd244a5e8aa4e537bd38aeae4b073aa61299b6128c6565b604080516001600160a01b039092168252519081900360200190a1565b6000826001600160a01b031663570ca7356040518163ffffffff1660e01b815260040160206040518083038186803b1580156129f357600080fd5b505afa158015612a07573d6000803e3d6000fd5b505050506040513d6020811015612a1d57600080fd5b50516001600160a01b03838116911614905092915050565b60008282018381101561124f576040805162461bcd60e51b815260206004820152601b60248201527f536166654d6174683a206164646974696f6e206f766572666c6f770000000000604482015290519081900360640190fd5b60006001600160a01b038216612ad65760405162461bcd60e51b8152600401808060200182810382526022815260200180613e316022913960400191505060405180910390fd5b506001600160a01b03166000908152602091909152604090205460ff1690565b6001600160a01b038084166000908152600b602090815260408083205481516318160ddd60e01b81529151939485949116926318160ddd9260048082019391829003018186803b158015612b4957600080fd5b505afa158015612b5d573d6000803e3d6000fd5b505050506040513d6020811015612b7357600080fd5b5051600a54604080516370a0823160e01b81526001600160a01b038981166004830152915193945060009391909216916370a08231916024808301926020929190829003018186803b158015612bc857600080fd5b505afa158015612bdc573d6000803e3d6000fd5b505050506040513d6020811015612bf257600080fd5b505190508082118015612c0e5750670de0b6b3a7640000818303105b15612c1e5760009250505061124f565b612c40612c3a612c34838563ffffffff6138e316565b86613959565b83613925565b9695505050505050565b6000600e54431415612c5e57506000610a77565b600a60009054906101000a90046001600160a01b03166001600160a01b03166318160ddd6040518163ffffffff1660e01b815260040160206040518083038186803b158015612cac57600080fd5b505afa158015612cc0573d6000803e3d6000fd5b505050506040513d6020811015612cd657600080fd5b5051612ce8575043600e556000610a77565b600080600a60009054906101000a90046001600160a01b03166001600160a01b03166318160ddd6040518163ffffffff1660e01b815260040160206040518083038186803b158015612d3957600080fd5b505afa158015612d4d573d6000803e3d6000fd5b505050506040513d6020811015612d6357600080fd5b5051600d54909250600090612d8690612d7a6139f5565b9063ffffffff613a2f16565b90506000612fd1600860009054906101000a90046001600160a01b03166001600160a01b03166318160ddd6040518163ffffffff1660e01b815260040160206040518083038186803b158015612ddb57600080fd5b505afa158015612def573d6000803e3d6000fd5b505050506040513d6020811015612e0557600080fd5b5051600a54604080516318160ddd60e01b81529051612fc5926001600160a01b0316916318160ddd916004808301926020929190829003018186803b158015612e4d57600080fd5b505afa158015612e61573d6000803e3d6000fd5b505050506040513d6020811015612e7757600080fd5b5051600854604080516318160ddd60e01b81529051612fb9926001600160a01b0316916318160ddd916004808301926020929190829003018186803b158015612ebf57600080fd5b505afa158015612ed3573d6000803e3d6000fd5b505050506040513d6020811015612ee957600080fd5b5051600754600854604080516370a0823160e01b81526001600160a01b0392831660048201529051612fb993633b9aca0093612d7a939116916370a0823191602480820192602092909190829003018186803b158015612f4857600080fd5b505afa158015612f5c573d6000803e3d6000fd5b505050506040513d6020811015612f7257600080fd5b5051600754604080516318160ddd60e01b815290516001600160a01b03909216916318160ddd91600480820192602092909190829003018186803b15801561230757600080fd5b9063ffffffff612a3516565b9063ffffffff6138e316565b9050600061305b612c3a84600a60009054906101000a90046001600160a01b03166001600160a01b03166318160ddd6040518163ffffffff1660e01b815260040160206040518083038186803b15801561302a57600080fd5b505afa15801561303e573d6000803e3d6000fd5b505050506040513d602081101561305457600080fd5b5051613959565b9050600061307a613072858463ffffffff6138e316565b601a54613959565b905061309081612fb9888563ffffffff612a3516565b43600e55600a5460408051630a9ee07f60e31b815290519297506001600160a01b039091169163817e9d31916130eb918a918a9186916354f703f8916004808301926020929190829003018186803b15801561182e57600080fd5b6040518263ffffffff1660e01b815260040180828152602001915050602060405180830381600087803b15801561312157600080fd5b505af1158015613135573d6000803e3d6000fd5b505050506040513d602081101561314b57600080fd5b5050600a54604080516318160ddd60e01b815290517f41a79a497d1457df24c25ab99f22349ae9aef4468429f0a781216e8dcf80c628926001600160a01b0316916318160ddd916004808301926020929190829003018186803b1580156131b157600080fd5b505afa1580156131c5573d6000803e3d6000fd5b505050506040513d60208110156131db57600080fd5b5051604080519182526020820186905281810189905260608201889052519081900360800190a16000613214858463ffffffff6138e316565b600554909150600090819081906001600160a01b0316156132e75761325f676765c793fa10079d601b1b61325360185487613a2f90919063ffffffff16565b9063ffffffff613a8816565b600854600554604080516340c10f1960e01b81526001600160a01b0392831660048201526024810185905290519396509116916340c10f19916044808201926020929091908290030181600087803b1580156132ba57600080fd5b505af11580156132ce573d6000803e3d6000fd5b505050506040513d60208110156132e457600080fd5b50505b6006546001600160a01b0316156133a45761331c676765c793fa10079d601b1b61325360195487613a2f90919063ffffffff16565b600854600654604080516340c10f1960e01b81526001600160a01b0392831660048201526024810185905290519395509116916340c10f19916044808201926020929091908290030181600087803b15801561337757600080fd5b505af115801561338b573d6000803e3d6000fd5b505050506040513d60208110156133a157600080fd5b50505b601a54156133ea576133d0676765c793fa10079d601b1b613253601a5487613a2f90919063ffffffff16565b601b549091506133e6908263ffffffff612a3516565b601b555b836133ff82612fb9868663ffffffff612a3516565b111561343c5760405162461bcd60e51b8152600401808060200182810382526031815260200180613d9e6031913960400191505060405180910390fd5b604080518981526020810188905280820186905260608101859052905133917f73600b95c31a4ed411c84c32eaa15178c77fdcd9d5c8123118e76c03b3dcd63b919081900360800190a260019a505050505050505050505090565b6134a860008263ffffffff613aca16565b6040516001600160a01b038216907fcd265ebaf09df2871cc7bd4133404a235ba12eff2041bb89d9c714a2621c7c7e90600090a250565b6001600160a01b0386166000908152601460205260408120548190431080159061352057506001600160a01b03881660009081526014602052604090205415155b15613574576001600160a01b0388166000908152601560209081526040808320546011835281842055601682528083205460128352818420805460ff191660ff909216151591909117905560149091528120555b3360009081526011602052604090205486860192508061359457506136f1565b846135be576135a38682613959565b91506135b5838363ffffffff6138e316565b92506136f19050565b866135c957506136f1565b6000886001600160a01b03166370a08231866040518263ffffffff1660e01b815260040180826001600160a01b03166001600160a01b0316815260200191505060206040518083038186803b15801561362157600080fd5b505afa158015613635573d6000803e3d6000fd5b505050506040513d602081101561364b57600080fd5b505190508061365c57506136f19050565b6000613668828a613925565b905061367d6136778983613959565b84613959565b93506000676765c793fa10079d601b1b82146136af576136aa8583676765c793fa10079d601b1b03613925565b6136b1565b845b9050676765c793fa10079d601b1b82146136d6576136cf8183613959565b85016136d8565b845b94506136ea868263ffffffff612a3516565b9550505050505b965096945050505050565b600061124c61370b8484613959565b85613925565b61372260008263ffffffff613b0f16565b6040516001600160a01b038216907f6719d08c1888103bea251a4ed56406bd0c3e69723c8a1686e017e7bbe159b6f890600090a250565b613764610b946128c6565b61379f5760405162461bcd60e51b8152600401808060200182810382526030815260200180613d1a6030913960400191505060405180910390fd5b600154600160a01b900460ff16156137f1576040805162461bcd60e51b815260206004820152601060248201526f14185d5cd8589b194e881c185d5cd95960821b604482015290519081900360640190fd5b6001805460ff60a01b1916600160a01b1790557f62e78cea01bee320cd4e420270b5ea74000d11b0c9f74754ebdbfc544b05a25861299b6128c6565b60006001600160a01b038216612ad657600080fd5b6001600160a01b0381166138875760405162461bcd60e51b8152600401808060200182810382526026815260200180613d4a6026913960400191505060405180910390fd5b6001546040516001600160a01b038084169216907f8be0079c531659141344cd1fd0a4f28419497f9722a3daafe3b4186f6b6457e090600090a3600180546001600160a01b0319166001600160a01b0392909216919091179055565b600061124f83836040518060400160405280601e81526020017f536166654d6174683a207375627472616374696f6e206f766572666c6f770000815250613b6b565b60008161394a61394085676765c793fa10079d601b1b613c02565b6002855b04613c65565b8161395157fe5b049392505050565b6000676765c793fa10079d601b1b61394a6139748585613c02565b6002676765c793fa10079d601b1b613944565b613991828261382d565b1561399b57600080fd5b6001600160a01b0316600090815260209190915260409020805460ff19166001179055565b6139ca828261382d565b6139d357600080fd5b6001600160a01b0316600090815260209190915260409020805460ff19169055565b60006139ff611319565b15613a0957600080fd5b600e5460105443829003911115613a21579050610a77565b600f54601054039003905090565b600082613a3e57506000611239565b82820282848281613a4b57fe5b041461124f5760405162461bcd60e51b8152600401808060200182810382526021815260200180613df06021913960400191505060405180910390fd5b600061124f83836040518060400160405280601a81526020017f536166654d6174683a206469766973696f6e206279207a65726f000000000000815250613cb4565b613ad48282612a8f565b6139d35760405162461bcd60e51b8152600401808060200182810382526021815260200180613dcf6021913960400191505060405180910390fd5b613b198282612a8f565b1561399b576040805162461bcd60e51b815260206004820152601f60248201527f526f6c65733a206163636f756e7420616c72656164792068617320726f6c6500604482015290519081900360640190fd5b60008184841115613bfa5760405162461bcd60e51b81526004018080602001828103825283818151815260200191508051906020019080838360005b83811015613bbf578181015183820152602001613ba7565b50505050905090810190601f168015613bec5780820380516001836020036101000a031916815260200191505b509250505060405180910390fd5b505050900390565b6000811580613c1d57505080820282828281613c1a57fe5b04145b611239576040805162461bcd60e51b815260206004820152601460248201527364732d6d6174682d6d756c2d6f766572666c6f7760601b604482015290519081900360640190fd5b80820182811015611239576040805162461bcd60e51b815260206004820152601460248201527364732d6d6174682d6164642d6f766572666c6f7760601b604482015290519081900360640190fd5b60008183613d035760405162461bcd60e51b8152602060048201818152835160248401528351909283926044909101919085019080838360008315613bbf578181015183820152602001613ba7565b506000838581613d0f57fe5b049594505050505056fe506175736572526f6c653a2063616c6c657220646f6573206e6f742068617665207468652050617573657220726f6c654f776e61626c653a206e6577206f776e657220697320746865207a65726f2061646472657373536569674d616e616765723a20636f696e61676520686173206e6f74206265656e206465706c6f79656420796574706f776572746f6e2073656967202b2064616f207365696720657863656564656420756e7374616b656420616d6f756e74526f6c65733a206163636f756e7420646f6573206e6f74206861766520726f6c65536166654d6174683a206d756c7469706c69636174696f6e206f766572666c6f774f776e61626c653a2063616c6c6572206973206e6f7420746865206f776e6572526f6c65733a206163636f756e7420697320746865207a65726f2061646472657373536569674d616e616765723a20636f6d6d697373696f6e2072617465206d7573742062652030206f72206265747765656e20312052415920616e6420302e303120524159536569674d616e616765723a206f6e6c7920544f4e206f722057544f4e2063616e2063616c6c206f6e5472616e73666572536569674d616e616765723a20696e73756666696369616e742062616c616e636520746f20756e7374616b65a265627a7a723158209bafdc8893fc0642b29ff1034dec1e63a77da4c2de8e4ea23723bf6b4f809d3c64736f6c634300050c003260806040523480156200001157600080fd5b5060405162001e8f38038062001e8f833981810160405260808110156200003757600080fd5b81019080805160405193929190846401000000008211156200005857600080fd5b9083019060208201858111156200006e57600080fd5b82516401000000008111828201881017156200008957600080fd5b82525081516020918201929091019080838360005b83811015620000b85781810151838201526020016200009e565b50505050905090810190601f168015620000e65780820380516001836020036101000a031916815260200191505b50604052602001805160405193929190846401000000008211156200010a57600080fd5b9083019060208201858111156200012057600080fd5b82516401000000008111828201881017156200013b57600080fd5b82525081516020918201929091019080838360005b838110156200016a57818101518382015260200162000150565b50505050905090810190601f168015620001985780820380516001836020036101000a031916815260200191505b50604090815260208201519101519092509050838383838383836000848484601b620001df620001d06001600160e01b03620002ad16565b6001600160e01b03620002b216565b620001f26001600160e01b03620002ad16565b600480546001600160a01b0319166001600160a01b0392831617908190556040519116906000907f8be0079c531659141344cd1fd0a4f28419497f9722a3daafe3b4186f6b6457e0908290a38251620002539060059060208601906200042e565b508151620002699060069060208501906200042e565b506007805460ff90921660ff19928316179055600b959095555050600c9190915543600d55600e80549115159190921617905550620004d098505050505050505050565b335b90565b620002cd8160036200030460201b6200148b1790919060201c565b6040516001600160a01b038216907f6ae172837ea30b801fbfcdd4108aa1d5bf8ff775444fd70256b44e6bf3dfc3f690600090a250565b6200031982826001600160e01b03620003ab16565b156200038657604080517f08c379a000000000000000000000000000000000000000000000000000000000815260206004820152601f60248201527f526f6c65733a206163636f756e7420616c72656164792068617320726f6c6500604482015290519081900360640190fd5b6001600160a01b0316600090815260209190915260409020805460ff19166001179055565b60006001600160a01b0382166200040e576040517f08c379a000000000000000000000000000000000000000000000000000000000815260040180806020018281038252602281526020018062001e6d6022913960400191505060405180910390fd5b506001600160a01b03166000908152602091909152604090205460ff1690565b828054600181600116156101000203166002900490600052602060002090601f016020900481019282601f106200047157805160ff1916838001178555620004a1565b82800160010185558215620004a1579182015b82811115620004a157825182559160200191906001019062000484565b50620004af929150620004b3565b5090565b620002af91905b80821115620004af5760008155600101620004ba565b61198d80620004e06000396000f3fe608060405234801561001057600080fd5b50600436106101a95760003560e01c8063817e9d31116100f9578063a9059cbb11610097578063d4132ee211610071578063d4132ee2146104bf578063dd62ed3e146104c7578063f2fde38b146104f5578063f41e60c51461051b576101a9565b8063a9059cbb14610465578063aa271e1a14610491578063bef97c87146104b7576101a9565b806395d89b41116100d357806395d89b4114610403578063983b2d561461040b5780639865027514610431578063a457c2d714610439576101a9565b8063817e9d31146103ba5780638da5cb5b146103d75780638f32d59b146103fb576101a9565b806340c10f191161016657806370a082311161014057806370a0823114610358578063715018a61461037e57806379cc679014610386578063806b984f146103b2576101a9565b806340c10f191461030557806342966c681461033157806354f703f814610350576101a9565b806306fdde03146101ae578063095ea7b31461022b57806318160ddd1461026b57806323b872dd14610285578063313ce567146102bb57806339509351146102d9575b600080fd5b6101b661053a565b6040805160208082528351818301528351919283929083019185019080838360005b838110156101f05781810151838201526020016101d8565b50505050905090810190601f16801561021d5780820380516001836020036101000a031916815260200191505b509250505060405180910390f35b6102576004803603604081101561024157600080fd5b506001600160a01b0381351690602001356105d0565b604080519115158252519081900360200190f35b6102736105ee565b60408051918252519081900360200190f35b6102576004803603606081101561029b57600080fd5b506001600160a01b03813581169160208101359091169060400135610600565b6102c36106f1565b6040805160ff9092168252519081900360200190f35b610257600480360360408110156102ef57600080fd5b506001600160a01b0381351690602001356106fa565b6102576004803603604081101561031b57600080fd5b506001600160a01b03813516906020013561074e565b61034e6004803603602081101561034757600080fd5b50356107a5565b005b6102736107b9565b6102736004803603602081101561036e57600080fd5b50356001600160a01b03166107bf565b61034e6107e9565b61034e6004803603604081101561039c57600080fd5b506001600160a01b03813516906020013561087a565b610273610888565b610257600480360360208110156103d057600080fd5b503561088e565b6103df610920565b604080516001600160a01b039092168252519081900360200190f35b61025761092f565b6101b6610955565b61034e6004803603602081101561042157600080fd5b50356001600160a01b03166109b6565b61034e610a05565b6102576004803603604081101561044f57600080fd5b506001600160a01b038135169060200135610a17565b6102576004803603604081101561047b57600080fd5b506001600160a01b038135169060200135610a85565b610257600480360360208110156104a757600080fd5b50356001600160a01b0316610afd565b610257610b10565b610273610b19565b610273600480360360408110156104dd57600080fd5b506001600160a01b0381358116916020013516610b1f565b61034e6004803603602081101561050b57600080fd5b50356001600160a01b0316610b4a565b61034e6004803603602081101561053157600080fd5b50351515610b9a565b60058054604080516020601f60026000196101006001881615020190951694909404938401819004810282018101909252828152606093909290918301828280156105c65780601f1061059b576101008083540402835291602001916105c6565b820191906000526020600020905b8154815290600101906020018083116105a957829003601f168201915b5050505050905090565b60006105e46105dd610bf4565b8484610bf8565b5060015b92915050565b60006105fb600a54610cec565b905090565b600061060a610920565b6001600160a01b0316336001600160a01b0316148061062b5750600e5460ff165b6106665760405162461bcd60e51b815260040180806020018281038252602a815260200180611864602a913960400191505060405180910390fd5b610671848484610d32565b6106e78461067d610bf4565b6106e2856040518060600160405280603781526020016118be603791396001600160a01b038a166000908152600960205260408120906106bb610bf4565b6001600160a01b03168152602081019190915260400160002054919063ffffffff610ea916565b610bf8565b5060019392505050565b60075460ff1690565b60006105e4610707610bf4565b846106e28560096000610718610bf4565b6001600160a01b03908116825260208083019390935260409182016000908120918c16815292529020549063ffffffff610f4016565b600061076061075b610bf4565b610afd565b61079b5760405162461bcd60e51b815260040180806020018281038252603081526020018061173c6030913960400191505060405180910390fd5b6105e48383610f9a565b6107b66107b0610bf4565b82611091565b50565b600b5490565b6001600160a01b0381166000908152600860205260408120546107e190610cec565b90505b919050565b6107f161092f565b610830576040805162461bcd60e51b815260206004820181905260248201526000805160206117bb833981519152604482015290519081900360640190fd5b6004546040516000916001600160a01b0316907f8be0079c531659141344cd1fd0a4f28419497f9722a3daafe3b4186f6b6457e0908390a3600480546001600160a01b0319169055565b6108848282611193565b5050565b600d5490565b600061089861092f565b6108d7576040805162461bcd60e51b815260206004820181905260248201526000805160206117bb833981519152604482015290519081900360640190fd5b600b805490839055604080518281526020810185905281517fafc9085bb15d79bc1e9d87807e2fc5f4c2b631088cb3e38c86cb627c12a0e430929181900390910190a150919050565b6004546001600160a01b031690565b6004546000906001600160a01b0316610946610bf4565b6001600160a01b031614905090565b60068054604080516020601f60026000196101006001881615020190951694909404938401819004810282018101909252828152606093909290918301828280156105c65780601f1061059b576101008083540402835291602001916105c6565b6109c161075b610bf4565b6109fc5760405162461bcd60e51b815260040180806020018281038252603081526020018061173c6030913960400191505060405180910390fd5b6107b6816111fb565b610a15610a10610bf4565b611243565b565b60006105e4610a24610bf4565b846106e2856040518060600160405280603481526020016116706034913960096000610a4e610bf4565b6001600160a01b03908116825260208083019390935260409182016000908120918d1681529252902054919063ffffffff610ea916565b6000610a8f610920565b6001600160a01b0316336001600160a01b03161480610ab05750600e5460ff165b610aeb5760405162461bcd60e51b815260040180806020018281038252602a815260200180611864602a913960400191505060405180910390fd5b6105e4610af6610bf4565b8484610d32565b60006107e160038363ffffffff61128b16565b600e5460ff1690565b600c5490565b6001600160a01b03918216600090815260096020908152604080832093909416825291909152205490565b610b5261092f565b610b91576040805162461bcd60e51b815260206004820181905260248201526000805160206117bb833981519152604482015290519081900360640190fd5b6107b6816112f2565b610ba261092f565b610be1576040805162461bcd60e51b815260206004820181905260248201526000805160206117bb833981519152604482015290519081900360640190fd5b600e805460ff1916911515919091179055565b3390565b610c00611393565b6001600160a01b038316610c455760405162461bcd60e51b81526004018080602001828103825260338152602001806116d86033913960400191505060405180910390fd5b6001600160a01b038216610c8a5760405162461bcd60e51b815260040180806020018281038252603181526020018061170b6031913960400191505060405180910390fd5b6001600160a01b03808416600081815260096020908152604080832094871680845294825291829020859055815185815291517f8c5be1e5ebec7d5bd14f71427d1e84f3dd0314c0f7b2291e5b200ac8c7c3b9259281900390910190a3505050565b600081610cfb575060006107e4565b600d54430380610d1957610d1183600b546113e5565b9150506107e4565b610d2b83610d2683611426565b6113e5565b9392505050565b610d3a611393565b6001600160a01b038316610d7f5760405162461bcd60e51b81526004018080602001828103825260348152602001806116a46034913960400191505060405180910390fd5b6001600160a01b038216610dc45760405162461bcd60e51b81526004018080602001828103825260328152602001806117fd6032913960400191505060405180910390fd5b6000610dcf8261142d565b9050610e148160405180606001604052806035815260200161182f603591396001600160a01b038716600090815260086020526040902054919063ffffffff610ea916565b6001600160a01b038086166000908152600860205260408082209390935590851681522054610e49908263ffffffff610f4016565b6001600160a01b0380851660008181526008602052604090209290925585167fddf252ad1be2c89b69c2b068fc378daa952ba7f163c4a11628f55a4df523b3ef610e928461143b565b60408051918252519081900360200190a350505050565b60008184841115610f385760405162461bcd60e51b81526004018080602001828103825283818151815260200191508051906020019080838360005b83811015610efd578181015183820152602001610ee5565b50505050905090810190601f168015610f2a5780820380516001836020036101000a031916815260200191505b509250505060405180910390fd5b505050900390565b600082820183811015610d2b576040805162461bcd60e51b815260206004820152601b60248201527f536166654d6174683a206164646974696f6e206f766572666c6f770000000000604482015290519081900360640190fd5b610fa2611393565b6001600160a01b038216610fe75760405162461bcd60e51b815260040180806020018281038252602e81526020018061178d602e913960400191505060405180910390fd5b6000610ff28261142d565b600a54909150611008908263ffffffff610f4016565b600a556001600160a01b038316600090815260086020526040902054611034908263ffffffff610f4016565b6001600160a01b038416600081815260086020526040812092909255907fddf252ad1be2c89b69c2b068fc378daa952ba7f163c4a11628f55a4df523b3ef61107b8461143b565b60408051918252519081900360200190a3505050565b611099611393565b6001600160a01b0382166110de5760405162461bcd60e51b815260040180806020018281038252603081526020018061188e6030913960400191505060405180910390fd5b60006110e98261142d565b905061112e816040518060600160405280603181526020016118f5603191396001600160a01b038616600090815260086020526040902054919063ffffffff610ea916565b6001600160a01b038416600090815260086020526040902055600a5461115a908263ffffffff61144916565b600a5560006001600160a01b0384167fddf252ad1be2c89b69c2b068fc378daa952ba7f163c4a11628f55a4df523b3ef61107b8461143b565b61119b611393565b6111a58282611091565b6111ad61092f565b61088457610884826111bd610bf4565b6106e284604051806060016040528060338152602001611926603391396001600160a01b0388166000908152600960205260408120906106bb610bf4565b61120c60038263ffffffff61148b16565b6040516001600160a01b038216907f6ae172837ea30b801fbfcdd4108aa1d5bf8ff775444fd70256b44e6bf3dfc3f690600090a250565b61125460038263ffffffff61150c16565b6040516001600160a01b038216907fe94479a9f7e1952cc78f2d6baab678adc1b772d936c6583def489e524cb6669290600090a250565b60006001600160a01b0382166112d25760405162461bcd60e51b81526004018080602001828103825260228152602001806117db6022913960400191505060405180910390fd5b506001600160a01b03166000908152602091909152604090205460ff1690565b6001600160a01b0381166113375760405162461bcd60e51b815260040180806020018281038252602681526020018061164a6026913960400191505060405180910390fd5b6004546040516001600160a01b038084169216907f8be0079c531659141344cd1fd0a4f28419497f9722a3daafe3b4186f6b6457e090600090a3600480546001600160a01b0319166001600160a01b0392909216919091179055565b600d54430380156107b6576113a781611426565b600b81905543600d5560408051918252517fe26ee4870433319e6f01f123f37f6f6823ff4084f5651912025d24930b01bcb69181900360200190a150565b60006b033b2e3c9fd0803ce80000006114176114018585611573565b60026b033b2e3c9fd0803ce80000005b046115d6565b8161141e57fe5b049392505050565b50600b5490565b60006107e182600b54611625565b60006107e182600b546113e5565b6000610d2b83836040518060400160405280601e81526020017f536166654d6174683a207375627472616374696f6e206f766572666c6f770000815250610ea9565b611495828261128b565b156114e7576040805162461bcd60e51b815260206004820152601f60248201527f526f6c65733a206163636f756e7420616c72656164792068617320726f6c6500604482015290519081900360640190fd5b6001600160a01b0316600090815260209190915260409020805460ff19166001179055565b611516828261128b565b6115515760405162461bcd60e51b815260040180806020018281038252602181526020018061176c6021913960400191505060405180910390fd5b6001600160a01b0316600090815260209190915260409020805460ff19169055565b600081158061158e5750508082028282828161158b57fe5b04145b6105e8576040805162461bcd60e51b815260206004820152601460248201527364732d6d6174682d6d756c2d6f766572666c6f7760601b604482015290519081900360640190fd5b808201828110156105e8576040805162461bcd60e51b815260206004820152601460248201527364732d6d6174682d6164642d6f766572666c6f7760601b604482015290519081900360640190fd5b600081611417611641856b033b2e3c9fd0803ce8000000611573565b60028561141156fe4f776e61626c653a206e6577206f776e657220697320746865207a65726f20616464726573734175746f496e6372656d656e74436f696e6167653a2064656372656173656420616c6c6f77616e63652062656c6f77207a65726f4175746f496e6372656d656e74436f696e6167653a207472616e736665722066726f6d20746865207a65726f20616464726573734175746f496e6372656d656e74436f696e6167653a20617070726f76652066726f6d20746865207a65726f20616464726573734175746f496e6372656d656e74436f696e6167653a20617070726f766520746f20746865207a65726f20616464726573734d696e746572526f6c653a2063616c6c657220646f6573206e6f74206861766520746865204d696e74657220726f6c65526f6c65733a206163636f756e7420646f6573206e6f74206861766520726f6c654175746f496e6372656d656e74436f696e6167653a206d696e7420746f20746865207a65726f20616464726573734f776e61626c653a2063616c6c6572206973206e6f7420746865206f776e6572526f6c65733a206163636f756e7420697320746865207a65726f20616464726573734175746f496e6372656d656e74436f696e6167653a207472616e7366657220746f20746865207a65726f20616464726573734175746f496e6372656d656e74436f696e6167653a207472616e7366657220616d6f756e7420657863656564732062616c616e63654175746f496e6372656d656e74436f696e6167653a207472616e73666572206e6f7420616c6c6f7765644175746f496e6372656d656e74436f696e6167653a206275726e2066726f6d20746865207a65726f20616464726573734175746f496e6372656d656e74436f696e6167653a207472616e7366657220616d6f756e74206578636565647320616c6c6f77616e63654175746f496e6372656d656e74436f696e6167653a206275726e20616d6f756e7420657863656564732062616c616e63654175746f496e6372656d656e74436f696e6167653a206275726e20616d6f756e74206578636565647320616c6c6f77616e6365a265627a7a72315820dc01600300609de32aeb9ec53d522a0a03f3e0e4a68d0ed49e5bd528ee2af87c64736f6c634300050c0032526f6c65733a206163636f756e7420697320746865207a65726f2061646472657373526f6c65733a206163636f756e7420697320746865207a65726f2061646472657373",
  "source": "pragma solidity ^0.5.12;\n\nimport { Ownable } from \"../../../node_modules/openzeppelin-solidity/contracts/ownership/Ownable.sol\";\nimport { Pausable } from \"../../../node_modules/openzeppelin-solidity/contracts/lifecycle/Pausable.sol\";\nimport { SafeMath } from \"../../../node_modules/openzeppelin-solidity/contracts/math/SafeMath.sol\";\nimport { ERC20Mintable } from \"../../../node_modules/openzeppelin-solidity/contracts/token/ERC20/ERC20Mintable.sol\";\nimport { IERC20 } from \"../../../node_modules/openzeppelin-solidity/contracts/token/ERC20/IERC20.sol\";\nimport { SafeERC20 } from \"../../../node_modules/openzeppelin-solidity/contracts/token/ERC20/SafeERC20.sol\";\n\nimport { DSMath } from \"../../../node_modules/coinage-token/contracts/lib/DSMath.sol\";\nimport { CustomIncrementCoinageMock } from \"../../../node_modules/coinage-token/flatten.sol\";\nimport { CoinageFactoryI } from \"../interfaces/CoinageFactoryI.sol\";\n\nimport { AuthController } from \"../tokens/AuthController.sol\";\nimport { ChallengerRole } from \"../../roles/ChallengerRole.sol\";\n\nimport { RootChainI } from \"../../RootChainI.sol\";\n\nimport { SeigManagerI } from \"../interfaces/SeigManagerI.sol\";\nimport { RootChainRegistryI } from \"../interfaces/RootChainRegistryI.sol\";\nimport { DepositManagerI } from \"../interfaces/DepositManagerI.sol\";\nimport { PowerTONI } from \"../interfaces/PowerTONI.sol\";\n\n\n\n/**\n * @dev SeigManager gives seigniorage to operator and WTON holders.\n * For each commit by operator, operator (or user) will get seigniorage\n * in propotion to the staked (or delegated) amount of WTON.\n *\n * [Tokens]\n * - {tot} tracks total staked or delegated WTON of each RootChain contract (and depositor?).\n * - {coinages[rootchain]} tracks staked or delegated WTON of user or operator to a RootChain contract.\n *\n * For each commit by operator,\n *  1. increases all root chains' balance of {tot} by (the staked amount of WTON) /\n *     (total supply of TON and WTON) * (num blocks * seigniorage per block).\n *  2. increases all depositors' blanace of {coinages[rootchain]} in proportion to the staked amount of WTON,\n *     up to the increased amount in step (1).\n *  3. set the root chain's balance of {committed} as the root chain's {tot} balance.\n *\n * For each stake or delegate with amount of {v} to a RootChain,\n *  1. mint {v} {coinages[rootchain]} tokens to the account\n *  2. mint {v} {tot} tokens to the root chain contract\n *\n * For each unstake or undelegate (or get rewards) with amount of {v} to a RootChain,\n *  1. burn {v} {coinages[rootchain]} tokens from the account\n *  2. burn {v + } {tot} tokens from the root chain contract,\n *   where  = SEIGS * staked ratio of the root chian * withdrawal ratio of the account\n *     - SEIGS                              = tot total supply - tot total supply at last commit from the root chain\n *     - staked ratio of the root chian     = tot balance of the root chain / tot total supply\n *     - withdrawal ratio of the account  = amount to withdraw / total supply of coinage\n *\n */\ncontract SeigManager is SeigManagerI, DSMath, Ownable, Pausable, AuthController, ChallengerRole {\n  using SafeMath for uint256;\n  using SafeERC20 for ERC20Mintable;\n\n  //////////////////////////////\n  // Common contracts\n  //////////////////////////////\n\n  RootChainRegistryI internal _registry;\n  DepositManagerI internal _depositManager;\n  PowerTONI internal _powerton;\n  address public _dao;\n\n  //////////////////////////////\n  // Token-related\n  //////////////////////////////\n\n  // TON token contract\n  IERC20 internal _ton;\n\n  // WTON token contract\n  ERC20Mintable internal _wton; // TODO: use mintable erc20!\n\n  // contract factory\n  CoinageFactoryI public factory;\n\n  // track total deposits of each root chain.\n  CustomIncrementCoinageMock internal _tot;\n\n  // coinage token for each root chain.\n  mapping (address => CustomIncrementCoinageMock) internal _coinages;\n\n  // last commit block number for each root chain.\n  mapping (address => uint256) internal _lastCommitBlock;\n\n  // total seigniorage per block\n  uint256 internal _seigPerBlock;\n\n  // the block number when seigniorages are given\n  uint256 internal _lastSeigBlock;\n\n  // block number when paused or unpaused\n  uint256 internal _pausedBlock;\n  uint256 internal _unpausedBlock;\n\n  // global minimum withdrawal period\n  //uint256 public globalMinimumWithdrawalPeriod;\n\n  // minimum withdrawal period\n  //mapping (address => uint256) public minimumWithdrawalPeriod;\n\n  // commission rates in RAY\n  mapping (address => uint256) internal _commissionRates;\n\n  // whether commission is negative or not (default=possitive)\n  mapping (address => bool) internal _isCommissionRateNegative;\n\n  // setting commissionrate delay\n  uint256 public adjustCommissionDelay;\n  mapping (address => uint256) delayedCommissionBlock;\n  mapping (address => uint256) delayedCommissionRate;\n  mapping (address => bool) delayedCommissionRateNegative;\n\n  // minimum deposit amount\n  uint256 public minimumAmount;\n\n  uint256 public powerTONSeigRate;\n  uint256 public daoSeigRate;\n  uint256 public relativeSeigRate;\n\n  uint256 public accRelativeSeig;\n\n  //////////////////////////////\n  // Constants\n  //////////////////////////////\n\n  uint256 constant public RAY = 10 ** 27; // 1 RAY\n  uint256 constant internal _DEFAULT_FACTOR = RAY;\n\n  uint256 constant public MAX_VALID_COMMISSION = RAY; // 1 RAY\n  uint256 constant public MIN_VALID_COMMISSION = 10 ** 25; // 0.01 RAY\n\n  //////////////////////////////\n  // Modifiers\n  //////////////////////////////\n\n  modifier onlyRegistry() {\n    require(msg.sender == address(_registry));\n    _;\n  }\n\n  modifier onlyRegistryOrOperator(address rootchain) {\n    require(msg.sender == address(_registry) || msg.sender == RootChainI(rootchain).operator());\n    _;\n  }\n\n  modifier onlyDepositManager() {\n    require(msg.sender == address(_depositManager));\n    _;\n  }\n\n  modifier onlyRootChain(address rootchain) {\n    require(_registry.rootchains(rootchain));\n    _;\n  }\n\n  modifier checkCoinage(address rootchain) {\n    require(address(_coinages[rootchain]) != address(0), \"SeigManager: coinage has not been deployed yet\");\n    _;\n  }\n\n  //////////////////////////////\n  // Events\n  //////////////////////////////\n\n  event CoinageCreated(address indexed rootchain, address coinage);\n  event SeigGiven(address indexed rootchain, uint256 totalSeig, uint256 stakedSeig, uint256 unstakedSeig, uint256 powertonSeig);\n  event Comitted(address indexed rootchain);\n  event CommissionRateSet(address indexed rootchain, uint256 previousRate, uint256 newRate);\n\n  //////////////////////////////\n  // Constuctor\n  //////////////////////////////\n\n  constructor (\n    ERC20Mintable ton,\n    ERC20Mintable wton,\n    RootChainRegistryI registry,\n    DepositManagerI depositManager,\n    uint256 seigPerBlock\n  ) public {\n    _ton = ton;\n    _wton = wton;\n    _registry = registry;\n    _depositManager = depositManager;\n    _seigPerBlock = seigPerBlock;\n\n    _tot = new CustomIncrementCoinageMock(\n      \"\",\n      \"\",\n      _DEFAULT_FACTOR,\n      false\n    );\n    //_tot = CustomIncrementCoinageMock(factory.deploy());\n\n    _lastSeigBlock = block.number;\n  }\n\n  //////////////////////////////\n  // Override Pausable\n  //////////////////////////////\n\n  function pause() public onlyPauser whenNotPaused {\n    _pausedBlock = block.number;\n    super.pause();\n  }\n\n  /**\n   * @dev Called by a pauser to unpause, returns to normal state.\n   */\n  function unpause() public onlyPauser whenPaused {\n    _unpausedBlock = block.number;\n    super.unpause();\n  }\n\n  //////////////////////////////\n  // External functions\n  //////////////////////////////\n\n  /**\n   * @dev set PowerTON contract, only by owner.\n   */\n  function setPowerTON(PowerTONI powerton) external onlyOwner {\n    _powerton = powerton;\n  }\n\n  function setDao(address daoAddress) external onlyOwner {\n    _dao = daoAddress;\n  }\n\n  /**\n   * @dev deploy coinage token for the root chain.\n   */\n  function deployCoinage(address rootchain) external onlyRegistry returns (bool) {\n    // create new coinage token for the root chain contract\n    if (address(_coinages[rootchain]) == address(0)) {\n      /*_coinages[rootchain] = new CustomIncrementCoinageMock(\n        \"\",\n        \"\",\n        _DEFAULT_FACTOR,\n        false\n      );*/\n      address c = factory.deploy();\n      _lastCommitBlock[rootchain] = block.number;\n      addChallenger(c);\n      _coinages[rootchain] = CustomIncrementCoinageMock(c);\n      emit CoinageCreated(rootchain, c);\n    }\n\n    return true;\n  }\n\n  function setCommissionRate(\n    address rootchain,\n    uint256 commissionRate,\n    bool isCommissionRateNegative\n  )\n    external\n    onlyRegistryOrOperator(rootchain)\n    returns (bool)\n  {\n    // check commission range\n    require(\n      (commissionRate == 0) ||\n      (MIN_VALID_COMMISSION <= commissionRate && commissionRate <= MAX_VALID_COMMISSION),\n      \"SeigManager: commission rate must be 0 or between 1 RAY and 0.01 RAY\"\n    );\n\n    uint256 previous = _commissionRates[rootchain];\n    if (adjustCommissionDelay == 0) {\n      _commissionRates[rootchain] = commissionRate;\n      _isCommissionRateNegative[rootchain] = isCommissionRateNegative;\n    } else {\n      delayedCommissionBlock[rootchain] = block.number + adjustCommissionDelay;\n      delayedCommissionRate[rootchain] = commissionRate;\n      delayedCommissionRateNegative[rootchain] = isCommissionRateNegative;\n    }\n\n    emit CommissionRateSet(rootchain, previous, commissionRate);\n\n    return true;\n  }\n\n  /**\n   * @dev Callback for a new commit\n   */\n  function updateSeigniorage()\n    external\n    checkCoinage(msg.sender)\n    returns (bool)\n  {\n    // short circuit if paused\n    if (paused()) {\n      return true;\n    }\n\n    _increaseTot();\n\n    _lastCommitBlock[msg.sender] = block.number;\n\n    // 2. increase total supply of {coinages[rootchain]}\n    CustomIncrementCoinageMock coinage = _coinages[msg.sender];\n\n    uint256 prevTotalSupply = coinage.totalSupply();\n    uint256 nextTotalSupply = _tot.balanceOf(msg.sender);\n\n    // short circuit if there is no seigs for the root chain\n    if (prevTotalSupply >= nextTotalSupply) {\n      emit Comitted(msg.sender);\n      return true;\n    }\n\n    uint256 seigs = nextTotalSupply - prevTotalSupply;\n    address operator = RootChainI(msg.sender).operator();\n    uint256 operatorSeigs;\n\n    // calculate commission amount\n    bool isCommissionRateNegative = _isCommissionRateNegative[msg.sender];\n\n    (nextTotalSupply, operatorSeigs) = _calcSeigsDistribution(\n      msg.sender,\n      coinage,\n      prevTotalSupply,\n      seigs,\n      isCommissionRateNegative,\n      operator\n    );\n\n    // gives seigniorages to the root chain as coinage\n    coinage.setFactor(\n      _calcNewFactor(\n        prevTotalSupply,\n        nextTotalSupply,\n        coinage.factor()\n      )\n    );\n\n    // give commission to operator or delegators\n    if (operatorSeigs != 0) {\n      if (isCommissionRateNegative) {\n        // TODO: adjust arithmetic error\n        // burn by \n        coinage.burnFrom(operator, operatorSeigs);\n      } else {\n        coinage.mint(operator, operatorSeigs);\n      }\n    }\n\n    _wton.mint(address(_depositManager), seigs);\n\n    emit Comitted(msg.sender);\n\n    return true;\n  }\n\n  function _calcSeigsDistribution(\n    address rootchain,\n    CustomIncrementCoinageMock coinage,\n    uint256 prevTotalSupply,\n    uint256 seigs,\n    bool isCommissionRateNegative,\n    address operator\n  ) internal returns (\n    uint256 nextTotalSupply,\n    uint256 operatorSeigs\n  ) {\n    if (block.number >= delayedCommissionBlock[rootchain] && delayedCommissionBlock[rootchain] != 0) {\n      _commissionRates[rootchain] = delayedCommissionRate[rootchain];\n      _isCommissionRateNegative[rootchain] = delayedCommissionRateNegative[rootchain];\n      delayedCommissionBlock[rootchain] = 0;\n    }\n\n    uint256 commissionRate = _commissionRates[msg.sender];\n\n    nextTotalSupply = prevTotalSupply + seigs;\n\n    // short circuit if there is no commission rate\n    if (commissionRate == 0) {\n      return (nextTotalSupply, operatorSeigs);\n    }\n\n    // if commission rate is possitive\n    if (!isCommissionRateNegative) {\n      operatorSeigs = rmul(seigs, commissionRate); // additional seig for operator\n      nextTotalSupply = nextTotalSupply.sub(operatorSeigs);\n      return (nextTotalSupply, operatorSeigs);\n    }\n\n    // short circuit if there is no previous total deposit (meanning, there is no deposit)\n    if (prevTotalSupply == 0) {\n      return (nextTotalSupply, operatorSeigs);\n    }\n\n    // See negative commission distribution formular here: TBD\n    uint256 operatorBalance = coinage.balanceOf(operator);\n\n    // short circuit if there is no operator deposit\n    if (operatorBalance == 0) {\n      return (nextTotalSupply, operatorSeigs);\n    }\n\n    uint256 operatorRate = rdiv(operatorBalance, prevTotalSupply);\n\n    // : insufficient seig for operator\n    operatorSeigs = rmul(\n      rmul(seigs, operatorRate), // seigs for operator\n      commissionRate\n    );\n\n    // :\n    uint256 delegatorSeigs = operatorRate == RAY\n      ? operatorSeigs\n      : rdiv(operatorSeigs, RAY - operatorRate);\n\n    // :\n    operatorSeigs = operatorRate == RAY\n      ? operatorSeigs\n      : operatorSeigs + rmul(delegatorSeigs, operatorRate);\n\n    nextTotalSupply = nextTotalSupply.add(delegatorSeigs);\n\n    return (nextTotalSupply, operatorSeigs);\n  }\n\n  function _calcSlashFactor(\n    CustomIncrementCoinageMock coinage,\n    uint256 slashAmount\n  ) internal returns (uint256) {\n    uint256 prevTotalSupply = coinage.totalSupply();\n    uint256 newFactor = rdiv(prevTotalSupply.sub(slashAmount), prevTotalSupply.div(coinage.factor()));\n    return newFactor;\n  }\n\n  /**\n   * @dev Callback for a token transfer\n   */\n  function onTransfer(address sender, address recipient, uint256 amount) external returns (bool) {\n    require(msg.sender == address(_ton) || msg.sender == address(_wton),\n      \"SeigManager: only TON or WTON can call onTransfer\");\n\n    if (!paused()) {\n      _increaseTot();\n    }\n\n    return true;\n  }\n\n  /**\n   * @dev Callback for a new deposit\n   */\n  function onDeposit(address rootchain, address account, uint256 amount)\n    external\n    onlyDepositManager\n    checkCoinage(rootchain)\n    returns (bool)\n  {\n    if (_isOperator(rootchain, account)) {\n      uint256 newAmount = _coinages[rootchain].balanceOf(account).add(amount);\n      require(newAmount >= minimumAmount, \"minimum amount is required\");\n    }\n    _tot.mint(rootchain, amount);\n    _coinages[rootchain].mint(account, amount);\n    if (address(_powerton) != address(0)) {\n      _powerton.onDeposit(rootchain, account, amount);\n    }\n    return true;\n  }\n\n  // DEV ONLY\n  event UnstakeLog(uint coinageBurnAmount, uint totBurnAmount);\n\n  function onWithdraw(address rootchain, address account, uint256 amount)\n    external\n    onlyDepositManager\n    checkCoinage(rootchain)\n    returns (bool)\n  {\n    require(_coinages[rootchain].balanceOf(account) >= amount, \"SeigManager: insufficiant balance to unstake\");\n\n    if (_isOperator(rootchain, account)) {\n      uint256 newAmount = _coinages[rootchain].balanceOf(account).sub(amount);\n      require(newAmount >= minimumAmount, \"minimum amount is required\");\n    }\n\n    // burn {v + } {tot} tokens to the root chain contract,\n    uint256 totAmount = _additionalTotBurnAmount(rootchain, account, amount);\n    _tot.burnFrom(rootchain, amount.add(totAmount));\n\n    // burn {v} {coinages[rootchain]} tokens to the account\n    _coinages[rootchain].burnFrom(account, amount);\n\n    if (address(_powerton) != address(0)) {\n      _powerton.onWithdraw(rootchain, account, amount);\n    }\n\n    emit UnstakeLog(amount, totAmount);\n\n    return true;\n  }\n\n  /*function setGlobalMinimumWithdrawalPeriod(uint256 minimumWithdrawalPeriod) external onlyOwner {\n    globalMinimumWithdrawalPeriod = minimumWithdrawalPeriod;\n  }*/\n\n  /*function setMinimumWithdrawalPeriod(uint256 minimumWithdrawalPeriod_) external onlyOwner {\n    minimumWithdrawalPeriod = minimumWithdrawalPeriod_;\n  }*/\n\n  function setPowerTONSeigRate(uint256 powerTONSeigRate_) external onlyOwner {\n    require(powerTONSeigRate_ > 0 && powerTONSeigRate_ < RAY, \"exceeded seigniorage rate\");\n    powerTONSeigRate = powerTONSeigRate_;\n  }\n\n  function setDaoSeigRate(uint256 daoSeigRate_) external onlyOwner {\n    require(daoSeigRate_ > 0 && daoSeigRate_ < RAY, \"exceeded seigniorage rate\");\n    daoSeigRate = daoSeigRate_;\n  }\n\n  function setPseigRate(uint256 PseigRate_) external onlyOwner {\n    require(PseigRate_ > 0 && PseigRate_ < RAY, \"exceeded seigniorage rate\");\n    relativeSeigRate = PseigRate_;\n  }\n\n  function setCoinageFactory(address factory_) external onlyOwner {\n    factory = CoinageFactoryI(factory_);\n  }\n\n  function addChallenger(address account) public onlyRegistry {\n    _addChallenger(account);\n  }\n\n  function slash(address rootchain, address challenger) external onlyChallenger returns (bool) {\n    RootChainI(rootchain).changeOperator(challenger);\n\n    return true;\n  }\n\n  function additionalTotBurnAmount(address rootchain, address account, uint256 amount)\n    external\n    view\n    returns (uint256 totAmount)\n  {\n    return _additionalTotBurnAmount(rootchain, account, amount);\n  }\n\n  // return , where  = (tot.balanceOf(rootchain) - coinages[rootchain].totalSupply()) * (amount / coinages[rootchain].totalSupply())\n  function _additionalTotBurnAmount(address rootchain, address account, uint256 amount)\n    internal\n    view\n    returns (uint256 totAmount)\n  {\n    uint256 coinageTotalSupply = _coinages[rootchain].totalSupply();\n    uint256 totBalalnce = _tot.balanceOf(rootchain);\n\n    // NOTE: arithamtic operations (mul and div) make some errors, so we gonna adjust them under 1e-9 WTON.\n    //       note that coinageTotalSupply and totBalalnce are RAY values.\n    if (coinageTotalSupply > totBalalnce && coinageTotalSupply - totBalalnce < WAD) {\n      return 0;\n    }\n\n    return rdiv(\n      rmul(\n        totBalalnce.sub(coinageTotalSupply),\n        amount\n      ),\n      coinageTotalSupply\n    );\n  }\n\n  function setAdjustDelay(uint256 adjustDelay_) external onlyOwner {\n    adjustCommissionDelay = adjustDelay_;\n  }\n\n  function setMinimumAmount(uint256 minimumAmount_) external onlyOwner {\n    minimumAmount = minimumAmount_;\n  }\n\n  //////////////////////////////\n  // Public and internal functions\n  //////////////////////////////\n\n  function uncomittedStakeOf(address rootchain, address account) external view returns (uint256) {\n    CustomIncrementCoinageMock coinage = _coinages[rootchain];\n\n    uint256 prevFactor = coinage.factor();\n    uint256 prevTotalSupply = coinage.totalSupply();\n    uint256 nextTotalSupply = _tot.balanceOf(rootchain);\n    uint256 newFactor = _calcNewFactor(prevTotalSupply, nextTotalSupply, prevFactor);\n\n    uint256 uncomittedBalance = rmul(\n      rdiv(coinage.balanceOf(account), prevFactor),\n      newFactor\n    );\n\n    return uncomittedBalance\n      .sub(_coinages[rootchain].balanceOf(account));\n  }\n\n  function stakeOf(address rootchain, address account) external view returns (uint256) {\n    return _coinages[rootchain].balanceOf(account);\n  }\n\n  function _calcNewFactor(uint256 source, uint256 target, uint256 oldFactor) internal pure returns (uint256) {\n    return rdiv(rmul(target, oldFactor), source);\n  }\n\n  // DEV ONLY\n  event CommitLog1(uint256 totalStakedAmount, uint256 totalSupplyOfWTON, uint256 prevTotalSupply, uint256 nextTotalSupply);\n\n  function _increaseTot() internal returns (bool) {\n    // short circuit if already seigniorage is given.\n    if (block.number == _lastSeigBlock) {\n      return false;\n    }\n\n    if (_tot.totalSupply() == 0) {\n      _lastSeigBlock = block.number;\n      return false;\n    }\n\n    uint256 prevTotalSupply;\n    uint256 nextTotalSupply;\n\n    // 1. increase total supply of {tot} by maximum seigniorages * staked rate\n    //    staked rate = total staked amount / total supply of (W)TON\n\n    prevTotalSupply = _tot.totalSupply();\n\n    // maximum seigniorages\n    uint256 maxSeig = _calcNumSeigBlocks().mul(_seigPerBlock);\n\n    // total supply of (W)TON\n    uint256 tos = _ton.totalSupply()\n      .sub(_ton.balanceOf(address(_wton)))\n      .mul(10 ** 9)                                       // convert TON total supply into ray\n      .add(_wton.totalSupply())                           // add WTON total supply\n      .add(_tot.totalSupply()).sub(_wton.totalSupply());  // consider additional TOT balance as total supply\n\n    // maximum seigniorages * staked rate\n    uint256 stakedSeig = rdiv(\n      rmul(\n        maxSeig,\n        // total staked amount\n        _tot.totalSupply()\n      ),\n      tos\n    );\n    //uint256 stakedSeig = rmul(maxSeig, RAY.sub(powerTONSeigRate).sub(daoSeigRate));\n\n    // pseig\n    uint256 totalPseig = rmul(maxSeig.sub(stakedSeig), relativeSeigRate);\n\n    nextTotalSupply = prevTotalSupply.add(stakedSeig).add(totalPseig);\n    _lastSeigBlock = block.number;\n\n    _tot.setFactor(_calcNewFactor(prevTotalSupply, nextTotalSupply, _tot.factor()));\n\n    // TODO: reduce computation\n    // DEV ONLY\n    emit CommitLog1(\n      _tot.totalSupply(),\n      tos,\n      prevTotalSupply,\n      nextTotalSupply\n    );\n\n    uint256 unstakedSeig = maxSeig.sub(stakedSeig);\n    uint256 powertonSeig;\n    uint256 daoSeig;\n    uint256 relativeSeig;\n\n    if (address(_powerton) != address(0)) {\n      powertonSeig = unstakedSeig.mul(powerTONSeigRate).div(RAY);\n\n      _wton.mint(address(_powerton), powertonSeig);\n    }\n\n    if (_dao != address(0)) {\n      //daoSeig = unstakedSeig.mul(_factorDao).div(_DEFAULT_FACTOR);\n      daoSeig = unstakedSeig.mul(daoSeigRate).div(RAY);\n      _wton.mint(address(_dao), daoSeig);\n    }\n\n    if (relativeSeigRate != 0) {\n      relativeSeig = unstakedSeig.mul(relativeSeigRate).div(RAY);\n      accRelativeSeig = accRelativeSeig.add(relativeSeig);\n    }\n\n    require(powertonSeig.add(daoSeig).add(relativeSeig) <= unstakedSeig, \"powerton seig + dao seig exceeded unstaked amount\");\n\n    emit SeigGiven(msg.sender, maxSeig, stakedSeig, unstakedSeig, powertonSeig);\n\n    return true;\n  }\n\n  function _calcNumSeigBlocks() internal view returns (uint256) {\n    require(!paused());\n\n    uint256 span = block.number - _lastSeigBlock;\n    if (_unpausedBlock < _lastSeigBlock) {\n      return span;\n    }\n\n    return span - (_unpausedBlock - _pausedBlock);\n  }\n\n  function _isOperator(address rootchain, address operator) internal view returns (bool) {\n    return operator == RootChainI(rootchain).operator();\n  }\n\n  //////////////////////////////\n  // Storage getters\n  //////////////////////////////\n\n  // solium-disable\n  function registry() external view returns (address) { return address(_registry); }\n  function depositManager() external view returns (address) { return address(_depositManager); }\n  function ton() external view returns (address) { return address(_ton); }\n  function wton() external view returns (address) { return address(_wton); }\n  function powerton() external view returns (address) { return address(_powerton); }\n  function tot() external view returns (address) { return address(_tot); }\n  function coinages(address rootchain) external view returns (address) { return address(_coinages[rootchain]); }\n  function commissionRates(address rootchain) external view returns (uint256) { return _commissionRates[rootchain]; }\n  function isCommissionRateNegative(address rootchain) external view returns (bool) { return _isCommissionRateNegative[rootchain]; }\n\n  function lastCommitBlock(address rootchain) external view returns (uint256) { return _lastCommitBlock[rootchain]; }\n  function seigPerBlock() external view returns (uint256) { return _seigPerBlock; }\n  function lastSeigBlock() external view returns (uint256) { return _lastSeigBlock; }\n  function pausedBlock() external view returns (uint256) { return _pausedBlock; }\n  function unpausedBlock() external view returns (uint256) { return _unpausedBlock; }\n\n  function DEFAULT_FACTOR() external view returns (uint256) { return _DEFAULT_FACTOR; }\n  // solium-enable\n\n}\n",
  "sourcePath": "/home/modagi/github/onther/plasma-evm-contracts/contracts/stake/managers/SeigManager.sol",
  "compiler": {
    "name": "solc",
    "version": "0.5.12+commit.7709ece9.Emscripten.clang"
  },
  "schemaVersion": "3.2.0",
  "updatedAt": "2020-09-06T07:04:17.464Z",
  "devdoc": {
    "details": "SeigManager gives seigniorage to operator and WTON holders. For each commit by operator, operator (or user) will get seigniorage in propotion to the staked (or delegated) amount of WTON. * [Tokens] - {tot} tracks total staked or delegated WTON of each RootChain contract (and depositor?). - {coinages[rootchain]} tracks staked or delegated WTON of user or operator to a RootChain contract. * For each commit by operator, 1. increases all root chains' balance of {tot} by (the staked amount of WTON) /    (total supply of TON and WTON) * (num blocks * seigniorage per block). 2. increases all depositors' blanace of {coinages[rootchain]} in proportion to the staked amount of WTON,    up to the increased amount in step (1). 3. set the root chain's balance of {committed} as the root chain's {tot} balance. * For each stake or delegate with amount of {v} to a RootChain, 1. mint {v} {coinages[rootchain]} tokens to the account 2. mint {v} {tot} tokens to the root chain contract * For each unstake or undelegate (or get rewards) with amount of {v} to a RootChain, 1. burn {v} {coinages[rootchain]} tokens from the account 2. burn {v + } {tot} tokens from the root chain contract,  where  = SEIGS * staked ratio of the root chian * withdrawal ratio of the account    - SEIGS                              = tot total supply - tot total supply at last commit from the root chain    - staked ratio of the root chian     = tot balance of the root chain / tot total supply    - withdrawal ratio of the account  = amount to withdraw / total supply of coinage ",
    "methods": {
      "deployCoinage(address)": {
        "details": "deploy coinage token for the root chain."
      },
      "isOwner()": {
        "details": "Returns true if the caller is the current owner."
      },
      "onDeposit(address,address,uint256)": {
        "details": "Callback for a new deposit"
      },
      "onTransfer(address,address,uint256)": {
        "details": "Callback for a token transfer"
      },
      "owner()": {
        "details": "Returns the address of the current owner."
      },
      "paused()": {
        "details": "Returns true if the contract is paused, and false otherwise."
      },
      "renounceOwnership()": {
        "details": "Leaves the contract without owner. It will not be possible to call `onlyOwner` functions anymore. Can only be called by the current owner.     * NOTE: Renouncing ownership will leave the contract without an owner, thereby removing any functionality that is only available to the owner."
      },
      "setPowerTON(address)": {
        "details": "set PowerTON contract, only by owner."
      },
      "transferOwnership(address)": {
        "details": "Transfers ownership of the contract to a new account (`newOwner`). Can only be called by the current owner."
      },
      "unpause()": {
        "details": "Called by a pauser to unpause, returns to normal state."
      },
      "updateSeigniorage()": {
        "details": "Callback for a new commit"
      }
    }
  },
  "userdoc": {
    "methods": {
      "constructor": "///////////////////////////",
      "pause()": {
        "notice": "///////////////////////////"
      },
      "registry()": {
        "notice": "///////////////////////////"
      },
      "uncomittedStakeOf(address,address)": {
        "notice": "///////////////////////////"
      }
    }
  }
}