{
  "contractName": "SeigManager",
  "abi": [
    {
      "inputs": [
        {
          "internalType": "contract ERC20Mintable",
          "name": "ton",
          "type": "address"
        },
        {
          "internalType": "contract ERC20Mintable",
          "name": "wton",
          "type": "address"
        },
        {
          "internalType": "contract Layer2RegistryI",
          "name": "registry",
          "type": "address"
        },
        {
          "internalType": "contract DepositManagerI",
          "name": "depositManager",
          "type": "address"
        },
        {
          "internalType": "uint256",
          "name": "seigPerBlock",
          "type": "uint256"
        },
        {
          "internalType": "address",
          "name": "factory_",
          "type": "address"
        }
      ],
      "payable": false,
      "stateMutability": "nonpayable",
      "type": "constructor"
    },
    {
      "anonymous": false,
      "inputs": [
        {
          "indexed": true,
          "internalType": "address",
          "name": "account",
          "type": "address"
        }
      ],
      "name": "ChallengerAdded",
      "type": "event"
    },
    {
      "anonymous": false,
      "inputs": [
        {
          "indexed": true,
          "internalType": "address",
          "name": "account",
          "type": "address"
        }
      ],
      "name": "ChallengerRemoved",
      "type": "event"
    },
    {
      "anonymous": false,
      "inputs": [
        {
          "indexed": true,
          "internalType": "address",
          "name": "layer2",
          "type": "address"
        },
        {
          "indexed": false,
          "internalType": "address",
          "name": "coinage",
          "type": "address"
        }
      ],
      "name": "CoinageCreated",
      "type": "event"
    },
    {
      "anonymous": false,
      "inputs": [
        {
          "indexed": true,
          "internalType": "address",
          "name": "layer2",
          "type": "address"
        }
      ],
      "name": "Comitted",
      "type": "event"
    },
    {
      "anonymous": false,
      "inputs": [
        {
          "indexed": true,
          "internalType": "address",
          "name": "layer2",
          "type": "address"
        },
        {
          "indexed": false,
          "internalType": "uint256",
          "name": "previousRate",
          "type": "uint256"
        },
        {
          "indexed": false,
          "internalType": "uint256",
          "name": "newRate",
          "type": "uint256"
        }
      ],
      "name": "CommissionRateSet",
      "type": "event"
    },
    {
      "anonymous": false,
      "inputs": [
        {
          "indexed": false,
          "internalType": "uint256",
          "name": "totalStakedAmount",
          "type": "uint256"
        },
        {
          "indexed": false,
          "internalType": "uint256",
          "name": "totalSupplyOfWTON",
          "type": "uint256"
        },
        {
          "indexed": false,
          "internalType": "uint256",
          "name": "prevTotalSupply",
          "type": "uint256"
        },
        {
          "indexed": false,
          "internalType": "uint256",
          "name": "nextTotalSupply",
          "type": "uint256"
        }
      ],
      "name": "CommitLog1",
      "type": "event"
    },
    {
      "anonymous": false,
      "inputs": [
        {
          "indexed": true,
          "internalType": "address",
          "name": "previousOwner",
          "type": "address"
        },
        {
          "indexed": true,
          "internalType": "address",
          "name": "newOwner",
          "type": "address"
        }
      ],
      "name": "OwnershipTransferred",
      "type": "event"
    },
    {
      "anonymous": false,
      "inputs": [
        {
          "indexed": false,
          "internalType": "address",
          "name": "account",
          "type": "address"
        }
      ],
      "name": "Paused",
      "type": "event"
    },
    {
      "anonymous": false,
      "inputs": [
        {
          "indexed": true,
          "internalType": "address",
          "name": "account",
          "type": "address"
        }
      ],
      "name": "PauserAdded",
      "type": "event"
    },
    {
      "anonymous": false,
      "inputs": [
        {
          "indexed": true,
          "internalType": "address",
          "name": "account",
          "type": "address"
        }
      ],
      "name": "PauserRemoved",
      "type": "event"
    },
    {
      "anonymous": false,
      "inputs": [
        {
          "indexed": true,
          "internalType": "address",
          "name": "layer2",
          "type": "address"
        },
        {
          "indexed": false,
          "internalType": "uint256",
          "name": "totalSeig",
          "type": "uint256"
        },
        {
          "indexed": false,
          "internalType": "uint256",
          "name": "stakedSeig",
          "type": "uint256"
        },
        {
          "indexed": false,
          "internalType": "uint256",
          "name": "unstakedSeig",
          "type": "uint256"
        },
        {
          "indexed": false,
          "internalType": "uint256",
          "name": "powertonSeig",
          "type": "uint256"
        },
        {
          "indexed": false,
          "internalType": "uint256",
          "name": "pseig",
          "type": "uint256"
        }
      ],
      "name": "SeigGiven",
      "type": "event"
    },
    {
      "anonymous": false,
      "inputs": [
        {
          "indexed": false,
          "internalType": "address",
          "name": "account",
          "type": "address"
        }
      ],
      "name": "Unpaused",
      "type": "event"
    },
    {
      "anonymous": false,
      "inputs": [
        {
          "indexed": false,
          "internalType": "uint256",
          "name": "coinageBurnAmount",
          "type": "uint256"
        },
        {
          "indexed": false,
          "internalType": "uint256",
          "name": "totBurnAmount",
          "type": "uint256"
        }
      ],
      "name": "UnstakeLog",
      "type": "event"
    },
    {
      "constant": true,
      "inputs": [],
      "name": "MAX_VALID_COMMISSION",
      "outputs": [
        {
          "internalType": "uint256",
          "name": "",
          "type": "uint256"
        }
      ],
      "payable": false,
      "stateMutability": "view",
      "type": "function"
    },
    {
      "constant": true,
      "inputs": [],
      "name": "MIN_VALID_COMMISSION",
      "outputs": [
        {
          "internalType": "uint256",
          "name": "",
          "type": "uint256"
        }
      ],
      "payable": false,
      "stateMutability": "view",
      "type": "function"
    },
    {
      "constant": true,
      "inputs": [],
      "name": "RAY",
      "outputs": [
        {
          "internalType": "uint256",
          "name": "",
          "type": "uint256"
        }
      ],
      "payable": false,
      "stateMutability": "view",
      "type": "function"
    },
    {
      "constant": true,
      "inputs": [],
      "name": "_dao",
      "outputs": [
        {
          "internalType": "address",
          "name": "",
          "type": "address"
        }
      ],
      "payable": false,
      "stateMutability": "view",
      "type": "function"
    },
    {
      "constant": true,
      "inputs": [],
      "name": "accRelativeSeig",
      "outputs": [
        {
          "internalType": "uint256",
          "name": "",
          "type": "uint256"
        }
      ],
      "payable": false,
      "stateMutability": "view",
      "type": "function"
    },
    {
      "constant": false,
      "inputs": [
        {
          "internalType": "address",
          "name": "account",
          "type": "address"
        }
      ],
      "name": "addPauser",
      "outputs": [],
      "payable": false,
      "stateMutability": "nonpayable",
      "type": "function"
    },
    {
      "constant": true,
      "inputs": [],
      "name": "adjustCommissionDelay",
      "outputs": [
        {
          "internalType": "uint256",
          "name": "",
          "type": "uint256"
        }
      ],
      "payable": false,
      "stateMutability": "view",
      "type": "function"
    },
    {
      "constant": true,
      "inputs": [],
      "name": "daoSeigRate",
      "outputs": [
        {
          "internalType": "uint256",
          "name": "",
          "type": "uint256"
        }
      ],
      "payable": false,
      "stateMutability": "view",
      "type": "function"
    },
    {
      "constant": true,
      "inputs": [
        {
          "internalType": "address",
          "name": "",
          "type": "address"
        }
      ],
      "name": "delayedCommissionBlock",
      "outputs": [
        {
          "internalType": "uint256",
          "name": "",
          "type": "uint256"
        }
      ],
      "payable": false,
      "stateMutability": "view",
      "type": "function"
    },
    {
      "constant": true,
      "inputs": [
        {
          "internalType": "address",
          "name": "",
          "type": "address"
        }
      ],
      "name": "delayedCommissionRate",
      "outputs": [
        {
          "internalType": "uint256",
          "name": "",
          "type": "uint256"
        }
      ],
      "payable": false,
      "stateMutability": "view",
      "type": "function"
    },
    {
      "constant": true,
      "inputs": [
        {
          "internalType": "address",
          "name": "",
          "type": "address"
        }
      ],
      "name": "delayedCommissionRateNegative",
      "outputs": [
        {
          "internalType": "bool",
          "name": "",
          "type": "bool"
        }
      ],
      "payable": false,
      "stateMutability": "view",
      "type": "function"
    },
    {
      "constant": true,
      "inputs": [],
      "name": "factory",
      "outputs": [
        {
          "internalType": "contract CoinageFactoryI",
          "name": "",
          "type": "address"
        }
      ],
      "payable": false,
      "stateMutability": "view",
      "type": "function"
    },
    {
      "constant": true,
      "inputs": [
        {
          "internalType": "address",
          "name": "account",
          "type": "address"
        }
      ],
      "name": "isChallenger",
      "outputs": [
        {
          "internalType": "bool",
          "name": "",
          "type": "bool"
        }
      ],
      "payable": false,
      "stateMutability": "view",
      "type": "function"
    },
    {
      "constant": true,
      "inputs": [],
      "name": "isOwner",
      "outputs": [
        {
          "internalType": "bool",
          "name": "",
          "type": "bool"
        }
      ],
      "payable": false,
      "stateMutability": "view",
      "type": "function"
    },
    {
      "constant": true,
      "inputs": [
        {
          "internalType": "address",
          "name": "account",
          "type": "address"
        }
      ],
      "name": "isPauser",
      "outputs": [
        {
          "internalType": "bool",
          "name": "",
          "type": "bool"
        }
      ],
      "payable": false,
      "stateMutability": "view",
      "type": "function"
    },
    {
      "constant": true,
      "inputs": [],
      "name": "minimumAmount",
      "outputs": [
        {
          "internalType": "uint256",
          "name": "",
          "type": "uint256"
        }
      ],
      "payable": false,
      "stateMutability": "view",
      "type": "function"
    },
    {
      "constant": true,
      "inputs": [],
      "name": "owner",
      "outputs": [
        {
          "internalType": "address",
          "name": "",
          "type": "address"
        }
      ],
      "payable": false,
      "stateMutability": "view",
      "type": "function"
    },
    {
      "constant": true,
      "inputs": [],
      "name": "paused",
      "outputs": [
        {
          "internalType": "bool",
          "name": "",
          "type": "bool"
        }
      ],
      "payable": false,
      "stateMutability": "view",
      "type": "function"
    },
    {
      "constant": true,
      "inputs": [],
      "name": "powerTONSeigRate",
      "outputs": [
        {
          "internalType": "uint256",
          "name": "",
          "type": "uint256"
        }
      ],
      "payable": false,
      "stateMutability": "view",
      "type": "function"
    },
    {
      "constant": true,
      "inputs": [],
      "name": "relativeSeigRate",
      "outputs": [
        {
          "internalType": "uint256",
          "name": "",
          "type": "uint256"
        }
      ],
      "payable": false,
      "stateMutability": "view",
      "type": "function"
    },
    {
      "constant": false,
      "inputs": [],
      "name": "renounceChallenger",
      "outputs": [],
      "payable": false,
      "stateMutability": "nonpayable",
      "type": "function"
    },
    {
      "constant": false,
      "inputs": [
        {
          "internalType": "address",
          "name": "target",
          "type": "address"
        }
      ],
      "name": "renounceMinter",
      "outputs": [],
      "payable": false,
      "stateMutability": "nonpayable",
      "type": "function"
    },
    {
      "constant": false,
      "inputs": [
        {
          "internalType": "address",
          "name": "target",
          "type": "address"
        }
      ],
      "name": "renounceOwnership",
      "outputs": [],
      "payable": false,
      "stateMutability": "nonpayable",
      "type": "function"
    },
    {
      "constant": false,
      "inputs": [],
      "name": "renounceOwnership",
      "outputs": [],
      "payable": false,
      "stateMutability": "nonpayable",
      "type": "function"
    },
    {
      "constant": false,
      "inputs": [
        {
          "internalType": "address",
          "name": "target",
          "type": "address"
        }
      ],
      "name": "renouncePauser",
      "outputs": [],
      "payable": false,
      "stateMutability": "nonpayable",
      "type": "function"
    },
    {
      "constant": false,
      "inputs": [],
      "name": "renouncePauser",
      "outputs": [],
      "payable": false,
      "stateMutability": "nonpayable",
      "type": "function"
    },
    {
      "constant": false,
      "inputs": [
        {
          "internalType": "address",
          "name": "target",
          "type": "address"
        },
        {
          "internalType": "address",
          "name": "newOwner",
          "type": "address"
        }
      ],
      "name": "transferOwnership",
      "outputs": [],
      "payable": false,
      "stateMutability": "nonpayable",
      "type": "function"
    },
    {
      "constant": false,
      "inputs": [
        {
          "internalType": "address",
          "name": "newOwner",
          "type": "address"
        }
      ],
      "name": "transferOwnership",
      "outputs": [],
      "payable": false,
      "stateMutability": "nonpayable",
      "type": "function"
    },
    {
      "constant": false,
      "inputs": [],
      "name": "pause",
      "outputs": [],
      "payable": false,
      "stateMutability": "nonpayable",
      "type": "function"
    },
    {
      "constant": false,
      "inputs": [],
      "name": "unpause",
      "outputs": [],
      "payable": false,
      "stateMutability": "nonpayable",
      "type": "function"
    },
    {
      "constant": false,
      "inputs": [
        {
          "internalType": "contract PowerTONI",
          "name": "powerton",
          "type": "address"
        }
      ],
      "name": "setPowerTON",
      "outputs": [],
      "payable": false,
      "stateMutability": "nonpayable",
      "type": "function"
    },
    {
      "constant": false,
      "inputs": [
        {
          "internalType": "address",
          "name": "daoAddress",
          "type": "address"
        }
      ],
      "name": "setDao",
      "outputs": [],
      "payable": false,
      "stateMutability": "nonpayable",
      "type": "function"
    },
    {
      "constant": false,
      "inputs": [
        {
          "internalType": "address",
          "name": "layer2",
          "type": "address"
        }
      ],
      "name": "deployCoinage",
      "outputs": [
        {
          "internalType": "bool",
          "name": "",
          "type": "bool"
        }
      ],
      "payable": false,
      "stateMutability": "nonpayable",
      "type": "function"
    },
    {
      "constant": false,
      "inputs": [
        {
          "internalType": "address",
          "name": "layer2",
          "type": "address"
        },
        {
          "internalType": "uint256",
          "name": "commissionRate",
          "type": "uint256"
        },
        {
          "internalType": "bool",
          "name": "isCommissionRateNegative",
          "type": "bool"
        }
      ],
      "name": "setCommissionRate",
      "outputs": [
        {
          "internalType": "bool",
          "name": "",
          "type": "bool"
        }
      ],
      "payable": false,
      "stateMutability": "nonpayable",
      "type": "function"
    },
    {
      "constant": true,
      "inputs": [
        {
          "internalType": "address",
          "name": "layer2",
          "type": "address"
        }
      ],
      "name": "getOperatorAmount",
      "outputs": [
        {
          "internalType": "bool",
          "name": "",
          "type": "bool"
        }
      ],
      "payable": false,
      "stateMutability": "view",
      "type": "function"
    },
    {
      "constant": false,
      "inputs": [],
      "name": "updateSeigniorage",
      "outputs": [
        {
          "internalType": "bool",
          "name": "",
          "type": "bool"
        }
      ],
      "payable": false,
      "stateMutability": "nonpayable",
      "type": "function"
    },
    {
      "constant": false,
      "inputs": [
        {
          "internalType": "address",
          "name": "sender",
          "type": "address"
        },
        {
          "internalType": "address",
          "name": "recipient",
          "type": "address"
        },
        {
          "internalType": "uint256",
          "name": "amount",
          "type": "uint256"
        }
      ],
      "name": "onTransfer",
      "outputs": [
        {
          "internalType": "bool",
          "name": "",
          "type": "bool"
        }
      ],
      "payable": false,
      "stateMutability": "nonpayable",
      "type": "function"
    },
    {
      "constant": false,
      "inputs": [
        {
          "internalType": "address",
          "name": "layer2",
          "type": "address"
        },
        {
          "internalType": "address",
          "name": "account",
          "type": "address"
        },
        {
          "internalType": "uint256",
          "name": "amount",
          "type": "uint256"
        }
      ],
      "name": "onDeposit",
      "outputs": [
        {
          "internalType": "bool",
          "name": "",
          "type": "bool"
        }
      ],
      "payable": false,
      "stateMutability": "nonpayable",
      "type": "function"
    },
    {
      "constant": false,
      "inputs": [
        {
          "internalType": "address",
          "name": "layer2",
          "type": "address"
        },
        {
          "internalType": "address",
          "name": "account",
          "type": "address"
        },
        {
          "internalType": "uint256",
          "name": "amount",
          "type": "uint256"
        }
      ],
      "name": "onWithdraw",
      "outputs": [
        {
          "internalType": "bool",
          "name": "",
          "type": "bool"
        }
      ],
      "payable": false,
      "stateMutability": "nonpayable",
      "type": "function"
    },
    {
      "constant": false,
      "inputs": [
        {
          "internalType": "uint256",
          "name": "powerTONSeigRate_",
          "type": "uint256"
        }
      ],
      "name": "setPowerTONSeigRate",
      "outputs": [],
      "payable": false,
      "stateMutability": "nonpayable",
      "type": "function"
    },
    {
      "constant": false,
      "inputs": [
        {
          "internalType": "uint256",
          "name": "daoSeigRate_",
          "type": "uint256"
        }
      ],
      "name": "setDaoSeigRate",
      "outputs": [],
      "payable": false,
      "stateMutability": "nonpayable",
      "type": "function"
    },
    {
      "constant": false,
      "inputs": [
        {
          "internalType": "uint256",
          "name": "PseigRate_",
          "type": "uint256"
        }
      ],
      "name": "setPseigRate",
      "outputs": [],
      "payable": false,
      "stateMutability": "nonpayable",
      "type": "function"
    },
    {
      "constant": false,
      "inputs": [
        {
          "internalType": "address",
          "name": "factory_",
          "type": "address"
        }
      ],
      "name": "setCoinageFactory",
      "outputs": [],
      "payable": false,
      "stateMutability": "nonpayable",
      "type": "function"
    },
    {
      "constant": false,
      "inputs": [
        {
          "internalType": "address",
          "name": "account",
          "type": "address"
        }
      ],
      "name": "addChallenger",
      "outputs": [],
      "payable": false,
      "stateMutability": "nonpayable",
      "type": "function"
    },
    {
      "constant": false,
      "inputs": [
        {
          "internalType": "address",
          "name": "newSeigManager",
          "type": "address"
        },
        {
          "internalType": "address[]",
          "name": "coinages",
          "type": "address[]"
        }
      ],
      "name": "transferCoinageOwnership",
      "outputs": [],
      "payable": false,
      "stateMutability": "nonpayable",
      "type": "function"
    },
    {
      "constant": false,
      "inputs": [],
      "name": "renounceWTONMinter",
      "outputs": [],
      "payable": false,
      "stateMutability": "nonpayable",
      "type": "function"
    },
    {
      "constant": false,
      "inputs": [
        {
          "internalType": "address",
          "name": "layer2",
          "type": "address"
        },
        {
          "internalType": "address",
          "name": "challenger",
          "type": "address"
        }
      ],
      "name": "slash",
      "outputs": [
        {
          "internalType": "bool",
          "name": "",
          "type": "bool"
        }
      ],
      "payable": false,
      "stateMutability": "nonpayable",
      "type": "function"
    },
    {
      "constant": true,
      "inputs": [
        {
          "internalType": "address",
          "name": "layer2",
          "type": "address"
        },
        {
          "internalType": "address",
          "name": "account",
          "type": "address"
        },
        {
          "internalType": "uint256",
          "name": "amount",
          "type": "uint256"
        }
      ],
      "name": "additionalTotBurnAmount",
      "outputs": [
        {
          "internalType": "uint256",
          "name": "totAmount",
          "type": "uint256"
        }
      ],
      "payable": false,
      "stateMutability": "view",
      "type": "function"
    },
    {
      "constant": false,
      "inputs": [
        {
          "internalType": "uint256",
          "name": "adjustDelay_",
          "type": "uint256"
        }
      ],
      "name": "setAdjustDelay",
      "outputs": [],
      "payable": false,
      "stateMutability": "nonpayable",
      "type": "function"
    },
    {
      "constant": false,
      "inputs": [
        {
          "internalType": "uint256",
          "name": "minimumAmount_",
          "type": "uint256"
        }
      ],
      "name": "setMinimumAmount",
      "outputs": [],
      "payable": false,
      "stateMutability": "nonpayable",
      "type": "function"
    },
    {
      "constant": true,
      "inputs": [
        {
          "internalType": "address",
          "name": "layer2",
          "type": "address"
        },
        {
          "internalType": "address",
          "name": "account",
          "type": "address"
        }
      ],
      "name": "uncomittedStakeOf",
      "outputs": [
        {
          "internalType": "uint256",
          "name": "",
          "type": "uint256"
        }
      ],
      "payable": false,
      "stateMutability": "view",
      "type": "function"
    },
    {
      "constant": true,
      "inputs": [
        {
          "internalType": "address",
          "name": "layer2",
          "type": "address"
        },
        {
          "internalType": "address",
          "name": "account",
          "type": "address"
        }
      ],
      "name": "stakeOf",
      "outputs": [
        {
          "internalType": "uint256",
          "name": "",
          "type": "uint256"
        }
      ],
      "payable": false,
      "stateMutability": "view",
      "type": "function"
    },
    {
      "constant": true,
      "inputs": [],
      "name": "registry",
      "outputs": [
        {
          "internalType": "address",
          "name": "",
          "type": "address"
        }
      ],
      "payable": false,
      "stateMutability": "view",
      "type": "function"
    },
    {
      "constant": true,
      "inputs": [],
      "name": "depositManager",
      "outputs": [
        {
          "internalType": "address",
          "name": "",
          "type": "address"
        }
      ],
      "payable": false,
      "stateMutability": "view",
      "type": "function"
    },
    {
      "constant": true,
      "inputs": [],
      "name": "ton",
      "outputs": [
        {
          "internalType": "address",
          "name": "",
          "type": "address"
        }
      ],
      "payable": false,
      "stateMutability": "view",
      "type": "function"
    },
    {
      "constant": true,
      "inputs": [],
      "name": "wton",
      "outputs": [
        {
          "internalType": "address",
          "name": "",
          "type": "address"
        }
      ],
      "payable": false,
      "stateMutability": "view",
      "type": "function"
    },
    {
      "constant": true,
      "inputs": [],
      "name": "powerton",
      "outputs": [
        {
          "internalType": "address",
          "name": "",
          "type": "address"
        }
      ],
      "payable": false,
      "stateMutability": "view",
      "type": "function"
    },
    {
      "constant": true,
      "inputs": [],
      "name": "tot",
      "outputs": [
        {
          "internalType": "address",
          "name": "",
          "type": "address"
        }
      ],
      "payable": false,
      "stateMutability": "view",
      "type": "function"
    },
    {
      "constant": true,
      "inputs": [
        {
          "internalType": "address",
          "name": "layer2",
          "type": "address"
        }
      ],
      "name": "coinages",
      "outputs": [
        {
          "internalType": "address",
          "name": "",
          "type": "address"
        }
      ],
      "payable": false,
      "stateMutability": "view",
      "type": "function"
    },
    {
      "constant": true,
      "inputs": [
        {
          "internalType": "address",
          "name": "layer2",
          "type": "address"
        }
      ],
      "name": "commissionRates",
      "outputs": [
        {
          "internalType": "uint256",
          "name": "",
          "type": "uint256"
        }
      ],
      "payable": false,
      "stateMutability": "view",
      "type": "function"
    },
    {
      "constant": true,
      "inputs": [
        {
          "internalType": "address",
          "name": "layer2",
          "type": "address"
        }
      ],
      "name": "isCommissionRateNegative",
      "outputs": [
        {
          "internalType": "bool",
          "name": "",
          "type": "bool"
        }
      ],
      "payable": false,
      "stateMutability": "view",
      "type": "function"
    },
    {
      "constant": true,
      "inputs": [
        {
          "internalType": "address",
          "name": "layer2",
          "type": "address"
        }
      ],
      "name": "lastCommitBlock",
      "outputs": [
        {
          "internalType": "uint256",
          "name": "",
          "type": "uint256"
        }
      ],
      "payable": false,
      "stateMutability": "view",
      "type": "function"
    },
    {
      "constant": true,
      "inputs": [],
      "name": "seigPerBlock",
      "outputs": [
        {
          "internalType": "uint256",
          "name": "",
          "type": "uint256"
        }
      ],
      "payable": false,
      "stateMutability": "view",
      "type": "function"
    },
    {
      "constant": true,
      "inputs": [],
      "name": "lastSeigBlock",
      "outputs": [
        {
          "internalType": "uint256",
          "name": "",
          "type": "uint256"
        }
      ],
      "payable": false,
      "stateMutability": "view",
      "type": "function"
    },
    {
      "constant": true,
      "inputs": [],
      "name": "pausedBlock",
      "outputs": [
        {
          "internalType": "uint256",
          "name": "",
          "type": "uint256"
        }
      ],
      "payable": false,
      "stateMutability": "view",
      "type": "function"
    },
    {
      "constant": true,
      "inputs": [],
      "name": "unpausedBlock",
      "outputs": [
        {
          "internalType": "uint256",
          "name": "",
          "type": "uint256"
        }
      ],
      "payable": false,
      "stateMutability": "view",
      "type": "function"
    },
    {
      "constant": true,
      "inputs": [],
      "name": "DEFAULT_FACTOR",
      "outputs": [
        {
          "internalType": "uint256",
          "name": "",
          "type": "uint256"
        }
      ],
      "payable": false,
      "stateMutability": "view",
      "type": "function"
    }
  ],
  "bytecode": "0x60806040523480156200001157600080fd5b5060405162004a4338038062004a43833981810160405260c08110156200003757600080fd5b508051602082015160408301516060840151608085015160a090950151939492939192909162000082620000736001600160e01b036200021516565b6001600160e01b036200021916565b6000620000976001600160e01b036200021516565b600180546001600160a01b0319166001600160a01b038316908117909155604051919250906000907f8be0079c531659141344cd1fd0a4f28419497f9722a3daafe3b4186f6b6457e0908290a3506001805460ff60a01b1916905562000106336001600160e01b036200026b16565b600780546001600160a01b03199081166001600160a01b0389811691909117909255600880548216888416179055600380548216878416179055600480548216868416178155600d859055600980549092168484161791829055604080517f775c300c0000000000000000000000000000000000000000000000000000000081529051600094939093169263775c300c9282810192602092919082900301818787803b158015620001b657600080fd5b505af1158015620001cb573d6000803e3d6000fd5b505050506040513d6020811015620001e257600080fd5b5051600a80546001600160a01b0319166001600160a01b03909216919091179055505043600e55506200041d9350505050565b3390565b62000234816000620002bd60201b620041db1790919060201c565b6040516001600160a01b038216907f6719d08c1888103bea251a4ed56406bd0c3e69723c8a1686e017e7bbe159b6f890600090a250565b620002868160026200036460201b620040531790919060201c565b6040516001600160a01b038216907f2cd0e2692d0fffcabc09a1bbb85ce5406e4beb793c3e8aa022cf08bddbd797f790600090a250565b620002d282826001600160e01b036200038416565b156200033f57604080517f08c379a000000000000000000000000000000000000000000000000000000000815260206004820152601f60248201527f526f6c65733a206163636f756e7420616c72656164792068617320726f6c6500604482015290519081900360640190fd5b6001600160a01b0316600090815260209190915260409020805460ff19166001179055565b6200037982826001600160e01b036200040716565b156200033f57600080fd5b60006001600160a01b038216620003e7576040517f08c379a000000000000000000000000000000000000000000000000000000000815260040180806020018281038252602281526020018062004a216022913960400191505060405180910390fd5b506001600160a01b03166000908152602091909152604090205460ff1690565b60006001600160a01b038216620003e757600080fd5b6145f4806200042d6000396000f3fe608060405234801561001057600080fd5b50600436106103f15760003560e01c8063764a785611610215578063ae3458f811610125578063e0683726116100b8578063f2fde38b11610087578063f2fde38b14610a65578063f35c89e814610a8b578063f822934814610a93578063f850ffaa14610a9b578063fa9789c814610ad1576103f1565b8063e0683726146109fd578063e2fe8fd114610a05578063e403483214610a2b578063eeb4a9c814610a48576103f1565b8063cbfebe62116100f4578063cbfebe6214610999578063cc48b947146109bf578063ce4cb876146109c7578063df7fbef0146109f5576103f1565b8063ae3458f81461095b578063bb0c829814610963578063c45a01551461096b578063c59f104614610973576103f1565b80638d62d949116101a8578063a16d6aa711610177578063a16d6aa7146108d9578063a415d8dc146108e1578063a7dcc85014610907578063ac753a7a1461090f578063ac89321914610935576103f1565b80638d62d949146108a45780638da5cb5b146108ac5780638f32d59b146108b45780639c877e47146108bc576103f1565b806382dc1ec4116101e457806382dc1ec414610848578063833a774f1461086e5780638456cb59146108945780638bf91dc41461089c576103f1565b8063764a7856146107e45780637aeccce9146107ec5780637b056c1b1461081a5780637b10399914610840576103f1565b80634224ed66116103105780635c975abb116102a35780636637b882116102725780636637b882146107785780636c7ac9d81461079e5780636d435421146107a65780636ef8d66d146107d4578063715018a6146107dc576103f1565b80635c975abb1461073a5780635f112c68146107425780635f40a349146107685780636304a62414610770576103f1565b80634c063c19116102df5780634c063c19146106e6578063552033c4146105965780635998a8d71461070c5780635a16a41614610714576103f1565b80634224ed661461062057806346fbf68e1461065457806348c8577e1461067a5780634a393149146106b0576103f1565b806332847953116103885780634123196f116103575780634123196f14610596578063412c6d501461059e57806341813020146105d457806341eb24bb146105fa576103f1565b806332847953146104c457806338bf3cfa146105445780633e832e1d1461056a5780633f4ba83a1461058e576103f1565b806325e90db4116103c457806325e90db41461045d5780632d1bdec8146104655780632f17250a1461048257806332053c99146104bc576103f1565b806303e1cc27146103f65780630ceb6780146104155780631cc478901461043b57806325374a9a14610455575b600080fd5b6104136004803603602081101561040c57600080fd5b5035610aff565b005b6104136004803603602081101561042b57600080fd5b50356001600160a01b0316610bb2565b610443610bd5565b60408051918252519081900360200190f35b610443610bdc565b610413610be2565b6104136004803603602081101561047b57600080fd5b5035610bed565b6104a86004803603602081101561049857600080fd5b50356001600160a01b0316610c39565b604080519115158252519081900360200190f35b610443610d42565b610413600480360360408110156104da57600080fd5b6001600160a01b03823516919081019060408101602082013564010000000081111561050557600080fd5b82018360208201111561051757600080fd5b8035906020019184602083028401116401000000008311171561053957600080fd5b509092509050610d48565b6104136004803603602081101561055a57600080fd5b50356001600160a01b0316610f00565b610572610f9d565b604080516001600160a01b039092168252519081900360200190f35b610413610fac565b610443611058565b6104a8600480360360608110156105b457600080fd5b506001600160a01b03813581169160208101359091169060400135611067565b610413600480360360208110156105ea57600080fd5b50356001600160a01b031661137d565b6104136004803603602081101561061057600080fd5b50356001600160a01b03166113e6565b6104a86004803603606081101561063657600080fd5b506001600160a01b0381351690602081013590604001351515611468565b6104a86004803603602081101561066a57600080fd5b50356001600160a01b031661164a565b6104436004803603606081101561069057600080fd5b506001600160a01b03813581169160208101359091169060400135611662565b6104a8600480360360608110156106c657600080fd5b506001600160a01b03813581169160208101359091169060400135611679565b610572600480360360208110156106fc57600080fd5b50356001600160a01b03166116fa565b610443611718565b6104a86004803603602081101561072a57600080fd5b50356001600160a01b031661171e565b6104a861173c565b6104136004803603602081101561075857600080fd5b50356001600160a01b031661174c565b6104436117ce565b6104436117d4565b6104136004803603602081101561078e57600080fd5b50356001600160a01b03166117da565b610572611843565b610413600480360360408110156107bc57600080fd5b506001600160a01b0381358116916020013516611852565b61041361190d565b61041361191d565b6104a86119ae565b6104a86004803603604081101561080257600080fd5b506001600160a01b0381358116916020013516611ebb565b6104436004803603602081101561083057600080fd5b50356001600160a01b0316611fa1565b610572611fbc565b6104136004803603602081101561085e57600080fd5b50356001600160a01b0316611fcb565b6104a86004803603602081101561088457600080fd5b50356001600160a01b031661201a565b61041361215a565b6104436121fe565b61057261220d565b61057261221c565b6104a861222b565b610413600480360360208110156108d257600080fd5b5035612251565b610572612304565b6104a8600480360360208110156108f757600080fd5b50356001600160a01b0316612313565b610443612326565b6104a86004803603602081101561092557600080fd5b50356001600160a01b0316612335565b6104136004803603602081101561094b57600080fd5b50356001600160a01b031661234a565b6104136123b3565b61044361245e565b610572612464565b6104436004803603602081101561098957600080fd5b50356001600160a01b0316612473565b610443600480360360208110156109af57600080fd5b50356001600160a01b031661248e565b6105726124a0565b610443600480360360408110156109dd57600080fd5b506001600160a01b03813581169160200135166124af565b61044361253c565b610572612542565b61044360048036036020811015610a1b57600080fd5b50356001600160a01b0316612551565b61041360048036036020811015610a4157600080fd5b5035612563565b61041360048036036020811015610a5e57600080fd5b5035612616565b61041360048036036020811015610a7b57600080fd5b50356001600160a01b0316612662565b6104436126b2565b6104436126b8565b6104a860048036036060811015610ab157600080fd5b506001600160a01b038135811691602081013590911690604001356126be565b61044360048036036040811015610ae757600080fd5b506001600160a01b0381358116916020013516612d2d565b610b0761222b565b610b46576040805162461bcd60e51b815260206004820181905260248201526000805160206144dd833981519152604482015290519081900360640190fd5b600081118015610b605750676765c793fa10079d601b1b81105b610bad576040805162461bcd60e51b8152602060048201526019602482015278657863656564656420736569676e696f72616765207261746560381b604482015290519081900360640190fd5b601955565b6003546001600160a01b03163314610bc957600080fd5b610bd281612feb565b50565b6010545b90565b601a5481565b610beb33613033565b565b610bf561222b565b610c34576040805162461bcd60e51b815260206004820181905260248201526000805160206144dd833981519152604482015290519081900360640190fd5b601355565b600080336001600160a01b031663570ca7356040518163ffffffff1660e01b815260040160206040518083038186803b158015610c7557600080fd5b505afa158015610c89573d6000803e3d6000fd5b505050506040513d6020811015610c9f57600080fd5b50516017546001600160a01b038086166000908152600b60209081526040918290205482516370a0823160e01b815284871660048201529251959650939493909216926370a0823192602480840193919291829003018186803b158015610d0557600080fd5b505afa158015610d19573d6000803e3d6000fd5b505050506040513d6020811015610d2f57600080fd5b50511015610d3c57600080fd5b50919050565b600f5490565b610d5061222b565b610d8f576040805162461bcd60e51b815260206004820181905260248201526000805160206144dd833981519152604482015290519081900360640190fd5b60005b81811015610efa576000838383818110610da857fe5b905060200201356001600160a01b03169050806001600160a01b031663983b2d56866040518263ffffffff1660e01b815260040180826001600160a01b03166001600160a01b03168152602001915050600060405180830381600087803b158015610e1257600080fd5b505af1158015610e26573d6000803e3d6000fd5b50505050806001600160a01b031663986502756040518163ffffffff1660e01b8152600401600060405180830381600087803b158015610e6557600080fd5b505af1158015610e79573d6000803e3d6000fd5b50505050806001600160a01b031663f2fde38b866040518263ffffffff1660e01b815260040180826001600160a01b03166001600160a01b03168152602001915050600060405180830381600087803b158015610ed557600080fd5b505af1158015610ee9573d6000803e3d6000fd5b505060019093019250610d92915050565b50505050565b610f0861222b565b610f47576040805162461bcd60e51b815260206004820181905260248201526000805160206144dd833981519152604482015290519081900360640190fd5b806001600160a01b031663715018a66040518163ffffffff1660e01b8152600401600060405180830381600087803b158015610f8257600080fd5b505af1158015610f96573d6000803e3d6000fd5b5050505050565b6005546001600160a01b031690565b610fbc610fb761307b565b61164a565b610ff75760405162461bcd60e51b81526004018080602001828103825260308152602001806143e66030913960400191505060405180910390fd5b600154600160a01b900460ff1661104c576040805162461bcd60e51b815260206004820152601460248201527314185d5cd8589b194e881b9bdd081c185d5cd95960621b604482015290519081900360640190fd5b43601055610beb61307f565b676765c793fa10079d601b1b81565b6004546000906001600160a01b0316331461108157600080fd5b6001600160a01b038085166000908152600b60205260409020548591166110d95760405162461bcd60e51b815260040180806020018281038252602e81526020018061443c602e913960400191505060405180910390fd5b6110e3858561316d565b156111dd576001600160a01b038086166000908152600b602090815260408083205481516370a0823160e01b815289861660048201529151939461118294899492909116926370a08231926024808301939192829003018186803b15801561114a57600080fd5b505afa15801561115e573d6000803e3d6000fd5b505050506040513d602081101561117457600080fd5b50519063ffffffff6131ea16565b90506017548110156111db576040805162461bcd60e51b815260206004820152601a60248201527f6d696e696d756d20616d6f756e74206973207265717569726564000000000000604482015290519081900360640190fd5b505b600a54604080516340c10f1960e01b81526001600160a01b03888116600483015260248201879052915191909216916340c10f199160448083019260209291908290030181600087803b15801561123357600080fd5b505af1158015611247573d6000803e3d6000fd5b505050506040513d602081101561125d57600080fd5b50506001600160a01b038086166000908152600b602090815260408083205481516340c10f1960e01b815289861660048201526024810189905291519416936340c10f1993604480840194938390030190829087803b1580156112bf57600080fd5b505af11580156112d3573d6000803e3d6000fd5b505050506040513d60208110156112e957600080fd5b50506005546001600160a01b0316156113725760055460408051630412c6d560e41b81526001600160a01b0388811660048301528781166024830152604482018790529151919092169163412c6d5091606480830192600092919082900301818387803b15801561135957600080fd5b505af115801561136d573d6000803e3d6000fd5b505050505b506001949350505050565b61138561222b565b6113c4576040805162461bcd60e51b815260206004820181905260248201526000805160206144dd833981519152604482015290519081900360640190fd5b600580546001600160a01b0319166001600160a01b0392909216919091179055565b6113ee61222b565b61142d576040805162461bcd60e51b815260206004820181905260248201526000805160206144dd833981519152604482015290519081900360640190fd5b806001600160a01b0316636ef8d66d6040518163ffffffff1660e01b8152600401600060405180830381600087803b158015610f8257600080fd5b60035460009084906001600160a01b03163314806114f25750806001600160a01b031663570ca7356040518163ffffffff1660e01b815260040160206040518083038186803b1580156114ba57600080fd5b505afa1580156114ce573d6000803e3d6000fd5b505050506040513d60208110156114e457600080fd5b50516001600160a01b031633145b6114fb57600080fd5b8315806115295750836a084595161401484a000000111580156115295750676765c793fa10079d601b1b8411155b6115645760405162461bcd60e51b815260040180806020018281038252604481526020018061451f6044913960600191505060405180910390fd5b6001600160a01b0385166000908152601160205260409020546013546115ba576001600160a01b038616600090815260116020908152604080832088905560129091529020805460ff19168515151790556115fb565b6013546001600160a01b038716600090815260146020908152604080832043909401909355601581528282208890556016905220805460ff19168515151790555b604080518281526020810187905281516001600160a01b038916927f11841078e38c91feada06e1f8ded3697ab2dadc2583c52b14109b82ccd4f77d7928290030190a250600195945050505050565b600061165c818363ffffffff61324416565b92915050565b600061166f8484846132ab565b90505b9392505050565b6007546000906001600160a01b031633148061169f57506008546001600160a01b031633145b6116da5760405162461bcd60e51b81526004018080602001828103825260318152602001806145636031913960400191505060405180910390fd5b6116e261173c565b6116f0576116ee6133ff565b505b5060019392505050565b6001600160a01b039081166000908152600b60205260409020541690565b60195481565b6001600160a01b031660009081526012602052604090205460ff1690565b600154600160a01b900460ff1690565b61175461222b565b611793576040805162461bcd60e51b815260206004820181905260248201526000805160206144dd833981519152604482015290519081900360640190fd5b806001600160a01b031663986502756040518163ffffffff1660e01b8152600401600060405180830381600087803b158015610f8257600080fd5b600d5490565b60185481565b6117e261222b565b611821576040805162461bcd60e51b815260206004820181905260248201526000805160206144dd833981519152604482015290519081900360640190fd5b600680546001600160a01b0319166001600160a01b0392909216919091179055565b6004546001600160a01b031690565b61185a61222b565b611899576040805162461bcd60e51b815260206004820181905260248201526000805160206144dd833981519152604482015290519081900360640190fd5b816001600160a01b031663f2fde38b826040518263ffffffff1660e01b815260040180826001600160a01b03166001600160a01b03168152602001915050600060405180830381600087803b1580156118f157600080fd5b505af1158015611905573d6000803e3d6000fd5b505050505050565b610beb61191861307b565b613b63565b61192561222b565b611964576040805162461bcd60e51b815260206004820181905260248201526000805160206144dd833981519152604482015290519081900360640190fd5b6001546040516000916001600160a01b0316907f8be0079c531659141344cd1fd0a4f28419497f9722a3daafe3b4186f6b6457e0908390a3600180546001600160a01b0319169055565b336000818152600b60205260408120549091906001600160a01b0316611a055760405162461bcd60e51b815260040180806020018281038252602e81526020018061443c602e913960400191505060405180910390fd5b611a0d61173c565b15611a1b5760019150611eb7565b611a236133ff565b50336000908152600c60209081526040808320439055600b82528083205481516318160ddd60e01b815291516001600160a01b03909116939284926318160ddd9260048083019392829003018186803b158015611a7f57600080fd5b505afa158015611a93573d6000803e3d6000fd5b505050506040513d6020811015611aa957600080fd5b5051600a54604080516370a0823160e01b815233600482015290519293506000926001600160a01b03909216916370a0823191602480820192602092909190829003018186803b158015611afc57600080fd5b505afa158015611b10573d6000803e3d6000fd5b505050506040513d6020811015611b2657600080fd5b50519050808210611b685760405133907f521cc65179761533a7c8d7a973291dd7baebb99a67edf5ef78e9c2b61a533d9590600090a260019450505050611eb7565b600082820390506000336001600160a01b031663570ca7356040518163ffffffff1660e01b815260040160206040518083038186803b158015611baa57600080fd5b505afa158015611bbe573d6000803e3d6000fd5b505050506040513d6020811015611bd457600080fd5b5051336000818152601260205260408120549293509160ff1690611bfc908888878588613bab565b8093508196505050866001600160a01b031663817e9d31611c8288888b6001600160a01b03166354f703f86040518163ffffffff1660e01b815260040160206040518083038186803b158015611c5157600080fd5b505afa158015611c65573d6000803e3d6000fd5b505050506040513d6020811015611c7b57600080fd5b5051613dc8565b6040518263ffffffff1660e01b815260040180828152602001915050602060405180830381600087803b158015611cb857600080fd5b505af1158015611ccc573d6000803e3d6000fd5b505050506040513d6020811015611ce257600080fd5b50508115611dfa578015611d6d57866001600160a01b03166379cc679084846040518363ffffffff1660e01b815260040180836001600160a01b03166001600160a01b0316815260200182815260200192505050600060405180830381600087803b158015611d5057600080fd5b505af1158015611d64573d6000803e3d6000fd5b50505050611dfa565b866001600160a01b03166340c10f1984846040518363ffffffff1660e01b815260040180836001600160a01b03166001600160a01b0316815260200182815260200192505050602060405180830381600087803b158015611dcd57600080fd5b505af1158015611de1573d6000803e3d6000fd5b505050506040513d6020811015611df757600080fd5b50505b60085460048054604080516340c10f1960e01b81526001600160a01b039283169381019390935260248301889052519216916340c10f19916044808201926020929091908290030181600087803b158015611e5457600080fd5b505af1158015611e68573d6000803e3d6000fd5b505050506040513d6020811015611e7e57600080fd5b505060405133907f521cc65179761533a7c8d7a973291dd7baebb99a67edf5ef78e9c2b61a533d9590600090a260019850505050505050505b5090565b6000611ec633612313565b611ecf57600080fd5b6001600160a01b038084166000908152600b6020526040902054849116611f275760405162461bcd60e51b815260040180806020018281038252602e81526020018061443c602e913960400191505060405180910390fd5b836001600160a01b03166306394c9b846040518263ffffffff1660e01b815260040180826001600160a01b03166001600160a01b03168152602001915050600060405180830381600087803b158015611f7f57600080fd5b505af1158015611f93573d6000803e3d6000fd5b506001979650505050505050565b6001600160a01b031660009081526011602052604090205490565b6003546001600160a01b031690565b611fd6610fb761307b565b6120115760405162461bcd60e51b81526004018080602001828103825260308152602001806143e66030913960400191505060405180910390fd5b610bd281613ddd565b6003546000906001600160a01b0316331461203457600080fd5b6001600160a01b038281166000908152600b6020526040902054166121525760095460408051631dd70c0360e21b815290516000926001600160a01b03169163775c300c91600480830192602092919082900301818787803b15801561209957600080fd5b505af11580156120ad573d6000803e3d6000fd5b505050506040513d60208110156120c357600080fd5b50516001600160a01b0384166000908152600c6020526040902043905590506120eb83610bb2565b6001600160a01b038381166000818152600b602090815260409182902080546001600160a01b03191694861694851790558151938452905191927f124cac1e701d08d642237ad795ddd275670e12f2cd956a26709721c68084c2b2929081900390910190a2505b506001919050565b612165610fb761307b565b6121a05760405162461bcd60e51b81526004018080602001828103825260308152602001806143e66030913960400191505060405180910390fd5b600154600160a01b900460ff16156121f2576040805162461bcd60e51b815260206004820152601060248201526f14185d5cd8589b194e881c185d5cd95960821b604482015290519081900360640190fd5b43600f55610beb613e25565b676765c793fa10079d601b1b90565b6008546001600160a01b031690565b6001546001600160a01b031690565b6001546000906001600160a01b031661224261307b565b6001600160a01b031614905090565b61225961222b565b612298576040805162461bcd60e51b815260206004820181905260248201526000805160206144dd833981519152604482015290519081900360640190fd5b6000811180156122b25750676765c793fa10079d601b1b81105b6122ff576040805162461bcd60e51b8152602060048201526019602482015278657863656564656420736569676e696f72616765207261746560381b604482015290519081900360640190fd5b601855565b600a546001600160a01b031690565b600061165c60028363ffffffff613ef916565b6a084595161401484a00000081565b60166020526000908152604090205460ff1681565b61235261222b565b612391576040805162461bcd60e51b815260206004820181905260248201526000805160206144dd833981519152604482015290519081900360640190fd5b600980546001600160a01b0319166001600160a01b0392909216919091179055565b6123bb61222b565b6123fa576040805162461bcd60e51b815260206004820181905260248201526000805160206144dd833981519152604482015290519081900360640190fd5b600860009054906101000a90046001600160a01b03166001600160a01b031663986502756040518163ffffffff1660e01b8152600401600060405180830381600087803b15801561244a57600080fd5b505af1158015610efa573d6000803e3d6000fd5b60175481565b6009546001600160a01b031681565b6001600160a01b03166000908152600c602052604090205490565b60146020526000908152604090205481565b6007546001600160a01b031690565b6001600160a01b038083166000908152600b602090815260408083205481516370a0823160e01b815286861660048201529151939416926370a0823192602480840193919291829003018186803b15801561250957600080fd5b505afa15801561251d573d6000803e3d6000fd5b505050506040513d602081101561253357600080fd5b50519392505050565b60135481565b6006546001600160a01b031681565b60156020526000908152604090205481565b61256b61222b565b6125aa576040805162461bcd60e51b815260206004820181905260248201526000805160206144dd833981519152604482015290519081900360640190fd5b6000811180156125c45750676765c793fa10079d601b1b81105b612611576040805162461bcd60e51b8152602060048201526019602482015278657863656564656420736569676e696f72616765207261746560381b604482015290519081900360640190fd5b601a55565b61261e61222b565b61265d576040805162461bcd60e51b815260206004820181905260248201526000805160206144dd833981519152604482015290519081900360640190fd5b601755565b61266a61222b565b6126a9576040805162461bcd60e51b815260206004820181905260248201526000805160206144dd833981519152604482015290519081900360640190fd5b610bd281613f0e565b600e5490565b601b5481565b6004546000906001600160a01b031633146126d857600080fd5b6001600160a01b038085166000908152600b60205260409020548591166127305760405162461bcd60e51b815260040180806020018281038252602e81526020018061443c602e913960400191505060405180910390fd5b6001600160a01b038086166000908152600b60209081526040918290205482516370a0823160e01b815288851660048201529251879491909116926370a08231926024808301939192829003018186803b15801561278d57600080fd5b505afa1580156127a1573d6000803e3d6000fd5b505050506040513d60208110156127b757600080fd5b505110156127f65760405162461bcd60e51b815260040180806020018281038252602c815260200180614594602c913960400191505060405180910390fd5b612800858561316d565b156129c2576001600160a01b038086166000908152600b60209081526040918290205482516370a0823160e01b815288851660048201529251879491909116926370a08231926024808301939192829003018186803b15801561286257600080fd5b505afa158015612876573d6000803e3d6000fd5b505050506040513d602081101561288c57600080fd5b505110156128cd576040805162461bcd60e51b81526020600482015260096024820152681d195cdd080c4c8ccd60ba1b604482015290519081900360640190fd5b6001600160a01b038086166000908152600b602090815260408083205481516370a0823160e01b815289861660048201529151939461296794899492909116926370a08231926024808301939192829003018186803b15801561292f57600080fd5b505afa158015612943573d6000803e3d6000fd5b505050506040513d602081101561295957600080fd5b50519063ffffffff613faf16565b90506017548110156129c0576040805162461bcd60e51b815260206004820152601a60248201527f6d696e696d756d20616d6f756e74206973207265717569726564000000000000604482015290519081900360640190fd5b505b60006129cf8686866132ab565b90506129e1848263ffffffff6131ea16565b600a54604080516370a0823160e01b81526001600160a01b038a81166004830152915191909216916370a08231916024808301926020929190829003018186803b158015612a2e57600080fd5b505afa158015612a42573d6000803e3d6000fd5b505050506040513d6020811015612a5857600080fd5b50511015612a98576040805162461bcd60e51b8152602060048201526008602482015267746573742031313160c01b604482015290519081900360640190fd5b600a546001600160a01b03166379cc679087612aba878563ffffffff6131ea16565b6040518363ffffffff1660e01b815260040180836001600160a01b03166001600160a01b0316815260200182815260200192505050600060405180830381600087803b158015612b0957600080fd5b505af1158015612b1d573d6000803e3d6000fd5b5050506001600160a01b038088166000908152600b60209081526040918290205482516370a0823160e01b81528a8516600482015292518995509316926370a08231926024808201939291829003018186803b158015612b7c57600080fd5b505afa158015612b90573d6000803e3d6000fd5b505050506040513d6020811015612ba657600080fd5b50511015612be6576040805162461bcd60e51b81526020600482015260086024820152673a32b9ba1019191960c11b604482015290519081900360640190fd5b6001600160a01b038087166000908152600b602052604080822054815163079cc67960e41b815289851660048201526024810189905291519316926379cc67909260448084019391929182900301818387803b158015612c4557600080fd5b505af1158015612c59573d6000803e3d6000fd5b50506005546001600160a01b0316159150612ce690505760055460408051637c287fd560e11b81526001600160a01b0389811660048301528881166024830152604482018890529151919092169163f850ffaa91606480830192600092919082900301818387803b158015612ccd57600080fd5b505af1158015612ce1573d6000803e3d6000fd5b505050505b604080518581526020810183905281517f650f673bb96a43afff4620ecc3f3e38e0cbfddebde9894e951ba2ceff7472f60929181900390910190a150600195945050505050565b6001600160a01b038083166000908152600b60209081526040808320548151630a9ee07f60e31b8152915193941692849284926354f703f89260048083019392829003018186803b158015612d8157600080fd5b505afa158015612d95573d6000803e3d6000fd5b505050506040513d6020811015612dab57600080fd5b5051604080516318160ddd60e01b815290519192506000916001600160a01b038516916318160ddd916004808301926020929190829003018186803b158015612df357600080fd5b505afa158015612e07573d6000803e3d6000fd5b505050506040513d6020811015612e1d57600080fd5b5051600a54604080516370a0823160e01b81526001600160a01b038a81166004830152915193945060009391909216916370a08231916024808301926020929190829003018186803b158015612e7257600080fd5b505afa158015612e86573d6000803e3d6000fd5b505050506040513d6020811015612e9c57600080fd5b505190506000612ead838386613dc8565b90506000612f45612f3f876001600160a01b03166370a082318b6040518263ffffffff1660e01b815260040180826001600160a01b03166001600160a01b0316815260200191505060206040518083038186803b158015612f0d57600080fd5b505afa158015612f21573d6000803e3d6000fd5b505050506040513d6020811015612f3757600080fd5b505187613ff1565b83614025565b6001600160a01b03808b166000908152600b60209081526040918290205482516370a0823160e01b81528d851660048201529251949550612fde949316926370a08231926024808201939291829003018186803b158015612fa557600080fd5b505afa158015612fb9573d6000803e3d6000fd5b505050506040513d6020811015612fcf57600080fd5b5051829063ffffffff613faf16565b9998505050505050505050565b612ffc60028263ffffffff61405316565b6040516001600160a01b038216907f2cd0e2692d0fffcabc09a1bbb85ce5406e4beb793c3e8aa022cf08bddbd797f790600090a250565b61304460028263ffffffff61408c16565b6040516001600160a01b038216907f5cd2c63f2658de84952baf6a0e914d0997bbacc2d17fd2b6d928dcf951e697c790600090a250565b3390565b61308a610fb761307b565b6130c55760405162461bcd60e51b81526004018080602001828103825260308152602001806143e66030913960400191505060405180910390fd5b600154600160a01b900460ff1661311a576040805162461bcd60e51b815260206004820152601460248201527314185d5cd8589b194e881b9bdd081c185d5cd95960621b604482015290519081900360640190fd5b6001805460ff60a01b191690557f5db9ee0a495bf2e6ff9c91a7834c1ba4fdd244a5e8aa4e537bd38aeae4b073aa61315061307b565b604080516001600160a01b039092168252519081900360200190a1565b6000826001600160a01b031663570ca7356040518163ffffffff1660e01b815260040160206040518083038186803b1580156131a857600080fd5b505afa1580156131bc573d6000803e3d6000fd5b505050506040513d60208110156131d257600080fd5b50516001600160a01b03838116911614905092915050565b600082820183811015611672576040805162461bcd60e51b815260206004820152601b60248201527f536166654d6174683a206164646974696f6e206f766572666c6f770000000000604482015290519081900360640190fd5b60006001600160a01b03821661328b5760405162461bcd60e51b81526004018080602001828103825260228152602001806144fd6022913960400191505060405180910390fd5b506001600160a01b03166000908152602091909152604090205460ff1690565b6001600160a01b038084166000908152600b602090815260408083205481516318160ddd60e01b81529151939485949116926318160ddd9260048082019391829003018186803b1580156132fe57600080fd5b505afa158015613312573d6000803e3d6000fd5b505050506040513d602081101561332857600080fd5b5051600a54604080516370a0823160e01b81526001600160a01b038981166004830152915193945060009391909216916370a08231916024808301926020929190829003018186803b15801561337d57600080fd5b505afa158015613391573d6000803e3d6000fd5b505050506040513d60208110156133a757600080fd5b5051905080821180156133c35750670de0b6b3a7640000818303105b156133d357600092505050611672565b6133f56133ef6133e9838563ffffffff613faf16565b86614025565b83613ff1565b9695505050505050565b6000600e5443141561341357506000610bd9565b600a60009054906101000a90046001600160a01b03166001600160a01b03166318160ddd6040518163ffffffff1660e01b815260040160206040518083038186803b15801561346157600080fd5b505afa158015613475573d6000803e3d6000fd5b505050506040513d602081101561348b57600080fd5b505161349d575043600e556000610bd9565b600080600a60009054906101000a90046001600160a01b03166001600160a01b03166318160ddd6040518163ffffffff1660e01b815260040160206040518083038186803b1580156134ee57600080fd5b505afa158015613502573d6000803e3d6000fd5b505050506040513d602081101561351857600080fd5b5051600d5490925060009061353b9061352f6140c1565b9063ffffffff6140fb16565b90506000613696600a60009054906101000a90046001600160a01b03166001600160a01b03166318160ddd6040518163ffffffff1660e01b815260040160206040518083038186803b15801561359057600080fd5b505afa1580156135a4573d6000803e3d6000fd5b505050506040513d60208110156135ba57600080fd5b5051600754600854604080516370a0823160e01b81526001600160a01b039283166004820152905161368a93633b9aca009361352f939116916370a0823191602480820192602092909190829003018186803b15801561361957600080fd5b505afa15801561362d573d6000803e3d6000fd5b505050506040513d602081101561364357600080fd5b5051600754604080516318160ddd60e01b815290516001600160a01b03909216916318160ddd91600480820192602092909190829003018186803b15801561292f57600080fd5b9063ffffffff6131ea16565b905060006137206133ef84600a60009054906101000a90046001600160a01b03166001600160a01b03166318160ddd6040518163ffffffff1660e01b815260040160206040518083038186803b1580156136ef57600080fd5b505afa158015613703573d6000803e3d6000fd5b505050506040513d602081101561371957600080fd5b5051614025565b9050600061373f613737858463ffffffff613faf16565b601a54614025565b90506137558161368a888563ffffffff6131ea16565b43600e55600a5460408051630a9ee07f60e31b815290519297506001600160a01b039091169163817e9d31916137b0918a918a9186916354f703f8916004808301926020929190829003018186803b158015611c5157600080fd5b6040518263ffffffff1660e01b815260040180828152602001915050602060405180830381600087803b1580156137e657600080fd5b505af11580156137fa573d6000803e3d6000fd5b505050506040513d602081101561381057600080fd5b5050600a54604080516318160ddd60e01b815290517f41a79a497d1457df24c25ab99f22349ae9aef4468429f0a781216e8dcf80c628926001600160a01b0316916318160ddd916004808301926020929190829003018186803b15801561387657600080fd5b505afa15801561388a573d6000803e3d6000fd5b505050506040513d60208110156138a057600080fd5b5051604080519182526020820186905281810189905260608201889052519081900360800190a160006138d9858463ffffffff613faf16565b600554909150600090819081906001600160a01b0316156139ac57613924676765c793fa10079d601b1b613918601854876140fb90919063ffffffff16565b9063ffffffff61415416565b600854600554604080516340c10f1960e01b81526001600160a01b0392831660048201526024810185905290519396509116916340c10f19916044808201926020929091908290030181600087803b15801561397f57600080fd5b505af1158015613993573d6000803e3d6000fd5b505050506040513d60208110156139a957600080fd5b50505b6006546001600160a01b031615613a69576139e1676765c793fa10079d601b1b613918601954876140fb90919063ffffffff16565b600854600654604080516340c10f1960e01b81526001600160a01b0392831660048201526024810185905290519395509116916340c10f19916044808201926020929091908290030181600087803b158015613a3c57600080fd5b505af1158015613a50573d6000803e3d6000fd5b505050506040513d6020811015613a6657600080fd5b50505b601a5415613aaf57613a95676765c793fa10079d601b1b613918601a54876140fb90919063ffffffff16565b601b54909150613aab908263ffffffff6131ea16565b601b555b83613ac48261368a868663ffffffff6131ea16565b1115613b015760405162461bcd60e51b815260040180806020018281038252603181526020018061446a6031913960400191505060405180910390fd5b60408051898152602081018890528082018690526060810185905260808101839052905133917f0264534168fa7304ade59fc89758924d2288c7dcfd242dd680b668c80449c282919081900360a00190a260019a505050505050505050505090565b613b7460008263ffffffff61419616565b6040516001600160a01b038216907fcd265ebaf09df2871cc7bd4133404a235ba12eff2041bb89d9c714a2621c7c7e90600090a250565b6001600160a01b03861660009081526014602052604081205481904310801590613bec57506001600160a01b03881660009081526014602052604090205415155b15613c40576001600160a01b0388166000908152601560209081526040808320546011835281842055601682528083205460128352818420805460ff191660ff909216151591909117905560149091528120555b33600090815260116020526040902054868601925080613c605750613dbd565b84613c8a57613c6f8682614025565b9150613c81838363ffffffff613faf16565b9250613dbd9050565b86613c955750613dbd565b6000886001600160a01b03166370a08231866040518263ffffffff1660e01b815260040180826001600160a01b03166001600160a01b0316815260200191505060206040518083038186803b158015613ced57600080fd5b505afa158015613d01573d6000803e3d6000fd5b505050506040513d6020811015613d1757600080fd5b5051905080613d285750613dbd9050565b6000613d34828a613ff1565b9050613d49613d438983614025565b84614025565b93506000676765c793fa10079d601b1b8214613d7b57613d768583676765c793fa10079d601b1b03613ff1565b613d7d565b845b9050676765c793fa10079d601b1b8214613da257613d9b8183614025565b8501613da4565b845b9450613db6868263ffffffff6131ea16565b9550505050505b965096945050505050565b600061166f613dd78484614025565b85613ff1565b613dee60008263ffffffff6141db16565b6040516001600160a01b038216907f6719d08c1888103bea251a4ed56406bd0c3e69723c8a1686e017e7bbe159b6f890600090a250565b613e30610fb761307b565b613e6b5760405162461bcd60e51b81526004018080602001828103825260308152602001806143e66030913960400191505060405180910390fd5b600154600160a01b900460ff1615613ebd576040805162461bcd60e51b815260206004820152601060248201526f14185d5cd8589b194e881c185d5cd95960821b604482015290519081900360640190fd5b6001805460ff60a01b1916600160a01b1790557f62e78cea01bee320cd4e420270b5ea74000d11b0c9f74754ebdbfc544b05a25861315061307b565b60006001600160a01b03821661328b57600080fd5b6001600160a01b038116613f535760405162461bcd60e51b81526004018080602001828103825260268152602001806144166026913960400191505060405180910390fd5b6001546040516001600160a01b038084169216907f8be0079c531659141344cd1fd0a4f28419497f9722a3daafe3b4186f6b6457e090600090a3600180546001600160a01b0319166001600160a01b0392909216919091179055565b600061167283836040518060400160405280601e81526020017f536166654d6174683a207375627472616374696f6e206f766572666c6f770000815250614237565b60008161401661400c85676765c793fa10079d601b1b6142ce565b6002855b04614331565b8161401d57fe5b049392505050565b6000676765c793fa10079d601b1b61401661404085856142ce565b6002676765c793fa10079d601b1b614010565b61405d8282613ef9565b1561406757600080fd5b6001600160a01b0316600090815260209190915260409020805460ff19166001179055565b6140968282613ef9565b61409f57600080fd5b6001600160a01b0316600090815260209190915260409020805460ff19169055565b60006140cb61173c565b156140d557600080fd5b600e54601054438290039111156140ed579050610bd9565b600f54601054039003905090565b60008261410a5750600061165c565b8282028284828161411757fe5b04146116725760405162461bcd60e51b81526004018080602001828103825260218152602001806144bc6021913960400191505060405180910390fd5b600061167283836040518060400160405280601a81526020017f536166654d6174683a206469766973696f6e206279207a65726f000000000000815250614380565b6141a08282613244565b61409f5760405162461bcd60e51b815260040180806020018281038252602181526020018061449b6021913960400191505060405180910390fd5b6141e58282613244565b15614067576040805162461bcd60e51b815260206004820152601f60248201527f526f6c65733a206163636f756e7420616c72656164792068617320726f6c6500604482015290519081900360640190fd5b600081848411156142c65760405162461bcd60e51b81526004018080602001828103825283818151815260200191508051906020019080838360005b8381101561428b578181015183820152602001614273565b50505050905090810190601f1680156142b85780820380516001836020036101000a031916815260200191505b509250505060405180910390fd5b505050900390565b60008115806142e9575050808202828282816142e657fe5b04145b61165c576040805162461bcd60e51b815260206004820152601460248201527364732d6d6174682d6d756c2d6f766572666c6f7760601b604482015290519081900360640190fd5b8082018281101561165c576040805162461bcd60e51b815260206004820152601460248201527364732d6d6174682d6164642d6f766572666c6f7760601b604482015290519081900360640190fd5b600081836143cf5760405162461bcd60e51b815260206004820181815283516024840152835190928392604490910191908501908083836000831561428b578181015183820152602001614273565b5060008385816143db57fe5b049594505050505056fe506175736572526f6c653a2063616c6c657220646f6573206e6f742068617665207468652050617573657220726f6c654f776e61626c653a206e6577206f776e657220697320746865207a65726f2061646472657373536569674d616e616765723a20636f696e61676520686173206e6f74206265656e206465706c6f79656420796574706f776572746f6e2073656967202b2064616f207365696720657863656564656420756e7374616b656420616d6f756e74526f6c65733a206163636f756e7420646f6573206e6f74206861766520726f6c65536166654d6174683a206d756c7469706c69636174696f6e206f766572666c6f774f776e61626c653a2063616c6c6572206973206e6f7420746865206f776e6572526f6c65733a206163636f756e7420697320746865207a65726f2061646472657373536569674d616e616765723a20636f6d6d697373696f6e2072617465206d7573742062652030206f72206265747765656e20312052415920616e6420302e303120524159536569674d616e616765723a206f6e6c7920544f4e206f722057544f4e2063616e2063616c6c206f6e5472616e73666572536569674d616e616765723a20696e73756666696369616e742062616c616e636520746f20756e7374616b65a265627a7a723158205bd15598456b38a022f33edaaea8b0570e0261388104e820cf2d81d5991fb05464736f6c634300050c0032526f6c65733a206163636f756e7420697320746865207a65726f2061646472657373",
  "source": "pragma solidity ^0.5.12;\n\nimport { Ownable } from \"../../../node_modules/openzeppelin-solidity/contracts/ownership/Ownable.sol\";\nimport { Pausable } from \"../../../node_modules/openzeppelin-solidity/contracts/lifecycle/Pausable.sol\";\nimport { SafeMath } from \"../../../node_modules/openzeppelin-solidity/contracts/math/SafeMath.sol\";\nimport { ERC20Mintable } from \"../../../node_modules/openzeppelin-solidity/contracts/token/ERC20/ERC20Mintable.sol\";\nimport { IERC20 } from \"../../../node_modules/openzeppelin-solidity/contracts/token/ERC20/IERC20.sol\";\nimport { SafeERC20 } from \"../../../node_modules/openzeppelin-solidity/contracts/token/ERC20/SafeERC20.sol\";\n\nimport { DSMath } from \"../../lib/DSMath.sol\";\n//import { CustomIncrementCoinageMock } from \"../../../node_modules/coinage-token/flatten.sol\";\n//import { AutoRefactorCoinage } from \"../../../node_modules/coinage-token/flatten.sol\";\n//import { AutoRefactorCoinage } from \"../tokens/AutoRefactorCoinage.sol\";\nimport { AutoRefactorCoinageI } from \"../interfaces/AutoRefactorCoinageI.sol\";\nimport { CoinageFactoryI } from \"../interfaces/CoinageFactoryI.sol\";\n\nimport { AuthController } from \"../tokens/AuthController.sol\";\nimport { ChallengerRole } from \"../../roles/ChallengerRole.sol\";\n\nimport { Layer2I } from \"../../Layer2I.sol\";\n\nimport { SeigManagerI } from \"../interfaces/SeigManagerI.sol\";\nimport { Layer2RegistryI } from \"../interfaces/Layer2RegistryI.sol\";\nimport { DepositManagerI } from \"../interfaces/DepositManagerI.sol\";\nimport { PowerTONI } from \"../interfaces/PowerTONI.sol\";\n\n\n\n/**\n * @dev SeigManager gives seigniorage to operator and WTON holders.\n * For each commit by operator, operator (or user) will get seigniorage\n * in propotion to the staked (or delegated) amount of WTON.\n *\n * [Tokens]\n * - {tot} tracks total staked or delegated WTON of each Layer2 contract (and depositor?).\n * - {coinages[layer2]} tracks staked or delegated WTON of user or operator to a Layer2 contract.\n *\n * For each commit by operator,\n *  1. increases all layer2's balance of {tot} by (the staked amount of WTON) /\n *     (total supply of TON and WTON) * (num blocks * seigniorage per block).\n *  2. increases all depositors' blanace of {coinages[layer2]} in proportion to the staked amount of WTON,\n *     up to the increased amount in step (1).\n *  3. set the layer2's balance of {committed} as the layer2's {tot} balance.\n *\n * For each stake or delegate with amount of {v} to a Layer2,\n *  1. mint {v} {coinages[layer2]} tokens to the account\n *  2. mint {v} {tot} tokens to the layer2 contract\n *\n * For each unstake or undelegate (or get rewards) with amount of {v} to a Layer2,\n *  1. burn {v} {coinages[layer2]} tokens from the account\n *  2. burn {v + } {tot} tokens from the layer2 contract,\n *   where  = SEIGS * staked ratio of the layer2 * withdrawal ratio of the account\n *     - SEIGS                              = tot total supply - tot total supply at last commit from the layer2\n *     - staked ratio of the layer2     = tot balance of the layer2 / tot total supply\n *     - withdrawal ratio of the account  = amount to withdraw / total supply of coinage\n *\n */\ncontract SeigManager is SeigManagerI, DSMath, Ownable, Pausable, AuthController, ChallengerRole {\n  using SafeMath for uint256;\n  using SafeERC20 for ERC20Mintable;\n\n  //////////////////////////////\n  // Common contracts\n  //////////////////////////////\n\n  Layer2RegistryI internal _registry;\n  DepositManagerI internal _depositManager;\n  PowerTONI internal _powerton;\n  address public _dao;\n\n  //////////////////////////////\n  // Token-related\n  //////////////////////////////\n\n  // TON token contract\n  IERC20 internal _ton;\n\n  // WTON token contract\n  ERC20Mintable internal _wton; // TODO: use mintable erc20!\n\n  // contract factory\n  CoinageFactoryI public factory;\n\n  // track total deposits of each layer2.\n  AutoRefactorCoinageI internal _tot;\n\n  // coinage token for each layer2.\n  mapping (address => AutoRefactorCoinageI) internal _coinages;\n\n  // last commit block number for each layer2.\n  mapping (address => uint256) internal _lastCommitBlock;\n\n  // total seigniorage per block\n  uint256 internal _seigPerBlock;\n\n  // the block number when seigniorages are given\n  uint256 internal _lastSeigBlock;\n\n  // block number when paused or unpaused\n  uint256 internal _pausedBlock;\n  uint256 internal _unpausedBlock;\n\n  // commission rates in RAY\n  mapping (address => uint256) internal _commissionRates;\n\n  // whether commission is negative or not (default=possitive)\n  mapping (address => bool) internal _isCommissionRateNegative;\n\n  // setting commissionrate delay\n  uint256 public adjustCommissionDelay;\n  mapping (address => uint256) public delayedCommissionBlock;\n  mapping (address => uint256) public delayedCommissionRate;\n  mapping (address => bool) public delayedCommissionRateNegative;\n\n  // minimum deposit amount\n  uint256 public minimumAmount;\n\n  uint256 public powerTONSeigRate;\n  uint256 public daoSeigRate;\n  uint256 public relativeSeigRate;\n\n  uint256 public accRelativeSeig;\n\n  //////////////////////////////\n  // Constants\n  //////////////////////////////\n\n  uint256 constant public RAY = 10 ** 27; // 1 RAY\n  uint256 constant internal _DEFAULT_FACTOR = RAY;\n\n  uint256 constant public MAX_VALID_COMMISSION = RAY; // 1 RAY\n  uint256 constant public MIN_VALID_COMMISSION = 10 ** 25; // 0.01 RAY\n\n  //////////////////////////////\n  // Modifiers\n  //////////////////////////////\n\n  modifier onlyRegistry() {\n    require(msg.sender == address(_registry));\n    _;\n  }\n\n  modifier onlyRegistryOrOperator(address layer2) {\n    require(msg.sender == address(_registry) || msg.sender == Layer2I(layer2).operator());\n    _;\n  }\n\n  modifier onlyDepositManager() {\n    require(msg.sender == address(_depositManager));\n    _;\n  }\n\n  modifier onlyLayer2(address layer2) {\n    require(_registry.layer2s(layer2));\n    _;\n  }\n\n  modifier checkCoinage(address layer2) {\n    require(address(_coinages[layer2]) != address(0), \"SeigManager: coinage has not been deployed yet\");\n    _;\n  }\n\n  //////////////////////////////\n  // Events\n  //////////////////////////////\n\n  event CoinageCreated(address indexed layer2, address coinage);\n  event SeigGiven(address indexed layer2, uint256 totalSeig, uint256 stakedSeig, uint256 unstakedSeig, uint256 powertonSeig, uint256 pseig);\n  event Comitted(address indexed layer2);\n  event CommissionRateSet(address indexed layer2, uint256 previousRate, uint256 newRate);\n\n  //////////////////////////////\n  // Constuctor\n  //////////////////////////////\n\n  constructor (\n    ERC20Mintable ton,\n    ERC20Mintable wton,\n    Layer2RegistryI registry,\n    DepositManagerI depositManager,\n    uint256 seigPerBlock,\n    address factory_\n  ) public {\n    _ton = ton;\n    _wton = wton;\n    _registry = registry;\n    _depositManager = depositManager;\n    _seigPerBlock = seigPerBlock;\n\n    factory = CoinageFactoryI(factory_);\n    address c = factory.deploy();\n    _tot = AutoRefactorCoinageI(c);\n\n    _lastSeigBlock = block.number;\n  }\n\n  //////////////////////////////\n  // Override Pausable\n  //////////////////////////////\n\n  function pause() public onlyPauser whenNotPaused {\n    _pausedBlock = block.number;\n    super.pause();\n  }\n\n  /**\n   * @dev Called by a pauser to unpause, returns to normal state.\n   */\n  function unpause() public onlyPauser whenPaused {\n    _unpausedBlock = block.number;\n    super.unpause();\n  }\n\n  //////////////////////////////\n  // External functions\n  //////////////////////////////\n\n  /**\n   * @dev set PowerTON contract, only by owner.\n   */\n  function setPowerTON(PowerTONI powerton) external onlyOwner {\n    _powerton = powerton;\n  }\n\n  function setDao(address daoAddress) external onlyOwner {\n    _dao = daoAddress;\n  }\n\n  /**\n   * @dev deploy coinage token for the layer2.\n   */\n  function deployCoinage(address layer2) external onlyRegistry returns (bool) {\n    // create new coinage token for the layer2 contract\n    if (address(_coinages[layer2]) == address(0)) {\n      /*_coinages[layer2] = new CustomIncrementCoinageMock(\n        \"\",\n        \"\",\n        _DEFAULT_FACTOR,\n        false\n      );*/\n      address c = factory.deploy();\n      _lastCommitBlock[layer2] = block.number;\n      addChallenger(layer2);\n      _coinages[layer2] = AutoRefactorCoinageI(c);\n      emit CoinageCreated(layer2, c);\n    }\n\n    return true;\n  }\n\n  function setCommissionRate(\n    address layer2,\n    uint256 commissionRate,\n    bool isCommissionRateNegative\n  )\n    external\n    onlyRegistryOrOperator(layer2)\n    returns (bool)\n  {\n    // check commission range\n    require(\n      (commissionRate == 0) ||\n      (MIN_VALID_COMMISSION <= commissionRate && commissionRate <= MAX_VALID_COMMISSION),\n      \"SeigManager: commission rate must be 0 or between 1 RAY and 0.01 RAY\"\n    );\n\n    uint256 previous = _commissionRates[layer2];\n    if (adjustCommissionDelay == 0) {\n      _commissionRates[layer2] = commissionRate;\n      _isCommissionRateNegative[layer2] = isCommissionRateNegative;\n    } else {\n      delayedCommissionBlock[layer2] = block.number + adjustCommissionDelay;\n      delayedCommissionRate[layer2] = commissionRate;\n      delayedCommissionRateNegative[layer2] = isCommissionRateNegative;\n    }\n\n    emit CommissionRateSet(layer2, previous, commissionRate);\n\n    return true;\n  }\n\n  function getOperatorAmount(address layer2) public view returns (bool) {\n    address operator = Layer2I(msg.sender).operator();\n    require(_coinages[layer2].balanceOf(operator) >= minimumAmount);\n  }\n\n  /**\n   * @dev Callback for a new commit\n   */\n  function updateSeigniorage()\n    external\n    checkCoinage(msg.sender)\n    returns (bool)\n  {\n    // short circuit if paused\n    if (paused()) {\n      return true;\n    }\n\n    _increaseTot();\n\n    _lastCommitBlock[msg.sender] = block.number;\n\n    // 2. increase total supply of {coinages[layer2]}\n    AutoRefactorCoinageI coinage = _coinages[msg.sender];\n\n    uint256 prevTotalSupply = coinage.totalSupply();\n    uint256 nextTotalSupply = _tot.balanceOf(msg.sender);\n\n    // short circuit if there is no seigs for the layer2\n    if (prevTotalSupply >= nextTotalSupply) {\n      emit Comitted(msg.sender);\n      return true;\n    }\n\n    uint256 seigs = nextTotalSupply - prevTotalSupply;\n    address operator = Layer2I(msg.sender).operator();\n    uint256 operatorSeigs;\n\n    // calculate commission amount\n    bool isCommissionRateNegative = _isCommissionRateNegative[msg.sender];\n\n    (nextTotalSupply, operatorSeigs) = _calcSeigsDistribution(\n      msg.sender,\n      coinage,\n      prevTotalSupply,\n      seigs,\n      isCommissionRateNegative,\n      operator\n    );\n\n    // gives seigniorages to the layer2 as coinage\n    coinage.setFactor(\n      _calcNewFactor(\n        prevTotalSupply,\n        nextTotalSupply,\n        coinage.factor()\n      )\n    );\n\n    // give commission to operator or delegators\n    if (operatorSeigs != 0) {\n      if (isCommissionRateNegative) {\n        // TODO: adjust arithmetic error\n        // burn by \n        coinage.burnFrom(operator, operatorSeigs);\n      } else {\n        coinage.mint(operator, operatorSeigs);\n      }\n    }\n\n    _wton.mint(address(_depositManager), seigs);\n\n    emit Comitted(msg.sender);\n\n    return true;\n  }\n\n  function _calcSeigsDistribution(\n    address layer2,\n    AutoRefactorCoinageI coinage,\n    uint256 prevTotalSupply,\n    uint256 seigs,\n    bool isCommissionRateNegative,\n    address operator\n  ) internal returns (\n    uint256 nextTotalSupply,\n    uint256 operatorSeigs\n  ) {\n    if (block.number >= delayedCommissionBlock[layer2] && delayedCommissionBlock[layer2] != 0) {\n      _commissionRates[layer2] = delayedCommissionRate[layer2];\n      _isCommissionRateNegative[layer2] = delayedCommissionRateNegative[layer2];\n      delayedCommissionBlock[layer2] = 0;\n    }\n\n    uint256 commissionRate = _commissionRates[msg.sender];\n\n    nextTotalSupply = prevTotalSupply + seigs;\n\n    // short circuit if there is no commission rate\n    if (commissionRate == 0) {\n      return (nextTotalSupply, operatorSeigs);\n    }\n\n    // if commission rate is possitive\n    if (!isCommissionRateNegative) {\n      operatorSeigs = rmul(seigs, commissionRate); // additional seig for operator\n      nextTotalSupply = nextTotalSupply.sub(operatorSeigs);\n      return (nextTotalSupply, operatorSeigs);\n    }\n\n    // short circuit if there is no previous total deposit (meanning, there is no deposit)\n    if (prevTotalSupply == 0) {\n      return (nextTotalSupply, operatorSeigs);\n    }\n\n    // See negative commission distribution formular here: TBD\n    uint256 operatorBalance = coinage.balanceOf(operator);\n\n    // short circuit if there is no operator deposit\n    if (operatorBalance == 0) {\n      return (nextTotalSupply, operatorSeigs);\n    }\n\n    uint256 operatorRate = rdiv(operatorBalance, prevTotalSupply);\n\n    // : insufficient seig for operator\n    operatorSeigs = rmul(\n      rmul(seigs, operatorRate), // seigs for operator\n      commissionRate\n    );\n\n    // :\n    uint256 delegatorSeigs = operatorRate == RAY\n      ? operatorSeigs\n      : rdiv(operatorSeigs, RAY - operatorRate);\n\n    // :\n    operatorSeigs = operatorRate == RAY\n      ? operatorSeigs\n      : operatorSeigs + rmul(delegatorSeigs, operatorRate);\n\n    nextTotalSupply = nextTotalSupply.add(delegatorSeigs);\n\n    return (nextTotalSupply, operatorSeigs);\n  }\n\n  function _calcSlashFactor(\n    AutoRefactorCoinageI coinage,\n    uint256 slashAmount\n  ) internal returns (uint256) {\n    uint256 prevTotalSupply = coinage.totalSupply();\n    uint256 newFactor = rdiv(prevTotalSupply.sub(slashAmount), prevTotalSupply.div(coinage.factor()));\n    return newFactor;\n  }\n\n  /**\n   * @dev Callback for a token transfer\n   */\n  function onTransfer(address sender, address recipient, uint256 amount) external returns (bool) {\n    require(msg.sender == address(_ton) || msg.sender == address(_wton),\n      \"SeigManager: only TON or WTON can call onTransfer\");\n\n    if (!paused()) {\n      _increaseTot();\n    }\n\n    return true;\n  }\n\n  /**\n   * @dev Callback for a new deposit\n   */\n  function onDeposit(address layer2, address account, uint256 amount)\n    external\n    onlyDepositManager\n    checkCoinage(layer2)\n    returns (bool)\n  {\n    if (_isOperator(layer2, account)) {\n      uint256 newAmount = _coinages[layer2].balanceOf(account).add(amount);\n      require(newAmount >= minimumAmount, \"minimum amount is required\");\n    }\n    _tot.mint(layer2, amount);\n    _coinages[layer2].mint(account, amount);\n    if (address(_powerton) != address(0)) {\n      _powerton.onDeposit(layer2, account, amount);\n    }\n    return true;\n  }\n\n  // DEV ONLY\n  event UnstakeLog(uint coinageBurnAmount, uint totBurnAmount);\n\n  function onWithdraw(address layer2, address account, uint256 amount)\n    external\n    onlyDepositManager\n    checkCoinage(layer2)\n    returns (bool)\n  {\n    require(_coinages[layer2].balanceOf(account) >= amount, \"SeigManager: insufficiant balance to unstake\");\n\n    if (_isOperator(layer2, account)) {\n      require(_coinages[layer2].balanceOf(account) >= amount, \"test 1234\");\n      uint256 newAmount = _coinages[layer2].balanceOf(account).sub(amount);\n      require(newAmount >= minimumAmount, \"minimum amount is required\");\n    }\n\n    // burn {v + } {tot} tokens to the layer2 contract,\n    uint256 totAmount = _additionalTotBurnAmount(layer2, account, amount);\n    require(_tot.balanceOf(layer2) >= amount.add(totAmount), \"test 111\");\n    _tot.burnFrom(layer2, amount.add(totAmount));\n\n    // burn {v} {coinages[layer2]} tokens to the account\n    require(_coinages[layer2].balanceOf(account) >= amount, \"test 222\");\n    _coinages[layer2].burnFrom(account, amount);\n\n    if (address(_powerton) != address(0)) {\n      _powerton.onWithdraw(layer2, account, amount);\n    }\n\n    emit UnstakeLog(amount, totAmount);\n\n    return true;\n  }\n\n  /*function setGlobalMinimumWithdrawalPeriod(uint256 minimumWithdrawalPeriod) external onlyOwner {\n    globalMinimumWithdrawalPeriod = minimumWithdrawalPeriod;\n  }*/\n\n  /*function setMinimumWithdrawalPeriod(uint256 minimumWithdrawalPeriod_) external onlyOwner {\n    minimumWithdrawalPeriod = minimumWithdrawalPeriod_;\n  }*/\n\n  function setPowerTONSeigRate(uint256 powerTONSeigRate_) external onlyOwner {\n    require(powerTONSeigRate_ > 0 && powerTONSeigRate_ < RAY, \"exceeded seigniorage rate\");\n    powerTONSeigRate = powerTONSeigRate_;\n  }\n\n  function setDaoSeigRate(uint256 daoSeigRate_) external onlyOwner {\n    require(daoSeigRate_ > 0 && daoSeigRate_ < RAY, \"exceeded seigniorage rate\");\n    daoSeigRate = daoSeigRate_;\n  }\n\n  function setPseigRate(uint256 PseigRate_) external onlyOwner {\n    require(PseigRate_ > 0 && PseigRate_ < RAY, \"exceeded seigniorage rate\");\n    relativeSeigRate = PseigRate_;\n  }\n\n  function setCoinageFactory(address factory_) external onlyOwner {\n    factory = CoinageFactoryI(factory_);\n  }\n\n  function addChallenger(address account) public onlyRegistry {\n    _addChallenger(account);\n  }\n\n  function transferCoinageOwnership(address newSeigManager, address[] calldata coinages) external onlyOwner {\n    for (uint256 i = 0; i < coinages.length; i++) {\n      AutoRefactorCoinageI c = AutoRefactorCoinageI(coinages[i]);\n      c.addMinter(newSeigManager);\n      c.renounceMinter();\n      c.transferOwnership(newSeigManager);\n    }\n  }\n\n  function renounceWTONMinter() external onlyOwner {\n    _wton.renounceMinter();\n  }\n\n  function slash(address layer2, address challenger) external onlyChallenger checkCoinage(layer2) returns (bool) {\n    Layer2I(layer2).changeOperator(challenger);\n\n    return true;\n  }\n\n  function additionalTotBurnAmount(address layer2, address account, uint256 amount)\n    external\n    view\n    returns (uint256 totAmount)\n  {\n    return _additionalTotBurnAmount(layer2, account, amount);\n  }\n\n  // return , where  = (tot.balanceOf(layer2) - coinages[layer2].totalSupply()) * (amount / coinages[layer2].totalSupply())\n  function _additionalTotBurnAmount(address layer2, address account, uint256 amount)\n    internal\n    view\n    returns (uint256 totAmount)\n  {\n    uint256 coinageTotalSupply = _coinages[layer2].totalSupply();\n    uint256 totBalalnce = _tot.balanceOf(layer2);\n\n    // NOTE: arithamtic operations (mul and div) make some errors, so we gonna adjust them under 1e-9 WTON.\n    //       note that coinageTotalSupply and totBalalnce are RAY values.\n    if (coinageTotalSupply > totBalalnce && coinageTotalSupply - totBalalnce < WAD) {\n      return 0;\n    }\n\n    return rdiv(\n      rmul(\n        totBalalnce.sub(coinageTotalSupply),\n        amount\n      ),\n      coinageTotalSupply\n    );\n  }\n\n  function setAdjustDelay(uint256 adjustDelay_) external onlyOwner {\n    adjustCommissionDelay = adjustDelay_;\n  }\n\n  function setMinimumAmount(uint256 minimumAmount_) external onlyOwner {\n    minimumAmount = minimumAmount_;\n  }\n\n  //////////////////////////////\n  // Public and internal functions\n  //////////////////////////////\n\n  function uncomittedStakeOf(address layer2, address account) external view returns (uint256) {\n    AutoRefactorCoinageI coinage = _coinages[layer2];\n\n    uint256 prevFactor = coinage.factor();\n    uint256 prevTotalSupply = coinage.totalSupply();\n    uint256 nextTotalSupply = _tot.balanceOf(layer2);\n    uint256 newFactor = _calcNewFactor(prevTotalSupply, nextTotalSupply, prevFactor);\n\n    uint256 uncomittedBalance = rmul(\n      rdiv(coinage.balanceOf(account), prevFactor),\n      newFactor\n    );\n\n    return uncomittedBalance\n      .sub(_coinages[layer2].balanceOf(account));\n  }\n\n  function stakeOf(address layer2, address account) external view returns (uint256) {\n    return _coinages[layer2].balanceOf(account);\n  }\n\n  function _calcNewFactor(uint256 source, uint256 target, uint256 oldFactor) internal pure returns (uint256) {\n    return rdiv(rmul(target, oldFactor), source);\n  }\n\n  // DEV ONLY\n  event CommitLog1(uint256 totalStakedAmount, uint256 totalSupplyOfWTON, uint256 prevTotalSupply, uint256 nextTotalSupply);\n\n  function _increaseTot() internal returns (bool) {\n    // short circuit if already seigniorage is given.\n    if (block.number == _lastSeigBlock) {\n      return false;\n    }\n\n    if (_tot.totalSupply() == 0) {\n      _lastSeigBlock = block.number;\n      return false;\n    }\n\n    uint256 prevTotalSupply;\n    uint256 nextTotalSupply;\n\n    // 1. increase total supply of {tot} by maximum seigniorages * staked rate\n    //    staked rate = total staked amount / total supply of (W)TON\n\n    prevTotalSupply = _tot.totalSupply();\n\n    // maximum seigniorages\n    uint256 maxSeig = _calcNumSeigBlocks().mul(_seigPerBlock);\n\n    // total supply of (W)TON\n    uint256 tos = _ton.totalSupply()\n      .sub(_ton.balanceOf(address(_wton)))\n      .mul(10 ** 9)                                       // convert TON total supply into ray\n      .add(_tot.totalSupply());  // consider additional TOT balance as total supply\n\n    // maximum seigniorages * staked rate\n    uint256 stakedSeig = rdiv(\n      rmul(\n        maxSeig,\n        // total staked amount\n        _tot.totalSupply()\n      ),\n      tos\n    );\n    //uint256 stakedSeig = rmul(maxSeig, RAY.sub(powerTONSeigRate).sub(daoSeigRate));\n\n    // pseig\n    uint256 totalPseig = rmul(maxSeig.sub(stakedSeig), relativeSeigRate);\n\n    nextTotalSupply = prevTotalSupply.add(stakedSeig).add(totalPseig);\n    _lastSeigBlock = block.number;\n\n    _tot.setFactor(_calcNewFactor(prevTotalSupply, nextTotalSupply, _tot.factor()));\n\n    // TODO: reduce computation\n    // DEV ONLY\n    emit CommitLog1(\n      _tot.totalSupply(),\n      tos,\n      prevTotalSupply,\n      nextTotalSupply\n    );\n\n    uint256 unstakedSeig = maxSeig.sub(stakedSeig);\n    uint256 powertonSeig;\n    uint256 daoSeig;\n    uint256 relativeSeig;\n\n    if (address(_powerton) != address(0)) {\n      powertonSeig = unstakedSeig.mul(powerTONSeigRate).div(RAY);\n\n      _wton.mint(address(_powerton), powertonSeig);\n    }\n\n    if (_dao != address(0)) {\n      //daoSeig = unstakedSeig.mul(_factorDao).div(_DEFAULT_FACTOR);\n      daoSeig = unstakedSeig.mul(daoSeigRate).div(RAY);\n      _wton.mint(address(_dao), daoSeig);\n    }\n\n    if (relativeSeigRate != 0) {\n      relativeSeig = unstakedSeig.mul(relativeSeigRate).div(RAY);\n      accRelativeSeig = accRelativeSeig.add(relativeSeig);\n    }\n\n    require(powertonSeig.add(daoSeig).add(relativeSeig) <= unstakedSeig, \"powerton seig + dao seig exceeded unstaked amount\");\n\n    emit SeigGiven(msg.sender, maxSeig, stakedSeig, unstakedSeig, powertonSeig, relativeSeig);\n\n    return true;\n  }\n\n  function _calcNumSeigBlocks() internal view returns (uint256) {\n    require(!paused());\n\n    uint256 span = block.number - _lastSeigBlock;\n    if (_unpausedBlock < _lastSeigBlock) {\n      return span;\n    }\n\n    return span - (_unpausedBlock - _pausedBlock);\n  }\n\n  function _isOperator(address layer2, address operator) internal view returns (bool) {\n    return operator == Layer2I(layer2).operator();\n  }\n\n  //////////////////////////////\n  // Storage getters\n  //////////////////////////////\n\n  // solium-disable\n  function registry() external view returns (address) { return address(_registry); }\n  function depositManager() external view returns (address) { return address(_depositManager); }\n  function ton() external view returns (address) { return address(_ton); }\n  function wton() external view returns (address) { return address(_wton); }\n  function powerton() external view returns (address) { return address(_powerton); }\n  function tot() external view returns (address) { return address(_tot); }\n  function coinages(address layer2) external view returns (address) { return address(_coinages[layer2]); }\n  function commissionRates(address layer2) external view returns (uint256) { return _commissionRates[layer2]; }\n  function isCommissionRateNegative(address layer2) external view returns (bool) { return _isCommissionRateNegative[layer2]; }\n\n  function lastCommitBlock(address layer2) external view returns (uint256) { return _lastCommitBlock[layer2]; }\n  function seigPerBlock() external view returns (uint256) { return _seigPerBlock; }\n  function lastSeigBlock() external view returns (uint256) { return _lastSeigBlock; }\n  function pausedBlock() external view returns (uint256) { return _pausedBlock; }\n  function unpausedBlock() external view returns (uint256) { return _unpausedBlock; }\n\n  function DEFAULT_FACTOR() external view returns (uint256) { return _DEFAULT_FACTOR; }\n  // solium-enable\n\n}\n",
  "sourcePath": "/home/modagi/github/onther/plasma-evm-contracts2/contracts/stake/managers/SeigManager.sol",
  "compiler": {
    "name": "solc",
    "version": "0.5.12+commit.7709ece9.Emscripten.clang"
  },
  "schemaVersion": "3.2.1",
  "updatedAt": "2020-09-10T05:29:25.991Z",
  "devdoc": {
    "details": "SeigManager gives seigniorage to operator and WTON holders. For each commit by operator, operator (or user) will get seigniorage in propotion to the staked (or delegated) amount of WTON. * [Tokens] - {tot} tracks total staked or delegated WTON of each Layer2 contract (and depositor?). - {coinages[layer2]} tracks staked or delegated WTON of user or operator to a Layer2 contract. * For each commit by operator, 1. increases all layer2's balance of {tot} by (the staked amount of WTON) /    (total supply of TON and WTON) * (num blocks * seigniorage per block). 2. increases all depositors' blanace of {coinages[layer2]} in proportion to the staked amount of WTON,    up to the increased amount in step (1). 3. set the layer2's balance of {committed} as the layer2's {tot} balance. * For each stake or delegate with amount of {v} to a Layer2, 1. mint {v} {coinages[layer2]} tokens to the account 2. mint {v} {tot} tokens to the layer2 contract * For each unstake or undelegate (or get rewards) with amount of {v} to a Layer2, 1. burn {v} {coinages[layer2]} tokens from the account 2. burn {v + } {tot} tokens from the layer2 contract,  where  = SEIGS * staked ratio of the layer2 * withdrawal ratio of the account    - SEIGS                              = tot total supply - tot total supply at last commit from the layer2    - staked ratio of the layer2     = tot balance of the layer2 / tot total supply    - withdrawal ratio of the account  = amount to withdraw / total supply of coinage ",
    "methods": {
      "deployCoinage(address)": {
        "details": "deploy coinage token for the layer2."
      },
      "isOwner()": {
        "details": "Returns true if the caller is the current owner."
      },
      "onDeposit(address,address,uint256)": {
        "details": "Callback for a new deposit"
      },
      "onTransfer(address,address,uint256)": {
        "details": "Callback for a token transfer"
      },
      "owner()": {
        "details": "Returns the address of the current owner."
      },
      "paused()": {
        "details": "Returns true if the contract is paused, and false otherwise."
      },
      "renounceOwnership()": {
        "details": "Leaves the contract without owner. It will not be possible to call `onlyOwner` functions anymore. Can only be called by the current owner.     * NOTE: Renouncing ownership will leave the contract without an owner, thereby removing any functionality that is only available to the owner."
      },
      "setPowerTON(address)": {
        "details": "set PowerTON contract, only by owner."
      },
      "transferOwnership(address)": {
        "details": "Transfers ownership of the contract to a new account (`newOwner`). Can only be called by the current owner."
      },
      "unpause()": {
        "details": "Called by a pauser to unpause, returns to normal state."
      },
      "updateSeigniorage()": {
        "details": "Callback for a new commit"
      }
    }
  },
  "userdoc": {
    "methods": {
      "constructor": "///////////////////////////",
      "pause()": {
        "notice": "///////////////////////////"
      },
      "registry()": {
        "notice": "///////////////////////////"
      },
      "uncomittedStakeOf(address,address)": {
        "notice": "///////////////////////////"
      }
    }
  }
}