{
  "contractName": "SubmitHandler",
  "abi": [
    {
      "inputs": [
        {
          "internalType": "address",
          "name": "_epochHandler",
          "type": "address"
        }
      ],
      "payable": false,
      "stateMutability": "nonpayable",
      "type": "constructor"
    },
    {
      "anonymous": false,
      "inputs": [
        {
          "indexed": false,
          "internalType": "uint256",
          "name": "forkNumber",
          "type": "uint256"
        },
        {
          "indexed": false,
          "internalType": "uint256",
          "name": "blockNumber",
          "type": "uint256"
        }
      ],
      "name": "BlockFinalized",
      "type": "event"
    },
    {
      "anonymous": false,
      "inputs": [
        {
          "indexed": false,
          "internalType": "uint256",
          "name": "fork",
          "type": "uint256"
        },
        {
          "indexed": false,
          "internalType": "uint256",
          "name": "epochNumber",
          "type": "uint256"
        },
        {
          "indexed": false,
          "internalType": "uint256",
          "name": "blockNumber",
          "type": "uint256"
        },
        {
          "indexed": false,
          "internalType": "bool",
          "name": "isRequest",
          "type": "bool"
        },
        {
          "indexed": false,
          "internalType": "bool",
          "name": "userActivated",
          "type": "bool"
        }
      ],
      "name": "BlockSubmitted",
      "type": "event"
    },
    {
      "anonymous": false,
      "inputs": [
        {
          "indexed": false,
          "internalType": "uint256",
          "name": "requestId",
          "type": "uint256"
        },
        {
          "indexed": false,
          "internalType": "address",
          "name": "requestor",
          "type": "address"
        },
        {
          "indexed": false,
          "internalType": "address",
          "name": "to",
          "type": "address"
        },
        {
          "indexed": false,
          "internalType": "bytes",
          "name": "trieKey",
          "type": "bytes"
        },
        {
          "indexed": false,
          "internalType": "bytes32",
          "name": "trieValue",
          "type": "bytes32"
        }
      ],
      "name": "ERUCreated",
      "type": "event"
    },
    {
      "anonymous": false,
      "inputs": [
        {
          "indexed": false,
          "internalType": "uint256",
          "name": "forkNumber",
          "type": "uint256"
        },
        {
          "indexed": false,
          "internalType": "uint256",
          "name": "epochNumber",
          "type": "uint256"
        }
      ],
      "name": "EpochFilled",
      "type": "event"
    },
    {
      "anonymous": false,
      "inputs": [
        {
          "indexed": false,
          "internalType": "uint256",
          "name": "forkNumber",
          "type": "uint256"
        },
        {
          "indexed": false,
          "internalType": "uint256",
          "name": "epochNumber",
          "type": "uint256"
        }
      ],
      "name": "EpochFilling",
      "type": "event"
    },
    {
      "anonymous": false,
      "inputs": [
        {
          "indexed": false,
          "internalType": "uint256",
          "name": "forkNumber",
          "type": "uint256"
        },
        {
          "indexed": false,
          "internalType": "uint256",
          "name": "epochNumber",
          "type": "uint256"
        },
        {
          "indexed": false,
          "internalType": "uint256",
          "name": "startBlockNumber",
          "type": "uint256"
        },
        {
          "indexed": false,
          "internalType": "uint256",
          "name": "endBlockNumber",
          "type": "uint256"
        }
      ],
      "name": "EpochFinalized",
      "type": "event"
    },
    {
      "anonymous": false,
      "inputs": [
        {
          "indexed": false,
          "internalType": "uint256",
          "name": "forkNumber",
          "type": "uint256"
        },
        {
          "indexed": false,
          "internalType": "uint256",
          "name": "epochNumber",
          "type": "uint256"
        },
        {
          "indexed": false,
          "internalType": "uint256",
          "name": "startBlockNumber",
          "type": "uint256"
        },
        {
          "indexed": false,
          "internalType": "uint256",
          "name": "endBlockNumber",
          "type": "uint256"
        },
        {
          "indexed": false,
          "internalType": "uint256",
          "name": "requestStart",
          "type": "uint256"
        },
        {
          "indexed": false,
          "internalType": "uint256",
          "name": "requestEnd",
          "type": "uint256"
        },
        {
          "indexed": false,
          "internalType": "bool",
          "name": "epochIsEmpty",
          "type": "bool"
        },
        {
          "indexed": false,
          "internalType": "bool",
          "name": "isRequest",
          "type": "bool"
        },
        {
          "indexed": false,
          "internalType": "bool",
          "name": "userActivated",
          "type": "bool"
        },
        {
          "indexed": false,
          "internalType": "bool",
          "name": "rebase",
          "type": "bool"
        }
      ],
      "name": "EpochPrepared",
      "type": "event"
    },
    {
      "anonymous": false,
      "inputs": [
        {
          "indexed": false,
          "internalType": "uint256",
          "name": "forkNumber",
          "type": "uint256"
        },
        {
          "indexed": false,
          "internalType": "uint256",
          "name": "epochNumber",
          "type": "uint256"
        },
        {
          "indexed": false,
          "internalType": "uint256",
          "name": "startBlockNumber",
          "type": "uint256"
        },
        {
          "indexed": false,
          "internalType": "uint256",
          "name": "endBlockNumber",
          "type": "uint256"
        },
        {
          "indexed": false,
          "internalType": "uint256",
          "name": "requestStart",
          "type": "uint256"
        },
        {
          "indexed": false,
          "internalType": "uint256",
          "name": "requestEnd",
          "type": "uint256"
        },
        {
          "indexed": false,
          "internalType": "bool",
          "name": "epochIsEmpty",
          "type": "bool"
        },
        {
          "indexed": false,
          "internalType": "bool",
          "name": "isRequest",
          "type": "bool"
        },
        {
          "indexed": false,
          "internalType": "bool",
          "name": "userActivated",
          "type": "bool"
        }
      ],
      "name": "EpochRebased",
      "type": "event"
    },
    {
      "anonymous": false,
      "inputs": [
        {
          "indexed": false,
          "internalType": "uint256",
          "name": "newFork",
          "type": "uint256"
        },
        {
          "indexed": false,
          "internalType": "uint256",
          "name": "epochNumber",
          "type": "uint256"
        },
        {
          "indexed": false,
          "internalType": "uint256",
          "name": "forkedBlockNumber",
          "type": "uint256"
        }
      ],
      "name": "Forked",
      "type": "event"
    },
    {
      "anonymous": false,
      "inputs": [
        {
          "indexed": false,
          "internalType": "address",
          "name": "_newOperator",
          "type": "address"
        }
      ],
      "name": "OperatorChanged",
      "type": "event"
    },
    {
      "anonymous": false,
      "inputs": [
        {
          "indexed": false,
          "internalType": "uint256",
          "name": "requestId",
          "type": "uint256"
        },
        {
          "indexed": false,
          "internalType": "bool",
          "name": "userActivated",
          "type": "bool"
        }
      ],
      "name": "RequestApplied",
      "type": "event"
    },
    {
      "anonymous": false,
      "inputs": [
        {
          "indexed": false,
          "internalType": "uint256",
          "name": "requestId",
          "type": "uint256"
        },
        {
          "indexed": false,
          "internalType": "bool",
          "name": "userActivated",
          "type": "bool"
        }
      ],
      "name": "RequestChallenged",
      "type": "event"
    },
    {
      "anonymous": false,
      "inputs": [
        {
          "indexed": false,
          "internalType": "uint256",
          "name": "requestId",
          "type": "uint256"
        },
        {
          "indexed": false,
          "internalType": "address",
          "name": "requestor",
          "type": "address"
        },
        {
          "indexed": false,
          "internalType": "address",
          "name": "to",
          "type": "address"
        },
        {
          "indexed": false,
          "internalType": "uint256",
          "name": "weiAmount",
          "type": "uint256"
        },
        {
          "indexed": false,
          "internalType": "bytes32",
          "name": "trieKey",
          "type": "bytes32"
        },
        {
          "indexed": false,
          "internalType": "bytes",
          "name": "trieValue",
          "type": "bytes"
        },
        {
          "indexed": false,
          "internalType": "bool",
          "name": "isExit",
          "type": "bool"
        },
        {
          "indexed": false,
          "internalType": "bool",
          "name": "userActivated",
          "type": "bool"
        }
      ],
      "name": "RequestCreated",
      "type": "event"
    },
    {
      "anonymous": false,
      "inputs": [
        {
          "indexed": false,
          "internalType": "uint256",
          "name": "requestId",
          "type": "uint256"
        },
        {
          "indexed": false,
          "internalType": "bool",
          "name": "userActivated",
          "type": "bool"
        }
      ],
      "name": "RequestFinalized",
      "type": "event"
    },
    {
      "anonymous": false,
      "inputs": [
        {
          "indexed": false,
          "internalType": "address",
          "name": "contractInRootchain",
          "type": "address"
        },
        {
          "indexed": false,
          "internalType": "address",
          "name": "contractInChildchain",
          "type": "address"
        }
      ],
      "name": "RequestableContractMapped",
      "type": "event"
    },
    {
      "anonymous": false,
      "inputs": [
        {
          "indexed": false,
          "internalType": "bool",
          "name": "userActivated",
          "type": "bool"
        }
      ],
      "name": "SessionTimeout",
      "type": "event"
    },
    {
      "constant": true,
      "inputs": [],
      "name": "COST_ERO",
      "outputs": [
        {
          "internalType": "uint256",
          "name": "",
          "type": "uint256"
        }
      ],
      "payable": false,
      "stateMutability": "view",
      "type": "function"
    },
    {
      "constant": true,
      "inputs": [],
      "name": "COST_ERU",
      "outputs": [
        {
          "internalType": "uint256",
          "name": "",
          "type": "uint256"
        }
      ],
      "payable": false,
      "stateMutability": "view",
      "type": "function"
    },
    {
      "constant": true,
      "inputs": [],
      "name": "COST_NRB",
      "outputs": [
        {
          "internalType": "uint256",
          "name": "",
          "type": "uint256"
        }
      ],
      "payable": false,
      "stateMutability": "view",
      "type": "function"
    },
    {
      "constant": true,
      "inputs": [],
      "name": "COST_ORB",
      "outputs": [
        {
          "internalType": "uint256",
          "name": "",
          "type": "uint256"
        }
      ],
      "payable": false,
      "stateMutability": "view",
      "type": "function"
    },
    {
      "constant": true,
      "inputs": [],
      "name": "COST_URB",
      "outputs": [
        {
          "internalType": "uint256",
          "name": "",
          "type": "uint256"
        }
      ],
      "payable": false,
      "stateMutability": "view",
      "type": "function"
    },
    {
      "constant": true,
      "inputs": [],
      "name": "COST_URB_PREPARE",
      "outputs": [
        {
          "internalType": "uint256",
          "name": "",
          "type": "uint256"
        }
      ],
      "payable": false,
      "stateMutability": "view",
      "type": "function"
    },
    {
      "constant": true,
      "inputs": [],
      "name": "CP_COMPUTATION",
      "outputs": [
        {
          "internalType": "uint256",
          "name": "",
          "type": "uint256"
        }
      ],
      "payable": false,
      "stateMutability": "view",
      "type": "function"
    },
    {
      "constant": true,
      "inputs": [],
      "name": "CP_EXIT",
      "outputs": [
        {
          "internalType": "uint256",
          "name": "",
          "type": "uint256"
        }
      ],
      "payable": false,
      "stateMutability": "view",
      "type": "function"
    },
    {
      "constant": true,
      "inputs": [],
      "name": "CP_WITHHOLDING",
      "outputs": [
        {
          "internalType": "uint256",
          "name": "",
          "type": "uint256"
        }
      ],
      "payable": false,
      "stateMutability": "view",
      "type": "function"
    },
    {
      "constant": true,
      "inputs": [],
      "name": "EROIdToFinalize",
      "outputs": [
        {
          "internalType": "uint256",
          "name": "",
          "type": "uint256"
        }
      ],
      "payable": false,
      "stateMutability": "view",
      "type": "function"
    },
    {
      "constant": true,
      "inputs": [
        {
          "internalType": "uint256",
          "name": "",
          "type": "uint256"
        }
      ],
      "name": "EROs",
      "outputs": [
        {
          "internalType": "uint64",
          "name": "timestamp",
          "type": "uint64"
        },
        {
          "internalType": "bool",
          "name": "isExit",
          "type": "bool"
        },
        {
          "internalType": "bool",
          "name": "isTransfer",
          "type": "bool"
        },
        {
          "internalType": "bool",
          "name": "finalized",
          "type": "bool"
        },
        {
          "internalType": "bool",
          "name": "challenged",
          "type": "bool"
        },
        {
          "internalType": "uint128",
          "name": "value",
          "type": "uint128"
        },
        {
          "internalType": "address payable",
          "name": "requestor",
          "type": "address"
        },
        {
          "internalType": "address",
          "name": "to",
          "type": "address"
        },
        {
          "internalType": "bytes32",
          "name": "trieKey",
          "type": "bytes32"
        },
        {
          "internalType": "bytes32",
          "name": "hash",
          "type": "bytes32"
        },
        {
          "internalType": "bytes",
          "name": "trieValue",
          "type": "bytes"
        }
      ],
      "payable": false,
      "stateMutability": "view",
      "type": "function"
    },
    {
      "constant": true,
      "inputs": [],
      "name": "ERUIdToFinalize",
      "outputs": [
        {
          "internalType": "uint256",
          "name": "",
          "type": "uint256"
        }
      ],
      "payable": false,
      "stateMutability": "view",
      "type": "function"
    },
    {
      "constant": true,
      "inputs": [
        {
          "internalType": "uint256",
          "name": "",
          "type": "uint256"
        }
      ],
      "name": "ERUs",
      "outputs": [
        {
          "internalType": "uint64",
          "name": "timestamp",
          "type": "uint64"
        },
        {
          "internalType": "bool",
          "name": "isExit",
          "type": "bool"
        },
        {
          "internalType": "bool",
          "name": "isTransfer",
          "type": "bool"
        },
        {
          "internalType": "bool",
          "name": "finalized",
          "type": "bool"
        },
        {
          "internalType": "bool",
          "name": "challenged",
          "type": "bool"
        },
        {
          "internalType": "uint128",
          "name": "value",
          "type": "uint128"
        },
        {
          "internalType": "address payable",
          "name": "requestor",
          "type": "address"
        },
        {
          "internalType": "address",
          "name": "to",
          "type": "address"
        },
        {
          "internalType": "bytes32",
          "name": "trieKey",
          "type": "bytes32"
        },
        {
          "internalType": "bytes32",
          "name": "hash",
          "type": "bytes32"
        },
        {
          "internalType": "bytes",
          "name": "trieValue",
          "type": "bytes"
        }
      ],
      "payable": false,
      "stateMutability": "view",
      "type": "function"
    },
    {
      "constant": true,
      "inputs": [],
      "name": "NRELength",
      "outputs": [
        {
          "internalType": "uint256",
          "name": "",
          "type": "uint256"
        }
      ],
      "payable": false,
      "stateMutability": "view",
      "type": "function"
    },
    {
      "constant": true,
      "inputs": [],
      "name": "NULL_ADDRESS",
      "outputs": [
        {
          "internalType": "address",
          "name": "",
          "type": "address"
        }
      ],
      "payable": false,
      "stateMutability": "view",
      "type": "function"
    },
    {
      "constant": true,
      "inputs": [
        {
          "internalType": "uint256",
          "name": "",
          "type": "uint256"
        }
      ],
      "name": "ORBs",
      "outputs": [
        {
          "internalType": "bool",
          "name": "submitted",
          "type": "bool"
        },
        {
          "internalType": "uint64",
          "name": "numEnter",
          "type": "uint64"
        },
        {
          "internalType": "uint64",
          "name": "epochNumber",
          "type": "uint64"
        },
        {
          "internalType": "uint64",
          "name": "requestStart",
          "type": "uint64"
        },
        {
          "internalType": "uint64",
          "name": "requestEnd",
          "type": "uint64"
        },
        {
          "internalType": "address",
          "name": "trie",
          "type": "address"
        }
      ],
      "payable": false,
      "stateMutability": "view",
      "type": "function"
    },
    {
      "constant": true,
      "inputs": [],
      "name": "PREPARE_TIMEOUT",
      "outputs": [
        {
          "internalType": "uint256",
          "name": "",
          "type": "uint256"
        }
      ],
      "payable": false,
      "stateMutability": "view",
      "type": "function"
    },
    {
      "constant": true,
      "inputs": [],
      "name": "REQUEST_GAS",
      "outputs": [
        {
          "internalType": "uint256",
          "name": "",
          "type": "uint256"
        }
      ],
      "payable": false,
      "stateMutability": "view",
      "type": "function"
    },
    {
      "constant": true,
      "inputs": [
        {
          "internalType": "uint256",
          "name": "",
          "type": "uint256"
        }
      ],
      "name": "URBs",
      "outputs": [
        {
          "internalType": "bool",
          "name": "submitted",
          "type": "bool"
        },
        {
          "internalType": "uint64",
          "name": "numEnter",
          "type": "uint64"
        },
        {
          "internalType": "uint64",
          "name": "epochNumber",
          "type": "uint64"
        },
        {
          "internalType": "uint64",
          "name": "requestStart",
          "type": "uint64"
        },
        {
          "internalType": "uint64",
          "name": "requestEnd",
          "type": "uint64"
        },
        {
          "internalType": "address",
          "name": "trie",
          "type": "address"
        }
      ],
      "payable": false,
      "stateMutability": "view",
      "type": "function"
    },
    {
      "constant": true,
      "inputs": [],
      "name": "currentFork",
      "outputs": [
        {
          "internalType": "uint256",
          "name": "",
          "type": "uint256"
        }
      ],
      "payable": false,
      "stateMutability": "view",
      "type": "function"
    },
    {
      "constant": true,
      "inputs": [],
      "name": "development",
      "outputs": [
        {
          "internalType": "bool",
          "name": "",
          "type": "bool"
        }
      ],
      "payable": false,
      "stateMutability": "view",
      "type": "function"
    },
    {
      "constant": true,
      "inputs": [],
      "name": "epochHandler",
      "outputs": [
        {
          "internalType": "address",
          "name": "",
          "type": "address"
        }
      ],
      "payable": false,
      "stateMutability": "view",
      "type": "function"
    },
    {
      "constant": true,
      "inputs": [],
      "name": "etherToken",
      "outputs": [
        {
          "internalType": "address",
          "name": "",
          "type": "address"
        }
      ],
      "payable": false,
      "stateMutability": "view",
      "type": "function"
    },
    {
      "constant": true,
      "inputs": [
        {
          "internalType": "uint256",
          "name": "",
          "type": "uint256"
        }
      ],
      "name": "firstFilledORENumber",
      "outputs": [
        {
          "internalType": "uint256",
          "name": "",
          "type": "uint256"
        }
      ],
      "payable": false,
      "stateMutability": "view",
      "type": "function"
    },
    {
      "constant": true,
      "inputs": [
        {
          "internalType": "uint256",
          "name": "",
          "type": "uint256"
        }
      ],
      "name": "firstNonEmptyRequestEpoch",
      "outputs": [
        {
          "internalType": "uint256",
          "name": "",
          "type": "uint256"
        }
      ],
      "payable": false,
      "stateMutability": "view",
      "type": "function"
    },
    {
      "constant": true,
      "inputs": [
        {
          "internalType": "uint256",
          "name": "",
          "type": "uint256"
        }
      ],
      "name": "forks",
      "outputs": [
        {
          "internalType": "uint64",
          "name": "forkedBlock",
          "type": "uint64"
        },
        {
          "internalType": "uint64",
          "name": "firstEpoch",
          "type": "uint64"
        },
        {
          "internalType": "uint64",
          "name": "lastEpoch",
          "type": "uint64"
        },
        {
          "internalType": "uint64",
          "name": "firstBlock",
          "type": "uint64"
        },
        {
          "internalType": "uint64",
          "name": "lastBlock",
          "type": "uint64"
        },
        {
          "internalType": "uint64",
          "name": "lastFinalizedEpoch",
          "type": "uint64"
        },
        {
          "internalType": "uint64",
          "name": "lastFinalizedBlock",
          "type": "uint64"
        },
        {
          "internalType": "uint64",
          "name": "timestamp",
          "type": "uint64"
        },
        {
          "internalType": "uint64",
          "name": "firstEnterEpoch",
          "type": "uint64"
        },
        {
          "internalType": "uint64",
          "name": "lastEnterEpoch",
          "type": "uint64"
        },
        {
          "internalType": "uint64",
          "name": "nextBlockToRebase",
          "type": "uint64"
        },
        {
          "internalType": "bool",
          "name": "rebased",
          "type": "bool"
        }
      ],
      "payable": false,
      "stateMutability": "view",
      "type": "function"
    },
    {
      "constant": true,
      "inputs": [],
      "name": "isRootChain",
      "outputs": [
        {
          "internalType": "bool",
          "name": "",
          "type": "bool"
        }
      ],
      "payable": false,
      "stateMutability": "view",
      "type": "function"
    },
    {
      "constant": true,
      "inputs": [],
      "name": "lastAppliedBlockNumber",
      "outputs": [
        {
          "internalType": "uint256",
          "name": "",
          "type": "uint256"
        }
      ],
      "payable": false,
      "stateMutability": "view",
      "type": "function"
    },
    {
      "constant": true,
      "inputs": [],
      "name": "lastAppliedEpochNumber",
      "outputs": [
        {
          "internalType": "uint256",
          "name": "",
          "type": "uint256"
        }
      ],
      "payable": false,
      "stateMutability": "view",
      "type": "function"
    },
    {
      "constant": true,
      "inputs": [],
      "name": "lastAppliedForkNumber",
      "outputs": [
        {
          "internalType": "uint256",
          "name": "",
          "type": "uint256"
        }
      ],
      "payable": false,
      "stateMutability": "view",
      "type": "function"
    },
    {
      "constant": true,
      "inputs": [
        {
          "internalType": "uint256",
          "name": "",
          "type": "uint256"
        }
      ],
      "name": "lastNonEmptyRequestEpoch",
      "outputs": [
        {
          "internalType": "uint256",
          "name": "",
          "type": "uint256"
        }
      ],
      "payable": false,
      "stateMutability": "view",
      "type": "function"
    },
    {
      "constant": true,
      "inputs": [],
      "name": "numEnterForORB",
      "outputs": [
        {
          "internalType": "uint256",
          "name": "",
          "type": "uint256"
        }
      ],
      "payable": false,
      "stateMutability": "view",
      "type": "function"
    },
    {
      "constant": true,
      "inputs": [],
      "name": "operator",
      "outputs": [
        {
          "internalType": "address",
          "name": "",
          "type": "address"
        }
      ],
      "payable": false,
      "stateMutability": "view",
      "type": "function"
    },
    {
      "constant": true,
      "inputs": [
        {
          "internalType": "address",
          "name": "",
          "type": "address"
        }
      ],
      "name": "requestableContracts",
      "outputs": [
        {
          "internalType": "address",
          "name": "",
          "type": "address"
        }
      ],
      "payable": false,
      "stateMutability": "view",
      "type": "function"
    },
    {
      "constant": true,
      "inputs": [],
      "name": "seigManager",
      "outputs": [
        {
          "internalType": "address",
          "name": "",
          "type": "address"
        }
      ],
      "payable": false,
      "stateMutability": "view",
      "type": "function"
    },
    {
      "constant": true,
      "inputs": [],
      "name": "submitHandler",
      "outputs": [
        {
          "internalType": "address",
          "name": "",
          "type": "address"
        }
      ],
      "payable": false,
      "stateMutability": "view",
      "type": "function"
    },
    {
      "constant": false,
      "inputs": [
        {
          "internalType": "uint256",
          "name": "_pos1",
          "type": "uint256"
        },
        {
          "internalType": "uint256",
          "name": "_pos2",
          "type": "uint256"
        },
        {
          "internalType": "bytes32",
          "name": "_epochStateRoot",
          "type": "bytes32"
        },
        {
          "internalType": "bytes32",
          "name": "_epochTransactionsRoot",
          "type": "bytes32"
        },
        {
          "internalType": "bytes32",
          "name": "_epochReceiptsRoot",
          "type": "bytes32"
        }
      ],
      "name": "submitNRE",
      "outputs": [
        {
          "internalType": "bool",
          "name": "success",
          "type": "bool"
        }
      ],
      "payable": true,
      "stateMutability": "payable",
      "type": "function"
    },
    {
      "constant": false,
      "inputs": [
        {
          "internalType": "uint256",
          "name": "_pos",
          "type": "uint256"
        },
        {
          "internalType": "bytes32",
          "name": "_statesRoot",
          "type": "bytes32"
        },
        {
          "internalType": "bytes32",
          "name": "_transactionsRoot",
          "type": "bytes32"
        },
        {
          "internalType": "bytes32",
          "name": "_receiptsRoot",
          "type": "bytes32"
        }
      ],
      "name": "submitORB",
      "outputs": [
        {
          "internalType": "bool",
          "name": "success",
          "type": "bool"
        }
      ],
      "payable": true,
      "stateMutability": "payable",
      "type": "function"
    },
    {
      "constant": false,
      "inputs": [
        {
          "internalType": "uint256",
          "name": "_pos",
          "type": "uint256"
        },
        {
          "internalType": "bytes32",
          "name": "_statesRoot",
          "type": "bytes32"
        },
        {
          "internalType": "bytes32",
          "name": "_transactionsRoot",
          "type": "bytes32"
        },
        {
          "internalType": "bytes32",
          "name": "_receiptsRoot",
          "type": "bytes32"
        }
      ],
      "name": "submitURB",
      "outputs": [
        {
          "internalType": "bool",
          "name": "success",
          "type": "bool"
        }
      ],
      "payable": true,
      "stateMutability": "payable",
      "type": "function"
    }
  ],
  "bytecode": "0x608060405234801561001057600080fd5b506040516121523803806121528339818101604052602081101561003357600080fd5b5051600180546001600160a01b039092166001600160a01b031992831617905560028054909116301790556120e58061006d6000396000f3fe6080604052600436106102305760003560e01c8063a820c0671161012e578063c8ad329f116100ab578063e259faf71161006f578063e259faf71461077b578063e7b88b8014610790578063ea7f22a8146107a5578063f4f31de4146107cf578063fb788a27146107f957610230565b8063c8ad329f146106f4578063ca6f638014610709578063d691acd814610235578063da0185f814610733578063de0ce17d1461076657610230565b8063b6715647116100f2578063b671564714610616578063b8066bcb14610640578063c0e8606414610655578063c2bc88fa146106ca578063c54626cc146106df57610230565b8063a820c067146104a1578063ab96da2d146104d0578063b17fa6e9146104e5578063b2ae9ba814610235578063b443f3cc146104fa57610230565b80634ba3a126116101bc5780637b929c27116101805780637b929c27146104625780638155717d146104775780638b5172d0146102355780638eb288ca1461048c57806394be3aa51461023557610230565b80634ba3a12614610323578063570ca735146103c35780636f3e4b90146103f45780636fb7f5581461042357806372ecb9a81461043857610230565b8063183d2d1c11610203578063183d2d1c146102cf578063192adc5b1461023557806323691566146102e45780632dc6bb7b146102f9578063420bb4b81461030e57610230565b8063033cfbed1461023557806308c4fff01461025c5780630eaf45a814610271578063164bc2ae146102ba575b600080fd5b34801561024157600080fd5b5061024a61080e565b60408051918252519081900360200190f35b34801561026857600080fd5b5061024a610813565b6102a6600480360360a081101561028757600080fd5b5080359060208101359060408101359060608101359060800135610818565b604080519115158252519081900360200190f35b3480156102c657600080fd5b5061024a610956565b3480156102db57600080fd5b5061024a61095c565b3480156102f057600080fd5b5061024a610962565b34801561030557600080fd5b5061024a610968565b34801561031a57600080fd5b506102a661096e565b34801561032f57600080fd5b5061034d6004803603602081101561034657600080fd5b5035610973565b604080516001600160401b039d8e1681529b8d1660208d0152998c168b8b0152978b1660608b0152958a1660808a015293891660a089015291881660c0880152871660e0870152861661010086015285166101208501529093166101408301529115156101608201529051908190036101800190f35b3480156103cf57600080fd5b506103d86109ea565b604080516001600160a01b039092168252519081900360200190f35b6102a66004803603608081101561040a57600080fd5b50803590602081013590604081013590606001356109fe565b34801561042f57600080fd5b506103d8610d94565b34801561044457600080fd5b5061024a6004803603602081101561045b57600080fd5b5035610da3565b34801561046e57600080fd5b506102a6610db5565b34801561048357600080fd5b5061024a610dbe565b34801561049857600080fd5b5061024a610dc3565b6102a6600480360360808110156104b757600080fd5b5080359060208101359060408101359060600135610dca565b3480156104dc57600080fd5b5061024a61133a565b3480156104f157600080fd5b5061024a611340565b34801561050657600080fd5b506105246004803603602081101561051d57600080fd5b5035611345565b604080516001600160401b038d1681528b15156020808301919091528b151592820192909252891515606082015288151560808201526001600160801b03881660a08201526001600160a01b0380881660c0830152861660e082015261010081018590526101208101849052610160610140820181815284519183019190915283519192909161018084019185019080838360005b838110156105d15781810151838201526020016105b9565b50505050905090810190601f1680156105fe5780820380516001836020036101000a031916815260200191505b509c5050505050505050505050505060405180910390f35b34801561062257600080fd5b5061024a6004803603602081101561063957600080fd5b5035611466565b34801561064c57600080fd5b506103d8611478565b34801561066157600080fd5b5061067f6004803603602081101561067857600080fd5b5035611487565b6040805196151587526001600160401b03958616602088015293851686850152918416606086015290921660808401526001600160a01b0390911660a0830152519081900360c00190f35b3480156106d657600080fd5b5061024a6114ee565b3480156106eb57600080fd5b5061024a6114f3565b34801561070057600080fd5b5061024a6114f9565b34801561071557600080fd5b5061024a6004803603602081101561072c57600080fd5b50356114ff565b34801561073f57600080fd5b506103d86004803603602081101561075657600080fd5b50356001600160a01b0316611511565b34801561077257600080fd5b506103d861080e565b34801561078757600080fd5b506103d861152c565b34801561079c57600080fd5b506103d861153b565b3480156107b157600080fd5b5061067f600480360360208110156107c857600080fd5b503561154a565b3480156107db57600080fd5b50610524600480360360208110156107f257600080fd5b5035611557565b34801561080557600080fd5b5061024a611564565b600081565b600f81565b60008060006108268861156a565b915091508160065414610880576040805162461bcd60e51b815260206004820152601960248201527f63757272656e74466f726b203d3d20666f726b4e756d62657200000000000000604482015290519081900360640190fd5b60008061088c8961156a565b600086815260086020526040902091935091506108b490848a8a8a878763ffffffff61158016565b6108bc6116c6565b6004546001600160a01b031615610946576004805460408051633b253c2b60e11b815290516001600160a01b039092169263764a78569282820192602092908290030181600087803b15801561091157600080fd5b505af1158015610925573d6000803e3d6000fd5b505050506040513d602081101561093b57600080fd5b505161094657600080fd5b5060019998505050505050505050565b60105481565b60065481565b600d5481565b60135481565b600181565b6008602052600090815260409020805460018201546002909201546001600160401b0380831693600160401b808504831694600160801b808204851695600160c01b92839004861695858116958581048216958482048316959182900483169484841694918204841693908204169160ff9104168c565b60005461010090046001600160a01b031681565b6000806000610a0c8761156a565b600654919350915060010182148080610a26575082600654145b610a2f57600080fd5b60008381526008602052604090208115610afb57506006839055600083815260086020526040902042610a606117cb565b6001830154600160c01b90046001600160401b03160111610a8057600080fd5b8054600160c01b90046001600160401b03168314610a9d57600080fd5b8054604080518681526001600160401b03600160801b840481166020830152600160c01b90930490921682820152517f0647d42ab02f6e0ae76959757dcb6aa6feac1d4ba6f077f1223fb4b1b429f06c9181900360600190a1610b30565b600181810154610b1c916001600160401b039091169063ffffffff6117d116565b6001600160401b03168314610b3057600080fd5b8054600160801b90046001600160401b0316600090815260038201602052604090208054600160d01b900460ff16610b6757600080fd5b8054600160d81b900460ff16610b7c57600080fd5b600084815260048381016020526040822084548154600283018e9055600383018d90559282018b9055600160801b908190046001600160401b0390811667ffffffffffffffff199485161767ffffffffffffffff60801b19164282169290920291909117825560058201805461010060ff19909116600190811761ff001916919091179091558601805490931690881617909155905460ff16610c775760018301546001600160401b039081166000908152600485016020526040902054600c8054610c77939192600160401b9004909116908110610c5757fe5b6000918252602082208c9260029092020190600a9063ffffffff6117f616565b825460408051888152600160801b9092046001600160401b031660208301528181018790526001606083018190526080830152517f3d4a04291c66b06f39a4ecb817875b12b5485a05ec563133a56a905305c48e559160a0908290030190a18154600160401b90046001600160401b0316851415610cf757610cf7611918565b6004546001600160a01b031615610d81576004805460408051633b253c2b60e11b815290516001600160a01b039092169263764a78569282820192602092908290030181600087803b158015610d4c57600080fd5b505af1158015610d60573d6000803e3d6000fd5b505050506040513d6020811015610d7657600080fd5b5051610d8157600080fd5b600196505050505050505b949350505050565b6004546001600160a01b031681565b60076020526000908152604090205481565b60005460ff1681565b600a81565b620186a081565b6000806000610dd88761156a565b60065491935091508214610deb57600080fd5b60008281526008602052604090206001908101546001600160401b03908116909101168114610e1957600080fd5b60008281526008602052604081209080841580610e67575060001985016000908152600860205260409020546001600160401b031615801590610e6757506002830154600160c01b900460ff165b1561109257610e83838a8a8a600160008063ffffffff6119ac16565b60005490955090925060ff16610ef15760018301546001600160401b039081166000908152600485016020526040902054600b8054610ef1939192600160401b9004909116908110610ed157fe5b6000918252602082208b926002909202019060099063ffffffff6117f616565b506000838152600483016020526040902054600b8054600160401b9092046001600160401b03169182908110610f2357fe5b60009182526020808320600292909202909101548483526003860182526040808420600190810180546001600160c01b0381166101009095046001600160401b03908116600160c01b9283900482160116029390931790925580518981529283018690528281018890526060830191909152608082019290925290517f3d4a04291c66b06f39a4ecb817875b12b5485a05ec563133a56a905305c48e559160a0908290030190a16000828152600384016020526040902054600160401b90046001600160401b0316841415610ffa57610ffa611bb7565b6004546001600160a01b031615611084576004805460408051633b253c2b60e11b815290516001600160a01b039092169263764a78569282820192602092908290030181600087803b15801561104f57600080fd5b505af1158015611063573d6000803e3d6000fd5b505050506040513d602081101561107957600080fd5b505161108457600080fd5b600195505050505050610d8c565b6110a9838a8a8a600160008163ffffffff6119ac16565b600019870160009081526008602090815260408083208484526004808a01845282852060028b01805460018301805467ffffffffffffffff19166001600160401b03600160801b9384900481169190911790915591540481168752918301909452918420548354600160401b918290049093160267ffffffffffffffff60401b199092169190911782559154929750929450919060ff16611186578054600b805461118692600160401b90046001600160401b031690811061116757fe5b600091825260209091208c91600202016009600163ffffffff6117f616565b6040805188815260208101869052808201889052600160608201526000608082015290517f3d4a04291c66b06f39a4ecb817875b12b5485a05ec563133a56a905305c48e559181900360a00190a16111e68583600b63ffffffff611c4316565b1561129e576000848152600386016020908152604080832080546001600160401b03808c16600160401b0267ffffffffffffffff60401b199092169190911780835560019283015484518e81529586018b905290821685850152606085018c905216608084015260a0830184905260c0830184905260e083015261010082019290925290517f030c1c69405c93021f28f57557240dee939a320b826a1fd0d39bf6e629ecab47918190036101200190a161129e611e6e565b6004546001600160a01b031615611328576004805460408051633b253c2b60e11b815290516001600160a01b039092169263764a78569282820192602092908290030181600087803b1580156112f357600080fd5b505af1158015611307573d6000803e3d6000fd5b505050506040513d602081101561131d57600080fd5b505161132857600080fd5b5060019b9a5050505050505050505050565b60055481565b601481565b6009818154811061135257fe5b6000918252602091829020600691909102018054600180830154600280850154600386015460048701546005880180546040805161010099831615999099026000190190911695909504601f81018b90048b0288018b019095528487526001600160401b0388169a50600160401b880460ff9081169a600160481b8a0482169a600160501b8b0483169a600160581b810490931699600160601b9093046001600160801b0316986001600160a01b039081169897169690939183018282801561145c5780601f106114315761010080835404028352916020019161145c565b820191906000526020600020905b81548152906001019060200180831161143f57829003601f168201915b505050505090508b565b600e6020526000908152604090205481565b6003546001600160a01b031681565b600c818154811061149457fe5b60009182526020909120600290910201805460019091015460ff821692506001600160401b036101008304811692600160481b8104821692600160881b9091048216918116906001600160a01b03600160401b9091041686565b603c81565b60145481565b60115481565b600f6020526000908152604090205481565b6015602052600090815260409020546001600160a01b031681565b6002546001600160a01b031681565b6001546001600160a01b031681565b600b818154811061149457fe5b600a818154811061135257fe5b60125481565b600160801b8104916001600160801b0390911690565b8654869061159f90600160801b90046001600160401b03166001611f02565b146115a957600080fd5b60018781015483916115ca916001600160401b03169063ffffffff611f0216565b146115d457600080fd5b600086815260038801602052604090208054600160d01b900460ff16156115fa57600080fd5b8054600160d81b900460ff161561161057600080fd5b8054600160e01b900460ff161561162657600080fd5b80546001600160401b0316831461163c57600080fd5b8054600160401b90046001600160401b0316821461165957600080fd5b60038101959095556004850193909355506005830155600690910180546001600160401b0342811667ffffffffffffffff19928316179092558454938216600160801b0267ffffffffffffffff60801b199094169390931784556001939093018054919093169116179055565b600154604080516b707265706172654f5245282960a01b8152815190819003600c018120600482526024820183526020820180516001600160e01b03166001600160e01b0319909216919091178152915181516000946060946001600160a01b039091169392918291908083835b602083106117535780518252601f199092019160209182019101611734565b6001836020036101000a038019825116818451168082178552505050505050905001915050600060405180830381855af49150503d80600081146117b3576040519150601f19603f3d011682016040523d82523d6000602084013e6117b8565b606091505b5091509150816117c757600080fd5b5050565b610e1090565b60008282016001600160401b0380851690821610156117ef57600080fd5b9392505050565b825460018401546001600160401b03600160881b9092048216911660008361182357828203600101611834565b855461010090046001600160401b03165b90506000811161184357600080fd5b60608160405190808252806020026020018201604052801561186f578160200160208202803883390190505b50905083805b8481116118f8578615806118ad575087818154811061189057fe5b6000918252602090912060069091020154600160401b900460ff16155b156118f0578781815481106118be57fe5b90600052602060002090600602016004015483878403815181106118de57fe5b60209081029190910101526001909101905b600101611875565b508861190383611f14565b1461190d57600080fd5b505050505050505050565b6001546040805173707265706172654f52454166746572555245282960601b81528151908190036014018120600482526024820183526020820180516001600160e01b03166001600160e01b0319909216919091178152915181516000946060946001600160a01b03909116939291829190808383602083106117535780518252601f199092019160209182019101611734565b86546001808901546001600160401b03600160801b9093048316926000926119dd929091169063ffffffff611f0216565b600083815260038b016020526040902080549192509060016001600160401b03600160401b90920482160116821415611a4e575088546001600160401b03600193909301928316600160801b0267ffffffffffffffff60801b19909116178955600082815260038a01602052604090205b80546001600160401b0316821015611a6557600080fd5b8380611a8257508054600160401b90046001600160401b03168211155b611a8b57600080fd5b805460ff600160d01b90910416151586151514611aa757600080fd5b805460ff600160d81b90910416151585151514611ac357600080fd5b600082815260048b810160205260409091208054600282018c9055600382018b905591810189905567ffffffffffffffff199091166001600160401b038581169190911767ffffffffffffffff60801b1916600160801b42929092169190910217815560058101805460ff1916881580159190911761ff0019166101008915150217909155611b8b5781546001830154825467ffffffffffffffff60401b1916600160401b6001600160401b03938416600160801b9093048416870192909203909216021781555b5050600198909801805467ffffffffffffffff19166001600160401b038a161790559795505050505050565b600154604080516b707265706172654e5245282960a01b8152815190819003600c018120600482526024820183526020820180516001600160e01b03166001600160e01b0319909216919091178152915181516000946060946001600160a01b03909116939291829190808383602083106117535780518252601f199092019160209182019101611734565b60028301546001600160401b03600160801b909104811660008181526004850160205260408120549092165b6000818152600386016020526040902054600160c81b900460ff1615611e62576000818152600386016020526040902054600160401b90046001600160401b03168210611cd65760020160008181526003860160205260409020546001600160401b031691505b5b6000818152600386016020526040902060010154600160c01b90046001600160401b0316158015611d1f57506000818152600386016020526040902054600160c81b900460ff165b15611d485760020160008181526003860160205260409020546001600160401b03169150611cd7565b6000818152600386016020526040902054600160c81b900460ff16611d72576001925050506117ef565b6000818152600386016020526040902054600160401b90046001600160401b03165b808311611dfe57600083815260048701602052604081205486548791600160401b90046001600160401b0316908110611dc957fe5b600091825260209091206002909102015461010090046001600160401b03161115611df357611dfe565b600183019250611d94565b80831115611e2b575060020160008181526003860160205260409020546001600160401b03169150611c6f565b50506002850180546001600160401b03909216600160801b0267ffffffffffffffff60801b199092169190911790555060006117ef565b50600195945050505050565b6001546040805173707265706172654e52454166746572555245282960601b81528151908190036014018120600482526024820183526020820180516001600160e01b03166001600160e01b0319909216919091178152915181516000946060946001600160a01b03909116939291829190808383602083106117535780518252601f199092019160209182019101611734565b6000828201838110156117ef57600080fd5b6000815160011415611f3c5781600081518110611f2d57fe5b602002602001015190506120ab565b60606002835160010181611f4c57fe5b04604051908082528060200260200182016040528015611f76578160200160208202803883390190505b50905060005b835181600101101561200957838181518110611f9457fe5b6020026020010151848260010181518110611fab57fe5b60200260200101516040516020018083815260200182815260200192505050604051602081830303815290604052805190602001208260028381611feb57fe5b0481518110611ff657fe5b6020908102919091010152600201611f7c565b600284518161201457fe5b066001141561209d578360018551038151811061202d57fe5b60200260200101518460018651038151811061204557fe5b6020026020010151604051602001808381526020018281526020019250505060405160208183030381529060405280519060200120826002838161208557fe5b048151811061209057fe5b6020026020010181815250505b6120a682611f14565b925050505b91905056fea265627a7a723158204f994f2ccc4cecec68e36fde6069e0671716f30efe06d24617b6ddadd58a587964736f6c634300050c0032",
  "source": "pragma solidity ^0.5.12;\n\nimport \"../lib/SafeMath.sol\";\nimport \"../lib/Math.sol\";\nimport \"../lib/Data.sol\";\nimport \"../lib/Address.sol\";\nimport \"../lib/BMT.sol\";\n\nimport \"../RootChainStorage.sol\";\nimport \"../RootChainEvent.sol\";\nimport \"../RootChainBase.sol\";\n\nimport { SeigManagerI } from \"../stake/interfaces/SeigManagerI.sol\";\n\n\ncontract SubmitHandler is RootChainStorage, RootChainEvent, RootChainBase {\n  using SafeMath for uint;\n  using SafeMath for uint64;\n  using Math for *;\n  using Data for *;\n  using Address for address;\n  using BMT for *;\n\n  constructor(address _epochHandler) public {\n    epochHandler = _epochHandler;\n    submitHandler = address(this);\n  }\n\n  function submitNRE(\n    uint _pos1, // forknumber + epochNumber\n    uint _pos2, // startBlockNumber + endBlockNumber\n    bytes32 _epochStateRoot,\n    bytes32 _epochTransactionsRoot,\n    bytes32 _epochReceiptsRoot\n  )\n    public\n    payable\n    returns (bool success)\n  {\n    (uint forkNumber, uint epochNumber) = _pos1.decodePos();\n    require(currentFork == forkNumber, \"currentFork == forkNumber\");\n\n    (uint startBlockNumber, uint endBlockNumber) = _pos2.decodePos();\n\n    forks[forkNumber].insertNRE(\n      epochNumber,\n      _epochStateRoot,\n      _epochTransactionsRoot,\n      _epochReceiptsRoot,\n      startBlockNumber,\n      endBlockNumber\n    );\n\n    _delegatePrepareORE();\n\n    if (address(seigManager) != address(0)) {\n      require(SeigManagerI(seigManager).updateSeigniorage());\n    }\n\n    return true;\n  }\n\n  function submitORB(\n    uint _pos,\n    bytes32 _statesRoot,\n    bytes32 _transactionsRoot,\n    bytes32 _receiptsRoot\n  )\n    public\n    payable\n    returns (bool success)\n  {\n    uint forkNumber;\n    uint blockNumber;\n\n    (forkNumber, blockNumber) = _pos.decodePos();\n\n    require(currentFork == forkNumber);\n    require(forks[forkNumber].lastBlock + 1 == blockNumber);\n\n    Data.Fork storage curFork = forks[forkNumber];\n\n    uint epochNumber;\n    uint requestBlockId;\n\n    // If not forked or already rebased\n    if (forkNumber == 0 || forks[forkNumber - 1].forkedBlock != 0 && curFork.rebased) {\n      (epochNumber, blockNumber) = curFork.insertBlock(\n        _statesRoot,\n        _transactionsRoot,\n        _receiptsRoot,\n        true,\n        false,\n        false\n      );\n\n      if (!development) {\n        _transactionsRoot._checkTxRoot(\n          ORBs[curFork.blocks[curFork.lastBlock].requestBlockId],\n          EROs,\n          false\n        );\n      }\n\n      requestBlockId = curFork.blocks[blockNumber].requestBlockId;\n\n      // accunulate # of enters into epoch\n      curFork.epochs[epochNumber].RE.numEnter += ORBs[requestBlockId].numEnter;\n\n      emit BlockSubmitted(\n        forkNumber,\n        epochNumber,\n        blockNumber,\n        true,\n        false\n      );\n\n      if (blockNumber == curFork.epochs[epochNumber].endBlockNumber) {\n        _delegatePrepareNRE();\n      }\n\n      if (address(seigManager) != address(0)) {\n        require(SeigManagerI(seigManager).updateSeigniorage());\n      }\n\n      return true;\n    }\n\n    // Otherwise, compare to block in previous fork\n    (epochNumber, blockNumber) = curFork.insertBlock(\n      _statesRoot,\n      _transactionsRoot,\n      _receiptsRoot,\n      true,\n      false,\n      true\n    );\n\n    Data.Fork storage preFork = forks[forkNumber - 1];\n    Data.PlasmaBlock storage curBlock = curFork.blocks[blockNumber];\n\n    curBlock.referenceBlock = curFork.nextBlockToRebase;\n    curBlock.requestBlockId = preFork.blocks[curFork.nextBlockToRebase].requestBlockId;\n\n    if (!development) {\n      _transactionsRoot._checkTxRoot(\n        ORBs[curBlock.requestBlockId],\n        EROs,\n        true\n      );\n    }\n\n    emit BlockSubmitted(\n      forkNumber,\n      epochNumber,\n      blockNumber,\n      true,\n      false\n    );\n\n    // if ORB' is filled.\n    if (curFork.checkNextORBToRebase(preFork, ORBs)) {\n      curFork.epochs[epochNumber].endBlockNumber = uint64(blockNumber);\n\n      emit EpochRebased(\n        forkNumber,\n        epochNumber,\n        curFork.epochs[epochNumber].startBlockNumber,\n        blockNumber,\n        curFork.epochs[epochNumber].RE.requestStart,\n        0,\n        false,\n        true,\n        false\n      );\n\n      _delegatePrepareNREAfterURE();\n    }\n\n    if (address(seigManager) != address(0)) {\n      require(SeigManagerI(seigManager).updateSeigniorage());\n    }\n\n    return true;\n  }\n\n  function submitURB(\n    uint _pos,\n    bytes32 _statesRoot,\n    bytes32 _transactionsRoot,\n    bytes32 _receiptsRoot\n  )\n    public\n    payable\n    returns (bool success)\n  {\n    uint forkNumber;\n    uint blockNumber;\n\n    (forkNumber, blockNumber) = _pos.decodePos();\n\n\n    bool firstURB = currentFork + 1 == forkNumber;\n    require(firstURB || currentFork == forkNumber);\n\n    Data.Fork storage fork = forks[forkNumber];\n\n    if (firstURB) {\n      currentFork = forkNumber;\n      fork = forks[forkNumber];\n\n      require(fork.timestamp + Data.URE_TIMEOUT() > block.timestamp);\n\n      // check block number\n      require(blockNumber == fork.firstBlock);\n\n      emit Forked(forkNumber, fork.lastEpoch, fork.firstBlock);\n    } else {\n      // check block number\n      require(blockNumber == fork.lastBlock.add64(1));\n    }\n\n    Data.Epoch storage epoch = fork.epochs[fork.lastEpoch];\n\n    require(epoch.isRequest);\n    require(epoch.userActivated);\n\n    Data.PlasmaBlock storage b = fork.blocks[blockNumber];\n\n    b.epochNumber = fork.lastEpoch;\n    b.statesRoot = _statesRoot;\n    b.transactionsRoot = _transactionsRoot;\n    b.receiptsRoot = _receiptsRoot;\n    b.timestamp = uint64(block.timestamp);\n    b.isRequest = true;\n    b.userActivated = true;\n\n    fork.lastBlock = uint64(blockNumber);\n\n    if (!development) {\n      _transactionsRoot._checkTxRoot(\n        URBs[fork.blocks[fork.lastBlock].requestBlockId],\n        ERUs,\n        false\n      );\n    }\n\n    emit BlockSubmitted(\n      forkNumber,\n      fork.lastEpoch,\n      blockNumber,\n      true,\n      true\n    );\n\n    // TODO: use internal function to avoide stack too deep error\n    if (blockNumber == epoch.endBlockNumber) {\n      _delegatePrepareOREAfterURE();\n    }\n\n    if (address(seigManager) != address(0)) {\n      require(SeigManagerI(seigManager).updateSeigniorage());\n    }\n\n    return true;\n  }\n}\n",
  "sourcePath": "/home/modagi/github/onther/plasma-evm-contracts/contracts/handlers/SubmitHandler.sol",
  "compiler": {
    "name": "solc",
    "version": "0.5.12+commit.7709ece9.Emscripten.clang"
  },
  "schemaVersion": "3.2.0",
  "updatedAt": "2020-09-06T06:15:06.377Z",
  "networkType": "ethereum",
  "devdoc": {
    "methods": {}
  },
  "userdoc": {
    "methods": {}
  }
}