{
  "contractName": "TON",
  "abi": [
    {
      "inputs": [],
      "payable": false,
      "stateMutability": "nonpayable",
      "type": "constructor"
    },
    {
      "anonymous": false,
      "inputs": [
        {
          "indexed": true,
          "internalType": "address",
          "name": "owner",
          "type": "address"
        },
        {
          "indexed": true,
          "internalType": "address",
          "name": "spender",
          "type": "address"
        },
        {
          "indexed": false,
          "internalType": "uint256",
          "name": "value",
          "type": "uint256"
        }
      ],
      "name": "Approval",
      "type": "event"
    },
    {
      "anonymous": false,
      "inputs": [
        {
          "indexed": true,
          "internalType": "address",
          "name": "account",
          "type": "address"
        }
      ],
      "name": "MinterAdded",
      "type": "event"
    },
    {
      "anonymous": false,
      "inputs": [
        {
          "indexed": true,
          "internalType": "address",
          "name": "account",
          "type": "address"
        }
      ],
      "name": "MinterRemoved",
      "type": "event"
    },
    {
      "anonymous": false,
      "inputs": [
        {
          "indexed": true,
          "internalType": "address",
          "name": "previousOwner",
          "type": "address"
        },
        {
          "indexed": true,
          "internalType": "address",
          "name": "newOwner",
          "type": "address"
        }
      ],
      "name": "OwnershipTransferred",
      "type": "event"
    },
    {
      "anonymous": false,
      "inputs": [
        {
          "indexed": true,
          "internalType": "address",
          "name": "from",
          "type": "address"
        },
        {
          "indexed": true,
          "internalType": "address",
          "name": "to",
          "type": "address"
        },
        {
          "indexed": false,
          "internalType": "uint256",
          "name": "value",
          "type": "uint256"
        }
      ],
      "name": "Transfer",
      "type": "event"
    },
    {
      "constant": false,
      "inputs": [
        {
          "internalType": "address",
          "name": "account",
          "type": "address"
        }
      ],
      "name": "addMinter",
      "outputs": [],
      "payable": false,
      "stateMutability": "nonpayable",
      "type": "function"
    },
    {
      "constant": true,
      "inputs": [
        {
          "internalType": "address",
          "name": "owner",
          "type": "address"
        },
        {
          "internalType": "address",
          "name": "spender",
          "type": "address"
        }
      ],
      "name": "allowance",
      "outputs": [
        {
          "internalType": "uint256",
          "name": "",
          "type": "uint256"
        }
      ],
      "payable": false,
      "stateMutability": "view",
      "type": "function"
    },
    {
      "constant": false,
      "inputs": [
        {
          "internalType": "address",
          "name": "spender",
          "type": "address"
        },
        {
          "internalType": "uint256",
          "name": "amount",
          "type": "uint256"
        }
      ],
      "name": "approve",
      "outputs": [
        {
          "internalType": "bool",
          "name": "",
          "type": "bool"
        }
      ],
      "payable": false,
      "stateMutability": "nonpayable",
      "type": "function"
    },
    {
      "constant": false,
      "inputs": [
        {
          "internalType": "address",
          "name": "spender",
          "type": "address"
        },
        {
          "internalType": "uint256",
          "name": "amount",
          "type": "uint256"
        },
        {
          "internalType": "bytes",
          "name": "data",
          "type": "bytes"
        }
      ],
      "name": "approveAndCall",
      "outputs": [
        {
          "internalType": "bool",
          "name": "",
          "type": "bool"
        }
      ],
      "payable": false,
      "stateMutability": "nonpayable",
      "type": "function"
    },
    {
      "constant": true,
      "inputs": [
        {
          "internalType": "address",
          "name": "account",
          "type": "address"
        }
      ],
      "name": "balanceOf",
      "outputs": [
        {
          "internalType": "uint256",
          "name": "",
          "type": "uint256"
        }
      ],
      "payable": false,
      "stateMutability": "view",
      "type": "function"
    },
    {
      "constant": true,
      "inputs": [],
      "name": "callbackEnabled",
      "outputs": [
        {
          "internalType": "bool",
          "name": "",
          "type": "bool"
        }
      ],
      "payable": false,
      "stateMutability": "view",
      "type": "function"
    },
    {
      "constant": true,
      "inputs": [],
      "name": "decimals",
      "outputs": [
        {
          "internalType": "uint8",
          "name": "",
          "type": "uint8"
        }
      ],
      "payable": false,
      "stateMutability": "view",
      "type": "function"
    },
    {
      "constant": false,
      "inputs": [
        {
          "internalType": "address",
          "name": "spender",
          "type": "address"
        },
        {
          "internalType": "uint256",
          "name": "subtractedValue",
          "type": "uint256"
        }
      ],
      "name": "decreaseAllowance",
      "outputs": [
        {
          "internalType": "bool",
          "name": "",
          "type": "bool"
        }
      ],
      "payable": false,
      "stateMutability": "nonpayable",
      "type": "function"
    },
    {
      "constant": false,
      "inputs": [
        {
          "internalType": "bool",
          "name": "_callbackEnabled",
          "type": "bool"
        }
      ],
      "name": "enableCallback",
      "outputs": [],
      "payable": false,
      "stateMutability": "nonpayable",
      "type": "function"
    },
    {
      "constant": false,
      "inputs": [
        {
          "internalType": "address",
          "name": "spender",
          "type": "address"
        },
        {
          "internalType": "uint256",
          "name": "addedValue",
          "type": "uint256"
        }
      ],
      "name": "increaseAllowance",
      "outputs": [
        {
          "internalType": "bool",
          "name": "",
          "type": "bool"
        }
      ],
      "payable": false,
      "stateMutability": "nonpayable",
      "type": "function"
    },
    {
      "constant": true,
      "inputs": [
        {
          "internalType": "address",
          "name": "account",
          "type": "address"
        }
      ],
      "name": "isMinter",
      "outputs": [
        {
          "internalType": "bool",
          "name": "",
          "type": "bool"
        }
      ],
      "payable": false,
      "stateMutability": "view",
      "type": "function"
    },
    {
      "constant": true,
      "inputs": [],
      "name": "isOwner",
      "outputs": [
        {
          "internalType": "bool",
          "name": "",
          "type": "bool"
        }
      ],
      "payable": false,
      "stateMutability": "view",
      "type": "function"
    },
    {
      "constant": false,
      "inputs": [
        {
          "internalType": "address",
          "name": "account",
          "type": "address"
        },
        {
          "internalType": "uint256",
          "name": "amount",
          "type": "uint256"
        }
      ],
      "name": "mint",
      "outputs": [
        {
          "internalType": "bool",
          "name": "",
          "type": "bool"
        }
      ],
      "payable": false,
      "stateMutability": "nonpayable",
      "type": "function"
    },
    {
      "constant": true,
      "inputs": [],
      "name": "name",
      "outputs": [
        {
          "internalType": "string",
          "name": "",
          "type": "string"
        }
      ],
      "payable": false,
      "stateMutability": "view",
      "type": "function"
    },
    {
      "constant": true,
      "inputs": [],
      "name": "owner",
      "outputs": [
        {
          "internalType": "address",
          "name": "",
          "type": "address"
        }
      ],
      "payable": false,
      "stateMutability": "view",
      "type": "function"
    },
    {
      "constant": false,
      "inputs": [
        {
          "internalType": "address",
          "name": "target",
          "type": "address"
        }
      ],
      "name": "renounceMinter",
      "outputs": [],
      "payable": false,
      "stateMutability": "nonpayable",
      "type": "function"
    },
    {
      "constant": false,
      "inputs": [],
      "name": "renounceMinter",
      "outputs": [],
      "payable": false,
      "stateMutability": "nonpayable",
      "type": "function"
    },
    {
      "constant": false,
      "inputs": [
        {
          "internalType": "address",
          "name": "target",
          "type": "address"
        }
      ],
      "name": "renounceOwnership",
      "outputs": [],
      "payable": false,
      "stateMutability": "nonpayable",
      "type": "function"
    },
    {
      "constant": false,
      "inputs": [],
      "name": "renounceOwnership",
      "outputs": [],
      "payable": false,
      "stateMutability": "nonpayable",
      "type": "function"
    },
    {
      "constant": false,
      "inputs": [
        {
          "internalType": "address",
          "name": "target",
          "type": "address"
        }
      ],
      "name": "renouncePauser",
      "outputs": [],
      "payable": false,
      "stateMutability": "nonpayable",
      "type": "function"
    },
    {
      "constant": true,
      "inputs": [],
      "name": "seigManager",
      "outputs": [
        {
          "internalType": "contract SeigManagerI",
          "name": "",
          "type": "address"
        }
      ],
      "payable": false,
      "stateMutability": "view",
      "type": "function"
    },
    {
      "constant": true,
      "inputs": [],
      "name": "symbol",
      "outputs": [
        {
          "internalType": "string",
          "name": "",
          "type": "string"
        }
      ],
      "payable": false,
      "stateMutability": "view",
      "type": "function"
    },
    {
      "constant": true,
      "inputs": [],
      "name": "totalSupply",
      "outputs": [
        {
          "internalType": "uint256",
          "name": "",
          "type": "uint256"
        }
      ],
      "payable": false,
      "stateMutability": "view",
      "type": "function"
    },
    {
      "constant": false,
      "inputs": [
        {
          "internalType": "address",
          "name": "recipient",
          "type": "address"
        },
        {
          "internalType": "uint256",
          "name": "amount",
          "type": "uint256"
        }
      ],
      "name": "transfer",
      "outputs": [
        {
          "internalType": "bool",
          "name": "",
          "type": "bool"
        }
      ],
      "payable": false,
      "stateMutability": "nonpayable",
      "type": "function"
    },
    {
      "constant": false,
      "inputs": [
        {
          "internalType": "address",
          "name": "sender",
          "type": "address"
        },
        {
          "internalType": "address",
          "name": "recipient",
          "type": "address"
        },
        {
          "internalType": "uint256",
          "name": "amount",
          "type": "uint256"
        }
      ],
      "name": "transferFrom",
      "outputs": [
        {
          "internalType": "bool",
          "name": "",
          "type": "bool"
        }
      ],
      "payable": false,
      "stateMutability": "nonpayable",
      "type": "function"
    },
    {
      "constant": false,
      "inputs": [
        {
          "internalType": "address",
          "name": "target",
          "type": "address"
        },
        {
          "internalType": "address",
          "name": "newOwner",
          "type": "address"
        }
      ],
      "name": "transferOwnership",
      "outputs": [],
      "payable": false,
      "stateMutability": "nonpayable",
      "type": "function"
    },
    {
      "constant": false,
      "inputs": [
        {
          "internalType": "address",
          "name": "newOwner",
          "type": "address"
        }
      ],
      "name": "transferOwnership",
      "outputs": [],
      "payable": false,
      "stateMutability": "nonpayable",
      "type": "function"
    },
    {
      "constant": false,
      "inputs": [
        {
          "internalType": "contract SeigManagerI",
          "name": "_seigManager",
          "type": "address"
        }
      ],
      "name": "setSeigManager",
      "outputs": [],
      "payable": false,
      "stateMutability": "nonpayable",
      "type": "function"
    }
  ],
  "bytecode": "0x60806040523480156200001157600080fd5b506040518060400160405280601581526020017f546f6b616d616b204e6574776f726b20546f6b656e00000000000000000000008152506040518060400160405280600381526020017f544f4e00000000000000000000000000000000000000000000000000000000008152506012620000a3620000946200014f60201b60201c565b6001600160e01b036200015416565b6000620000b86001600160e01b036200014f16565b600480546001600160a01b0319166001600160a01b038316908117909155604051919250906000907f8be0079c531659141344cd1fd0a4f28419497f9722a3daafe3b4186f6b6457e0908290a35082516200011b906005906020860190620002d0565b50815162000131906006906020850190620002d0565b506007805460ff191660ff9290921691909117905550620003729050565b335b90565b6200016f816003620001a660201b620016f61790919060201c565b6040516001600160a01b038216907f6ae172837ea30b801fbfcdd4108aa1d5bf8ff775444fd70256b44e6bf3dfc3f690600090a250565b620001bb82826001600160e01b036200024d16565b156200022857604080517f08c379a000000000000000000000000000000000000000000000000000000000815260206004820152601f60248201527f526f6c65733a206163636f756e7420616c72656164792068617320726f6c6500604482015290519081900360640190fd5b6001600160a01b0316600090815260209190915260409020805460ff19166001179055565b60006001600160a01b038216620002b0576040517f08c379a0000000000000000000000000000000000000000000000000000000008152600401808060200182810382526022815260200180620020d26022913960400191505060405180910390fd5b506001600160a01b03166000908152602091909152604090205460ff1690565b828054600181600116156101000203166002900490600052602060002090601f016020900481019282601f106200031357805160ff191683800117855562000343565b8280016001018555821562000343579182015b828111156200034357825182559160200191906001019062000326565b506200035192915062000355565b5090565b6200015191905b808211156200035157600081556001016200035c565b611d5080620003826000396000f3fe608060405234801561001057600080fd5b50600436106101c45760003560e01c806370a08231116100f95780639865027511610097578063aa271e1a11610071578063aa271e1a1461052b578063cae9ca5114610551578063dd62ed3e1461060c578063f2fde38b1461063a576101c4565b806398650275146104cb578063a457c2d7146104d3578063a9059cbb146104ff576101c4565b80638da5cb5b116100d35780638da5cb5b1461048d5780638f32d59b1461049557806395d89b411461049d578063983b2d56146104a5576101c4565b806370a0823114610439578063715018a61461045f5780637657f20a14610467576101c4565b806339509351116101665780635f112c68116101405780635f112c68146103b957806363380113146103df5780636d435421146103e75780636fb7f55814610415576101c4565b8063395093511461033b57806340c10f191461036757806341eb24bb14610393576101c4565b806323b872dd116101a257806323b872dd146102a05780633113ed5c146102d6578063313ce567146102f757806338bf3cfa14610315576101c4565b806306fdde03146101c9578063095ea7b31461024657806318160ddd14610286575b600080fd5b6101d1610660565b6040805160208082528351818301528351919283929083019185019080838360005b8381101561020b5781810151838201526020016101f3565b50505050905090810190601f1680156102385780820380516001836020036101000a031916815260200191505b509250505060405180910390f35b6102726004803603604081101561025c57600080fd5b506001600160a01b0381351690602001356106f6565b604080519115158252519081900360200190f35b61028e610713565b60408051918252519081900360200190f35b610272600480360360608110156102b657600080fd5b506001600160a01b03813581169160208101359091169060400135610719565b6102f5600480360360208110156102ec57600080fd5b5035151561072e565b005b6102ff610793565b6040805160ff9092168252519081900360200190f35b6102f56004803603602081101561032b57600080fd5b50356001600160a01b031661079c565b6102726004803603604081101561035157600080fd5b506001600160a01b038135169060200135610839565b6102726004803603604081101561037d57600080fd5b506001600160a01b038135169060200135610892565b6102f5600480360360208110156103a957600080fd5b50356001600160a01b03166108e9565b6102f5600480360360208110156103cf57600080fd5b50356001600160a01b031661096b565b6102726109ed565b6102f5600480360360408110156103fd57600080fd5b506001600160a01b03813581169160200135166109fd565b61041d610ab8565b604080516001600160a01b039092168252519081900360200190f35b61028e6004803603602081101561044f57600080fd5b50356001600160a01b0316610acc565b6102f5610ae7565b6102f56004803603602081101561047d57600080fd5b50356001600160a01b0316610b78565b61041d610baf565b610272610bbe565b6101d1610be4565b6102f5600480360360208110156104bb57600080fd5b50356001600160a01b0316610c45565b6102f5610c97565b610272600480360360408110156104e957600080fd5b506001600160a01b038135169060200135610ca9565b6102726004803603604081101561051557600080fd5b506001600160a01b038135169060200135610d17565b6102726004803603602081101561054157600080fd5b50356001600160a01b0316610d2b565b6102726004803603606081101561056757600080fd5b6001600160a01b038235169160208101359181019060608101604082013564010000000081111561059757600080fd5b8201836020820111156105a957600080fd5b803590602001918460018302840111640100000000831117156105cb57600080fd5b91908080601f016020809104026020016040519081016040528093929190818152602001838380828437600092019190915250929550610d44945050505050565b61028e6004803603604081101561062257600080fd5b506001600160a01b0381358116916020013516610d6f565b6102f56004803603602081101561065057600080fd5b50356001600160a01b0316610d9a565b60058054604080516020601f60026000196101006001881615020190951694909404938401819004810282018101909252828152606093909290918301828280156106ec5780601f106106c1576101008083540402835291602001916106ec565b820191906000526020600020905b8154815290600101906020018083116106cf57829003601f168201915b5050505050905090565b600061070a610703610dea565b8484610dee565b50600192915050565b60025490565b6000610726848484610eda565b949350505050565b610736610bbe565b610775576040805162461bcd60e51b81526020600482018190526024820152600080516020611c1f833981519152604482015290519081900360640190fd5b60078054911515600160a81b0260ff60a81b19909216919091179055565b60075460ff1690565b6107a4610bbe565b6107e3576040805162461bcd60e51b81526020600482018190526024820152600080516020611c1f833981519152604482015290519081900360640190fd5b806001600160a01b031663715018a66040518163ffffffff1660e01b8152600401600060405180830381600087803b15801561081e57600080fd5b505af1158015610832573d6000803e3d6000fd5b5050505050565b600061070a610846610dea565b8461088d8560016000610857610dea565b6001600160a01b03908116825260208083019390935260409182016000908120918c16815292529020549063ffffffff610f5816565b610dee565b60006108a461089f610dea565b610d2b565b6108df5760405162461bcd60e51b8152600401808060200182810382526030815260200180611ba66030913960400191505060405180910390fd5b61070a8383610fb9565b6108f1610bbe565b610930576040805162461bcd60e51b81526020600482018190526024820152600080516020611c1f833981519152604482015290519081900360640190fd5b806001600160a01b0316636ef8d66d6040518163ffffffff1660e01b8152600401600060405180830381600087803b15801561081e57600080fd5b610973610bbe565b6109b2576040805162461bcd60e51b81526020600482018190526024820152600080516020611c1f833981519152604482015290519081900360640190fd5b806001600160a01b031663986502756040518163ffffffff1660e01b8152600401600060405180830381600087803b15801561081e57600080fd5b600754600160a81b900460ff1681565b610a05610bbe565b610a44576040805162461bcd60e51b81526020600482018190526024820152600080516020611c1f833981519152604482015290519081900360640190fd5b816001600160a01b031663f2fde38b826040518263ffffffff1660e01b815260040180826001600160a01b03166001600160a01b03168152602001915050600060405180830381600087803b158015610a9c57600080fd5b505af1158015610ab0573d6000803e3d6000fd5b505050505050565b60075461010090046001600160a01b031681565b6001600160a01b031660009081526020819052604090205490565b610aef610bbe565b610b2e576040805162461bcd60e51b81526020600482018190526024820152600080516020611c1f833981519152604482015290519081900360640190fd5b6004546040516000916001600160a01b0316907f8be0079c531659141344cd1fd0a4f28419497f9722a3daafe3b4186f6b6457e0908390a3600480546001600160a01b0319169055565b60405162461bcd60e51b8152600401808060200182810382526025815260200180611caa6025913960400191505060405180910390fd5b6004546001600160a01b031690565b6004546000906001600160a01b0316610bd5610dea565b6001600160a01b031614905090565b60068054604080516020601f60026000196101006001881615020190951694909404938401819004810282018101909252828152606093909290918301828280156106ec5780601f106106c1576101008083540402835291602001916106ec565b610c5061089f610dea565b610c8b5760405162461bcd60e51b8152600401808060200182810382526030815260200180611ba66030913960400191505060405180910390fd5b610c948161108f565b50565b610ca7610ca2610dea565b6110d7565b565b600061070a610cb6610dea565b8461088d85604051806060016040528060258152602001611cf76025913960016000610ce0610dea565b6001600160a01b03908116825260208083019390935260409182016000908120918d1681529252902054919063ffffffff61111f16565b600061070a610d24610dea565b84846111b6565b6000610d3e60038363ffffffff61128c16565b92915050565b6000610d5084846106f6565b610d5957600080fd5b610d65338585856112f3565b5060019392505050565b6001600160a01b03918216600090815260016020908152604080832093909416825291909152205490565b610da2610bbe565b610de1576040805162461bcd60e51b81526020600482018190526024820152600080516020611c1f833981519152604482015290519081900360640190fd5b610c9481611565565b3390565b6001600160a01b038316610e335760405162461bcd60e51b8152600401808060200182810382526024815260200180611c866024913960400191505060405180910390fd5b6001600160a01b038216610e785760405162461bcd60e51b8152600401808060200182810382526022815260200180611b2d6022913960400191505060405180910390fd5b6001600160a01b03808416600081815260016020908152604080832094871680845294825291829020859055815185815291517f8c5be1e5ebec7d5bd14f71427d1e84f3dd0314c0f7b2291e5b200ac8c7c3b9259281900390910190a3505050565b6000610ee78484846111b6565b610d6584610ef3610dea565b61088d85604051806060016040528060288152602001611bf7602891396001600160a01b038a16600090815260016020526040812090610f31610dea565b6001600160a01b03168152602081019190915260400160002054919063ffffffff61111f16565b600082820183811015610fb2576040805162461bcd60e51b815260206004820152601b60248201527f536166654d6174683a206164646974696f6e206f766572666c6f770000000000604482015290519081900360640190fd5b9392505050565b610fc38282611606565b600754600160a81b900460ff168015610feb575060075461010090046001600160a01b031615155b1561108b5760075460408051634a39314960e01b81526000600482018190526001600160a01b03868116602484015260448301869052925161010090940490921692634a39314992606480840193602093929083900390910190829087803b15801561105657600080fd5b505af115801561106a573d6000803e3d6000fd5b505050506040513d602081101561108057600080fd5b505161108b57600080fd5b5050565b6110a060038263ffffffff6116f616565b6040516001600160a01b038216907f6ae172837ea30b801fbfcdd4108aa1d5bf8ff775444fd70256b44e6bf3dfc3f690600090a250565b6110e860038263ffffffff61177716565b6040516001600160a01b038216907fe94479a9f7e1952cc78f2d6baab678adc1b772d936c6583def489e524cb6669290600090a250565b600081848411156111ae5760405162461bcd60e51b81526004018080602001828103825283818151815260200191508051906020019080838360005b8381101561117357818101518382015260200161115b565b50505050905090810190601f1680156111a05780820380516001836020036101000a031916815260200191505b509250505060405180910390fd5b505050900390565b6111c18383836117de565b600754600160a81b900460ff1680156111e9575060075461010090046001600160a01b031615155b156112875760075460408051634a39314960e01b81526001600160a01b038681166004830152858116602483015260448201859052915161010090930490911691634a393149916064808201926020929091908290030181600087803b15801561125257600080fd5b505af1158015611266573d6000803e3d6000fd5b505050506040513d602081101561127c57600080fd5b505161128757600080fd5b505050565b60006001600160a01b0382166112d35760405162461bcd60e51b8152600401808060200182810382526022815260200180611c3f6022913960400191505060405180910390fd5b506001600160a01b03166000908152602091909152604090205460ff1690565b632139e50b60e11b611305848261193a565b6113405760405162461bcd60e51b8152600401808060200182810382526031815260200180611b4f6031913960400191505060405180910390fd5b60006060856001600160a01b0316838888888860405160240180856001600160a01b03166001600160a01b03168152602001846001600160a01b03166001600160a01b0316815260200183815260200180602001828103825283818151815260200191508051906020019080838360005b838110156113c95781810151838201526020016113b1565b50505050905090810190601f1680156113f65780820380516001836020036101000a031916815260200191505b5060408051601f198184030181529181526020820180516001600160e01b03166001600160e01b0319909a16999099178952518151919890975087965094509250829150849050835b6020831061145e5780518252601f19909201916020918201910161143f565b6001836020036101000a0380198251168184511680821785525050505050509050019150506000604051808303816000865af19150503d80600081146114c0576040519150601f19603f3d011682016040523d82523d6000602084013e6114c5565b606091505b50915091508181906115185760405162461bcd60e51b815260206004820181815283516024840152835190928392604490910191908501908083836000831561117357818101518382015260200161115b565b50602081015191508161155c5760405162461bcd60e51b8152600401808060200182810382526028815260200180611ccf6028913960400191505060405180910390fd5b50505050505050565b6001600160a01b0381166115aa5760405162461bcd60e51b8152600401808060200182810382526026815260200180611b076026913960400191505060405180910390fd5b6004546040516001600160a01b038084169216907f8be0079c531659141344cd1fd0a4f28419497f9722a3daafe3b4186f6b6457e090600090a3600480546001600160a01b0319166001600160a01b0392909216919091179055565b6001600160a01b038216611661576040805162461bcd60e51b815260206004820152601f60248201527f45524332303a206d696e7420746f20746865207a65726f206164647265737300604482015290519081900360640190fd5b600254611674908263ffffffff610f5816565b6002556001600160a01b0382166000908152602081905260409020546116a0908263ffffffff610f5816565b6001600160a01b0383166000818152602081815260408083209490945583518581529351929391927fddf252ad1be2c89b69c2b068fc378daa952ba7f163c4a11628f55a4df523b3ef9281900390910190a35050565b611700828261128c565b15611752576040805162461bcd60e51b815260206004820152601f60248201527f526f6c65733a206163636f756e7420616c72656164792068617320726f6c6500604482015290519081900360640190fd5b6001600160a01b0316600090815260209190915260409020805460ff19166001179055565b611781828261128c565b6117bc5760405162461bcd60e51b8152600401808060200182810382526021815260200180611bd66021913960400191505060405180910390fd5b6001600160a01b0316600090815260209190915260409020805460ff19169055565b6001600160a01b0383166118235760405162461bcd60e51b8152600401808060200182810382526025815260200180611c616025913960400191505060405180910390fd5b6001600160a01b0382166118685760405162461bcd60e51b8152600401808060200182810382526023815260200180611ae46023913960400191505060405180910390fd5b6118ab81604051806060016040528060268152602001611b80602691396001600160a01b038616600090815260208190526040902054919063ffffffff61111f16565b6001600160a01b0380851660009081526020819052604080822093909355908416815220546118e0908263ffffffff610f5816565b6001600160a01b038084166000818152602081815260409182902094909455805185815290519193928716927fddf252ad1be2c89b69c2b068fc378daa952ba7f163c4a11628f55a4df523b3ef92918290030190a3505050565b600061194583611956565b8015610fb25750610fb28383611989565b6000611969826301ffc9a760e01b611989565b8015610d3e5750611982826001600160e01b0319611989565b1592915050565b600080600061199885856119af565b915091508180156119a65750805b95945050505050565b604080516001600160e01b0319831660248083019190915282518083039091018152604490910182526020810180516001600160e01b03166301ffc9a760e01b1781529151815160009384939284926060926001600160a01b038a169261753092879282918083835b60208310611a375780518252601f199092019160209182019101611a18565b6001836020036101000a0380198251168184511680821785525050505050509050019150506000604051808303818686fa925050503d8060008114611a98576040519150601f19603f3d011682016040523d82523d6000602084013e611a9d565b606091505b5091509150602081511015611abb5760008094509450505050611adc565b81818060200190516020811015611ad157600080fd5b505190955093505050505b925092905056fe45524332303a207472616e7366657220746f20746865207a65726f20616464726573734f776e61626c653a206e6577206f776e657220697320746865207a65726f206164647265737345524332303a20617070726f766520746f20746865207a65726f206164647265737345524332304f6e417070726f76653a207370656e64657220646f65736e277420737570706f7274206f6e417070726f766545524332303a207472616e7366657220616d6f756e7420657863656564732062616c616e63654d696e746572526f6c653a2063616c6c657220646f6573206e6f74206861766520746865204d696e74657220726f6c65526f6c65733a206163636f756e7420646f6573206e6f74206861766520726f6c6545524332303a207472616e7366657220616d6f756e74206578636565647320616c6c6f77616e63654f776e61626c653a2063616c6c6572206973206e6f7420746865206f776e6572526f6c65733a206163636f756e7420697320746865207a65726f206164647265737345524332303a207472616e736665722066726f6d20746865207a65726f206164647265737345524332303a20617070726f76652066726f6d20746865207a65726f2061646472657373544f4e3a20544f4e20646f65736e277420616c6c6f7720736574536569674d616e6167657245524332304f6e417070726f76653a206661696c656420746f2063616c6c206f6e417070726f766545524332303a2064656372656173656420616c6c6f77616e63652062656c6f77207a65726fa265627a7a72315820470763a63ad18662c70971447ea92c057586d687a9f2be4b4f0fbe0c7d3abb2164736f6c634300050c0032526f6c65733a206163636f756e7420697320746865207a65726f2061646472657373",
  "source": "pragma solidity ^0.5.12;\n\nimport { Ownable } from \"../../../node_modules/openzeppelin-solidity/contracts/ownership/Ownable.sol\";\nimport { ERC20Mintable } from \"../../../node_modules/openzeppelin-solidity/contracts/token/ERC20/ERC20Mintable.sol\";\nimport { ERC20Detailed } from \"../../../node_modules/openzeppelin-solidity/contracts/token/ERC20/ERC20Detailed.sol\";\nimport { ERC165Checker } from \"../../../node_modules/openzeppelin-solidity/contracts/introspection/ERC165Checker.sol\";\n\nimport { SeigManagerI } from \"../interfaces/SeigManagerI.sol\";\nimport { SeigToken } from \"./SeigToken.sol\";\n\n\n/**\n * @dev Current implementations is just for testing seigniorage manager.\n */\ncontract TON is Ownable, ERC20Mintable, ERC20Detailed, SeigToken {\n  constructor() public ERC20Detailed(\"Tokamak Network Token\", \"TON\", 18) {}\n\n  function setSeigManager(SeigManagerI _seigManager) external {\n    revert(\"TON: TON doesn't allow setSeigManager\");\n  }\n}",
  "sourcePath": "/home/modagi/github/onther/plasma-evm-contracts2/contracts/stake/tokens/TON.sol",
  "compiler": {
    "name": "solc",
    "version": "0.5.12+commit.7709ece9.Emscripten.clang"
  },
  "schemaVersion": "3.2.1",
  "updatedAt": "2020-09-10T05:29:26.041Z",
  "devdoc": {
    "details": "Current implementations is just for testing seigniorage manager.",
    "methods": {
      "allowance(address,address)": {
        "details": "See {IERC20-allowance}."
      },
      "approve(address,uint256)": {
        "details": "See {IERC20-approve}.     * Requirements:     * - `spender` cannot be the zero address."
      },
      "balanceOf(address)": {
        "details": "See {IERC20-balanceOf}."
      },
      "decimals()": {
        "details": "Returns the number of decimals used to get its user representation. For example, if `decimals` equals `2`, a balance of `505` tokens should be displayed to a user as `5,05` (`505 / 10 ** 2`).     * Tokens usually opt for a value of 18, imitating the relationship between Ether and Wei.     * NOTE: This information is only used for _display_ purposes: it in no way affects any of the arithmetic of the contract, including {IERC20-balanceOf} and {IERC20-transfer}."
      },
      "decreaseAllowance(address,uint256)": {
        "details": "Atomically decreases the allowance granted to `spender` by the caller.     * This is an alternative to {approve} that can be used as a mitigation for problems described in {IERC20-approve}.     * Emits an {Approval} event indicating the updated allowance.     * Requirements:     * - `spender` cannot be the zero address. - `spender` must have allowance for the caller of at least `subtractedValue`."
      },
      "increaseAllowance(address,uint256)": {
        "details": "Atomically increases the allowance granted to `spender` by the caller.     * This is an alternative to {approve} that can be used as a mitigation for problems described in {IERC20-approve}.     * Emits an {Approval} event indicating the updated allowance.     * Requirements:     * - `spender` cannot be the zero address."
      },
      "isOwner()": {
        "details": "Returns true if the caller is the current owner."
      },
      "mint(address,uint256)": {
        "details": "See {ERC20-_mint}.     * Requirements:     * - the caller must have the {MinterRole}."
      },
      "name()": {
        "details": "Returns the name of the token."
      },
      "owner()": {
        "details": "Returns the address of the current owner."
      },
      "renounceOwnership()": {
        "details": "Leaves the contract without owner. It will not be possible to call `onlyOwner` functions anymore. Can only be called by the current owner.     * NOTE: Renouncing ownership will leave the contract without an owner, thereby removing any functionality that is only available to the owner."
      },
      "symbol()": {
        "details": "Returns the symbol of the token, usually a shorter version of the name."
      },
      "totalSupply()": {
        "details": "See {IERC20-totalSupply}."
      },
      "transfer(address,uint256)": {
        "details": "See {IERC20-transfer}.     * Requirements:     * - `recipient` cannot be the zero address. - the caller must have a balance of at least `amount`."
      },
      "transferOwnership(address)": {
        "details": "Transfers ownership of the contract to a new account (`newOwner`). Can only be called by the current owner."
      }
    }
  },
  "userdoc": {
    "methods": {
      "transferFrom(address,address,uint256)": {
        "notice": "///////////////////"
      }
    }
  }
}