{
  "contractName": "WTON",
  "abi": [
    {
      "inputs": [
        {
          "internalType": "contract ERC20Mintable",
          "name": "_ton",
          "type": "address"
        }
      ],
      "payable": false,
      "stateMutability": "nonpayable",
      "type": "constructor"
    },
    {
      "anonymous": false,
      "inputs": [
        {
          "indexed": true,
          "internalType": "address",
          "name": "owner",
          "type": "address"
        },
        {
          "indexed": true,
          "internalType": "address",
          "name": "spender",
          "type": "address"
        },
        {
          "indexed": false,
          "internalType": "uint256",
          "name": "value",
          "type": "uint256"
        }
      ],
      "name": "Approval",
      "type": "event"
    },
    {
      "anonymous": false,
      "inputs": [
        {
          "indexed": true,
          "internalType": "address",
          "name": "account",
          "type": "address"
        }
      ],
      "name": "MinterAdded",
      "type": "event"
    },
    {
      "anonymous": false,
      "inputs": [
        {
          "indexed": true,
          "internalType": "address",
          "name": "account",
          "type": "address"
        }
      ],
      "name": "MinterRemoved",
      "type": "event"
    },
    {
      "anonymous": false,
      "inputs": [
        {
          "indexed": true,
          "internalType": "address",
          "name": "previousOwner",
          "type": "address"
        },
        {
          "indexed": true,
          "internalType": "address",
          "name": "newOwner",
          "type": "address"
        }
      ],
      "name": "OwnershipTransferred",
      "type": "event"
    },
    {
      "anonymous": false,
      "inputs": [
        {
          "indexed": true,
          "internalType": "address",
          "name": "from",
          "type": "address"
        },
        {
          "indexed": true,
          "internalType": "address",
          "name": "to",
          "type": "address"
        },
        {
          "indexed": false,
          "internalType": "uint256",
          "name": "value",
          "type": "uint256"
        }
      ],
      "name": "Transfer",
      "type": "event"
    },
    {
      "constant": false,
      "inputs": [
        {
          "internalType": "address",
          "name": "account",
          "type": "address"
        }
      ],
      "name": "addMinter",
      "outputs": [],
      "payable": false,
      "stateMutability": "nonpayable",
      "type": "function"
    },
    {
      "constant": true,
      "inputs": [
        {
          "internalType": "address",
          "name": "owner",
          "type": "address"
        },
        {
          "internalType": "address",
          "name": "spender",
          "type": "address"
        }
      ],
      "name": "allowance",
      "outputs": [
        {
          "internalType": "uint256",
          "name": "",
          "type": "uint256"
        }
      ],
      "payable": false,
      "stateMutability": "view",
      "type": "function"
    },
    {
      "constant": false,
      "inputs": [
        {
          "internalType": "address",
          "name": "spender",
          "type": "address"
        },
        {
          "internalType": "uint256",
          "name": "amount",
          "type": "uint256"
        }
      ],
      "name": "approve",
      "outputs": [
        {
          "internalType": "bool",
          "name": "",
          "type": "bool"
        }
      ],
      "payable": false,
      "stateMutability": "nonpayable",
      "type": "function"
    },
    {
      "constant": false,
      "inputs": [
        {
          "internalType": "address",
          "name": "spender",
          "type": "address"
        },
        {
          "internalType": "uint256",
          "name": "amount",
          "type": "uint256"
        },
        {
          "internalType": "bytes",
          "name": "data",
          "type": "bytes"
        }
      ],
      "name": "approveAndCall",
      "outputs": [
        {
          "internalType": "bool",
          "name": "",
          "type": "bool"
        }
      ],
      "payable": false,
      "stateMutability": "nonpayable",
      "type": "function"
    },
    {
      "constant": true,
      "inputs": [
        {
          "internalType": "address",
          "name": "account",
          "type": "address"
        }
      ],
      "name": "balanceOf",
      "outputs": [
        {
          "internalType": "uint256",
          "name": "",
          "type": "uint256"
        }
      ],
      "payable": false,
      "stateMutability": "view",
      "type": "function"
    },
    {
      "constant": false,
      "inputs": [
        {
          "internalType": "uint256",
          "name": "amount",
          "type": "uint256"
        }
      ],
      "name": "burn",
      "outputs": [],
      "payable": false,
      "stateMutability": "nonpayable",
      "type": "function"
    },
    {
      "constant": true,
      "inputs": [],
      "name": "callbackEnabled",
      "outputs": [
        {
          "internalType": "bool",
          "name": "",
          "type": "bool"
        }
      ],
      "payable": false,
      "stateMutability": "view",
      "type": "function"
    },
    {
      "constant": true,
      "inputs": [],
      "name": "decimals",
      "outputs": [
        {
          "internalType": "uint8",
          "name": "",
          "type": "uint8"
        }
      ],
      "payable": false,
      "stateMutability": "view",
      "type": "function"
    },
    {
      "constant": false,
      "inputs": [
        {
          "internalType": "address",
          "name": "spender",
          "type": "address"
        },
        {
          "internalType": "uint256",
          "name": "subtractedValue",
          "type": "uint256"
        }
      ],
      "name": "decreaseAllowance",
      "outputs": [
        {
          "internalType": "bool",
          "name": "",
          "type": "bool"
        }
      ],
      "payable": false,
      "stateMutability": "nonpayable",
      "type": "function"
    },
    {
      "constant": false,
      "inputs": [
        {
          "internalType": "bool",
          "name": "_callbackEnabled",
          "type": "bool"
        }
      ],
      "name": "enableCallback",
      "outputs": [],
      "payable": false,
      "stateMutability": "nonpayable",
      "type": "function"
    },
    {
      "constant": false,
      "inputs": [
        {
          "internalType": "address",
          "name": "spender",
          "type": "address"
        },
        {
          "internalType": "uint256",
          "name": "addedValue",
          "type": "uint256"
        }
      ],
      "name": "increaseAllowance",
      "outputs": [
        {
          "internalType": "bool",
          "name": "",
          "type": "bool"
        }
      ],
      "payable": false,
      "stateMutability": "nonpayable",
      "type": "function"
    },
    {
      "constant": true,
      "inputs": [
        {
          "internalType": "address",
          "name": "account",
          "type": "address"
        }
      ],
      "name": "isMinter",
      "outputs": [
        {
          "internalType": "bool",
          "name": "",
          "type": "bool"
        }
      ],
      "payable": false,
      "stateMutability": "view",
      "type": "function"
    },
    {
      "constant": true,
      "inputs": [],
      "name": "isOwner",
      "outputs": [
        {
          "internalType": "bool",
          "name": "",
          "type": "bool"
        }
      ],
      "payable": false,
      "stateMutability": "view",
      "type": "function"
    },
    {
      "constant": false,
      "inputs": [
        {
          "internalType": "address",
          "name": "account",
          "type": "address"
        },
        {
          "internalType": "uint256",
          "name": "amount",
          "type": "uint256"
        }
      ],
      "name": "mint",
      "outputs": [
        {
          "internalType": "bool",
          "name": "",
          "type": "bool"
        }
      ],
      "payable": false,
      "stateMutability": "nonpayable",
      "type": "function"
    },
    {
      "constant": true,
      "inputs": [],
      "name": "name",
      "outputs": [
        {
          "internalType": "string",
          "name": "",
          "type": "string"
        }
      ],
      "payable": false,
      "stateMutability": "view",
      "type": "function"
    },
    {
      "constant": true,
      "inputs": [],
      "name": "owner",
      "outputs": [
        {
          "internalType": "address",
          "name": "",
          "type": "address"
        }
      ],
      "payable": false,
      "stateMutability": "view",
      "type": "function"
    },
    {
      "constant": false,
      "inputs": [
        {
          "internalType": "address",
          "name": "target",
          "type": "address"
        }
      ],
      "name": "renounceMinter",
      "outputs": [],
      "payable": false,
      "stateMutability": "nonpayable",
      "type": "function"
    },
    {
      "constant": false,
      "inputs": [],
      "name": "renounceMinter",
      "outputs": [],
      "payable": false,
      "stateMutability": "nonpayable",
      "type": "function"
    },
    {
      "constant": false,
      "inputs": [
        {
          "internalType": "address",
          "name": "target",
          "type": "address"
        }
      ],
      "name": "renounceOwnership",
      "outputs": [],
      "payable": false,
      "stateMutability": "nonpayable",
      "type": "function"
    },
    {
      "constant": false,
      "inputs": [],
      "name": "renounceOwnership",
      "outputs": [],
      "payable": false,
      "stateMutability": "nonpayable",
      "type": "function"
    },
    {
      "constant": false,
      "inputs": [
        {
          "internalType": "address",
          "name": "target",
          "type": "address"
        }
      ],
      "name": "renouncePauser",
      "outputs": [],
      "payable": false,
      "stateMutability": "nonpayable",
      "type": "function"
    },
    {
      "constant": true,
      "inputs": [],
      "name": "seigManager",
      "outputs": [
        {
          "internalType": "contract SeigManagerI",
          "name": "",
          "type": "address"
        }
      ],
      "payable": false,
      "stateMutability": "view",
      "type": "function"
    },
    {
      "constant": false,
      "inputs": [
        {
          "internalType": "contract SeigManagerI",
          "name": "_seigManager",
          "type": "address"
        }
      ],
      "name": "setSeigManager",
      "outputs": [],
      "payable": false,
      "stateMutability": "nonpayable",
      "type": "function"
    },
    {
      "constant": true,
      "inputs": [
        {
          "internalType": "bytes4",
          "name": "interfaceId",
          "type": "bytes4"
        }
      ],
      "name": "supportsInterface",
      "outputs": [
        {
          "internalType": "bool",
          "name": "",
          "type": "bool"
        }
      ],
      "payable": false,
      "stateMutability": "view",
      "type": "function"
    },
    {
      "constant": true,
      "inputs": [],
      "name": "symbol",
      "outputs": [
        {
          "internalType": "string",
          "name": "",
          "type": "string"
        }
      ],
      "payable": false,
      "stateMutability": "view",
      "type": "function"
    },
    {
      "constant": true,
      "inputs": [],
      "name": "ton",
      "outputs": [
        {
          "internalType": "contract ERC20Mintable",
          "name": "",
          "type": "address"
        }
      ],
      "payable": false,
      "stateMutability": "view",
      "type": "function"
    },
    {
      "constant": true,
      "inputs": [],
      "name": "totalSupply",
      "outputs": [
        {
          "internalType": "uint256",
          "name": "",
          "type": "uint256"
        }
      ],
      "payable": false,
      "stateMutability": "view",
      "type": "function"
    },
    {
      "constant": false,
      "inputs": [
        {
          "internalType": "address",
          "name": "recipient",
          "type": "address"
        },
        {
          "internalType": "uint256",
          "name": "amount",
          "type": "uint256"
        }
      ],
      "name": "transfer",
      "outputs": [
        {
          "internalType": "bool",
          "name": "",
          "type": "bool"
        }
      ],
      "payable": false,
      "stateMutability": "nonpayable",
      "type": "function"
    },
    {
      "constant": false,
      "inputs": [
        {
          "internalType": "address",
          "name": "sender",
          "type": "address"
        },
        {
          "internalType": "address",
          "name": "recipient",
          "type": "address"
        },
        {
          "internalType": "uint256",
          "name": "amount",
          "type": "uint256"
        }
      ],
      "name": "transferFrom",
      "outputs": [
        {
          "internalType": "bool",
          "name": "",
          "type": "bool"
        }
      ],
      "payable": false,
      "stateMutability": "nonpayable",
      "type": "function"
    },
    {
      "constant": false,
      "inputs": [
        {
          "internalType": "address",
          "name": "target",
          "type": "address"
        },
        {
          "internalType": "address",
          "name": "newOwner",
          "type": "address"
        }
      ],
      "name": "transferOwnership",
      "outputs": [],
      "payable": false,
      "stateMutability": "nonpayable",
      "type": "function"
    },
    {
      "constant": false,
      "inputs": [
        {
          "internalType": "address",
          "name": "newOwner",
          "type": "address"
        }
      ],
      "name": "transferOwnership",
      "outputs": [],
      "payable": false,
      "stateMutability": "nonpayable",
      "type": "function"
    },
    {
      "constant": false,
      "inputs": [
        {
          "internalType": "address",
          "name": "owner",
          "type": "address"
        },
        {
          "internalType": "address",
          "name": "spender",
          "type": "address"
        },
        {
          "internalType": "uint256",
          "name": "tonAmount",
          "type": "uint256"
        },
        {
          "internalType": "bytes",
          "name": "data",
          "type": "bytes"
        }
      ],
      "name": "onApprove",
      "outputs": [
        {
          "internalType": "bool",
          "name": "",
          "type": "bool"
        }
      ],
      "payable": false,
      "stateMutability": "nonpayable",
      "type": "function"
    },
    {
      "constant": false,
      "inputs": [
        {
          "internalType": "address",
          "name": "account",
          "type": "address"
        },
        {
          "internalType": "uint256",
          "name": "amount",
          "type": "uint256"
        }
      ],
      "name": "burnFrom",
      "outputs": [],
      "payable": false,
      "stateMutability": "nonpayable",
      "type": "function"
    },
    {
      "constant": false,
      "inputs": [
        {
          "internalType": "uint256",
          "name": "wtonAmount",
          "type": "uint256"
        }
      ],
      "name": "swapToTON",
      "outputs": [
        {
          "internalType": "bool",
          "name": "",
          "type": "bool"
        }
      ],
      "payable": false,
      "stateMutability": "nonpayable",
      "type": "function"
    },
    {
      "constant": false,
      "inputs": [
        {
          "internalType": "uint256",
          "name": "tonAmount",
          "type": "uint256"
        }
      ],
      "name": "swapFromTON",
      "outputs": [
        {
          "internalType": "bool",
          "name": "",
          "type": "bool"
        }
      ],
      "payable": false,
      "stateMutability": "nonpayable",
      "type": "function"
    },
    {
      "constant": false,
      "inputs": [
        {
          "internalType": "address",
          "name": "to",
          "type": "address"
        },
        {
          "internalType": "uint256",
          "name": "wtonAmount",
          "type": "uint256"
        }
      ],
      "name": "swapToTONAndTransfer",
      "outputs": [
        {
          "internalType": "bool",
          "name": "",
          "type": "bool"
        }
      ],
      "payable": false,
      "stateMutability": "nonpayable",
      "type": "function"
    },
    {
      "constant": false,
      "inputs": [
        {
          "internalType": "address",
          "name": "to",
          "type": "address"
        },
        {
          "internalType": "uint256",
          "name": "tonAmount",
          "type": "uint256"
        }
      ],
      "name": "swapFromTONAndTransfer",
      "outputs": [
        {
          "internalType": "bool",
          "name": "",
          "type": "bool"
        }
      ],
      "payable": false,
      "stateMutability": "nonpayable",
      "type": "function"
    },
    {
      "constant": false,
      "inputs": [],
      "name": "renounceTonMinter",
      "outputs": [],
      "payable": false,
      "stateMutability": "nonpayable",
      "type": "function"
    }
  ],
  "bytecode": "0x60806040523480156200001157600080fd5b506040516200312938038062003129833981810160405260208110156200003757600080fd5b5051604080518082018252600b81527f5772617070656420544f4e0000000000000000000000000000000000000000006020828101919091528251808401909352600483527f57544f4e00000000000000000000000000000000000000000000000000000000908301526000805460ff1916600117905590601b620000d7620000c86001600160e01b03620002dc16565b6001600160e01b03620002e116565b6000620000ec6001600160e01b03620002dc16565b600580546001600160a01b0319166001600160a01b038316908117909155604051919250906000907f8be0079c531659141344cd1fd0a4f28419497f9722a3daafe3b4186f6b6457e0908290a35082516200014f9060069060208601906200052c565b508151620001659060079060208501906200052c565b506008805460ff191660ff9290921691909117905550620001a890507f01ffc9a70000000000000000000000000000000000000000000000000000000062000333565b620001dc7f4273ca16000000000000000000000000000000000000000000000000000000006001600160e01b036200033316565b806001600160a01b031663313ce5676040518163ffffffff1660e01b815260040160206040518083038186803b1580156200021657600080fd5b505afa1580156200022b573d6000803e3d6000fd5b505050506040513d60208110156200024257600080fd5b505160ff16601214620002b657604080517f08c379a000000000000000000000000000000000000000000000000000000000815260206004820181905260248201527f57544f4e3a20646563696d616c73206f6620544f4e206d757374206265203138604482015290519081900360640190fd5b600a80546001600160a01b0319166001600160a01b0392909216919091179055620005ce565b335b90565b620002fc8160046200040260201b6200217c1790919060201c565b6040516001600160a01b038216907f6ae172837ea30b801fbfcdd4108aa1d5bf8ff775444fd70256b44e6bf3dfc3f690600090a250565b7fffffffff000000000000000000000000000000000000000000000000000000008082161415620003c557604080517f08c379a000000000000000000000000000000000000000000000000000000000815260206004820152601c60248201527f4552433136353a20696e76616c696420696e7465726661636520696400000000604482015290519081900360640190fd5b7fffffffff00000000000000000000000000000000000000000000000000000000166000908152600960205260409020805460ff19166001179055565b6200041782826001600160e01b03620004a916565b156200048457604080517f08c379a000000000000000000000000000000000000000000000000000000000815260206004820152601f60248201527f526f6c65733a206163636f756e7420616c72656164792068617320726f6c6500604482015290519081900360640190fd5b6001600160a01b0316600090815260209190915260409020805460ff19166001179055565b60006001600160a01b0382166200050c576040517f08c379a0000000000000000000000000000000000000000000000000000000008152600401808060200182810382526022815260200180620031076022913960400191505060405180910390fd5b506001600160a01b03166000908152602091909152604090205460ff1690565b828054600181600116156101000203166002900490600052602060002090601f016020900481019282601f106200056f57805160ff19168380011785556200059f565b828001600101855582156200059f579182015b828111156200059f57825182559160200191906001019062000582565b50620005ad929150620005b1565b5090565b620002de91905b80821115620005ad5760008155600101620005b8565b612b2980620005de6000396000f3fe608060405234801561001057600080fd5b50600436106102325760003560e01c806370a0823111610130578063a457c2d7116100b8578063dd62ed3e1161007c578063dd62ed3e146107b6578063e34869d7146107e4578063e3b99e8514610801578063f2fde38b1461082d578063f53fe70f1461085357610232565b8063a457c2d714610675578063a9059cbb146106a1578063aa271e1a146106cd578063cae9ca51146106f3578063cc48b947146107ae57610232565b80638da5cb5b116100ff5780638da5cb5b1461062f5780638f32d59b1461063757806395d89b411461063f578063983b2d5614610647578063986502751461066d57610232565b806370a08231146105af578063715018a6146105d55780637657f20a146105dd57806379cc67901461060357610232565b806339509351116101be578063588420b711610182578063588420b7146105035780635f112c681461052f57806363380113146105555780636d4354211461055d5780636fb7f5581461058b57610232565b806339509351146103d857806340c10f191461040457806341eb24bb146104305780634273ca161461045657806342966c68146104e657610232565b806318160ddd1161020557806318160ddd1461032557806323b872dd1461033f5780633113ed5c14610375578063313ce5671461039457806338bf3cfa146103b257610232565b806301ffc9a71461023757806305eeb9f71461027257806306fdde031461027c578063095ea7b3146102f9575b600080fd5b61025e6004803603602081101561024d57600080fd5b50356001600160e01b031916610870565b604080519115158252519081900360200190f35b61027a61088f565b005b610284610940565b6040805160208082528351818301528351919283929083019185019080838360005b838110156102be5781810151838201526020016102a6565b50505050905090810190601f1680156102eb5780820380516001836020036101000a031916815260200191505b509250505060405180910390f35b61025e6004803603604081101561030f57600080fd5b506001600160a01b0381351690602001356109d6565b61032d6109f3565b60408051918252519081900360200190f35b61025e6004803603606081101561035557600080fd5b506001600160a01b038135811691602081013590911690604001356109f9565b61027a6004803603602081101561038b57600080fd5b50351515610a68565b61039c610acd565b6040805160ff9092168252519081900360200190f35b61027a600480360360208110156103c857600080fd5b50356001600160a01b0316610ad6565b61025e600480360360408110156103ee57600080fd5b506001600160a01b038135169060200135610b73565b61025e6004803603604081101561041a57600080fd5b506001600160a01b038135169060200135610bcc565b61027a6004803603602081101561044657600080fd5b50356001600160a01b0316610c23565b61025e6004803603608081101561046c57600080fd5b6001600160a01b038235811692602081013590911691604082013591908101906080810160608201356401000000008111156104a757600080fd5b8201836020820111156104b957600080fd5b803590602001918460018302840111640100000000831117156104db57600080fd5b509092509050610ca5565b61027a600480360360208110156104fc57600080fd5b5035610d84565b61025e6004803603604081101561051957600080fd5b506001600160a01b038135169060200135610d98565b61027a6004803603602081101561054557600080fd5b50356001600160a01b0316610e08565b61025e610e8a565b61027a6004803603604081101561057357600080fd5b506001600160a01b0381358116916020013516610e9a565b610593610f55565b604080516001600160a01b039092168252519081900360200190f35b61032d600480360360208110156105c557600080fd5b50356001600160a01b0316610f69565b61027a610f84565b61027a600480360360208110156105f357600080fd5b50356001600160a01b0316611015565b61027a6004803603604081101561061957600080fd5b506001600160a01b038135169060200135611084565b6105936110af565b61025e6110be565b6102846110e4565b61027a6004803603602081101561065d57600080fd5b50356001600160a01b0316611145565b61027a611194565b61025e6004803603604081101561068b57600080fd5b506001600160a01b0381351690602001356111a6565b61025e600480360360408110156106b757600080fd5b506001600160a01b038135169060200135611214565b61025e600480360360208110156106e357600080fd5b50356001600160a01b0316611228565b61025e6004803603606081101561070957600080fd5b6001600160a01b038235169160208101359181019060608101604082013564010000000081111561073957600080fd5b82018360208201111561074b57600080fd5b8035906020019184600183028401116401000000008311171561076d57600080fd5b91908080601f016020809104026020016040519081016040528093929190818152602001838380828437600092019190915250929550611241945050505050565b61059361126c565b61032d600480360360408110156107cc57600080fd5b506001600160a01b038135811691602001351661127b565b61025e600480360360208110156107fa57600080fd5b50356112a6565b61025e6004803603604081101561081757600080fd5b506001600160a01b038135169060200135611315565b61027a6004803603602081101561084357600080fd5b50356001600160a01b0316611370565b61025e6004803603602081101561086957600080fd5b50356113c0565b6001600160e01b03191660009081526009602052604090205460ff1690565b6108976110be565b6108d6576040805162461bcd60e51b81526020600482018190526024820152600080516020612988833981519152604482015290519081900360640190fd5b600a60009054906101000a90046001600160a01b03166001600160a01b031663986502756040518163ffffffff1660e01b8152600401600060405180830381600087803b15801561092657600080fd5b505af115801561093a573d6000803e3d6000fd5b50505050565b60068054604080516020601f60026000196101006001881615020190951694909404938401819004810282018101909252828152606093909290918301828280156109cc5780601f106109a1576101008083540402835291602001916109cc565b820191906000526020600020905b8154815290600101906020018083116109af57829003601f168201915b5050505050905090565b60006109ea6109e361141b565b848461141f565b50600192915050565b60035490565b6000336001600160a01b0385161480610a1a5750336001600160a01b038416145b610a555760405162461bcd60e51b81526004018080602001828103825260308152602001806128df6030913960400191505060405180910390fd5b610a6084848461150b565b949350505050565b610a706110be565b610aaf576040805162461bcd60e51b81526020600482018190526024820152600080516020612988833981519152604482015290519081900360640190fd5b60088054911515600160a81b0260ff60a81b19909216919091179055565b60085460ff1690565b610ade6110be565b610b1d576040805162461bcd60e51b81526020600482018190526024820152600080516020612988833981519152604482015290519081900360640190fd5b806001600160a01b031663715018a66040518163ffffffff1660e01b8152600401600060405180830381600087803b158015610b5857600080fd5b505af1158015610b6c573d6000803e3d6000fd5b5050505050565b60006109ea610b8061141b565b84610bc78560026000610b9161141b565b6001600160a01b03908116825260208083019390935260409182016000908120918c16815292529020549063ffffffff61158916565b61141f565b6000610bde610bd961141b565b611228565b610c195760405162461bcd60e51b815260040180806020018281038252603081526020018061290f6030913960400191505060405180910390fd5b6109ea83836115ea565b610c2b6110be565b610c6a576040805162461bcd60e51b81526020600482018190526024820152600080516020612988833981519152604482015290519081900360640190fd5b806001600160a01b0316636ef8d66d6040518163ffffffff1660e01b8152600401600060405180830381600087803b158015610b5857600080fd5b600a546000906001600160a01b03163314610cf15760405162461bcd60e51b8152600401808060200182810382526026815260200180612a806026913960400191505060405180910390fd5b610cfc8687866116bc565b506000610d08856116ee565b9050600080610d4c86868080601f0160208091040260200160405190810160405280939291908181526020018383808284376000920191909152506116f792505050565b91509150610d5b89838561141f565b6060610d6682611719565b9050610d748a848684611743565b5060019998505050505050505050565b610d95610d8f61141b565b826119f2565b50565b6000805460ff16610dde576040805162461bcd60e51b815260206004820152601f60248201526000805160206127fe833981519152604482015290519081900360640190fd5b6000805460ff19169055610df33384846116bc565b90506000805460ff1916600117905592915050565b610e106110be565b610e4f576040805162461bcd60e51b81526020600482018190526024820152600080516020612988833981519152604482015290519081900360640190fd5b806001600160a01b031663986502756040518163ffffffff1660e01b8152600401600060405180830381600087803b158015610b5857600080fd5b600854600160a81b900460ff1681565b610ea26110be565b610ee1576040805162461bcd60e51b81526020600482018190526024820152600080516020612988833981519152604482015290519081900360640190fd5b816001600160a01b031663f2fde38b826040518263ffffffff1660e01b815260040180826001600160a01b03166001600160a01b03168152602001915050600060405180830381600087803b158015610f3957600080fd5b505af1158015610f4d573d6000803e3d6000fd5b505050505050565b60085461010090046001600160a01b031681565b6001600160a01b031660009081526001602052604090205490565b610f8c6110be565b610fcb576040805162461bcd60e51b81526020600482018190526024820152600080516020612988833981519152604482015290519081900360640190fd5b6005546040516000916001600160a01b0316907f8be0079c531659141344cd1fd0a4f28419497f9722a3daafe3b4186f6b6457e0908390a3600580546001600160a01b0319169055565b61101d6110be565b61105c576040805162461bcd60e51b81526020600482018190526024820152600080516020612988833981519152604482015290519081900360640190fd5b600880546001600160a01b0390921661010002610100600160a81b0319909216919091179055565b61108d33611228565b156110a15761109c82826119f2565b6110ab565b6110ab8282611a8d565b5050565b6005546001600160a01b031690565b6005546000906001600160a01b03166110d561141b565b6001600160a01b031614905090565b60078054604080516020601f60026000196101006001881615020190951694909404938401819004810282018101909252828152606093909290918301828280156109cc5780601f106109a1576101008083540402835291602001916109cc565b611150610bd961141b565b61118b5760405162461bcd60e51b815260040180806020018281038252603081526020018061290f6030913960400191505060405180910390fd5b610d9581611a97565b6111a461119f61141b565b611adf565b565b60006109ea6111b361141b565b84610bc785604051806060016040528060258152602001612ad060259139600260006111dd61141b565b6001600160a01b03908116825260208083019390935260409182016000908120918d1681529252902054919063ffffffff611b2716565b60006109ea61122161141b565b8484611b81565b600061123b60048363ffffffff611c5716565b92915050565b600061124d84846109d6565b61125657600080fd5b61126233858585611743565b5060019392505050565b600a546001600160a01b031681565b6001600160a01b03918216600090815260026020908152604080832093909416825291909152205490565b6000805460ff166112ec576040805162461bcd60e51b815260206004820152601f60248201526000805160206127fe833981519152604482015290519081900360640190fd5b6000805460ff191690556113013380846116bc565b90506000805460ff19166001179055919050565b6000805460ff1661135b576040805162461bcd60e51b815260206004820152601f60248201526000805160206127fe833981519152604482015290519081900360640190fd5b6000805460ff19169055610df3833384611cbe565b6113786110be565b6113b7576040805162461bcd60e51b81526020600482018190526024820152600080516020612988833981519152604482015290519081900360640190fd5b610d9581611e23565b6000805460ff16611406576040805162461bcd60e51b815260206004820152601f60248201526000805160206127fe833981519152604482015290519081900360640190fd5b6000805460ff19169055611301338084611cbe565b3390565b6001600160a01b0383166114645760405162461bcd60e51b8152600401808060200182810382526024815260200180612a346024913960400191505060405180910390fd5b6001600160a01b0382166114a95760405162461bcd60e51b81526004018080602001828103825260228152602001806128666022913960400191505060405180910390fd5b6001600160a01b03808416600081815260026020908152604080832094871680845294825291829020859055815185815291517f8c5be1e5ebec7d5bd14f71427d1e84f3dd0314c0f7b2291e5b200ac8c7c3b9259281900390910190a3505050565b6000611518848484611b81565b6112628461152461141b565b610bc785604051806060016040528060288152602001612960602891396001600160a01b038a1660009081526002602052604081209061156261141b565b6001600160a01b03168152602081019190915260400160002054919063ffffffff611b2716565b6000828201838110156115e3576040805162461bcd60e51b815260206004820152601b60248201527f536166654d6174683a206164646974696f6e206f766572666c6f770000000000604482015290519081900360640190fd5b9392505050565b6115f48282611ec4565b600854600160a81b900460ff16801561161c575060085461010090046001600160a01b031615155b156110ab5760085460408051634a39314960e01b81526000600482018190526001600160a01b03868116602484015260448301869052925161010090940490921692634a39314992606480840193602093929083900390910190829087803b15801561168757600080fd5b505af115801561169b573d6000803e3d6000fd5b505050506040513d60208110156116b157600080fd5b50516110ab57600080fd5b60006116d0836116cb846116ee565b6115ea565b600a54611262906001600160a01b031685308563ffffffff611fb616565b633b9aca000290565b600080825160401461170857600080fd5b505060208101516040909101519091565b60408051602080825281830190925260609160208201818038833950505060208101929092525090565b632139e50b60e11b6117558482612010565b6117905760405162461bcd60e51b81526004018080602001828103825260318152602001806128886031913960400191505060405180910390fd5b60006060856001600160a01b0316838888888860405160240180856001600160a01b03166001600160a01b03168152602001846001600160a01b03166001600160a01b0316815260200183815260200180602001828103825283818151815260200191508051906020019080838360005b83811015611819578181015183820152602001611801565b50505050905090810190601f1680156118465780820380516001836020036101000a031916815260200191505b5060408051601f198184030181529181526020820180516001600160e01b03166001600160e01b0319909a16999099178952518151919890975087965094509250829150849050835b602083106118ae5780518252601f19909201916020918201910161188f565b6001836020036101000a0380198251168184511680821785525050505050509050019150506000604051808303816000865af19150503d8060008114611910576040519150601f19603f3d011682016040523d82523d6000602084013e611915565b606091505b50915091508181906119a55760405162461bcd60e51b81526004018080602001828103825283818151815260200191508051906020019080838360005b8381101561196a578181015183820152602001611952565b50505050905090810190601f1680156119975780820380516001836020036101000a031916815260200191505b509250505060405180910390fd5b5060208101519150816119e95760405162461bcd60e51b8152600401808060200182810382526028815260200180612a586028913960400191505060405180910390fd5b50505050505050565b6119fc828261202c565b600854600160a81b900460ff168015611a24575060085461010090046001600160a01b031615155b156110ab5760085460408051634a39314960e01b81526001600160a01b0385811660048301526000602483018190526044830186905292516101009094041692634a39314992606480840193602093929083900390910190829087803b15801561168757600080fd5b6110ab8282612128565b611aa860048263ffffffff61217c16565b6040516001600160a01b038216907f6ae172837ea30b801fbfcdd4108aa1d5bf8ff775444fd70256b44e6bf3dfc3f690600090a250565b611af060048263ffffffff6121fd16565b6040516001600160a01b038216907fe94479a9f7e1952cc78f2d6baab678adc1b772d936c6583def489e524cb6669290600090a250565b60008184841115611b795760405162461bcd60e51b815260206004820181815283516024840152835190928392604490910191908501908083836000831561196a578181015183820152602001611952565b505050900390565b611b8c838383612264565b600854600160a81b900460ff168015611bb4575060085461010090046001600160a01b031615155b15611c525760085460408051634a39314960e01b81526001600160a01b038681166004830152858116602483015260448201859052915161010090930490911691634a393149916064808201926020929091908290030181600087803b158015611c1d57600080fd5b505af1158015611c31573d6000803e3d6000fd5b505050506040513d6020811015611c4757600080fd5b5051611c5257600080fd5b505050565b60006001600160a01b038216611c9e5760405162461bcd60e51b81526004018080602001828103825260228152602001806129a86022913960400191505060405180910390fd5b506001600160a01b03166000908152602091909152604090205460ff1690565b6000611cca83836119f2565b6000611cd5836123c2565b600a54604080516370a0823160e01b815230600482015290519293506000926001600160a01b03909216916370a0823191602480820192602092909190829003018186803b158015611d2657600080fd5b505afa158015611d3a573d6000803e3d6000fd5b505050506040513d6020811015611d5057600080fd5b5051905081811015611dfa57600a546001600160a01b03166340c10f1930611d7e858563ffffffff6123cc16565b6040518363ffffffff1660e01b815260040180836001600160a01b03166001600160a01b0316815260200182815260200192505050602060405180830381600087803b158015611dcd57600080fd5b505af1158015611de1573d6000803e3d6000fd5b505050506040513d6020811015611df757600080fd5b50505b600a54611e17906001600160a01b0316878463ffffffff61240e16565b50600195945050505050565b6001600160a01b038116611e685760405162461bcd60e51b81526004018080602001828103825260268152602001806128406026913960400191505060405180910390fd5b6005546040516001600160a01b038084169216907f8be0079c531659141344cd1fd0a4f28419497f9722a3daafe3b4186f6b6457e090600090a3600580546001600160a01b0319166001600160a01b0392909216919091179055565b6001600160a01b038216611f1f576040805162461bcd60e51b815260206004820152601f60248201527f45524332303a206d696e7420746f20746865207a65726f206164647265737300604482015290519081900360640190fd5b600354611f32908263ffffffff61158916565b6003556001600160a01b038216600090815260016020526040902054611f5e908263ffffffff61158916565b6001600160a01b03831660008181526001602090815260408083209490945583518581529351929391927fddf252ad1be2c89b69c2b068fc378daa952ba7f163c4a11628f55a4df523b3ef9281900390910190a35050565b604080516001600160a01b0385811660248301528416604482015260648082018490528251808303909101815260849091019091526020810180516001600160e01b03166323b872dd60e01b17905261093a90859061245c565b600061201b83612614565b80156115e357506115e38383612647565b6001600160a01b0382166120715760405162461bcd60e51b81526004018080602001828103825260218152602001806129ee6021913960400191505060405180910390fd5b6120b48160405180606001604052806022815260200161281e602291396001600160a01b038516600090815260016020526040902054919063ffffffff611b2716565b6001600160a01b0383166000908152600160205260409020556003546120e0908263ffffffff6123cc16565b6003556040805182815290516000916001600160a01b038516917fddf252ad1be2c89b69c2b068fc378daa952ba7f163c4a11628f55a4df523b3ef9181900360200190a35050565b61213282826119f2565b6110ab8261213e61141b565b610bc7846040518060600160405280602481526020016129ca602491396001600160a01b03881660009081526002602052604081209061156261141b565b6121868282611c57565b156121d8576040805162461bcd60e51b815260206004820152601f60248201527f526f6c65733a206163636f756e7420616c72656164792068617320726f6c6500604482015290519081900360640190fd5b6001600160a01b0316600090815260209190915260409020805460ff19166001179055565b6122078282611c57565b6122425760405162461bcd60e51b815260040180806020018281038252602181526020018061293f6021913960400191505060405180910390fd5b6001600160a01b0316600090815260209190915260409020805460ff19169055565b6001600160a01b0383166122a95760405162461bcd60e51b8152600401808060200182810382526025815260200180612a0f6025913960400191505060405180910390fd5b6001600160a01b0382166122ee5760405162461bcd60e51b81526004018080602001828103825260238152602001806127db6023913960400191505060405180910390fd5b612331816040518060600160405280602681526020016128b9602691396001600160a01b038616600090815260016020526040902054919063ffffffff611b2716565b6001600160a01b038085166000908152600160205260408082209390935590841681522054612366908263ffffffff61158916565b6001600160a01b0380841660008181526001602090815260409182902094909455805185815290519193928716927fddf252ad1be2c89b69c2b068fc378daa952ba7f163c4a11628f55a4df523b3ef92918290030190a3505050565b633b9aca00900490565b60006115e383836040518060400160405280601e81526020017f536166654d6174683a207375627472616374696f6e206f766572666c6f770000815250611b27565b604080516001600160a01b038416602482015260448082018490528251808303909101815260649091019091526020810180516001600160e01b031663a9059cbb60e01b179052611c529084905b61246e826001600160a01b031661266d565b6124bf576040805162461bcd60e51b815260206004820152601f60248201527f5361666545524332303a2063616c6c20746f206e6f6e2d636f6e747261637400604482015290519081900360640190fd5b60006060836001600160a01b0316836040518082805190602001908083835b602083106124fd5780518252601f1990920191602091820191016124de565b6001836020036101000a0380198251168184511680821785525050505050509050019150506000604051808303816000865af19150503d806000811461255f576040519150601f19603f3d011682016040523d82523d6000602084013e612564565b606091505b5091509150816125bb576040805162461bcd60e51b815260206004820181905260248201527f5361666545524332303a206c6f772d6c6576656c2063616c6c206661696c6564604482015290519081900360640190fd5b80511561093a578080602001905160208110156125d757600080fd5b505161093a5760405162461bcd60e51b815260040180806020018281038252602a815260200180612aa6602a913960400191505060405180910390fd5b6000612627826301ffc9a760e01b612647565b801561123b5750612640826001600160e01b0319612647565b1592915050565b600080600061265685856126a6565b915091508180156126645750805b95945050505050565b6000813f7fc5d2460186f7233c927e7db2dcc703c0e500b653ca82273b7bfad8045d85a470818114801590610a60575050151592915050565b604080516001600160e01b0319831660248083019190915282518083039091018152604490910182526020810180516001600160e01b03166301ffc9a760e01b1781529151815160009384939284926060926001600160a01b038a169261753092879282918083835b6020831061272e5780518252601f19909201916020918201910161270f565b6001836020036101000a0380198251168184511680821785525050505050509050019150506000604051808303818686fa925050503d806000811461278f576040519150601f19603f3d011682016040523d82523d6000602084013e612794565b606091505b50915091506020815110156127b257600080945094505050506127d3565b818180602001905160208110156127c857600080fd5b505190955093505050505b925092905056fe45524332303a207472616e7366657220746f20746865207a65726f20616464726573735265656e7472616e637947756172643a207265656e7472616e742063616c6c0045524332303a206275726e20616d6f756e7420657863656564732062616c616e63654f776e61626c653a206e6577206f776e657220697320746865207a65726f206164647265737345524332303a20617070726f766520746f20746865207a65726f206164647265737345524332304f6e417070726f76653a207370656e64657220646f65736e277420737570706f7274206f6e417070726f766545524332303a207472616e7366657220616d6f756e7420657863656564732062616c616e636553656967546f6b656e3a206f6e6c792073656e646572206f7220726563697069656e742063616e207472616e736665724d696e746572526f6c653a2063616c6c657220646f6573206e6f74206861766520746865204d696e74657220726f6c65526f6c65733a206163636f756e7420646f6573206e6f74206861766520726f6c6545524332303a207472616e7366657220616d6f756e74206578636565647320616c6c6f77616e63654f776e61626c653a2063616c6c6572206973206e6f7420746865206f776e6572526f6c65733a206163636f756e7420697320746865207a65726f206164647265737345524332303a206275726e20616d6f756e74206578636565647320616c6c6f77616e636545524332303a206275726e2066726f6d20746865207a65726f206164647265737345524332303a207472616e736665722066726f6d20746865207a65726f206164647265737345524332303a20617070726f76652066726f6d20746865207a65726f206164647265737345524332304f6e417070726f76653a206661696c656420746f2063616c6c206f6e417070726f766557544f4e3a206f6e6c792061636365707420544f4e20617070726f76652063616c6c6261636b5361666545524332303a204552433230206f7065726174696f6e20646964206e6f74207375636365656445524332303a2064656372656173656420616c6c6f77616e63652062656c6f77207a65726fa265627a7a72315820010dd93f8a1d0c796016b02764076b897e337679428d94b502547cd3b00c209264736f6c634300050c0032526f6c65733a206163636f756e7420697320746865207a65726f2061646472657373",
  "source": "pragma solidity ^0.5.12;\n\nimport { Ownable } from \"../../../node_modules/openzeppelin-solidity/contracts/ownership/Ownable.sol\";\nimport { SafeMath } from \"../../../node_modules/openzeppelin-solidity/contracts/math/SafeMath.sol\";\n\nimport { IERC20 } from \"../../../node_modules/openzeppelin-solidity/contracts/token/ERC20/IERC20.sol\";\nimport { ERC20 } from \"../../../node_modules/openzeppelin-solidity/contracts/token/ERC20/ERC20.sol\";\nimport { ERC20Mintable } from \"../../../node_modules/openzeppelin-solidity/contracts/token/ERC20/ERC20Mintable.sol\";\nimport { ERC20Burnable } from \"../../../node_modules/openzeppelin-solidity/contracts/token/ERC20/ERC20Burnable.sol\";\nimport { ERC20Detailed } from \"../../../node_modules/openzeppelin-solidity/contracts/token/ERC20/ERC20Detailed.sol\";\nimport { SafeERC20 } from \"../../../node_modules/openzeppelin-solidity/contracts/token/ERC20/SafeERC20.sol\";\n\nimport { ReentrancyGuard } from \"../../../node_modules/openzeppelin-solidity/contracts/utils/ReentrancyGuard.sol\";\nimport { ERC165 } from \"../../../node_modules/openzeppelin-solidity/contracts/introspection/ERC165.sol\";\nimport { ERC165Checker } from \"../../../node_modules/openzeppelin-solidity/contracts/introspection/ERC165Checker.sol\";\n\nimport { DSMath } from \"../../../node_modules/coinage-token/contracts/lib/DSMath.sol\";\n\nimport { SeigManagerI } from \"../interfaces/SeigManagerI.sol\";\n\nimport { SeigToken } from \"./SeigToken.sol\";\nimport { OnApprove } from \"./OnApprove.sol\";\n\n\ncontract WTON is DSMath, ReentrancyGuard, Ownable, ERC20Mintable, ERC20Burnable, ERC20Detailed, SeigToken, OnApprove {\n  using SafeERC20 for ERC20Mintable;\n\n  ERC20Mintable public ton;\n\n  constructor (\n    ERC20Mintable _ton\n  )\n    public\n    ERC20Detailed(\"Wrapped TON\", \"WTON\", 27)\n  {\n    require(ERC20Detailed(address(_ton)).decimals() == 18, \"WTON: decimals of TON must be 18\");\n    ton = _ton;\n  }\n\n  //////////////////////\n  // TON Approve callback\n  //////////////////////\n\n  function onApprove(\n    address owner,\n    address spender,\n    uint256 tonAmount,\n    bytes calldata data\n  ) external returns (bool) {\n    require(msg.sender == address(ton), \"WTON: only accept TON approve callback\");\n\n    // swap owner's TON to WTON\n    _swapFromTON(owner, owner, tonAmount);\n\n    uint256 wtonAmount = _toRAY(tonAmount);\n    (address depositManager, address rootchain) = _decodeTONApproveData(data);\n\n    // approve WTON to DepositManager\n    _approve(owner, depositManager, wtonAmount);\n\n    // call DepositManager.onApprove to deposit WTON\n    bytes memory depositManagerOnApproveData = _encodeDepositManagerOnApproveData(rootchain);\n    _callOnApprove(owner, depositManager, wtonAmount, depositManagerOnApproveData);\n\n    return true;\n  }\n\n  /**\n   * @dev data is 64 bytes of 2 addresses in left-padded 32 bytes\n   */\n  function _decodeTONApproveData(\n    bytes memory data\n  ) internal pure returns (address depositManager, address rootchain) {\n    require(data.length == 0x40);\n\n    assembly {\n      depositManager := mload(add(data, 0x20))\n      rootchain := mload(add(data, 0x40))\n    }\n  }\n\n  function _encodeDepositManagerOnApproveData(\n    address rootchain\n  ) internal pure returns (bytes memory data) {\n    data = new bytes(0x20);\n\n    assembly {\n      mstore(add(data, 0x20), rootchain)\n    }\n  }\n\n\n  //////////////////////\n  // Override ERC20 functions\n  //////////////////////\n\n  function burnFrom(address account, uint256 amount) public {\n    if (isMinter(msg.sender)) {\n      _burn(account, amount);\n      return;\n    }\n\n    super.burnFrom(account, amount);\n  }\n\n  //////////////////////\n  // Swap functions\n  //////////////////////\n\n  /**\n   * @dev swap WTON to TON\n   */\n  function swapToTON(uint256 wtonAmount) public nonReentrant returns (bool) {\n    return _swapToTON(msg.sender, msg.sender, wtonAmount);\n  }\n\n  /**\n   * @dev swap TON to WTON\n   */\n  function swapFromTON(uint256 tonAmount) public nonReentrant returns (bool) {\n    return _swapFromTON(msg.sender, msg.sender, tonAmount);\n  }\n\n  /**\n   * @dev swap WTON to TON, and transfer TON\n   * NOTE: TON's transfer event's `from` argument is not `msg.sender` but `WTON` address.\n   */\n  function swapToTONAndTransfer(address to, uint256 wtonAmount) public nonReentrant returns (bool) {\n    return _swapToTON(to, msg.sender, wtonAmount);\n  }\n\n  /**\n   * @dev swap TON to WTON, and transfer WTON\n   */\n  function swapFromTONAndTransfer(address to, uint256 tonAmount) public nonReentrant returns (bool) {\n    return _swapFromTON(msg.sender, to, tonAmount);\n  }\n\n  function renounceTonMinter() external onlyOwner {\n    ton.renounceMinter();\n  }\n\n  //////////////////////\n  // Internal functions\n  //////////////////////\n\n  function _swapToTON(address tonAccount, address wtonAccount, uint256 wtonAmount) internal returns (bool) {\n    _burn(wtonAccount, wtonAmount);\n\n    // mint TON if WTON contract has not enough TON to transfer\n    uint256 tonAmount = _toWAD(wtonAmount);\n    uint256 tonBalance = ton.balanceOf(address(this));\n    if (tonBalance < tonAmount) {\n      ton.mint(address(this), tonAmount.sub(tonBalance));\n    }\n\n    ton.safeTransfer(tonAccount, tonAmount);\n    return true;\n  }\n\n  function _swapFromTON(address tonAccount, address wtonAccount, uint256 tonAmount) internal returns (bool) {\n    _mint(wtonAccount, _toRAY(tonAmount));\n    ton.safeTransferFrom(tonAccount, address(this), tonAmount);\n    return true;\n  }\n\n  /**\n   * @dev transform WAD to RAY\n   */\n  function _toRAY(uint256 v) internal pure returns (uint256) {\n    return v * 10 ** 9;\n  }\n\n  /**\n   * @dev transform RAY to WAD\n   */\n  function _toWAD(uint256 v) internal pure returns (uint256) {\n    return v / 10 ** 9;\n  }\n}\n",
  "sourcePath": "/home/modagi/github/onther/plasma-evm-contracts/contracts/stake/tokens/WTON.sol",
  "compiler": {
    "name": "solc",
    "version": "0.5.12+commit.7709ece9.Emscripten.clang"
  },
  "schemaVersion": "3.2.0",
  "updatedAt": "2020-09-06T06:15:23.062Z",
  "networkType": "ethereum",
  "devdoc": {
    "methods": {
      "allowance(address,address)": {
        "details": "See {IERC20-allowance}."
      },
      "approve(address,uint256)": {
        "details": "See {IERC20-approve}.     * Requirements:     * - `spender` cannot be the zero address."
      },
      "balanceOf(address)": {
        "details": "See {IERC20-balanceOf}."
      },
      "burn(uint256)": {
        "details": "Destroys `amount` tokens from the caller.     * See {ERC20-_burn}."
      },
      "decimals()": {
        "details": "Returns the number of decimals used to get its user representation. For example, if `decimals` equals `2`, a balance of `505` tokens should be displayed to a user as `5,05` (`505 / 10 ** 2`).     * Tokens usually opt for a value of 18, imitating the relationship between Ether and Wei.     * NOTE: This information is only used for _display_ purposes: it in no way affects any of the arithmetic of the contract, including {IERC20-balanceOf} and {IERC20-transfer}."
      },
      "decreaseAllowance(address,uint256)": {
        "details": "Atomically decreases the allowance granted to `spender` by the caller.     * This is an alternative to {approve} that can be used as a mitigation for problems described in {IERC20-approve}.     * Emits an {Approval} event indicating the updated allowance.     * Requirements:     * - `spender` cannot be the zero address. - `spender` must have allowance for the caller of at least `subtractedValue`."
      },
      "increaseAllowance(address,uint256)": {
        "details": "Atomically increases the allowance granted to `spender` by the caller.     * This is an alternative to {approve} that can be used as a mitigation for problems described in {IERC20-approve}.     * Emits an {Approval} event indicating the updated allowance.     * Requirements:     * - `spender` cannot be the zero address."
      },
      "isOwner()": {
        "details": "Returns true if the caller is the current owner."
      },
      "mint(address,uint256)": {
        "details": "See {ERC20-_mint}.     * Requirements:     * - the caller must have the {MinterRole}."
      },
      "name()": {
        "details": "Returns the name of the token."
      },
      "owner()": {
        "details": "Returns the address of the current owner."
      },
      "renounceOwnership()": {
        "details": "Leaves the contract without owner. It will not be possible to call `onlyOwner` functions anymore. Can only be called by the current owner.     * NOTE: Renouncing ownership will leave the contract without an owner, thereby removing any functionality that is only available to the owner."
      },
      "supportsInterface(bytes4)": {
        "details": "See {IERC165-supportsInterface}.     * Time complexity O(1), guaranteed to always use less than 30 000 gas."
      },
      "swapFromTON(uint256)": {
        "details": "swap TON to WTON"
      },
      "swapFromTONAndTransfer(address,uint256)": {
        "details": "swap TON to WTON, and transfer WTON"
      },
      "swapToTON(uint256)": {
        "details": "swap WTON to TON"
      },
      "swapToTONAndTransfer(address,uint256)": {
        "details": "swap WTON to TON, and transfer TON NOTE: TON's transfer event's `from` argument is not `msg.sender` but `WTON` address."
      },
      "symbol()": {
        "details": "Returns the symbol of the token, usually a shorter version of the name."
      },
      "totalSupply()": {
        "details": "See {IERC20-totalSupply}."
      },
      "transfer(address,uint256)": {
        "details": "See {IERC20-transfer}.     * Requirements:     * - `recipient` cannot be the zero address. - the caller must have a balance of at least `amount`."
      },
      "transferOwnership(address)": {
        "details": "Transfers ownership of the contract to a new account (`newOwner`). Can only be called by the current owner."
      }
    }
  },
  "userdoc": {
    "methods": {
      "burnFrom(address,uint256)": {
        "notice": "///////////////////"
      },
      "onApprove(address,address,uint256,bytes)": {
        "notice": "///////////////////"
      },
      "transferFrom(address,address,uint256)": {
        "notice": "///////////////////"
      }
    }
  }
}